:100000000C9400020C94A0600C9475600C944A60EF
:100010000C941F600C94F45F0C94C95F0C949E5F69
:100020000C94735F0C9431020C9431020C942B618C
:100030000C9431020C9431020C9431020C94310274
:100040000C9431020C9431020C9431020C94310264
:100050000C9431020C9431020C9431020C94295FFF
:100060000C9431020C94F5600C94CB600C9431022A
:100070000C9431020C9431020C9431020C94310234
:100080000C9431020C9431020C9431020C94310224
:100090000C9431020C9431020C9431020C94310214
:1000A0000C9431020C9431020C9431020C94310204
:1000B0000C9431020C9431020C9431020C943102F4
:1000C0000C9431020C9431020C9431020C943102E4
:1000D0000C9431020C9431020C9431020C943102D4
:1000E0000C9431020C94CF0F0C94AE610C94590A0D
:1000F0000C9481080C94EA1F0C94775E0C945D09B3
:100100000C94CC090C94F5180C9495090C940719CF
:100110000C9450090C9473080C947C080C945708A8
:100120000C944A080C9493180C94EB180C947708D0
:100130000C94225C0C94C70F0C94641F0C941A1935
:100140000C94BC270C94744C0C9410190C94704CA7
:100150000C94764C0C949F090C94724C0C944E08A1
:100160000C946A5C0C940A190C94C20A0C947D08D5
:100170000C94345E0C94C2090C9458090C942B0A0C
:100180000C9413190C947C0A0C9465080C94E009E7
:100190000C946F080C94B8090C9469080C94FE1820
:1001A0000C942A0B0C942C0A0C94F8180C947B09D0
:1001B0000C94D35D0C94D6090C949C5C0C94680A46
:1001C0000C945B080C94EA090C9467090C9483095D
:1001D0000C948B090C9442080C940E5D0C94945D65
:1001E0000C9446080C94651F0C9461080C947109DA
:1001F0000C94A9090C943C080C948A0A0C9451089C
:100200004E414E494E495459494E46CDCCCC3D0AFB
:10021000D7233C17B7D13877CC2B329595E6241FDE
:10022000B14F0A000020410000C84200401C462097
:10023000BCBE4CCA1B0E5AAEC59D74434F4D4D41BA
:100240004E445F52454A454354454400434F4D4D4B
:10025000414E445F4F4B0043414C49425241544947
:100260004F4E5F52455155495245445F4F5554508A
:100270005554535F494E484942495445440043410F
:100280004C4942524154494F4E5F5245434F5244AC
:100290005F56345F4C4F41444544004D41544552F4
:1002A00049414C5F53454C454354494F4E5F52457D
:1002B0005155495245440020524541445920534527
:1002C0005249414C5F544558545F4241434B454E5F
:1002D000440020626173653D0050505220000000D0
:1002E0002100240027002A002D00300033000101E6
:1002F0000000040107010A01000022002500280077
:100300002B002E003100340002010000050108011D
:100310000B01000020002300260029002C002F00E4
:100320003200000100000301060109010505050571
:10033000070508080808020202020A0A080804045D
:10034000040401010101010101010303030303038B
:100350000303040707070C0C0C0C0C0C0C0C02021A
:10036000020206060606060606060B0B0B0B0B0B17
:100370000B0B0102102020080810204010204080A4
:100380000201020108040201010204081020408059
:1003900080402010080402018004020180402010E7
:1003A0000804020108040201010204081020408030
:1003B000010204081020408000000A0B02090C0D05
:1003C0000E08070304010000000000000000000008
:1003D000000000000000000000000000000000001D
:1003E00000000000121110000000000000000000DA
:1003F0000000000000000000000000000000AE61EE
:1004000011241FBECFEFD1E2DEBFCDBF00E00CBF95
:1004100024E1ACECB8E001C01D92A537B207E1F7CA
:1004200018E0A0E0B2E0ECEBF5EE00E00BBF02C09C
:1004300007900D92AC3CB107D9F711E0C0E0D2E0D3
:1004400000E006C021970109802FFE010E94A66EE0
:10045000CF3FD10780E00807A9F70E94B8650C9448
:10046000DC720C9400009091AD1091110AC0909133
:10047000B010981306C09730A1F028F487E09630AA
:1004800089F080E00895983089F09930D1F7809113
:10049000AF108093AE101092AF10813049F082E01F
:1004A00001C088E08093B01081E0089589E0FACF20
:1004B00081E0F8CFFC018081882349F08181882385
:1004C00031F08281882319F0838181118781089519
:1004D00010926A1310926B1310926C1310926D139A
:1004E00010926E1310926F1310927013109271137A
:1004F00010927213109273131092741308958091D6
:10050000AE10813031F49091B010913049F080E01C
:1005100007C08230E1F781E09091B0109230B9F7D6
:1005200008959091AD10911119C09091AE1099233A
:1005300011F0891313C08093AE101092AF10813068
:1005400059F082E08093B0100E94680210929D13CF
:1005500010929E1381E0089581E0F4CF80E0089529
:1005600080914213882309F1809143138823E9F095
:10057000809144138823C9F0809145138823A9F002
:1005800080914613882389F080914713882369F06E
:1005900080914813882349F080914A13882329F0D9
:1005A00080914B13811180914C1308954F925F926B
:1005B0006F927F928F929F92AF92BF92CF92DF9273
:1005C000EF92FF920F931F93CF93DF938C015A0109
:1005D000CB0103978A3F934030F4C1E0CA010397EF
:1005E0008A3F934008F0C0E0D0919E11DD2309F4CA
:1005F0009CC0222309F499C0CC2309F497C090E051
:1006000080E00E94AF6A20918A1130918B11409155
:100610008C1150918D110E94016C20918E1130919E
:100620008F1140919011509191110E94106B6B01AC
:100630007C01B50190E080E00E94AF6A20919211A8
:100640003091931140919411509195110E94016C39
:1006500020919611309197114091981150919911D4
:100660000E94106B4B015C0140909A1150909B11BD
:1006700060909C1170909D11C0929F11D092A0111A
:10068000E092A111F092A2118092A3119092A41174
:10069000A092A511B092A611A7019601C501B401BF
:1006A0000E94026C20E030E040E05FE30E94106BAB
:1006B0006093A7117093A8118093A9119093AA1128
:1006C000A5019401C701B6010E94016C9F77609358
:1006D000AB117093AC118093AD119093AE11409219
:1006E000AF115092B0116092B1117092B211C093DB
:1006F000B311D093B41186E1EFE9F1E1D801019093
:100700000D928A95E1F7C801DF91CF911F910F916A
:10071000FF90EF90DF90CF90BF90AF909F908F9021
:100720007F906F905F904F900895C0E0C12CD12CC6
:1007300076014601570198CF8091411380934E1363
:100740008091481380934F138091491380935013E5
:1007500080914D13809351138091441381118091A6
:100760004313809352130895CF93DF93EC0120E05D
:1007700030E040E85FE3688179818A819B810E9453
:100780000E6E18160CF04AC020E030E0A9016C8112
:100790007D818E819F810E940E6E18160CF03EC0E6
:1007A00020E030E040E85FE3688579858A859B85B5
:1007B0000E940E6E181694F58C859D85892B71F11B
:1007C00081E0809308138EE0FE01AAEFB2E1019070
:1007D0000D928A95E1F781E01092091310920A13A5
:1007E00010920B1310920C1310920D1310920E1303
:1007F00010920F13109210131092111310921213E3
:1008000010921313109214131092151310921613C2
:1008100091E090931713DF91CF91089510920813F0
:1008200080E0DACFCF92DF92EF92FF920F931F9387
:10083000CF938C01FC01C489CC23B9F120E030E0D6
:10084000A90164817581868197810E94AA6A181620
:10085000D4F520E030E0A901F8016485758586852E
:1008600097850E94AA6A181674F5F801C088D18885
:10087000E288F38820E030E0A901C701B6010E94B8
:10088000AA6A181604F52DEC3CEC4CE45DE3C701B4
:10089000B6010E940E6E1816B4F085E1F801AAE8C0
:1008A000B1E101900D928A95E1F7C09348130E943F
:1008B0009C0380914813CF911F910F91FF90EF906F
:1008C000DF90CF900895C0E0F0CF10925D131092AA
:1008D000291310922A1310922B1310922C1310929A
:1008E0002D1310922E1310922F131092301310927A
:1008F000311310923213109233131092341310925A
:1009000035131092361310923B1310923C13109231
:100910003D1310923E1310923F1310921713109232
:1009200011131092121310921313109214131092A9
:100930001513E5E1F4E18AE0DF011D928A95E9F7FC
:10094000E7E0F4E18EE0DF011D928A95E9F710926D
:100950005A1381E080935B1308953F924F925F9208
:100960006F927F928F929F92AF92BF92CF92DF92BF
:10097000EF92FF920F931F93CF93DF9300D000D09D
:1009800000D01F92CDB7DEB79E838D83F091AD105E
:1009900030906A13EBE0FA30D1F1F93039F48091FC
:1009A0005913E9E0811133C0EAE031C0E2E03110CF
:1009B0002EC0F23049F580915813E3E0811127C031
:1009C000809154139FEF980FE6E0923000F1E7E03A
:1009D0008330E9F0E8E08430D1F0E4E0F11117C0B1
:1009E00080914F13882371F080915113882351F027
:1009F00080914A13882331F080914B13E091531377
:100A0000811105C0E0E003C0E5E0F430C9F6809153
:100A1000821390918313A0918413B0918513412C7C
:100A2000512C32010097A105B10531F02A013B019B
:100A3000481A590A6A0A7B0A809186139091871393
:100A4000A0918813B0918913812C912C54010097A7
:100A5000A105B10531F04A015B01881A990AAA0A79
:100A6000BB0A80917A1390917B13A0917C13B09173
:100A70007D13C12CD12C76010097A105B10531F071
:100A80006A017B01C81AD90AEA0AFB0A80915F133E
:100A9000882309F461C18091611390916213A09140
:100AA0006313B09164138A019B01081B190B2A0B75
:100AB0003B0B0F83188729873A8780916B13882314
:100AC00009F44FC180916D1390916E13A0916F1333
:100AD000B09170138A019B01081B190B2A0B3B0B69
:100AE00009831A832B833C8380916C13882309F438
:100AF0003DC18091711390917213A0917313B091C5
:100B00007413481B590B6A0B7B0BAD81BE81EC93B0
:100B10001196FC9311978091B01012968C931297B6
:100B20008091541313968C931397E0915513F09181
:100B300056131596FC93EE93149794E1E0E4F3E1D9
:100B4000169601900D929A95E1F790915E13ED81C2
:100B5000FE81928F90915713938F90915A13948F97
:100B600090915B13958F90915C13968F90919D134C
:100B7000978FE0918711F0918811AD81BE81919698
:100B8000FC93EE93909791E0E091D510E53009F059
:100B900090E0ED81FE8192A390918A1393A344A2E9
:100BA00055A266A277A280A691A6A2A6B3A6C4A6C5
:100BB000D5A6E6A6F7A60F81188529853A8500AB4C
:100BC00011AB22AB33AB34AA09811A812B813C8152
:100BD00005AB16AB27AB30AF41AF52AF63AF74AFCD
:100BE00091E0843009F090E0AD81BE81DD969C9368
:100BF000DD97FD01FE968091A0139091A113A09125
:100C0000A213B091A31380839183A283B383ED8158
:100C1000FE81EE5BFF4F80918F1390919013A09116
:100C20009113B091921380839183A283B383ED815A
:100C3000FE81EA5BFF4F809197138083ED81FE81F7
:100C4000E95BFF4F80919E138083AD81BE81A85BDD
:100C5000BF4F8DE1EDEAF3E101900D928A95E1F746
:100C6000AD81BE81AB59BF4F86E1EAECF3E1019063
:100C70000D928A95E1F7AD81BE81A558BF4F88E0FE
:100C8000E0EEF3E101900D928A95E1F7AD81BE812E
:100C9000AD57BF4F8FE1E8EEF3E101900D928A95D9
:100CA000E1F7AD81BE81AE55BF4F8EE0E7E0F4E1E4
:100CB00001900D928A95E1F7AD81BE81A055BF4F9D
:100CC0008AE0E5E1F4E101900D928A95E1F7AD81CA
:100CD000BE81A654BF4F8CE4EFE1F4E101900D9288
:100CE0008A95E1F7ED81FE81EA5FFE4F80916B14FA
:100CF00090916C14A0916D14B0916E1480839183C7
:100D0000A283B383ED81FE81E65FFE4F809176136F
:100D100090917713A0917813B09179138083918388
:100D2000A283B3838D819E812A960FB6F894DEBF8D
:100D30000FBECDBFDF91CF911F910F91FF90EF902C
:100D4000DF90CF90BF90AF909F908F907F906F90EB
:100D50005F904F903F9008951F82188619861A86DB
:100D6000ACCE19821A821B821C82BECE40E050E0BB
:100D7000BA01CBCECF92DF92EF92FF920F931F93E7
:100D8000CF938C016A017B01E091AD1088E0E89F70
:100D9000F0011124EC57FB4FC481CC23B9F08091B2
:100DA0005413882311F0833081F4C1E020E030E057
:100DB000A9016091AD137091AE138091AF13909122
:100DC000B0130E940E6E18160CF0C0E0F801878177
:100DD00090850097B1F4C11114C01092A61310921F
:100DE000A7131092A8131092A9131092AA1310928D
:100DF000AB13CF911F910F91FF90EF90DF90CF90A9
:100E000008952091A6132111F4CF892B11F4CC233E
:100E100081F381E08093A6131092A713C092A813C8
:100E2000D092A913E092AA13F092AB13E2CFAF9243
:100E3000BF92CF92DF92FF920F931F93CF93DF93D6
:100E4000CDB7DEB764970FB6F894DEBF0FBECDBF47
:100E50008C01F090AD106AE0F61258C084E1A1E276
:100E6000B0E0AC0FBD1F1D928A95E9F7FE01F19627
:100E700090E09E012B5C3F4F81919111892F982F1B
:100E80002E173F07C9F729A13AA14AA55BA59FA53F
:100E9000F80174966F01B8016E5D7E4F5B012115FC
:100EA000310509F059C06BA1611156C06EA17FA137
:100EB000672B09F051C068A579A5672B09F04CC0D4
:100EC0004115510509F0B6C0911149C079E0F712FA
:100ED000A1C0811169C04DA95EA96FA978ADCE01ED
:100EE00081960E94BA0684E1FE01B196D801019074
:100EF0000D928A95E1F74DA95EA96FA978ADC6015B
:100F00000E94AD0481E0F501808373C0B9E0FB125B
:100F1000ADCFFE01319684E1DF011D928A95E9F79C
:100F20008091AE108823B1F080915E13882391F0F8
:100F30008091551382FD0EC08091751381110AC0F6
:100F40008CA58C8784E1DE01919601900D928A95A3
:100F5000E1F78CCF80E0F5CF992309F462C090913E
:100F60001514992341F0909129139350452B19F4AE
:100F7000923008F059C091E0232B49F02EA13FA1F7
:100F8000232B91F4811110C0992309F451C0809151
:100F90005A13882349F0809129138350823020F41A
:100FA0000E94B002811192CF89E08093AD1084E15C
:100FB000F82EA1E2B0E0AC0FBD1FEF2D1D92EA9517
:100FC000E9F74DA95EA96FA978ADCE0181960E947F
:100FD000BA06FE01B196D80101900D92FA94E1F79C
:100FE0004DA95EA96FA978ADC6010E94AD04D501D7
:100FF0001C92C80164960FB6F894DEBF0FBECDBF39
:10100000DF91CF911F910F91FF90DF90CF90BF9014
:10101000AF9008959AE0F9125ECF8111C5CF8CA5EB
:1010200058CF452B09F0A7CF90E0232B09F0A6CF8E
:1010300081E04CCF992309F49ECF91CF815082312A
:1010400008F05AC0E82FF0E08827E65DF74F8F4F91
:101050000C94A66E4A084E083C08420846087C08D4
:10106000510857085B086108650869086F0873082C
:101070007C0877087D088108809180008F778093B5
:1010800080000895809180008F7DF9CF809180004D
:10109000877FF5CF84B58F7784BD089584B58F7D24
:1010A000FBCF8091B0008F778093B000089580913E
:1010B000B0008F7DF9CF809190008F778093900062
:1010C0000895809190008F7DF9CF80919000877F67
:1010D000F5CF8091A0008F778093A0000895809134
:1010E000A0008F7DF9CF8091A000877FF5CF809100
:1010F00020018F77809320010895809120018F7DBA
:10110000F9CF80912001877FF5CFCF93DF93282FF0
:1011100030E0F901E854FC4F8491F901EE58FC4F9E
:10112000D491F901E45DFC4FC491CC23A1F081116D
:101130000E941E08EC2FF0E0EE0FFF1FEE5EFC4F4A
:10114000A591B491EC91ED2381E090E009F480E069
:10115000DF91CF91089580E090E0FACF1F93CF9375
:10116000DF93282F30E0F901E854FC4F8491F90116
:10117000EE58FC4FD491F901E45DFC4FC491CC23AF
:10118000A9F0162F81110E941E08EC2FF0E0EE0F3F
:10119000FF1FE850FD4FA591B4918FB7F894EC91E3
:1011A000111108C0D095DE23DC938FBFDF91CF9162
:1011B0001F910895DE2BF8CFCF93DF9390E0FC01D1
:1011C000EE58FC4F2491845D9C4FFC018491882350
:1011D000C9F090E0880F991FFC01E252FD4FA591E4
:1011E000B491FC01E850FD4FC591D49161110DC03F
:1011F0009FB7F8948C91209582238C938881282323
:1012000028839FBFDF91CF910895623051F49FB73B
:10121000F8943C91822F809583238C93E8812E2B28
:10122000EFCF8FB7F894EC912E2B2C938FBFEACF92
:101230001F93CF93DF93182FEB0161E00E94DC082E
:10124000209739F460E0812FDF91CF911F910C94AA
:10125000AE08CF3FD10511F461E0F5CFE12FF0E00A
:10126000E854FC4FE491E150E23108F0B3C0F0E003
:101270008827E25CF64F8F4F0C94A66E50095809F0
:101280005D0967097109EA097B0983098B099509D9
:101290009F09A909B809C209EA09CC09D609E009D8
:1012A00084B5806884BDC7BDDF91CF911F9108953B
:1012B00084B5806284BDC8BDF7CF8091800080680E
:1012C00080938000D0938900C0938800EDCF8091F7
:1012D0008000806280938000D0938B00C0938A004E
:1012E000E3CF80918000886080938000D0938D0050
:1012F000C0938C00D9CF8091B00080688093B000FB
:10130000C093B300D1CF8091B00080628093B000D1
:10131000C093B400C9CF8091900080688093900002
:10132000D0939900C0939800BFCF809190008062C5
:1013300080939000D0939B00C0939A00B5CF80918A
:101340009000886080939000D0939D00C0939C0093
:10135000ABCF8091A00080688093A0008091A00016
:101360008F7B8093A000D093A900C093A8009CCF4E
:101370008091A00080628093A000D093AB00C093C6
:10138000AA0092CF8091A00088608093A000D093A3
:10139000AD00C093AC0088CF80912001806880931D
:1013A0002001D0932901C09328017ECF8091200194
:1013B000806280932001D0932B01C0932A0174CFC7
:1013C00080912001886080932001D0932D01C093EB
:1013D0002C016ACFC038D1050CF03ECF33CF9091AD
:1013E0007B00977F90937B008653806480937C0082
:1013F00080917A00806480937A0080917A0086FDE3
:10140000FCCF809178009091790008953FB7F894CF
:101410008091CE0D9091CF0DA091D00DB091D10DB6
:1014200026B5A89B05C02F3F19F00196A11DB11D3F
:101430003FBFBA2FA92F982F8827BC01CD01620F7B
:10144000711D811D911D42E0660F771F881F991F36
:101450004A95D1F708950895AF92BF92CF92DF9247
:10146000EF92FF920F931F93CF93DF936C017B0159
:101470008B01040F151FEB015E01AE18BF08C017EA
:10148000D10759F06991D601ED91FC910190F0815D
:10149000E02DC6011995892B79F7C501DF91CF9110
:1014A0001F910F91FF90EF90DF90CF90BF90AF9082
:1014B0000895FC01538D448D252F30E0842F90E05A
:1014C000821B930B541710F0CF960895019708953F
:1014D000FC01918D828D981761F0A28DAE0FBF2F08
:1014E000B11D5D968C91928D9F5F9F73928F90E05E
:1014F00008958FEF9FEF0895FC01918D828D9817CD
:1015000031F0828DE80FF11D858D90E008958FEF09
:101510009FEF0895FC01918D228D892F90E0805CD2
:101520009F4F821B91098F739927089582ED9DE04B
:101530000E948A0A21E0892B09F420E0822F089575
:10154000FC01A48DA80FB92FB11DA35ABF4F2C9138
:10155000848D90E001968F739927848FA689B7892F
:101560002C93A089B1898C91837080648C93938D26
:10157000848D981306C00288F389E02D80818F7DC9
:1015800080830895EF92FF920F931F93CF93DF9381
:10159000EC0181E0888F9B8D8C8D98131AC0E889AF
:1015A000F989808185FF15C09FB7F894EE89FF897E
:1015B0006083E889F98980818370806480839FBF1C
:1015C00081E090E0DF91CF911F910F91FF90EF901C
:1015D0000895F62E0B8D10E00F5F1F4F0F7311272C
:1015E000E02E8C8D8E110CC00FB607FCFACFE88967
:1015F000F989808185FFF5CFCE010E94A00AF1CF45
:10160000EB8DEC0FFD2FF11DE35AFF4FF0829FB7DA
:10161000F8940B8FEA89FB8980818062CFCF0F938A
:101620001F93CF93DF938C01D0E0C0E0F801EC0F63
:10163000FD1F6491662341F082ED9DE00E94C20A85
:10164000892B11F02196F2CFCE01DF91CF911F911E
:101650000F910895CF93DF93EC01888D8823B9F023
:10166000AA89BB89E889F9898C9185FD03C08081AD
:1016700086FD0DC00FB607FCF7CF8C9185FFF2CF2A
:10168000808185FFEDCFCE010E94A00AE9CFDF91D6
:10169000CF91089580E090E0892B29F00E94960A6E
:1016A00081110E94000080E090E0892B49F080E0E9
:1016B00090E0892B29F00E94000081110E94000017
:1016C00080E090E0892B49F080E090E0892B29F0C0
:1016D0000E94000081110E94000080E090E0892BB0
:1016E00049F080E090E0892B29F00E9400008111F0
:1016F0000C9400000895682F660F692F661F81E023
:1017000090E06F3F11F490E080E00895CF92DF9277
:10171000EF92FF92CF93DF93D82F6A017B01C22F04
:101720002223E1F0CB01BA010E947B0B892BA9F0A7
:101730002DEC3CEC4CEC5DE3C701B6010E940E6E53
:1017400087FD0BC0C1E020E030E040E855E4C70170
:10175000B6010E94AA6A18160CF4C0E0D330F9F062
:1017600030F4DD2369F0D230B9F0C0E00DC0DA30DA
:10177000C9F0DB30D1F0D530C1F7C093451302C0BA
:10178000C09340130E949C038C2FDF91CF91FF9058
:10179000EF90DF90CF900895C0934213F3CFC093A2
:1017A0004313F0CFC0934A13EDCFC0934B13EACF4E
:1017B0002F923F924F925F926F927F928F929F9261
:1017C000AF92BF92CF92DF92EF92FF920F931F934F
:1017D000CF93DF93CDB7DEB76A970FB6F894DEBF2D
:1017E0000FBECDBF9A8F898F8B012D873E874F8784
:1017F000588B8AE0A98DBA8D1D928A95E9F7FB0175
:10180000E35BFF4F80819181A281B381E98DFA8DE5
:1018100082879387A487B587FB01EF5AFF4F8081AA
:101820009181A281B381E98DFA8D86879787A08BFC
:10183000B18BFB01EB5AFF4F80819181A281B38173
:10184000E98DFA8D828B938BA48BB58BDB019796F8
:101850008C9197978823D1F198968C9198978823AB
:10186000A9F19C964D905D906D907C909F97DA01C8
:10187000C90184199509A609B70986839783A087AA
:10188000B187FB0123893489458956892D833E839D
:101890004F835887281739074A075B0790F583E07D
:1018A000A98DBA8D15968C9312A6EB5BFF4F108213
:1018B00011821282138235971082FB0114AE15AE8D
:1018C00016AE17AE40AE51AE62AE73AE898D9A8D34
:1018D0006A960FB6F894DEBF0FBECDBFDF91CF91F1
:1018E0001F910F91FF90EF90DF90CF90BF90AF903E
:1018F0009F908F907F906F905F904F903F902F9030
:10190000089581A5882311F380AD91ADA2ADB3AD4B
:1019100073016201C81AD90AEA0AFB0A868597850B
:10192000A089B189C816D906EA06FB0608F44DC09D
:1019300064AD75AD86AD97AD8288912CB12CA12C8C
:10194000681579058A059B0508F43FC01801F1E484
:101950002F0E311C0E94AF6A20EC31EE44E65CE4AD
:101960000E94106B4B015C01D8016D917C9190E05D
:1019700080E00E94AF6A69837A838B839C83C7016E
:10198000B6010E94AF6A9B01AC0169817A818B81AB
:101990009C810E94106B9B01AC01C501B4010E94A7
:1019A000856CF101608371838283938381E0319739
:1019B0008083D801D8964D925D926D927C92DB9790
:1019C000F80114AE15AE16AE17AED801D096CD9074
:1019D000DD90ED90FC90D397C114D104E104F104A3
:1019E00009F47BC06D917C916115710509F475C096
:1019F00090E080E00E94AF6A4B015C01C701B60134
:101A00000E94AF6A9B01AC01C501B4010E94106B3A
:101A10009B01AC0160EC71EE84E69CE40E94856C55
:101A2000698379871C01F801E05CFF4F808188237E
:101A300009F458C029813985A101F80162857385AF
:101A4000848595850E94AA6A18160CF44BC0F8018B
:101A5000EF5BFF4F208129833181398722803380DA
:101A600082E0A98DBA8D15968C93F80182A581111B
:101A70003BC089819985D101EB5BFF4F80839183C6
:101A8000A283B38381E0D8019A968C93F801E75B37
:101A9000FF4F2D853E854F855889208331834283B2
:101AA00053833497C080D180E280F38020E030E01F
:101AB000A901C701B6010E94AA6A87FF03C0C12C11
:101AC000D12C7601A98DBA8DCD92DD92ED92FC924A
:101AD000139781E014968C93F9CE19821986212CE4
:101AE000312CA1CF81E0BDCFE75BFF4F8081918199
:101AF000A281B381F801238D348D458D568D2D8BB8
:101B00003E8B4F8B588F0097A105B10589F04D840E
:101B10005E846F847888481A590A6A0A7B0A2D8184
:101B20003E814F815885241535054605570520F41B
:101B30004D885E886F88788CC301B2010E94AF6ABD
:101B4000698B7A8B8B8B9C8B20E034E244E759E4E1
:101B50000E94856CD8015F962D913D914D915C91CD
:101B600092970E94106B4B015C01F801EB5BFF4FF9
:101B7000C080D180E280F380AC019B01C701B60137
:101B80000E94016C6D837A878B879C8729813985B8
:101B9000A1010E940E6E1816BCF0A5019401C701A8
:101BA000B6010E94026C6D837A878B879C8729819E
:101BB0003985A1010E94AA6A87FD06C0B981BD834B
:101BC000E985EA872B863C865801F5E4AF0EB11C07
:101BD0006D897E898F89988D640D751D861D971D71
:101BE0000E94AF6A9B01AC0169897A898B899C89C3
:101BF0000E94856C2B013C01A70196016D817A85BD
:101C00008B859C850E94016C9B01AC01C301B201D4
:101C10000E94106BA70196010E94026CD5016D9382
:101C20007D938D939C93139731CF4F925F926F92D8
:101C30007F928F929F92AF92BF92CF92DF92EF925C
:101C4000FF920F931F93CF93DF9300D000D0CDB7B7
:101C5000DEB79A838983FC0117A11123B9F000A58F
:101C600001112CC081E080A744A755A766A777A7DC
:101C700040AF51AF62AF73AFE35BFF4F81E090E0E5
:101C8000A0E0B0E080839183A283B383812F269666
:101C90000FB6F894DEBF0FBECDBFDF91CF911F917D
:101CA0000F91FF90EF90DF90CF90BF90AF909F90FB
:101CB0008F907F906F905F904F900895E981FA81A7
:101CC00084A595A5A6A5B7A56A017B01C81AD90A5E
:101CD000EA0AFB0A8789908DA18DB28DC816D906B4
:101CE000EA06FB0690F4EF5AFF4FFA83E98340813E
:101CF0005181628173814F5F5F4F6F4F7F4F408390
:101D000051836283738310E0C1CF29813A813E837E
:101D10002D83F90144A755A766A777A7E35BFF4F7B
:101D200080819181A281B3810196A11DB11D808323
:101D30009183A283B383F90184AD95ADA6ADB7AD10
:101D40000196A11DB11D84AF95AFA6AFB7AFC11469
:101D5000D104E104F10409F452C06081718161157C
:101D6000710509F44CC090E080E00E94AF6A4B011D
:101D70005C01C701B6010E94AF6A9B01AC01C501BD
:101D8000B4010E94106B9B01AC0160EC71EE84E623
:101D90009CE40E94856C4B015C0120E030E040E057
:101DA0005FE3ED81FE8162817381848195810E9470
:101DB000106BA50194010E94AA6A181624F120E074
:101DC00030E040EA5FE3ED81FE81668177818085C6
:101DD00091850E94106BA50194010E940E6E87FDF3
:101DE00012C0ED81FE8111A5111121C0ED81FE818E
:101DF000C0AAD1AAE2AAF3AA81E081A715C0812CCA
:101E0000912C5401CACFED81FE81EB5AFF4F8081A6
:101E10009181A281B3810196A11DB11D808391831F
:101E2000A283B383ED81FE8113A6102F2FCFED8106
:101E3000FE8180A991A9A2A9B3A946015701C8169C
:101E4000D906EA06FB0610F44C015D0120E030E003
:101E5000A90181149104A104B104E9F08C159D0538
:101E6000AE05BF0570F5A7019601281B390B4A0B7B
:101E70005B0BCA01B9010E94AF6A2B013C01C5018D
:101E8000B4010E94AF6A9B01AC01C301B2010E9480
:101E9000856C9B01AC01ED81FE8183A094A0A5A07F
:101EA000B6A0C501B4010E940E6EED81FE8187FDD2
:101EB0000FC0C0AAD1AAE2AAF3AA81E081A713A603
:101EC000E5CEBC01CD016C197D098E099F09D3CFE8
:101ED00003A50023E1F184A995A9A6A9B7A9260124
:101EE0003701C816D906EA06FB0610F42C013D019D
:101EF00020E030E0A901411451046104710409F1AA
:101F00008C159D05AE05BF05D8F5A7019601281BC8
:101F1000390B4A0B5B0BCA01B9010E94AF6A698396
:101F20007A838B839C83C301B2010E94AF6A9B01B9
:101F3000AC0169817A818B819C810E94856C9B01B7
:101F4000AC01C501B4010E940E6E87FF4FCFED8139
:101F5000FE81C4AAD5AAE6AAF7AA81E083A7EB5A14
:101F6000FF4FFA83E98340815181628173814F5F22
:101F70005F4F6F4F7F4F408351836283738386CE61
:101F8000BC01CD016C197D098E099F09C6CF0E9445
:101F9000060AAB01BC018DE19AE00C94150E0E947B
:101FA000060AAB01BC0184EC99E00C94150EFC010F
:101FB00013A214A215A216A217A210A611A612A669
:101FC00013A614A615A616A617A610AA11AA12AA39
:101FD00013AA14AA15AA16AA178E10A211A212A249
:101FE00008952F923F924F925F926F927F928F92BD
:101FF0009F92AF92BF92CF92DF92EF92FF920F9398
:102000001F93CF93DF93CDB7DEB7A5970FB6F894A4
:10201000DEBF0FBECDBF9A8389831B014901B42E59
:102020005B8327013801CB86AC86FC01349686E1C0
:10203000DF011D928A95E9F7FB01668D662319F091
:10204000FC85F11147C050E040E030E020E0852FF2
:10205000942FA32FB22FE981FA8180839183A283E9
:10206000B3834086518662867386662369F0BC8599
:10207000BB2351F020E030E0A901B4018B2D9B81FE
:102080000E94AA6A81112BC0C1010E94D70FAA2405
:10209000A394EC85AE26A981BA815296AC9289812F
:1020A0009A81A5960FB6F894DEBF0FBECDBFDF9123
:1020B000CF911F910F91FF90EF90DF90CF90BF9045
:1020C000AF909F908F907F906F905F904F903F90D8
:1020D0002F900895522F492D3B2D2B81B8CFF10120
:1020E000878D81110AC081E0878F2BAD3CAD4DAD4E
:1020F0005EAD23A734A745A756A7F10183A594A5F4
:10210000A5A5B6A5CBACDCACEDACFEACC81AD90A23
:10211000EA0AFB0AC701B6010E94AF6A6F8378879B
:1021200089879A87D10152966D917C9190E080E0E9
:102130000E94AF6A9B01AC016F81788589859A8581
:102140000E94856C6D877E878F87988B2DEC3CEC89
:102150004CE45DE30E94AA6A87FD7BC220E030E088
:1021600040E85FE36D857E858F8598890E940E6EBD
:10217000181644F420E030E040E85FE32D873E8706
:102180004F87588B2D853E854F855889B4018B2DFF
:102190009B810E94106B4B015C01A981BA8114964E
:1021A0008D929D92AD92BC92179720E030E0A901EC
:1021B0000E940E6E87FD56C220E030E040E85FE3EB
:1021C000298F3A8F4B8F5C8FE894B7F8A301920167
:1021D000698D7A8D8B8D9C8D0E94106B9B01AC015B
:1021E000C501B4010E94016C698B7A8B8B8B9C8B2F
:1021F000A981BA811C966D937D938D939C931F97B3
:10220000BB85BB2359F081E0F10180A32BAD3CAD30
:102210004DAD5EAD27A730AB41AB52ABF10180A114
:10222000882361F087A590A9A1A9B2A9CBACDCACA9
:10223000EDACFEACC81AD90AEA0AFB0AFB85F1111B
:102240000DC021E02B87F10184899589A689B78982
:10225000C816D906EA06FB0608F01B86EB85A9819D
:10226000BA815296EC93529781E0E827EBA35396FC
:10227000EC93D10191968C9191979AE0C92E97EDAC
:10228000D92E93EAE92E9CE3F92E882399F19796AB
:102290008D919D910D90BC91A02D2BAD3CAD4DAD80
:1022A0005EAD281B390B4A0B5B0BCA01B9010E94BA
:1022B000AF6A20E030E04AE754E40E94856C6B018D
:1022C0007C012FE632E143E85AE30E94AA6A87FDC7
:1022D000D2C12DEC3CEC4CEC5DE3C701B6010E9491
:1022E0000E6E18163CF42DECC22E2CECD22EED2CDA
:1022F0002DE3F22E8BAD9CADADADBEADF10187A34C
:1023000090A7A1A7B2A781E081A32481358146814E
:1023100057812B833C834D835E8340805180628054
:1023200073801085612F70E090E080E00E94AF6ABA
:102330006F8F78A389A39AA3F1010185202F30E044
:102340003E8F2D8F412F50E05DA34CA3A50194013A
:10235000C301B2010E94AA6A87FF96C1A30192013C
:10236000C501B4010E94016C4B015C01A301920103
:102370006B817C818D819E810E94016C9B01AC01EF
:10238000C501B4010E94856C4B015C016D8D7E8D91
:102390008CA19DA1681B790B072E000C880B990B53
:1023A0000E94B16A9B01AC01C501B4010E94106B8F
:1023B0002F8D38A149A15AA10E94026C4B01B82E61
:1023C000A92E602F70E090E080E00E94AF6A3B0190
:1023D0008C016D8D7E8D719561957109072E000CB4
:1023E000880B990B0E94B16A6D8B7E8B8F8B988FB7
:1023F000A701960169897A898B899C890E94106B53
:10240000D10193962D913D914D915C9196970E94AB
:10241000026C6B017C019B01AC016D897E898F8907
:10242000988D0E940E6E181664F09601A701B301F4
:10243000C8010E94AA6A87FF2CC16D8A7E8A0F8B11
:10244000188FF101228533854485558569897A89FC
:102450008B899C890E94106B6B017C0123962CADAB
:102460003DAD4EAD5FAD2397B4018B2D9A2D0E94EB
:10247000026C9B01AC01C701B6010E94026C6B01AA
:102480007C01D1011E962D913D914D915C9151970A
:102490006D897E898F89988D0E94106B9B01AC019C
:1024A000C701B6010E94026C6B837F83582E492EB0
:1024B00020E030E0A9010E94AA6AECA1FDA16F0111
:1024C000FF0FEE08FF0887FDE9C02B813F81452DF6
:1024D000542DB301C8010E94AA6A87FD04C06B8015
:1024E0007F80052D142DC701B6010E94B16A4B01F2
:1024F0005C0120E030E0A901B301C8010E940E6E2A
:10250000181644F4A5019401B301C8010E94AA6AF7
:1025100087FDC9C0C701B6010E94B16A6B017C0189
:102520002D8D3E8DB901330F880B990B0E94B16A36
:102530004B015C012B813F81452D542DC701B60114
:102540000E940E6E87FF0CC031E03C87A50194010C
:102550006B817F81852D942D0E940E6E87FD1C86D8
:10256000EC85A981BA815496EC93A50194016B8105
:102570007F81852D942D0E940E6E87FD0CC020E07A
:1025800030E0A90169897A898B899C890E940E6E45
:1025900018160CF48DC02B813F81452D542DC70199
:1025A000B6010E940E6E87FD0BC020E030E0A9014D
:1025B00069897A898B899C890E94AA6A87FD78C07B
:1025C000FB85FF2309F478C08D899E89AF89B88D7A
:1025D000F10183A394A3A5A3B6A320E030E040E0DB
:1025E0005FE3B301C8010E94026C298D3A8D4B8DC7
:1025F0005C8D0E94106B0E94336DA981BA81519647
:102600007C936E93509720E030E040E85FE36D8567
:102610007E858F8598890E940E6E87FD11C0BC85CE
:10262000BB2371F069897A898B899C899F77F10135
:10263000228D338D448D558D0E940E6E87FF41C0D3
:10264000D10192961C92F10113AA14AA15AA16AAF6
:1026500026CD8DEC9CECACE4BDE38D879E87AF87E7
:10266000B88B90CD80E090E0A0E8BFEB898F9A8F87
:10267000AB8FBC8FA9CD8FE6C82E82E1D82E83E820
:10268000E82E8AE3F82E36CE8F8C98A0B9A0AAA0A7
:1026900098CECD8ADE8AEF8AF88ED3CE612C712C4B
:1026A00000E010E037CF6F8C78A009A11AA132CFDB
:1026B000FBA1FF2309F491CF612C712C00E010E005
:1026C0008CCFD10192968C91929781110EC081E0AE
:1026D00092968C9392972BAD3CAD4DAD5EADD3965B
:1026E0002D933D934D935C93D697F10183A994A9C3
:1026F000A5A9B6A92BAD3CAD4DAD5EAD281B390BE0
:102700004A0B5B0BDA01C901E981FA81868B978B51
:10271000A08FB18FF101408D518D70E060E021E01C
:1027200084179507A607B70708F420E0A981BA81A6
:1027300055962C93B4CC2F923F924F925F926F920A
:102740007F928F929F92AF92BF92CF92DF92EF9241
:10275000FF920F931F93CF93DF93CDB7DEB76E97A2
:102760000FB6F894DEBF0FBECDBF4C018B01742EA7
:10277000A090D510DC01AC9211964C9311978091EA
:10278000D61012968C93B090D410C12CD12C760117
:10279000BB20E1F1FB01C480D580E680F78020906A
:1027A000B3103090B4104090B5105090B610A20104
:1027B0009101C701B6010E940E6E18160CF0D7C029
:1027C000A2019101C701B6010E94016C2091B710CE
:1027D0003091B8104091B9105091BA100E94106B0E
:1027E0002091BB103091BC104091BD105091BE1093
:1027F0000E94106B2091BF103091C0104091C11009
:102800005091C2100E94106B6B017C01D401139691
:10281000CD92DD92ED92FC921697D80118962D91EB
:102820003D914D915C911B972B8F3C8F4D8F5E8F0F
:10283000672D70E090E080E02FEF2A0D223020F02D
:10284000B4E0312CAB1297C033243394711001C023
:10285000312CE4E0AE128FC00E94AF6A2B013C0124
:1028600077FA709477F870948B8D9C8DAD8DBE8DBA
:10287000BF779C01AD0150582B8F3C8F4D8F5E8FE1
:10288000BB2009F486C0A090B110B090B210A11482
:10289000B10409F47EC020E030E040EE51E4C7010D
:1028A000B6010E94106BD50112962D913D914D916C
:1028B0005C9115970E94856C9F938F937F936F9384
:1028C000F80183818F9382818F9381818F9380819F
:1028D0008F93A32CC684EB8CFC8C0D8D1E8DA301D5
:1028E000920168EE70E1CE0101960E94F10F898994
:1028F0009A89D40118969C938E9317978B89199671
:102900008C9319978E891A968C931A970FB6F89410
:10291000DEBF0FBECDBF332081F08C89882369F0E4
:1029200085E08093D5101092E7108C9311961C923D
:10293000119718961C921E921797C4016E960FB6A7
:10294000F894DEBF0FBECDBFDF91CF911F910F91E5
:10295000FF90EF90DF90CF90BF90AF909F908F90BF
:102960007F906F905F904F903F902F90089560E020
:1029700070E0CB012BCF0E94AF6A2B013C018B8D05
:102980009C8DAD8DBE8DBF778B8F9C8FAD8FBE8F95
:1029900077CF60E070E080E090E08ECFCF92DF9262
:1029A000EF92FF920F931F93CF93DF938C01EB0174
:1029B000C880D980EA80FB8020E030E0A901C7010F
:1029C000B6010E940E6E18160CF05BC02C813D8182
:1029D0004E815F81C701B6010E94AA6A87FF51C07C
:1029E0008885882309F44DC09985891708F049C066
:1029F00020E030E0A9016A857B858C859D850E9459
:102A00000E6E87FD3EC020E030E0A9016E857F8517
:102A1000888999890E940E6E87FD33C08A899B89B7
:102A2000892B79F18C899D89AE89BF89892B8A2B65
:102A30008B2B39F1888D998D892B19F120E030E0AD
:102A4000A9016A8D7B8D8C8D9D8D0E940E6E18164E
:102A5000C4F481E0F801868F8EE1FE01D801019077
:102A60000D928A95E1F7C8010E94D70FF801868D73
:102A7000DF91CF911F910F91FF90EF90DF90CF905A
:102A80000895F801168EEFCFCF92DF92EF92FF926A
:102A90000F931F93CF93DF93CDB7DEB76E970FB62B
:102AA000F894DEBF0FBECDBF8C01FC01C080D18089
:102AB000E280F38020E030E040E85FE3C701B60148
:102AC0000E940E6E18160CF037C1F8012481358172
:102AD00046815781C701B6010E94AA6A87FF2CC1AF
:102AE000F801C484D584E684F784A7019601608543
:102AF0007185828593850E940E6E18160CF01CC19C
:102B000020E030E0A901C701B6010E940E6E181640
:102B10000CF012C120E030E0A901F8016489758948
:102B2000868997890E940E6E87FD06C120E030E0FD
:102B3000A901F801608D718D828D938D0E940E6EBA
:102B400087FDFAC0F801948D858D981708F0F4C0C0
:102B5000868D978D892B09F4EFC080A191A1892BD7
:102B600009F4EAC0C2A0D3A0E4A0F5A020E030E0C0
:102B700040E05FE3C701B6010E940E6E87FDDCC036
:102B800023E333E343E75FE3C701B6010E94AA6A88
:102B900018160CF4D1C0F801C6A0D7A0E0A4F1A487
:102BA00020E030E0A901C701B6010E940E6E1816A0
:102BB0000CF0C2C0F80122A533A544A555A5C70154
:102BC000B6010E94AA6A87FFB7C020E030E0A901E1
:102BD000F80166A577A580A991A90E940E6E87FDD0
:102BE000ABC020E030E0A901F80162A973A984A973
:102BF00095A90E940E6E87FD9FC0F80186A997A92E
:102C0000A0ADB1AD892B8A2B8B2B09F495C081E047
:102C10008093AA1280E4AAE6B2E101900D928A950F
:102C2000E1F7F80186A197A1A0A5B1A589839A83B0
:102C3000AB83BC8382A593A5A4A5B5A58D839E83F4
:102C4000AF83B887848D8987858D8A8786A597A568
:102C5000A0A9B1A98B879C87AD87BE8782A993A9BC
:102C6000A4A9B5A98F87988BA98BBA8B868D978DD0
:102C70009C8B8B8B86A997A9A0ADB1AD8D8B9E8BBC
:102C8000AF8BB88F82AD93AD9A8F898F84AD95ADA0
:102C9000A6ADB7AD8B8F9C8FAD8FBE8FBE016F5F22
:102CA0007F4F83EC92E10E94CE148093AA1210927F
:102CB000AB121092AC121092AD121092AE12109292
:102CC000AF121092B0121092B1121092B212109272
:102CD000B3121092B4121092B5121092B612109252
:102CE000B7121092B8121092B9121092BA12109232
:102CF000BB121092BC121092BD121092BE12109212
:102D0000BF121092C0121092C1121092C21283EC24
:102D100092E10E94D70F8091AA126E960FB6F89496
:102D2000DEBF0FBECDBFDF91CF911F910F91FF90FE
:102D3000EF90DF90CF9008951092AA12B8CF8F92A3
:102D40009F92AF92BF92CF92DF92EF92FF920F933A
:102D50001F93CF93DF93CDB7DEB76E970FB6F8947E
:102D6000DEBF0FBECDBF8C01FC01C080D180E280F0
:102D7000F38020E030E040E85FE3C701B6010E9445
:102D80000E6E18160CF0F4C020E030E040E85FE36F
:102D9000F80164817581868197810E940E6E87FD9E
:102DA000E7C0F80180A091A0A2A0B3A0A501940162
:102DB00060857185828593850E940E6E18160CF0D1
:102DC000D7C020E030E0A901C501B4010E940E6E19
:102DD00018160CF0CDC020E030E0A901F8016485A0
:102DE0007585868597850E940E6E87FDC1C020E09F
:102DF00030E0A901F80160897189828993890E9474
:102E00000E6E87FDB5C0F80194898589981708F082
:102E1000AFC086899789892B09F4AAC0808D918DCE
:102E2000892B09F4A5C0828D938D892B09F4A0C04C
:102E300020E030E0A901648D758D868D978D0E940C
:102E40000E6E18160CF094C02BED3FE049E450E4F0
:102E5000C701B6010E94106B6B017C0181E0809379
:102E6000E31188E2F801ABEBB1E101900D928A9594
:102E7000E1F7F80180A191A1A2A1B3A189839A836E
:102E8000AB83BC8380859185A285B3858D839E832A
:102E9000AF83B8878489898785898A872485358522
:102EA00046855785C701B6010E94106B20E030E0CF
:102EB00040E752E40E94856C6B877C878D879E87F4
:102EC000F8012089318942895389C701B6010E94DE
:102ED000106B20E030E040E752E40E94856C6F8781
:102EE000788B898B9A8BF801868997899C8B8B8B41
:102EF000808D918DB0E0A0E08D8B9E8BAF8BB88FD5
:102F0000828D938D9A8F898F20E030E040E752E4E4
:102F1000648D758D868D978D0E94106BA70196012B
:102F20000E94856C6B8F7C8F8D8F9E8FBE016F5F33
:102F30007F4F84EE91E10E94CE148093E31184EEE2
:102F400091E10E94D70F8091E3116E960FB6F8942D
:102F5000DEBF0FBECDBFDF91CF911F910F91FF90CC
:102F6000EF90DF90CF90BF90AF909F908F9008959B
:102F70001092E311E4CF8F929F92AF92BF92CF92C3
:102F8000DF92EF92FF920F931F93CF93DF93CDB712
:102F9000DEB76E970FB6F894DEBF0FBECDBF8C01C3
:102FA000FC0180A1882309F46AC0C080D180E2803E
:102FB000F38020E030E0A901C701B6010E940E6E47
:102FC00087FD76C020E030E0A901F80164817581B9
:102FD000868197810E940E6E18160CF069C020E061
:102FE00030E0A901F80160857185828593850E9492
:102FF0000E6E18160CF05CC0F80184849584A684CB
:10300000B78420E030E0A901C501B4010E940E6E32
:1030100018160CF04DC020E030E040E85FE3C50139
:10302000B4010E94AA6A18160CF442C0F80124895F
:10303000358946895789C701B6010E94AA6A87FF68
:1030400037C08091D510811133C081E2F801A3EB24
:10305000B0E101900D928A95E1F78EE1E3E2F2E0B2
:10306000DE01119601900D928A95E1F7BE016F5F26
:103070007F4F88EE90E10E94CE148093D41080930D
:1030800041130E949C03809141136E960FB6F894F1
:10309000DEBF0FBECDBFDF91CF911F910F91FF908B
:1030A000EF90DF90CF90BF90AF909F908F9008955A
:1030B00080E0E5CFFC018081882349F0818188236D
:1030C00031F08281882319F08381811187810895ED
:1030D000EF92FF920F931F93CF93DF93C82FFB01C3
:1030E000E080E11009C08AE08093AD1081E0CA3031
:1030F00009F46AC080E068C0D091AD10DB30D0F731
:10310000ED2FF0E08827E857F74E8F4F0C94A66E0E
:103110009318EB18F818F518FE180719F8180A197B
:10312000101913191A198C2F877F8150823010F0D3
:10313000C43001F78091AE108823E1F28B01FF24A7
:10314000FA94FC0EF2E0FF1510F4C73081F40E94EF
:103150007F02882379F282E08F1518F4C73009F0D6
:103160006EC0C8010E945A18882309F4C3CF8C2F5F
:103170008B7F833069F4F8018481882309F4BACF06
:103180008581882309F4B6CF8085882309F4B2CFDE
:10319000D950D23038F4C11105C0F8018681882396
:1031A00009F4A8CFC093AD1088E0C89FF0011124A6
:1031B000EC57FB4F8081882309F43FC09181911126
:1031C00099CF9281911196CFDF91CF911F910F915D
:1031D000FF90EF9008958C2F8D7F09F4ABCF87EF90
:1031E0008C0F823008F4A6CF85CFC53009F4A2CF6A
:1031F00089EF8C0F843008F07DCF9CCFCC2309F46D
:1032000099CF88EF8C0F833008F494CF73CFC630FA
:1032100031F790CFC33009F48DCFC53091F78ACF05
:10322000C111DDCF87CFCC2309F484CFCA3009F098
:1032300061CF80CFC1115ECF7DCF8E2DC5CFC33082
:1032400009F0A6CF98CFCF93DF93EC010E946802DC
:103250001092D5101092B2101092B1101092E71087
:1032600088EE90E10E94D70F10925A1381E080936C
:103270005B1310925713109258138091AD10813048
:1032800031F4BE0180E0DF91CF910C946818843056
:1032900091F48091B0108350833030F488E08093B3
:1032A000AD1083E08093B01010929D1310929E1386
:1032B000DF91CF9108958823D9F389508230C0F3EC
:1032C000BE0188E0E0CFCF92DF92EF92FF920F93A2
:1032D0001F93CF93C0914113CC2309F457C0C091E1
:1032E0004013CC2309F452C0C0914913CC2309F4F4
:1032F0004DC020916A13211155C06A017B018C01D8
:103300000E945A02C82F882309F440C08091AD1052
:10331000811148C00E947F02C82F8823B9F1809193
:10332000AE108230E1F18EE194E0C091D410CC2354
:1033300069F1F801C781CC2349F12091D5102530DE
:1033400089F19093B2108093B11081E08093D510F1
:103350001092D6101092E710C092DB10D092DC10C1
:10336000E092DD10F092DE10B8010E946818C82FBC
:1033700081110CC01092D5101092B2101092B110A1
:103380001092E71088EE90E10E94D70F8C2FCF911A
:103390001F910F91FF90EF90DF90CF90089581E5FE
:1033A00094E0C3CFC0E0F2CFE0915513F0915613F3
:1033B000309741F420936B1430936C1440936D1448
:1033C00050936E14E82BF92BF0935613E09355139A
:1033D00010925A1381E080935B13909154139130B3
:1033E00011F481E008958093541320937613309361
:1033F0007713409378135093791385E00E946818EF
:103400008111EFCF95E09093541399E09093AD1014
:103410000895CF93DF93D82F8091AD1081111BC0F9
:10342000CB010E945A18C82F882389F08091AE10D2
:10343000882389F0D81779F0D093AF1083E0809378
:10344000B0100E94680210929D1310929E138C2F50
:10345000DF91CF910895C0E0FACFFC011082118274
:1034600012821382148215821682178210861186A8
:10347000128613861486158616861786108A118A78
:10348000128A138A0895CF93DF93FC01E35BFF4F09
:10349000C081CC2331F13996C081CC2311F1319612
:1034A000C081CC23F1F0EC01399720E030E046E90F
:1034B00053E460817181828193810E940E6E87FD49
:1034C0000FC0FE01EE5AFF4FC1E020E030E046E9B8
:1034D00053E460817181828193810E940E6E87FD29
:1034E000C0E08C2FDF91CF910895CF92DF92EF92C1
:1034F000FF92CF93DF93EC018091AD10823041F0C9
:1035000080E0DF91CF91FF90EF90DF90CF90089512
:10351000809157138823A1F380915813882381F356
:103520008C81882369F38D81882351F3809148131E
:10353000882331F380914D13882311F36A017B01B5
:103540000E94B0028823E1F2CE010E94431A882330
:10355000B9F2CE010E945A02882391F2BE0187E09F
:103560000E946818882361F2109257131092581322
:1035700093E09093541310925A1391E090935B133D
:1035800010928A1310928213109283131092841354
:10359000109285131092861310928713109288133D
:1035A00010928913C0927A13D0927B13E0927C130D
:1035B000F0927D1310927E1310927F13109280135D
:1035C000109281139ECF0F931F93CF93FC01C48958
:1035D000CC2381F18C012FE832EC45EF5CE360896C
:1035E0007189828993890E94AA6A181614F120E0D1
:1035F00030E040EE5FE3F801608571858285938558
:103600000E94016C9F772DEC3CEC4CE45DE30E9442
:10361000AA6A181674F0C1E02DEC3CEC4CE45DE3B2
:10362000F80164857585868597850E94AA6A1816B3
:103630000CF4C0E08C2FCF911F910F9108950F9340
:103640001F93CF93DF93CDB7DEB766970FB6F8948D
:10365000DEBF0FBECDBF8C01FC0145AD56AD63ADE5
:1036600074AD27ADCE0101960E94D602809154130D
:10367000843061F080E066960FB6F894DEBF0FBE2E
:10368000CDBFDF91CF911F910F910895C8010E9486
:103690005A02882379F3C8010E94431A882351F300
:1036A000F8018581882331F30E94B002882311F349
:1036B0008091291383508230E8F6F801E65AFF4FD3
:1036C00080818111D7CF8091C913882399F280918D
:1036D000C4138111CFCF8091D213882359F2CE0128
:1036E00001960E94E31A882329F2B80183E00E9420
:1036F0006818882309F4BECF109256131092551300
:1037000010925F131092601310926513109266135B
:1037100010926713109268131092691391E09093BE
:103720005A1310925B1310925413A5CFAF92BF920D
:10373000CF92DF92EF92FF921F93CF93DF93EC0132
:103740005C0182E3A80EB11C1D851123F9F08E8562
:10375000811127C0C984DA84EB84FC8420E030E046
:1037600040EA51ECC701B6010E94AA6A87FD19C060
:1037700020E030E046E953E4C701B6010E940E6E36
:1037800018167CF02A96CA15DB05F1F6812FDF9119
:10379000CF911F91FF90EF90DF90CF90BF90AF90AF
:1037A000089510E0F3CF0F931F93CF9300918B13E5
:1037B00010918C1320918D1330918E13401B510B5F
:1037C000620B730B403C544D6140710508F473C0AB
:1037D0008C012FE632E143E85AE360918F13709138
:1037E000901380919113909192130E94026C20E0AB
:1037F00030E040E052E40E940E6E87FD5CC0C09154
:103800009C13CC23C9F0C0919713CC23A9F0C0918D
:10381000D213CC2389F0C091D313C1114CC0809135
:103820005113882371F0C8010E94431A882349F07C
:10383000F801848181111AC08C2FCF911F910F91B3
:103840000895809155139091561384609093561368
:103850008093551385E08093541310925A1381E09E
:1038600080935B1389E08093AD10E6CFC8010E947E
:10387000961B882301F1C8010E945A028823D9F0BF
:103880002091871130918811232BB1F69091AD10C2
:10389000943091F69091B010953071F698E0909335
:1038A000AD1096E09093B01010929D1391E090931C
:1038B0009E13C82FC1CFC0E0BFCFCF92DF92EF924F
:1038C000FF92CF93DF93EC0180919D13882309F43D
:1038D00065C080915113882309F460C08091421320
:1038E000882309F45BC06A017B01CE010E94431A60
:1038F000882309F453C0CE010E94961B882309F443
:103900004DC0CE010E945A02882309F447C080911D
:10391000AD10843009F049C08091B010843009F0B6
:1039200044C0CE010E945A188823C1F18C8188239B
:10393000A9F195E09093B010C0928B13D0928C13A4
:10394000E0928D13F0928E1310928F1310929013B9
:1039500010929113109292134091CE135091CF1365
:103960006091D0137091D11340939313509394139B
:103970006093951370939613FE01E559FF4F908164
:10398000992319F0C45BDF4F98819093971391E0CE
:1039900090939C1390939D1310929E13DF91CF915F
:1039A000FF90EF90DF90CF90089580E0F7CFCF9316
:1039B000DF93EC0180915113882381F180914A13A8
:1039C000882361F180914B13882341F1CE010E943D
:1039D000961B882319F1CE010E945A028823F1F028
:1039E0009091AD1091111DC09091B0109330C9F419
:1039F0009091AE109923A9F09091AF10992389F07E
:103A000090916A1391110DC092E090936A131092F5
:103A1000571310925A1391E090935B13DF91CF915B
:103A2000089580E0FBCF8F929F92AF92BF92DF927A
:103A3000EF92FF920F931F93CF93DF93EC01D62E5B
:103A40007C0104E011E0112339F1D7011D961C918E
:103A50001D97112309F11E961C911E9711118EC0FE
:103A600019968D909D90AD90BC901C9720E030E011
:103A700040EA51ECC501B4010E940E6E87FD0CC0F6
:103A800020E030E84EE853E4C501B4010E94AA6A80
:103A9000182F111F1127111F0150BAE0EB0EF11C56
:103AA0000111D1CF8D81882309F180914F13882393
:103AB000E9F0FE01E85AFF4F80818823B9F0319682
:103AC0008081882399F036968081882379F03D960D
:103AD00060817181828193819F772CEE31E548EB83
:103AE0005EE30E94AA6A881F8827881F20915513C9
:103AF00030915613A9014B7F22FFA8C1F0905113BA
:103B0000F110A4C18091871190918811892B09F43B
:103B100011E08091751301E0882321F0CE010E940D
:103B2000961B082F8091AD1089508230B0F4DD20B3
:103B3000A1F0CE010E945A18882379F08E81882343
:103B400061F08B81882349F0112339F08F8188231C
:103B500021F0FF2011F0011113C081E0809359136F
:103B600000E0802FDF91CF911F910F91FF90EF9098
:103B7000DF90BF90AF909F908F90089510E08CCF12
:103B80001092D5101092B2101092B1101092E7104E
:103B900088EE90E10E94D70F1092D61010928811F3
:103BA00010928711EFE1F1E18AE1DF01982F1D9278
:103BB0009A95E9F77A96A1E1E738FA07B1F71092FA
:103BC000B5111092B6111092B7111092B81181E090
:103BD0008093B9111092BA111092B311109256132A
:103BE000109255131092541310925A1380935B1332
:103BF00010925713109258131092591310925F138A
:103C0000109260131092611310926213109263135A
:103C1000109264131092651310926613109267133A
:103C200010926813109269130E9468021092751323
:103C300010928B1310928C1310928D1310928E137E
:103C400010928F131092901310929113109292135E
:103C5000109293131092941310929513109296133E
:103C60001092971310929D1310929E1384EE91E17F
:103C70000E94D70F10921B1210921C1210921D124C
:103C800010921E1210921F121092201210922112E6
:103C900010922212109223121092241210922512C6
:103CA00010922612109227121092281210922912A6
:103CB00010922A128BE292E10E94D70F10926212A8
:103CC0001092631210926412109265121092661292
:103CD0001092671210926812109269121092AB1231
:103CE0001092AC121092AD121092AE121092AF124E
:103CF0001092B0121092B1121092B2121092B3122E
:103D00001092B4121092B5121092B6121092B7120D
:103D10001092B8121092B9121092BA121092BB12ED
:103D20001092BC121092BD121092BE121092BF12CD
:103D30001092C0121092C1121092C21283EC92E142
:103D40000E94D70F1092091310920A1310920B13AE
:103D500010920C1310920D1310920E1310920F1359
:103D60001092101310921113109212131092131339
:103D70001092141310921513109216131092171319
:103D80001092291310922A1310922B1310922C13B5
:103D900010922D1310922E1310922F131092301395
:103DA0001092311310923213109233131092341375
:103DB000109235131092361310923B1310923C134D
:103DC00010923D1310923E1310923F1310925D1308
:103DD000EDEAF3E18DE1DF011D928A95E9F7EAEC66
:103DE000F3E186E1DF011D928A95E9F7E0EEF3E168
:103DF00088E0DF011D928A95E9F7E8EEF3E18FE1B3
:103E0000DF011D928A95E9F7E7E0F4E18EE0DF013A
:103E10001D928A95E9F7E5E1F4E18AE0DF011D9260
:103E20008A95E9F710926B1410926C1410926D142D
:103E300010926E141092AD108091B01084508230A8
:103E400008F08FCE83E08093B0108BCEF82E452BF8
:103E500009F058CEFF24F39455CECF93DF93EC01B5
:103E600080914F13882359F1CE010E94961B88231D
:103E700031F180915113882311F180914A138823E5
:103E8000F1F080914B138823D1F0CE010E945A02A9
:103E90008823A9F08091AD10811114C00E947F0287
:103EA000882369F090916A1391110CC091E090936E
:103EB0006A131092581310925A1390935B13DF9168
:103EC000CF91089580E0FBCF08950895CF93C82F38
:103ED0000E948508982FEC2FF0E0E453F74F808183
:103EE000813009F4911180E09083CF9108950F9370
:103EF0001F93CF93DF93182F862F042FC22FD32F1A
:103F0000D7FF03C0D195C195D109CF3FD10519F095
:103F100014F0CFEFD0E03095632F661F6627661F41
:103F20000E94AE0861E0C11101C060E0802F0E94D4
:103F3000AE08BE017727812FDF91CF911F910F919E
:103F40000C941809FF920F931F93CF93DF93182FB0
:103F5000F62E042FE90160E0842F0E94AE0870E085
:103F600060E0812F0E94180970E060E08F2D0E94B0
:103F70001809209749F1CE010D2E000CAA0BBB0B9E
:103F8000B7FF07C0B095A095909581959F4FAF4F13
:103F9000BF4F8F3F9105A105B10529F024F08FEFA8
:103FA00090E0A0E0B0E0BC011C161D060CF01F2D37
:103FB000812F0E94180961E0802FDF91CF911F911E
:103FC0000F91FF900C94AE08DF91CF911F910F914C
:103FD000FF900895CF92DF92EF92FF921F93CF93BD
:103FE000DF9300D01F921F92CDB7DEB780917F0E76
:103FF0009091800E95FF0FC020E030E0A901609104
:1040000013107091141080911510909116100E9449
:10401000AA6A1816D4F019821A821B821C821D8289
:1040200029813A814B815C816D8170E080E090E074
:104030000F900F900F900F900F90DF91CF911F91E5
:10404000FF90EF90DF90CF9008958AE30E94EF09F0
:10405000BC01990F880B990B0E94B16A20910F1037
:104060003091101040911110509112100E94016C6B
:1040700020E030E0A9010E940E6E1816CCF58AE30C
:104080000E94EF09BC01990F880B990B0E94B16A3D
:1040900020910F103091101040911110509112107A
:1040A0000E94016C20911310309114104091151052
:1040B000509116100E94106B6B017C012DEC3CECB2
:1040C0004CE45EE30E940E6E87FD0BC011E020E021
:1040D00030E040E050E4C701B6010E94AA6A181619
:1040E0000CF410E0C982DA82EB82FC821D8398CF47
:1040F0008AE30E94EF09BC01990F880B990B0E947B
:10410000B16A20910F103091101040911110509110
:1041100012100E94016C9058C5CF2F923F924F927F
:104120005F926F927F928F929F92AF92BF92CF9247
:10413000DF92EF92FF920F931F93CF93DF9300D004
:1041400000D01F921F92CDB7DEB79A838983DC011E
:104150001C9116139CC011963C90B6E0B31508F460
:1041600096C0FC010281043008F091C02380F1E088
:10417000F21508F48CC098878F83DC011896CD90D7
:10418000DD90ED90FC901B97C701B6010E947B0B60
:10419000892B09F47CC0EF81F885448455846684BA
:1041A0007784C301B2010E947B0B892B09F46FC095
:1041B000AF81B88550968D909D90AD90BC905397EF
:1041C000C501B4010E947B0B892B09F460C0A501D5
:1041D0009401C301B2010E940E6E18160CF457C070
:1041E000AF81B88554962D913D914D915C91579733
:1041F00029833A834B835C83FD015496BE83AD8350
:1042000065EC7DE98CE191E8A1916A279B01AC0105
:1042100063E971E080E091E00E94606E2D813E8153
:10422000E217F30789F729813A814B815C812617D0
:1042300037074807590759F5222059F10250023033
:1042400030F5EF81F88584819581A681B781892B2E
:104250008A2B8B2BE1F080E01E3028F4E12FF0E078
:10426000E559FC4F8081381212C0A3019201C701A9
:10427000B6010E940E6E87FD0AC0F1E0F983A50128
:104280009401C701B6010E94AA6A181624F4198283
:1042900002C021E02983898128960FB6F894DEBFF9
:1042A0000FBECDBFDF91CF911F910F91FF90EF9087
:1042B000DF90CF90BF90AF909F908F907F906F9046
:1042C0005F904F903F902F900895CF93DF9398E1A8
:1042D000899FE0011124682FCE018F57914F0E94D2
:1042E0008D20882339F0C758D14F81E09B859111EB
:1042F00001C080E0DF91CF910895EF92FF920F937C
:104300001F93CF93DF93D0E0C0E010E000E0EE24F5
:10431000E394F12C8C2F0E946521882349F0C7017A
:104320000C2E02C0880F991F0A94E2F7082B192B54
:104330002196CE30D10571F7C801DF91CF911F9141
:104340000F91FF90EF9008952F923F924F925F92BE
:104350006F927F928F929F92AF92BF92CF92DF9295
:10436000EF92FF920F931F93CF93DF93CDB7DEB7FA
:104370006F970FB6F894DEBF0FBECDBF9F8F8E8FA5
:10438000142F615084E4882E83E0982E633040F42B
:10439000E62FF0E0EE0FFF1FE25CFC4F8080918083
:1043A000D4012D903C90812F0E946521882369F1D2
:1043B000B8E11B9FF0011124E758F14FC088D18864
:1043C000E288F38820E030E040E05FE3C701B60117
:1043D0000E94026C0E943A6D1B016115710599F0F3
:1043E00090E080E00E94AF6A9B01AC01C701B6017A
:1043F0000E94016C9F772AE037ED43E25CE30E9464
:104400000E6E18162CF480E09BC12114310499F132
:10441000F401428053806480758020E030E0A9017F
:10442000C301B2010E94AA6A18160CF0A2C1B10120
:1044300090E080E00E94AF6AA30192010E94106B9D
:104440009B01AC0160EC71EE84E69CE40E94856CFB
:104450000E94FC6C122F032FF42EE52ED62EC72EB1
:10446000B82EA92E20E030E0A901C301B2010E94BC
:104470000E6E18162CF0EE8DFF8D17A280E014C181
:10448000D40116962D913D914D915C9119972987F4
:104490003A874B875C87A301920169857A858B8572
:1044A0009C850E940E6E181634F7D4011A962D9131
:1044B0003D914D915C911D972D873E874F87588B7D
:1044C000C301B2010E94AA6A1816ACF22D853E857E
:1044D0004F85588969857A858B859C850E940E6EEB
:1044E00087FDC9CFD4011E962D913D914D915C91D0
:1044F00051972D8B3E8B4F8B588F232B242B252BA5
:1045000009F4B9CF5296BC91B98FB23008F4B3CF49
:10451000D40153962D913D914D915C915697298BE5
:104520003A8B4B8B5C8BBA01AB0160E070E0CB0146
:1045300029833A834B835C836D837E838F83988743
:10454000212F302F4F2D5E2D6D2D7C2D8B2D9A2DF3
:10455000A980BA80CB80DC80E12CF12C00E010E057
:104560000E94AE6E08F087CF57966D917D918D9128
:104570009C915A9769837A838B839C83672B682BE2
:10458000692B09F478CF5B962D913D914D915C910B
:104590005E972A8F3B8F4C8F5D8F232B242B252BEF
:1045A00009F469CF5F96CD90DD90ED90FC909297E5
:1045B00020E030E0A901C701B6010E940E6E181676
:1045C0000CF059CFF40183A094A0A5A0B6A020E0E0
:1045D00030E0A901C501B4010E940E6E18160CF05E
:1045E0004ACF20E030E040E85FE3C501B4010E941B
:1045F000AA6A87FF40CF81E0AE8DBF8D97968C93DE
:10460000979711963C922E92FD01428253826482CA
:10461000758229853A854B855C8516962D933D9349
:104620004D935C9319972D853E854F8558891A9631
:104630002D933D934D935C931D972D893E894F8912
:10464000588D1E962D933D934D935C935197E98D14
:104650005296EC93529729893A894B895C895396F3
:104660002D933D934D935C93569729813A814B81CD
:104670005C8157962D933D934D935C935A972A8D69
:104680003B8D4C8D5D8D5B962D933D934D935C934F
:104690005E97FD01C78ED0A2E1A2F2A293968D9201
:1046A0009D92AD92BC929697AE8DBF8D98961C92BE
:1046B000989799961C9299979A961C929A979B967E
:1046C0001C929B97FD0114A615A616A617A6D096B8
:1046D0001D921D921D921C92D39714AA15AA16AA78
:1046E00017AAD8961D921D921D921C92DB9714AEAC
:1046F00015AE16AE17AEE05CFF4F108231961082F9
:1047000011821282138234961082118212821382D5
:104710003496108211821282138234961082118292
:1047200012821382349610821182128213829D01AA
:104730002B5A3F4FD9011D921D921D921C92139727
:104740006F960FB6F894DEBF0FBECDBFDF91CF914D
:104750001F910F91FF90EF90DF90CF90BF90AF909F
:104760009F908F907F906F905F904F903F902F9091
:10477000089510E000E0F12CE12CD12CC12CB12CDB
:10478000A12C70CE40E060E08DE19AE00E94A4216F
:104790008823B1F042E061E08BE699E00E94A42119
:1047A000882371F043E062E084EC99E00E94A42148
:1047B000882331F045E063E082E199E00C94A42184
:1047C00080E008958F929F92AF92BF92CF92DF9236
:1047D000EF92FF920F931F93CF938091790E909158
:1047E0007A0EA0917B0EB0917C0E81339D44A7443C
:1047F000B74409F04CC080917D0E90917E0E0497D5
:1048000009F045C000917F0E1091800E0E947D211D
:1048100008171907E1F5C090A910D090AA10E090F0
:10482000AB10F090AC10E9E7FEE065EC7DE98CE1BF
:1048300091E821914B018226AC01940163E971E07A
:1048400080E091E00E94606E20E1E93AF20789F78A
:10485000C616D706E806F906D1F401E81EE0C0E066
:104860006C2FC8010E948D20882329F0CF5F085E3D
:104870001F4FCE30A9F7CF911F910F91FF90EF906E
:10488000DF90CF90BF90AF909F908F90089580E081
:10489000F2CFFC0182E598EBAEE5BFE382A393A3E0
:1048A000A4A3B5A380E090E0A0E0BFE386A397A314
:1048B000A0A7B1A780E090E0A0EFB1E482A793A702
:1048C000A4A7B5A780E090E0A0E8B0E486A797A7EA
:1048D000A0ABB1AB80E090E0A0E8BFE382AB93ABCC
:1048E000A4ABB5AB4CE45DE160E070E046AB57AB28
:1048F00060AF71AF20EB34E033AF22AF84AF95AF40
:10490000A6AFB7AF08958F929F92AF92BF92CF920A
:10491000DF92EF92FF92CF93DF93EC018880998032
:10492000AA80BB80C501B4010E947B0B892B09F4CE
:1049300098C0CC80DD80EE80FF80C701B6010E9468
:104940007B0B892B09F48DC020E030E040E85FE369
:10495000C501B4010E940E6E18160CF082C020E052
:1049600030E0A901C701B6010E940E6E18160CF0C6
:1049700078C088859985892B09F473C08E859F85B9
:10498000AC0170E060E0CA84DB84EC84FD844C15EB
:104990005D056E057F0508F064C0892B09F461C0D0
:1049A00081E08093281380E1FE01A8E1B3E101904A
:1049B0000D928A95E1F7288139814A815B816C816A
:1049C0007D818E819F810E94106B0E946E6C0E947F
:1049D0003A6D611571058105910509F446C0609332
:1049E0003713709338138093391390933A1381E0FF
:1049F0001092291310922A1310922B1310922C1339
:104A000010922D1310922E1310922F131092301318
:104A100010923113109232131092331310923413F8
:104A2000109235131092361310923B1310923C13D0
:104A300010923D1310923E1310923F13811106C045
:104A400095E09093291391E090932A13DF91CF91F1
:104A5000FF90EF90DF90CF90BF90AF909F908F909E
:104A600008951092281380E0C3CF81E090E0A0E089
:104A7000B0E08093371390933813A0933913B09319
:104A80003A13B6CF4F925F926F927F92BF92CF92BE
:104A9000DF92EF92FF920F931F93CF93DF93CDB7E7
:104AA000DEB7A2970FB6F894DEBF0FBECDBF0E944F
:104AB000E223B82E8E010F5F1F4F84E1F82EF8011C
:104AC0008F2D11928A95E9F7C801B11022C00E947A
:104AD0002D1AF801A0E4B3E101900D92FA94E1F7E8
:104AE0000E949C030E9465048B2DA2960FB6F89439
:104AF000DEBF0FBECDBFDF91CF911F910F91FF9011
:104B0000EF90DF90CF90BF907F906F905F904F902D
:104B100008950E942D1AF801A0E4B3E101900D92CE
:104B2000FA94E1F781E00E946521882321F086EE66
:104B30009FE00E94BB1788E00E946521882321F036
:104B400081ED9FE00E94120489E00E946521882384
:104B5000C9F140900B1050900C1060900D107090A7
:104B60000E10C0900710D0900810E0900910F0903F
:104B70000A1020E030E0A901C701B6010E940E6EC4
:104B800087FD1BC020E030EC4FE754E4C701B601BD
:104B90000E94AA6A18168CF0C301B2010E947B0B16
:104BA000892B59F0FF24F39420E030E0A901C301E0
:104BB000B2010E940E6E18160CF0F12CF0924913FF
:104BC0000E949C038DE00E9465218823C9F14090DA
:104BD0001310509014106090151070901610C09023
:104BE0000F10D0901010E0901110F090121020E0F3
:104BF00030E0A901C701B6010E940E6E87FD1BC0FF
:104C000020E030EC4FE754E4C701B6010E94AA6AE5
:104C100018168CF0C301B2010E947B0B892B59F04E
:104C2000FF24F39420E030E0A901C301B2010E9407
:104C30000E6E18160CF0F12CF0924D130E949C038E
:104C400084E00E946521811105C083E00E946521F6
:104C50008823A9F087E190E10E949F16F82E80E05A
:104C6000FF2019F084E00E9465218093441380E0C6
:104C7000FF2019F083E00E9465218093431386E0B2
:104C80000E946521882331F08FE390E10E94441552
:104C90008093461380E00E9465214091890E5091D7
:104CA0008A0E60918B0E70918C0E282F80E00E94EE
:104CB000860B82E00E9465214091B90E5091BA0E98
:104CC0006091BB0E7091BC0E282F82E00E94860B73
:104CD00085E00E9465214091010F5091020F609183
:104CE000030F7091040F282F85E00E94860B8AE045
:104CF0000E9465214091790F50917A0F60917B0F4E
:104D000070917C0F282F8AE00E94860B8BE00E9416
:104D100065214091910F5091920F6091930F709186
:104D2000940F282F8BE00E94860B87E00E9465215C
:104D3000882309F453C08091310F9091320FA091D4
:104D4000330FB091340F40E050E068E872E44D8BCF
:104D50005E8B6F8B788F4DEC5CEC6CEE7FE3498F54
:104D60005A8F6B8F7C8F20EB34E03AA329A38D8F71
:104D70009E8FAF8FB8A340E050E060E070E44D83B9
:104D80005E836F83788722E030E03A87298748E99D
:104D90005AE360E070E04B875C876D877E8728EE82
:104DA00033E0388B2F8789839A83AB83BC83CE0112
:104DB00045960E94B403882319F0C8010E948324F9
:104DC000809347131092171310921113109212131D
:104DD0001092131310921413109215138CE00E946A
:104DE0006521882329F1C090A90FD090AA0FE090E7
:104DF000AB0FF090AC0FC701B6010E947B0B892B63
:104E0000A1F020E030E0A901C701B6010E940E6EBA
:104E100018165CF411E02DEC3CEC4CEC5DE3C701A2
:104E2000B6010E94AA6A18160CF410E010934C13F5
:104E30000E949C0359CECF93DF930E940F0BEC018D
:104E400042E050E06EEE74E082ED9DE00E942C0A9C
:104E50008C0F9D1FDF91CF9108958F929F92AF92FB
:104E6000BF92CF92DF92EF92FF920F931F93CF9357
:104E7000DF9300916A1210916B12D0916C12C09165
:104E80006D12C0907612D0907712E0907812F09068
:104E9000791280906E1290906F12A0907012B09064
:104EA00071122091AF123091B0124091B112509115
:104EB000B212C701B6010E94106BA70196010E94B1
:104EC000106B6B017C0120E030E040E850E4609121
:104ED0008C1270918D1280918E1290918F120E947F
:104EE000106B209172123091731240917412509194
:104EF00075120E94106B9B01AC01C701B6010E94A4
:104F0000856C6B017C0198014D2F5C2FB8018D2FB2
:104F10009C2F0E94106B9B01AC01C701B6010E943F
:104F2000026C0E94196E6B017C019B01AC01B801FF
:104F30008D2F9C2F0E940E6E181674F09601A701FB
:104F4000B401C5010E94AA6A8601DE2DCF2D87FF1C
:104F500003C08401DA2DCB2DB8018D2F9C2FDF915A
:104F6000CF911F910F91FF90EF90DF90CF90BF9066
:104F7000AF909F908F9008954F925F926F927F9223
:104F80008F929F92AF92BF92DF92EF92FF920F9318
:104F90001F93CF93DF937C01480159014530E8F01E
:104FA000FC011082118212821382148281E08583B7
:104FB00086829782A086B186C701DF91CF911F912B
:104FC0000F91FF90EF90DF90BF90AF909F908F90E8
:104FD0007F906F905F904F900895E42FF0E0E8513C
:104FE000FC4F008160E0802F0E94AE0883E090E0DB
:104FF0000197F1F710E1D0E0C0E061E084E30E94A6
:10500000AE08CC0FDD1F82E30E94850861E070E0EE
:10501000892B11F470E060E0C62BD72B60E084E3AD
:105020000E94AE08115049F761E0802F0E94AE083F
:10503000DD24D3948E0104701127C2FFD12C83E0AC
:10504000D695C7958A95E1F7DF70BE0190E080E0C4
:105050000E94AF6A20E030E040E85EE30E94106BFF
:105060002B013C01F7014082518262827382012B45
:1050700099F420E030E040EA51EC0E940E6E87FD8A
:105080000BC0C1E020E030E046E953E4C301B201C7
:105090000E94AA6A18160CF4C0E0F701C483D582F6
:1050A00087CF2F923F924F925F926F927F928F9213
:1050B0009F92AF92BF92CF92DF92EF92FF920F93A7
:1050C0001F93CF93DF93CDB7DEB7CD52D1400FB64C
:1050D000F894DEBF0FBECDBFC05EDE4F99838883DC
:1050E000C052D1401B0129013A01FB01E95AFF4F8F
:1050F0000081002311F03A970081F101EE5AFF4F31
:1051000080809180A280B38034961081112311F0A9
:1051100039971081F101E25BFF4FC080D180E280BE
:10512000F3802091AC13C651DF4F2883CA5ED04074
:10513000112359F011E020E030E046E953E4C701C3
:10514000B6010E940E6E87FD10E0002311F40C944E
:105150001D4620E030E046E953E4C501B4010E9459
:105160000E6E87FF02C00C941D46C651DF4F38817A
:10517000CA5ED040363608F458C0111155C081E0DF
:1051800040916212509163126091641270916512A5
:10519000452B462B472B89F44114510461047104BB
:1051A000F1F1442D352D262D972D40936212309329
:1051B00063122093641290936512109266121092FB
:1051C0006712109268121092691240916212509107
:1051D0006312609164127091651241155105610569
:1051E000710509F482C073016201C41AD50AE60A86
:1051F000F70AB701A601C651DF4F2881CA5ED04029
:10520000263608F476C0811108C091E04C3D35E0A7
:1052100053076105710508F471C090E06FC041E06B
:1052200030E020E090E0C1CF012F10926212109286
:1052300063121092641210926512C651DF4F4881BA
:10524000CA5ED0404636A0F420E030E046E953E4A0
:10525000C701B6010E940E6E87FF0CC020E030E04F
:1052600046E953E4C501B4010E940E6E87FF02C0F7
:1052700080E0A3CF8091661290916712A09168128E
:10528000B0916912892B8A2B8B2B89F4411451041C
:105290006104710419F1342D252D962D872D30933D
:1052A000661220936712909368128093691280911E
:1052B000661290916712A0916812B0916912730101
:1052C0006201C81AD90AEA0AFB0AD701C6018C3D55
:1052D0009540A105B10538F480E077CF31E020E0BA
:1052E00090E080E0DCCF84E070CF40E050E0BA0195
:1052F00082CF82FB992790F921E092279093E013C7
:105300001093E1130093E2138093E3134093E413AB
:105310005093E5136093E6137093E71380914D1358
:10532000882371F080914A13882351F080914B13A8
:10533000882331F0F101E35BFF4F80818111892FD8
:1053400080935E138091AE10882309F463C110919D
:10535000AD1048E0149FF0011124EC57FB4F9181F0
:10536000992309F457C1D10117969C91992309F407
:1053700051C1E1E5F4E0823011F0EEE1F4E0C08CDF
:10538000D18CE28CF38CC651DF4FC882D982EA827D
:10539000FB82CA5ED0408091B010853021F520E0BC
:1053A00030E040E85EE3C701B6010E94106BC651D1
:1053B000DF4F688379838A839B83CA5ED04020E075
:1053C00030E040E85FE30E94AA6A87FF0CC020E05B
:1053D00030E040E85FE3C651DF4F288339834A83DA
:1053E0005B83CA5ED040809154138130E9F580918F
:1053F000761390917713A0917813B091791373017C
:105400006201C81AD90AEA0AFB0AC701B60120E0FC
:1054100030E0A901603107E270078105910590F441
:105420000E94AF6A20E030E44CE156E40E94856CB3
:105430009B01AC0160E070E080E89FE30E94016C9A
:105440009B01AC01C651DF4F688179818A819B81C4
:10545000CA5ED0400E94106BC651DF4F68837983CB
:105460008A839B83CA5ED040143061F480919D137F
:10547000882309F4CFC0F101E759FF4F80818823C9
:1054800009F4C8C0F101E45BFF4FC080CC2011F0EB
:105490007F96C080F101E85BFF4F2081318142811E
:1054A0005381CA51DF4F288339834A835B83C65EA9
:1054B000D04080911F1290912012A0912112B091A2
:1054C0002212812C912C54010097A105B10531F0D5
:1054D00053014201881A990AAA0ABB0A40921F1274
:1054E000509220126092211270922212CC2009F464
:1054F00047C0411451046104710409F494C0342D6F
:10550000252D962D872D30932712209328129093C6
:10551000291280932A1220E030E0A901CA51DF4FFE
:10552000688179818A819B81C65ED0400E940E6E1F
:10553000181634F5C501B4010E94AF6ACA51DF4F95
:10554000288139814A815B81C65ED0400E94106B00
:1055500020E030E64AE657E40E94856C20911B1259
:1055600030911C1240911D1250911E120E94026C2B
:1055700060931B1270931C1280931D1290931E1245
:10558000AA24A39420E030E040E85FE3C651DF4F57
:10559000688179818A819B81CA5ED0400E940E6EAB
:1055A00087FDA12C8091271290912812A091291299
:1055B000B0912A120097A105B10579F0B301A201BB
:1055C000481B590B6A0B7B0BDB01CA01893E9340D8
:1055D000A105B10510F40C949A4A20E030E040E8AF
:1055E0005FE3C651DF4F688179818A819B81CA5E02
:1055F000D0400E940E6ED12C87FD02C00C94CE4A82
:105600001092231210922412109225121092261238
:105610000C94ED4AC651DF4F188219821A821B8200
:10562000CA5ED0402FCF31E020E090E080E06BCF29
:1056300031E020E090E080E00C94E54ACA50DF4F72
:10564000188219821A821B82C65FD0400C94094BC3
:10565000C1010E945A0281110CC080916A138823F3
:1056600019F081E0809375130E94680289E08093AD
:10567000AD10F101E859FF4F8081811113C0809175
:1056800029138350823070F40E9465048091AD101C
:105690008B7F833039F4A3019201B10180E091E066
:1056A0000E94D419C090AD10CA51DF4FC882C65EA7
:1056B000D0408C2D8D7F31F0DD24D3940C2D07301C
:1056C00009F0D12C109129130DEFC02EC10ECA5034
:1056D000DF4FC882C65FD04000915D130023B9F050
:1056E00000914713002399F0F101EB59FF4F00811E
:1056F000002369F0C1010E945A02082F882339F063
:10570000DD2021F001E080916A13811100E0809199
:10571000281381110BC021E0CA50DF4F0881C65FFA
:10572000D040023008F4BBC220E0B9C2CA50DF4FFB
:105730002881C65FD040233070F301110EC0409124
:105740003C1350913D1360913E1370913F13E091D3
:105750002A1320E080E090E037C0F101E959FF4FC3
:10576000908131978081882311F40C94EE45992320
:1057700011F40C94914585E08093291382E0809385
:105780002A1340913C1350913D1360913E13709148
:105790003F13E2E015E0DDCF40913C1350913D1303
:1057A00060913E1370913F13992391F190913B13B7
:1057B00091110CC085E08093291386E080932A1311
:1057C000E6E015E020E080E030E07FC080902B1321
:1057D00090902C13A0902D13B0902E1373016201A2
:1057E000C818D908EA08FB0846015701C0902613DB
:1057F000D0902713F12CE12C8C149D04AE04BF042F
:1058000048F085E08093291380932A13E5E0C2CF06
:1058100010923B1380902B1390902C13A0902D137B
:10582000B0902E1373016201C818D908EA08FB086A
:105830008090221390902313A0902413B0902513EE
:10584000C814D904EA04FB0440F085E080932913CE
:1058500083E080932A13E3E09DCF80902F139090F4
:105860003013A0903113B090321381149104A1042D
:10587000B10499F073016201C818D908EA08FB085D
:1058800046015701C0902013D0902113F12CE12C38
:105890008C149D04AE04BF0498F0411451046104BB
:1058A000710409F4D9C0342D252D962D872D309300
:1058B0002F13209330139093311380933213802F42
:1058C000E0912A1320E090E031E03093151490939A
:1058D000161480931714209318144093191450939E
:1058E0001A1460931B1470931C1410931D14E093EE
:1058F0001E1480912913CA50DF4F0881C65FD04023
:10590000023008F4D9C19DEF980F923008F0D4C14D
:1059100080910813882309F48CC0E0903C13F09028
:105920003D1300913E1310913F13B701C8010E942F
:105930007B0B892B09F47DC020E030E0A901B70181
:10594000C8010E94AA6A87FF04C0E12CF12C00E084
:1059500010E0C090FA12CA51DF4FC882C65ED04034
:10596000D090FB12CA50DF4FD882C65FD040C090A3
:10597000FC12D090FD129701A801CA51DF4F688137
:10598000C65ED040CA50DF4F7881C65FD040C601A6
:105990000E94AA6A87FF0BC0CA51DF4FE880C65E2B
:1059A000D040CA50DF4FF880C65FD0408601C701A3
:1059B000D8018093091390930A13A0930B13B0930B
:1059C0000C131092111310921213109213131092C1
:1059D00014138090FE129090FF12A0900013B090CC
:1059E0000113A5019401B701C8010E940E6E18169B
:1059F0000CF060C1A5019401CA51DF4F6881C65EF9
:105A0000D040CA50DF4F7881C65FD040C6010E94A7
:105A1000016C9B01AC01B701C8010E94AA6A881FF2
:105A20008827881F809315131092161381E08093A6
:105A3000171310925D1310916A13112309F4BCC15E
:105A40008091AD10811105C0C1010E945A028111DF
:105A500063C10E946802D3C531E020E090E080E09D
:105A600026CF123009F015C19923A1F085E080936B
:105A7000291386E080932A1340913C1350913D13E3
:105A800060913E1370913F13E6E015E020E080E066
:105A900091E09ACE882309F468C040913C1350915C
:105AA0003D1360913E1370913F1380902B139090A3
:105AB0002C13A0902D13B0902E1373016201C818FF
:105AC000D908EA08FB0846015701C0902613D09078
:105AD0002713F12CE12C8C149D04AE04BF0440F07C
