:100000000C94FE010C94AE5F0C94835F0C94585FCB
:100010000C942D5F0C94025F0C94D75E0C94AC5E34
:100020000C94815E0C942F020C942F020C94396076
:100030000C942F020C942F020C942F020C942F027C
:100040000C942F020C942F020C942F020C942F026C
:100050000C942F020C942F020C942F020C94375EF8
:100060000C942F020C9403600C94D95F0C942F0213
:100070000C942F020C942F020C942F020C942F023C
:100080000C942F020C942F020C942F020C942F022C
:100090000C942F020C942F020C942F020C942F021C
:1000A0000C942F020C942F020C942F020C942F020C
:1000B0000C942F020C942F020C942F020C942F02FC
:1000C0000C942F020C942F020C942F020C942F02EC
:1000D0000C942F020C942F020C942F020C942F02DC
:1000E0000C942F020C94EE180C94425D0C94BB09F6
:1000F0000C941C5C0C9453090C9445080C947208E5
:100100000C94284C0C94855D0C9468080C942F0A70
:100110000C94305B0C9474090C94FD1F0C947F08B4
:100120000C945A080C9464080C941D190C94AA5B46
:100130000C9401190C94A2090C9460090C94840885
:100140000C94CA0F0C9416190C940D190C94E15CC4
:100150000C942A4C0C94ED090C945B090C947E09C8
:100160000C947F0A0C943F080C9486090C94D20FCF
:100170000C942D0B0C9451080C94AC090C94C50AEA
:100180000C946B0A0C94264C0C944D080C94A41FF0
:100190000C945C0A0C94E3090C94F8180C94A25C7F
:1001A0000C94671F0C9449080C940A190C948D0A3E
:1001B0000C94BC600C945E080C948E090C9454084A
:1001C0000C947A080C946C080C9413190C94C509BF
:1001D0000C9476080C9496180C946A090C9498095F
:1001E0000C942E0A0C94CF270C94785B0C94D909AC
:1001F0000C94FB180C94CF090C9480084E414E4986
:100200004E495459494E46CDCCCC3D0AD7233C17D4
:10021000B7D13877CC2B329595E6241FB14F0A0021
:100220000020410000C84200401C4620BCBE4CCA11
:100230001B0E5AAEC59D74434F4D4D414E445F5207
:10024000454A454354454400434F4D4D414E445F5C
:100250004F4B0043414C4942524154494F4E5F522B
:10026000455155495245445F4F5554505554535F7D
:10027000494E484942495445440043414C49425241
:100280004154494F4E5F5245434F52445F56345F8D
:100290004C4F41444544004D4154455249414C5F07
:1002A00053454C454354494F4E5F52455155495271
:1002B0004544002052454144592053455249414C40
:1002C0005F544558545F4241434B454E44002062C1
:1002D0006173653D00505052200000002100240051
:1002E00027002A002D003000330001010000040126
:1002F00007010A0100002200250028002B002E0023
:100300003100340002010000050108010B0100006A
:1003100020002300260029002C002F0032000001BD
:100320000000030106010901050505050705080888
:100330000808020202020A0A08080404040401016F
:100340000101010101010303030303030303040784
:1003500007070C0C0C0C0C0C0C0C0202020206061B
:100360000606060606060B0B0B0B0B0B0B0B01020E
:1003700010202008081020401020408002010201B7
:10038000080402010102040810204080804020106F
:1003900008040201800402018040201008040201C8
:1003A0000804020101020408102040800102040830
:1003B0001020408000000A0B02090C0D0E080703F4
:1003C0000401000000000000000000000000000028
:1003D000000000000000000000000000000000001D
:1003E00012111000000000000000000000000000DA
:1003F00000000000000000000000BC6011241FBECF
:10040000CFEFD1E2DEBFCDBF00E00CBF24E1A0EE14
:10041000B8E001C01D92A738B207E1F718E0A0E0EC
:10042000B2E0EAEAF3EE00E00BBF02C007900D92E3
:10043000A03EB107D9F711E0CEEFD1E000E006C051
:1004400021970109802FFE010E949D6DCD3FD107AC
:1004500080E00807A9F70E94C6640C94D3710C943D
:1004600000009091BF1091110AC09091C210981392
:1004700006C09730A1F028F487E0963089F080E03C
:100480000895983089F09930D1F78091C110809308
:10049000C0101092C110813049F082E001C088E0A4
:1004A0008093C21081E0089589E0FACF81E0F8CF0F
:1004B000FC018081882349F08181882331F0828189
:1004C000882319F0838181118781089510927C130C
:1004D00010927D1310927E1310927F13109280134E
:1004E000109281131092821310928313109284132E
:1004F000109285131092861308958091C010813058
:1005000031F49091C210913049F080E007C0823000
:10051000E1F781E09091C2109230B9F7089590917F
:10052000BF10911119C09091C010992311F0891337
:1005300013C08093C0101092C110813059F082E036
:100540008093C2100E9466021092AF131092B013F3
:1005500081E0089581E0F4CF80E008958091541304
:10056000882309F1809155138823E9F0809156136F
:100570008823C9F0809157138823A9F080915813DC
:10058000882389F080915913882369F080915A1348
:10059000882349F080915C13882329F080915D13B2
:1005A000811180915E1308954F925F926F927F92B6
:1005B0008F929F92AF92BF92CF92DF92EF92FF9273
:1005C0000F931F93CF93DF938C015A01CB010397B5
:1005D0008A3F934030F4C1E0CA0103978A3F9340B9
:1005E00008F0C0E0D091B011DD2309F49CC02223B3
:1005F00009F499C0CC2309F497C090E080E00E94F0
:10060000A66920919C1130919D1140919E115091AD
:100610009F110E94F86A2091A0113091A111409180
:10062000A2115091A3110E94076A6B017C01B501D0
:1006300090E080E00E94A6692091A4113091A5115C
:100640004091A6115091A7110E94F86A2091A8111B
:100650003091A9114091AA115091AB110E94076AE3
:100660004B015C014090AC115090AD116090AE1107
:100670007090AF11C092B111D092B211E092B3114B
:10068000F092B4118092B5119092B611A092B71168
:10069000B092B811A7019601C501B4010E94F96A90
:1006A00020E030E040E05FE30E94076A6093B91108
:1006B0007093BA118093BB119093BC11A501940162
:1006C000C701B6010E94F86A9F776093BD117093CD
:1006D000BE118093BF119093C0114092C1115092EE
:1006E000C2116092C3117092C411C093C511D0930E
:1006F000C61186E1E1EBF1E1D80101900D928A95F6
:10070000E1F7C801DF91CF911F910F91FF90EF901A
:10071000DF90CF90BF90AF909F908F907F906F9021
:100720005F904F900895C0E0C12CD12C7601460116
:10073000570198CF809153138093601380915A137F
:100740008093611380915B138093621380915F1398
:100750008093631380915613811180915513809378
:1007600064130895CF93DF93EC0120E030E040E87C
:100770005FE3688179818A819B810E94056D1816EB
:100780000CF04AC020E030E0A9016C817D818E81AF
:100790009F810E94056D18160CF03EC020E030E0ED
:1007A00040E85FE3688579858A859B850E94056DB1
:1007B000181694F58C859D85892B71F181E08093C5
:1007C0001A138EE0FE01ACE0B3E101900D928A9520
:1007D000E1F781E010921B1310921C1310921D136D
:1007E00010921E1310921F131092201310922113B7
:1007F0001092221310922313109224131092251397
:1008000010922613109227131092281391E09093C0
:100810002913DF91CF91089510921A1380E0DACF57
:10082000CF92DF92EF92FF920F931F93CF938C01A1
:10083000FC01C489CC23B9F120E030E0A901648136
:100840007581868197810E94A1691816D4F520E0F0
:1008500030E0A901F80164857585868597850E9439
:10086000A169181674F5F801C088D188E288F38868
:1008700020E030E0A901C701B6010E94A169181665
:1008800004F52DEC3CEC4CE45DE3C701B6010E949D
:10089000056D1816B4F085E1F801ACE9B1E10190FD
:1008A0000D928A95E1F7C0935A130E949A038091A2
:1008B0005A13CF911F910F91FF90EF90DF90CF903F
:1008C0000895C0E0F0CF10926F1310923B13109276
:1008D0003C1310923D1310923E1310923F1310924E
:1008E000401310924113109242131092431310922E
:1008F000441310924513109246131092471310920E
:10090000481310924D1310924E1310924F131092E1
:100910005013109251131092291310922313109216
:100920002413109225131092261310922713E7E236
:10093000F4E18AE0DF011D928A95E9F7E9E1F4E14B
:100940008EE0DF011D928A95E9F710926C1381E029
:1009500080936D1308953F924F925F926F927F92B2
:100960008F929F92AF92BF92CF92DF92EF92FF92BF
:100970000F931F93CF93DF9300D000D000D01F922E
:10098000CDB7DEB79E838D83F091BF1030907C137E
:10099000EBE0FA30D1F1F93039F480916B13E9E0F2
:1009A000811133C0EAE031C0E2E031102EC0F230F4
:1009B00049F580916A13E3E0811127C080916613A5
:1009C0009FEF980FE6E0923000F1E7E08330E9F026
:1009D000E8E08430D1F0E4E0F11117C080916113B8
:1009E000882371F080916313882351F080915C1308
:1009F000882331F080915D13E0916513811105C06A
:100A0000E0E003C0E5E0F430C9F6809194139091E2
:100A10009513A0919613B0919713412C512C32014C
:100A20000097A105B10531F02A013B01481A590A86
:100A30006A0A7B0A8091981390919913A0919A1356
:100A4000B0919B13812C912C54010097A105B10505
:100A500031F04A015B01881A990AAA0ABB0A8091FF
:100A60008C1390918D13A0918E13B0918F13C12C84
:100A7000D12C76010097A105B10531F06A017B0107
:100A8000C81AD90AEA0AFB0A80917113882309F46B
:100A900061C18091731390917413A0917513B091FB
:100AA00076138A019B01081B190B2A0B3B0B0F8342
:100AB000188729873A8780917D13882309F44FC1CD
:100AC00080917F1390918013A0918113B091821334
:100AD0008A019B01081B190B2A0B3B0B09831A8304
:100AE0002B833C8380917E13882309F43DC1809140
:100AF000831390918413A0918513B0918613481BA2
:100B0000590B6A0B7B0BAD81BE81EC931196FC9364
:100B100011978091C21012968C9312978091661350
:100B200013968C931397E0916713F09168131596C1
:100B3000FC93EE93149794E1E2E5F3E116960190AD
:100B40000D929A95E1F790917013ED81FE81928F4D
:100B500090916913938F90916C13948F90916D1372
:100B6000958F90916E13968F9091AF13978FE09120
:100B70009911F0919A11AD81BE819196FC93EE93FB
:100B8000909791E0E091E710E53009F090E0ED8179
:100B9000FE8192A390919C1393A344A255A266A2B6
:100BA00077A280A691A6A2A6B3A6C4A6D5A6E6A6BD
:100BB000F7A60F81188529853A8500AB11AB22ABCA
:100BC00033AB34AA09811A812B813C8105AB16AB6A
:100BD00027AB30AF41AF52AF63AF74AF91E0843019
:100BE00009F090E0AD81BE81DD969C93DD97FD011B
:100BF000FE968091B2139091B313A091B413B0916B
:100C0000B51380839183A283B383ED81FE81EE5B74
:100C1000FF4F8091A1139091A213A091A313B091C3
:100C2000A41380839183A283B383ED81FE81EA5B69
:100C3000FF4F8091A9138083ED81FE81E95BFF4F17
:100C40008091B0138083AD81BE81A85BBF4F8DE1E1
:100C5000EFEBF3E101900D928A95E1F7AD81BE8152
:100C6000AB59BF4F86E1ECEDF3E101900D928A950F
:100C7000E1F7AD81BE81A558BF4F88E0E2EFF3E117
:100C800001900D928A95E1F7AD81BE81AD57BF4FBE
:100C90008FE1EAEFF3E101900D928A95E1F7AD81E2
:100CA000BE81AE55BF4F8EE0E9E1F4E101900D92B7
:100CB0008A95E1F7AD81BE81A055BF4F8AE0E7E29A
:100CC000F4E101900D928A95E1F7AD81BE81A654C1
:100CD000BF4F8CE4E1E3F4E101900D928A95E1F7D6
:100CE000ED81FE81EA5FFE4F80917D1490917E142C
:100CF000A0917F14B091801480839183A283B383E9
:100D0000ED81FE81E65FFE4F8091881390918913FB
:100D1000A0918A13B0918B1380839183A283B383B4
:100D20008D819E812A960FB6F894DEBF0FBECDBF8F
:100D3000DF91CF911F910F91FF90EF90DF90CF90B7
:100D4000BF90AF909F908F907F906F905F904F90EB
:100D50003F9008951F82188619861A86ACCE198294
:100D60001A821B821C82BECE40E050E0BA01CBCE7C
:100D7000CF92DF92EF92FF920F931F93CF938C014C
:100D80006A017B01E091BF1088E0E89FF001112427
:100D9000EB57FB4FC481CC23B9F0809166138823B5
:100DA00011F0833081F4C1E020E030E0A9016091CE
:100DB000BF137091C0138091C1139091C2130E9410
:100DC000056D18160CF0C0E0F8018581968100973A
:100DD000B1F4C11114C01092B8131092B91310924B
:100DE000BA131092BB131092BC131092BD13CF9183
:100DF0001F910F91FF90EF90DF90CF900895209179
:100E0000B8132111F4CF892B11F4CC2381F381E0A5
:100E10008093B8131092B913C092BA13D092BB1337
:100E2000E092BC13F092BD13E2CFAF92BF92CF928B
:100E3000DF92FF920F931F93CF93DF93CDB7DEB76F
:100E400063970FB6F894DEBF0FBECDBF8C01F09054
:100E5000BF106AE0F6125BC083E1A0E2B0E0AC0F25
:100E6000BD1F1D928A95E9F7FE01BE9690E09E0196
:100E70002E5C3F4F81919111892F982F2E173F079C
:100E8000C9F728A139A14FA158A59CA5F8017396CF
:100E90006F01B8016F5D7E4F5B012115310509F0CF
:100EA0005CC06AA1611159C06BA17CA1672B09F0DC
:100EB00054C06DA17EA1672B09F04FC041155105AB
:100EC00009F0BBC091114CC09AA99111ABC079E057
:100ED000F712A1C0811169C04BA95CA96DA97EA9B7
:100EE000CE0180960E94B80683E1FE01B096D8013B
:100EF00001900D928A95E1F74BA95CA96DA97EA995
:100F0000C6010E94AB0481E0F501808373C0B9E0A3
:100F1000FB12AACFFE01319683E1DF011D928A9573
:100F2000E9F78091C0108823B1F080917013882375
:100F300091F08091671382FD0EC08091871381111B
:100F40000AC089A58A8783E1DE01909601900D92FF
:100F50008A95E1F789CF80E0F5CF992309F464C041
:100F600090912714992341F090913B139350452B76
:100F700019F4923008F05BC091E0232B49F02BA1CB
:100F80003CA1232B91F4811110C0992309F453C083
:100F900080916C13882349F080913B1383508230F9
:100FA00020F40E94AE02811192CF89E08093BF109D
:100FB00083E1F82EA0E2B0E0AC0FBD1FEF2D1D9233
:100FC000EA95E9F74BA95CA96DA97EA9CE018096A7
:100FD0000E94B806FE01B096D80101900D92FA94D5
:100FE000E1F74BA95CA96DA97EA9C6010E94AB04DB
:100FF000D5011C92C80163960FB6F894DEBF0FBEF0
:10100000CDBFDF91CF911F910F91FF90DF90CF90D7
:10101000BF90AF9008959AE0F9125ECF8111C5CFCD
:1010200089A558CF892F53CF452B09F0A5CF90E044
:10103000232B09F0A4CF81E04ACF992309F49CCF58
:101040008FCF8150823108F05AC0E82FF0E0882716
:10105000E35DF74F8F4F0C949D6D4D0851083F088D
:10106000450849087F0854085A085E08640868085B
:101070006C08720876087F087A08800884088091D6
:1010800080008F77809380000895809180008F7D0D
:10109000F9CF80918000877FF5CF84B58F7784BDAD
:1010A000089584B58F7DFBCF8091B0008F778093BA
:1010B000B00008958091B0008F7DF9CF80919000AD
:1010C0008F77809390000895809190008F7DF9CF65
:1010D00080919000877FF5CF8091A0008F778093DB
:1010E000A00008958091A0008F7DF9CF8091A0008D
:1010F000877FF5CF809120018F778093200108951D
:10110000809120018F7DF9CF80912001877FF5CFDD
:10111000CF93DF93282F30E0F901EC54FC4F8491FA
:10112000F901E259FC4FD491F901E85DFC4FC491FB
:10113000CC23A1F081110E942108EC2FF0E0EE0FEA
:10114000FF1FE25FFC4FA591B491EC91ED2381E08C
:1011500090E009F480E0DF91CF91089580E090E085
:10116000FACF1F93CF93DF93282F30E0F901EC548F
:10117000FC4F8491F901E259FC4FD491F901E85DEB
:10118000FC4FC491CC23A9F0162F81110E94210895
:10119000EC2FF0E0EE0FFF1FEC50FD4FA591B49146
:1011A0008FB7F894EC91111108C0D095DE23DC9331
:1011B0008FBFDF91CF911F910895DE2BF8CFCF9392
:1011C000DF9390E0FC01E259FC4F2491885D9C4F35
:1011D000FC0184918823C9F090E0880F991FFC01DD
:1011E000E652FD4FA591B491FC01EC50FD4FC59125
:1011F000D49161110DC09FB7F8948C9120958223F2
:101200008C938881282328839FBFDF91CF910895F5
:10121000623051F49FB7F8943C91822F80958323DC
:101220008C93E8812E2BEFCF8FB7F894EC912E2B77
:101230002C938FBFEACF1F93CF93DF93182FEB012F
:1012400061E00E94DF08209739F460E0812FDF9190
:10125000CF911F910C94B108CF3FD10511F461E0FB
:10126000F5CFE12FF0E0EC54FC4FE491E150E23196
:1012700008F0B3C0F0E08827EF5BF64F8F4F0C9477
:101280009D6D53095B0960096A097409ED097E09BE
:1012900086098E099809A209AC09BB09C509ED099F
:1012A000CF09D909E30984B5806884BDC7BDDF9142
:1012B000CF911F91089584B5806284BDC8BDF7CFDA
:1012C00080918000806880938000D0938900C093D3
:1012D0008800EDCF80918000806280938000D09361
:1012E0008B00C0938A00E3CF809180008860809358
:1012F0008000D0938D00C0938C00D9CF8091B00036
:1013000080688093B000C093B300D1CF8091B000CB
:1013100080628093B000C093B400C9CF80919000E8
:10132000806880939000D0939900C0939800BFCFBD
:1013300080919000806280939000D0939B00C09336
:101340009A00B5CF80919000886080939000D093F0
:101350009D00C0939C00ABCF8091A00080688093DB
:10136000A0008091A0008F7B8093A000D093A90063
:10137000C093A8009CCF8091A00080628093A000C1
:10138000D093AB00C093AA0092CF8091A000886058
:101390008093A000D093AD00C093AC0088CF809123
:1013A0002001806880932001D0932901C0932801F7
:1013B0007ECF80912001806280932001D0932B0109
:1013C000C0932A0174CF809120018860809320010E
:1013D000D0932D01C0932C016ACFC038D1050CF0F9
:1013E0003ECF33CF90917B00977F90937B008653C5
:1013F000806480937C0080917A00806480937A007E
:1014000080917A0086FDFCCF8091780090917900E0
:1014100008953FB7F8948091E00D9091E10DA0916F
:10142000E20DB091E30D26B5A89B05C02F3F19F042
:101430000196A11DB11D3FBFBA2FA92F982F882754
:10144000BC01CD01620F711D811D911D42E0660F2F
:10145000771F881F991F4A95D1F708950895AF9275
:10146000BF92CF92DF92EF92FF920F931F93CF9391
:10147000DF936C017B018B01040F151FEB015E01F3
:10148000AE18BF08C017D10759F06991D601ED9188
:10149000FC910190F081E02DC6011995892B79F717
:1014A000C501DF91CF911F910F91FF90EF90DF90D9
:1014B000CF90BF90AF900895FC01538D448D252FA0
:1014C00030E0842F90E0821B930B541710F0CF96DE
:1014D000089501970895FC01918D828D981761F010
:1014E000A28DAE0FBF2FB11D5D968C91928D9F5F27
:1014F0009F73928F90E008958FEF9FEF0895FC0106
:10150000918D828D981731F0828DE80FF11D858DB8
:1015100090E008958FEF9FEF0895FC01918D228D4B
:10152000892F90E0805C9F4F821B91098F739927D0
:10153000089584EE9DE00E948D0A21E0892B09F434
:1015400020E0822F0895FC01A48DA80FB92FB11DB2
:10155000A35ABF4F2C91848D90E001968F739927E9
:10156000848FA689B7892C93A089B1898C918370C7
:1015700080648C93938D848D981306C00288F389C0
:10158000E02D80818F7D80830895EF92FF920F93ED
:101590001F93CF93DF93EC0181E0888F9B8D8C8D1F
:1015A00098131AC0E889F989808185FF15C09FB713
:1015B000F894EE89FF896083E889F98980818370D6
:1015C000806480839FBF81E090E0DF91CF911F9185
:1015D0000F91FF90EF900895F62E0B8D10E00F5FA6
:1015E0001F4F0F731127E02E8C8D8E110CC00FB67C
:1015F00007FCFACFE889F989808185FFF5CFCE0114
:101600000E94A30AF1CFEB8DEC0FFD2FF11DE35AE1
:10161000FF4FF0829FB7F8940B8FEA89FB89808196
:101620008062CFCF0F931F93CF93DF938C01D0E0D5
:10163000C0E0F801EC0FFD1F6491662341F084EED9
:101640009DE00E94C50A892B11F02196F2CFCE01B0
:10165000DF91CF911F910F910895CF93DF93EC010C
:10166000888D8823B9F0AA89BB89E889F9898C918A
:1016700085FD03C0808186FD0DC00FB607FCF7CF46
:101680008C9185FFF2CF808185FFEDCFCE010E9446
:10169000A30AE9CFDF91CF91089580E090E0892BF4
:1016A00029F00E94990A81110E94000080E090E0D8
:1016B000892B49F080E090E0892B29F00E940000FE
:1016C00081110E94000080E090E0892B49F080E0C9
:1016D00090E0892B29F00E94000081110E940000F7
:1016E00080E090E0892B49F080E090E0892B29F0A0
:1016F0000E94000081110C9400000895682F660F6D
:10170000692F661F81E090E06F3F11F490E080E068
:101710000895CF92DF92EF92FF92CF93DF93D82F6D
:101720006A017B01C22F2223E1F0CB01BA010E94A2
:101730007E0B892BA9F02DEC3CEC4CEC5DE3C70152
:10174000B6010E94056D87FD0BC0C1E020E030E0CE
:1017500040E855E4C701B6010E94A16918160CF4CF
:10176000C0E0D330F9F030F4DD2369F0D230B9F0C5
:10177000C0E00DC0DA30C9F0DB30D1F0D530C1F7B0
:10178000C093571302C0C09352130E949A038C2F28
:10179000DF91CF91FF90EF90DF90CF900895C093AD
:1017A0005413F3CFC0935513F0CFC0935C13EDCF18
:1017B000C0935D13EACF2F923F924F925F926F9248
:1017C0007F928F929F92AF92BF92CF92DF92EF92D1
:1017D000FF920F931F93CF93DF93CDB7DEB76A9736
:1017E0000FB6F894DEBF0FBECDBF9A8F898F8B01E5
:1017F0002D873E874F87588B8AE0A98DBA8D1D9221
:101800008A95E9F7FB01E35BFF4F80819181A2811B
:10181000B381E98DFA8D82879387A487B587FB0111
:10182000EF5AFF4F80819181A281B381E98DFA8DBA
:1018300086879787A08BB18BFB01EB5AFF4F808186
:101840009181A281B381E98DFA8D828B938BA48BD8
:10185000B58BDB0197968C9197978823D1F1989659
:101860008C9198978823A9F19C964D905D906D90EE
:101870007C909F97DA01C90184199509A609B709D7
:1018800086839783A087B187FB01238934894589A3
:1018900056892D833E834F835887281739074A0777
:1018A0005B0790F583E0A98DBA8D15968C9312A6EF
:1018B000EB5BFF4F108211821282138235971082E8
:1018C000FB0114AE15AE16AE17AE40AE51AE62AE11
:1018D00073AE898D9A8D6A960FB6F894DEBF0FBEEF
:1018E000CDBFDF91CF911F910F91FF90EF90DF90CF
:1018F000CF90BF90AF909F908F907F906F905F90B0
:101900004F903F902F90089581A5882311F380ADCB
:1019100091ADA2ADB3AD73016201C81AD90AEA0A4A
:10192000FB0A86859785A089B189C816D906EA067B
:10193000FB0608F44DC064AD75AD86AD97AD8288E9
:10194000912CB12CA12C681579058A059B0508F40A
:101950003FC01801F1E42F0E311C0E94A66920EC53
:1019600031EE44E65CE40E94076A4B015C01D80159
:101970006D917C9190E080E00E94A66969837A83F2
:101980008B839C83C701B6010E94A6699B01AC01B1
:1019900069817A818B819C810E94076A9B01AC01DD
:1019A000C501B4010E947C6BF10160837183828365
:1019B000938381E031978083D801D8964D925D92D0
:1019C0006D927C92DB97F80114AE15AE16AE17AE91
:1019D000D801D096CD90DD90ED90FC90D397C114B6
:1019E000D104E104F10409F47BC06D917C9161158F
:1019F000710509F475C090E080E00E94A6694B0172
:101A00005C01C701B6010E94A6699B01AC01C5013A
:101A1000B4010E94076A9B01AC0160EC71EE84E6A0
:101A20009CE40E947C6B698379871C01F801E05C6F
:101A3000FF4F8081882309F458C029813985A1018D
:101A4000F80162857385848595850E94A1691816C1
:101A50000CF44BC0F801EF5BFF4F208129833181EB
:101A600039872280338082E0A98DBA8D15968C93B8
:101A7000F80182A581113BC089819985D101EB5B79
:101A8000FF4F80839183A283B38381E0D8019A962C
:101A90008C93F801E75BFF4F2D853E854F85588974
:101AA00020833183428353833497C080D180E28086
:101AB000F38020E030E0A901C701B6010E94A169CE
:101AC00087FF03C0C12CD12C7601A98DBA8DCD9290
:101AD000DD92ED92FC92139781E014968C93F9CEEF
:101AE00019821986212C312CA1CF81E0BDCFE75B73
:101AF000FF4F80819181A281B381F801238D348DC4
:101B0000458D568D2D8B3E8B4F8B588F0097A105A1
:101B1000B10589F04D845E846F847888481A590A2B
:101B20006A0A7B0A2D813E814F815885241535052F
:101B30004605570520F44D885E886F88788CC30170
:101B4000B2010E94A669698B7A8B8B8B9C8B20E0FB
:101B500034E244E759E40E947C6BD8015F962D91F2
:101B60003D914D915C9192970E94076A4B015C01F7
:101B7000F801EB5BFF4FC080D180E280F380AC01C5
:101B80009B01C701B6010E94F86A6D837A878B8733
:101B90009C8729813985A1010E94056D1816BCF02A
:101BA000A5019401C701B6010E94F96A6D837A8785
:101BB0008B879C8729813985A1010E94A16987FDB6
:101BC00006C0B981BD83E985EA872B863C8658012A
:101BD000F5E4AF0EB11C6D897E898F89988D640DF7
:101BE000751D861D971D0E94A6699B01AC01698920
:101BF0007A898B899C890E947C6B2B013C01A7010F
:101C000096016D817A858B859C850E94F86A9B017F
:101C1000AC01C301B2010E94076AA70196010E94AC
:101C2000F96AD5016D937D938D939C93139731CF72
:101C30004F925F926F927F928F929F92AF92BF92DC
:101C4000CF92DF92EF92FF920F931F93CF93DF9388
:101C500000D000D0CDB7DEB79A838983FC0117A1ED
:101C60001123B9F000A501112CC081E080A744A781
:101C700055A766A777A740AF51AF62AF73AFE35BDD
:101C8000FF4F81E090E0A0E0B0E080839183A283E9
:101C9000B383812F26960FB6F894DEBF0FBECDBF5B
:101CA000DF91CF911F910F91FF90EF90DF90CF9038
:101CB000BF90AF909F908F907F906F905F904F906C
:101CC0000895E981FA8184A595A5A6A5B7A56A011D
:101CD0007B01C81AD90AEA0AFB0A8789908DA18D6F
:101CE000B28DC816D906EA06FB0690F4EF5AFF4FEC
:101CF000FA83E98340815181628173814F5F5F4F35
:101D00006F4F7F4F408351836283738310E0C1CF55
:101D100029813A813E832D83F90144A755A766A7FF
:101D200077A7E35BFF4F80819181A281B381019608
:101D3000A11DB11D80839183A283B383F90184AD7A
:101D400095ADA6ADB7AD0196A11DB11D84AF95AF00
:101D5000A6AFB7AFC114D104E104F10409F452C035
:101D6000608171816115710509F44CC090E080E0DB
:101D70000E94A6694B015C01C701B6010E94A669D9
:101D80009B01AC01C501B4010E94076A9B01AC0133
:101D900060EC71EE84E69CE40E947C6B4B015C017C
:101DA00020E030E040E05FE3ED81FE8162817381FD
:101DB000848195810E94076AA50194010E94A1690E
:101DC000181624F120E030E040EA5FE3ED81FE8167
:101DD00066817781808591850E94076AA5019401BB
:101DE0000E94056D87FD12C0ED81FE8111A51111C4
:101DF00021C0ED81FE81C0AAD1AAE2AAF3AA81E0A6
:101E000081A715C0812C912C5401CACFED81FE8190
:101E1000EB5AFF4F80819181A281B3810196A11D70
:101E2000B11D80839183A283B383ED81FE8113A6CC
:101E3000102F2FCFED81FE8180A991A9A2A9B3A96E
:101E400046015701C816D906EA06FB0610F44C01F4
:101E50005D0120E030E0A90181149104A104B104E6
:101E6000E9F08C159D05AE05BF0570F5A70196013B
:101E7000281B390B4A0B5B0BCA01B9010E94A669EA
:101E80002B013C01C501B4010E94A6699B01AC0174
:101E9000C301B2010E947C6B9B01AC01ED81FE810C
:101EA00083A094A0A5A0B6A0C501B4010E94056DB1
:101EB000ED81FE8187FD0FC0C0AAD1AAE2AAF3AAD4
:101EC00081E081A713A6E5CEBC01CD016C197D0987
:101ED0008E099F09D3CF03A50023E1F184A995A919
:101EE000A6A9B7A926013701C816D906EA06FB0636
:101EF00010F42C013D0120E030E0A901411451040F
:101F00006104710409F18C159D05AE05BF05D8F576
:101F1000A7019601281B390B4A0B5B0BCA01B901BB
:101F20000E94A66969837A838B839C83C301B20173
:101F30000E94A6699B01AC0169817A818B819C8199
:101F40000E947C6B9B01AC01C501B4010E94056D30
:101F500087FF4FCFED81FE81C4AAD5AAE6AAF7AAD2
:101F600081E083A7EB5AFF4FFA83E98340815181D7
:101F7000628173814F5F5F4F6F4F7F4F408351830B
:101F80006283738386CEBC01CD016C197D098E09F5
:101F90009F09C6CF0E94090AAB01BC0181E39AE008
:101FA0000C94180E0E94090AAB01BC0188ED99E05F
:101FB0000C94180EFC0113A214A215A216A217A2CB
:101FC00010A611A612A613A614A615A616A617A645
:101FD00010AA11AA12AA13AA14AA15AA16AA178E31
:101FE00010A211A212A208952F923F924F925F92D7
:101FF0006F927F928F929F92AF92BF92CF92DF9219
:10200000EF92FF920F931F93CF93DF93CDB7DEB77D
:10201000A5970FB6F894DEBF0FBECDBF9A83898314
:102020001B014901B42E5B8327013801CB86AC86A6
:10203000FC01349686E1DF011D928A95E9F7FB01E8
:10204000668D662319F0FC85F11147C050E040E031
:1020500030E020E0852F942FA32FB22FE981FA8161
:1020600080839183A283B383408651866286738680
:10207000662369F0BC85BB2351F020E030E0A90164
:10208000B4018B2D9B810E94A16981112BC0C101DC
:102090000E94DA0FAA24A394EC85AE26A981BA8106
:1020A0005296AC9289819A81A5960FB6F894DEBFBC
:1020B0000FBECDBFDF91CF911F910F91FF90EF9099
:1020C000DF90CF90BF90AF909F908F907F906F9058
:1020D0005F904F903F902F900895522F492D3B2DA8
:1020E0002B81B8CFF101878D81110AC081E0878FE4
:1020F0002BAD3CAD4DAD5EAD23A734A745A756A78C
:10210000F10183A594A5A5A5B6A5CBACDCACEDAC3F
:10211000FEACC81AD90AEA0AFB0AC701B6010E9436
:10212000A6696F83788789879A87D10152966D91C6
:102130007C9190E080E00E94A6699B01AC016F81D8
:10214000788589859A850E947C6B6D877E878F87CD
:10215000988B2DEC3CEC4CE45DE30E94A16987FD7B
:102160007BC220E030E040E85FE36D857E858F85AF
:1021700098890E94056D181644F420E030E040E88C
:102180005FE32D873E874F87588B2D853E854F8592
:102190005889B4018B2D9B810E94076A4B015C0119
:1021A000A981BA8114968D929D92AD92BC92179797
:1021B00020E030E0A9010E94056D87FD56C220E0B5
:1021C00030E040E85FE3298F3A8F4B8F5C8FE894D3
:1021D000B7F8A3019201698D7A8D8B8D9C8D0E9439
:1021E000076A9B01AC01C501B4010E94F86A698BC2
:1021F0007A8B8B8B9C8BA981BA811C966D937D9376
:102200008D939C931F97BB85BB2359F081E0F1010F
:1022100080A32BAD3CAD4DAD5EAD27A730AB41AB40
:1022200052ABF10180A1882361F087A590A9A1A9F3
:10223000B2A9CBACDCACEDACFEACC81AD90AEA0A48
:10224000FB0AFB85F1110DC021E02B87F101848988
:102250009589A689B789C816D906EA06FB0608F04B
:102260001B86EB85A981BA815296EC93529781E047
:10227000E827EBA35396EC93D10191968C9191971B
:102280009AE0C92E97EDD92E93EAE92E9CE3F92E18
:10229000882399F197968D919D910D90BC91A02DD9
:1022A0002BAD3CAD4DAD5EAD281B390B4A0B5B0B26
:1022B000CA01B9010E94A66920E030E04AE754E46F
:1022C0000E947C6B6B017C012FE632E143E85AE30C
:1022D0000E94A16987FDD2C12DEC3CEC4CEC5DE382
:1022E000C701B6010E94056D18163CF42DECC22EF4
:1022F0002CECD22EED2C2DE3F22E8BAD9CADADADA2
:10230000BEADF10187A390A7A1A7B2A781E081A3E9
:1023100024813581468157812B833C834D835E83A5
:1023200040805180628073801085612F70E090E062
:1023300080E00E94A6696F8F78A389A39AA3F10118
:102340000185202F30E03E8F2D8F412F50E05DA37F
:102350004CA3A5019401C301B2010E94A16987FFAA
:1023600096C1A3019201C501B4010E94F86A4B0114
:102370005C01A30192016B817C818D819E810E9411
:10238000F86A9B01AC01C501B4010E947C6B4B0152
:102390005C016D8D7E8D8CA19DA1681B790B072E34
:1023A000000C880B990B0E94A8699B01AC01C50128
:1023B000B4010E94076A2F8D38A149A15AA10E9439
:1023C000F96A4B01B82EA92E602F70E090E080E0F2
:1023D0000E94A6693B018C016D8D7E8D7195619582
:1023E0007109072E000C880B990B0E94A8696D8B50
:1023F0007E8B8F8B988FA701960169897A898B894B
:102400009C890E94076AD10193962D913D914D912F
:102410005C9196970E94F96A6B017C019B01AC016B
:102420006D897E898F89988D0E94056D181664F0DC
:102430009601A701B301C8010E94A16987FF2CC1C1
:102440006D8A7E8A0F8B188FF10122853385448532
:10245000558569897A898B899C890E94076A6B01F5
:102460007C0123962CAD3DAD4EAD5FAD2397B401FD
:102470008B2D9A2D0E94F96A9B01AC01C701B60110
:102480000E94F96A6B017C01D1011E962D913D914C
:102490004D915C9151976D897E898F89988D0E94AD
:1024A000076A9B01AC01C701B6010E94F96A6B8300
:1024B0007F83582E492E20E030E0A9010E94A169B7
:1024C000ECA1FDA16F01FF0FEE08FF0887FDE9C039
:1024D0002B813F81452D542DB301C8010E94A16974
:1024E00087FD04C06B807F80052D142DC701B601C8
:1024F0000E94A8694B015C0120E030E0A901B30112
:10250000C8010E94056D181644F4A5019401B30199
:10251000C8010E94A16987FDC9C0C701B6010E9418
:10252000A8696B017C012D8D3E8DB901330F880B9D
:10253000990B0E94A8694B015C012B813F81452DBD
:10254000542DC701B6010E94056D87FF0CC031E014
:102550003C87A50194016B817F81852D942D0E947C
:10256000056D87FD1C86EC85A981BA815496EC9394
:10257000A50194016B817F81852D942D0E94056DAD
:1025800087FD0CC020E030E0A90169897A898B8938
:102590009C890E94056D18160CF48DC02B813F811B
:1025A000452D542DC701B6010E94056D87FD0BC056
:1025B00020E030E0A90169897A898B899C890E9491
:1025C000A16987FD78C0FB85FF2309F478C08D8958
:1025D0009E89AF89B88DF10183A394A3A5A3B6A367
:1025E00020E030E040E05FE3B301C8010E94F96AF7
:1025F000298D3A8D4B8D5C8D0E94076A0E942A6C52
:10260000A981BA8151967C936E93509720E030E077
:1026100040E85FE36D857E858F8598890E94056D12
:1026200087FD11C0BC85BB2371F069897A898B89CC
:102630009C899F77F101228D338D448D558D0E94A9
:10264000056D87FF41C0D10192961C92F10113AA3A
:1026500014AA15AA16AA26CD8DEC9CECACE4BDE319
:102660008D879E87AF87B88B90CD80E090E0A0E803
:10267000BFEB898F9A8FAB8FBC8FA9CD8FE6C82E09
:1026800082E1D82E83E8E82E8AE3F82E36CE8F8CAE
:1026900098A0B9A0AAA098CECD8ADE8AEF8AF88E3B
:1026A000D3CE612C712C00E010E037CF6F8C78A076
:1026B00009A11AA132CFFBA1FF2309F491CF612C0C
:1026C000712C00E010E08CCFD10192968C91929702
:1026D00081110EC081E092968C9392972BAD3CAD08
:1026E0004DAD5EADD3962D933D934D935C93D697B0
:1026F000F10183A994A9A5A9B6A92BAD3CAD4DAD17
:102700005EAD281B390B4A0B5B0BDA01C901E9816D
:10271000FA81868B978BA08FB18FF101408D518DFF
:1027200070E060E021E084179507A607B70708F47A
:1027300020E0A981BA8155962C93B4CC2F923F9278
:102740004F925F926F927F928F929F92AF92BF92C1
:10275000CF92DF92EF92FF920F931F93CF93DF936D
:10276000CDB7DEB76E970FB6F894DEBF0FBECDBF04
:102770004C018B01742EA090E710DC01AC921196F5
:102780004C9311978091E81012968C93B090E610BC
:10279000C12CD12C7601BB20E1F1FB01C480D58096
:1027A000E680F7802090C5103090C6104090C7108A
:1027B0005090C810A2019101C701B6010E94056D99
:1027C00018160CF0D7C0A2019101C701B6010E94F2
:1027D000F86A2091C9103091CA104091CB105091E5
:1027E000CC100E94076A2091CD103091CE104091FC
:1027F000CF105091D0100E94076A2091D1103091D3
:10280000D2104091D3105091D4100E94076A6B01EE
:102810007C01D4011396CD92DD92ED92FC92169735
:10282000D80118962D913D914D915C911B972B8F5E
:102830003C8F4D8F5E8F672D70E090E080E02FEF32
:102840002A0D223020F0B4E0312CAB1297C0332493
:102850003394711001C0312CE4E0AE128FC00E949D
:10286000A6692B013C0177FA709477F870948B8DF0
:102870009C8DAD8DBE8DBF779C01AD0150582B8FC7
:102880003C8F4D8F5E8FBB2009F486C0A090C31093
:10289000B090C410A114B10409F47EC020E030E06F
:1028A00040EE51E4C701B6010E94076AD5011296B5
:1028B0002D913D914D915C9115970E947C6B9F935A
:1028C0008F937F936F93F80183818F9382818F938E
:1028D00081818F9380818F93A32CC684EB8CFC8C99
:1028E0000D8D1E8DA30192016AEF70E1CE0101965C
:1028F0000E94F40F89899A89D40118969C938E932B
:1029000017978B8919968C9319978E891A968C93A1
:102910001A970FB6F894DEBF0FBECDBF332081F0FB
:102920008C89882369F085E08093E7101092F91074
:102930008C9311961C92119718961C921E921797C1
:10294000C4016E960FB6F894DEBF0FBECDBFDF9107
:10295000CF911F910F91FF90EF90DF90CF90BF909C
:10296000AF909F908F907F906F905F904F903F902F
:102970002F90089560E070E0CB012BCF0E94A669F4
:102980002B013C018B8D9C8DAD8DBE8DBF778B8FC8
:102990009C8FAD8FBE8F77CF60E070E080E090E0DD
:1029A0008ECFCF92DF92EF92FF920F931F93CF9330
:1029B000DF938C01EB01C880D980EA80FB8020E0A6
:1029C00030E0A901C701B6010E94056D18160CF090
:1029D0005BC02C813D814E815F81C701B6010E94A1
:1029E000A16987FF51C08885882309F44DC0998566
:1029F000891708F049C020E030E0A9016A857B858D
:102A00008C859D850E94056D87FD3EC020E030E0ED
:102A1000A9016E857F85888999890E94056D87FD4A
:102A200033C08A899B89892B79F18C899D89AE89EC
:102A3000BF89892B8A2B8B2B39F1888D998D892B16
:102A400019F120E030E0A9016A8D7B8D8C8D9D8D80
:102A50000E94056D1816C4F481E0F801868F8EE19E
:102A6000FE01D80101900D928A95E1F7C8010E94FC
:102A7000DA0FF801868DDF91CF911F910F91FF90B2
:102A8000EF90DF90CF900895F801168EEFCFCF92A0
:102A9000DF92EF92FF920F931F93CF93DF93CDB707
:102AA000DEB76E970FB6F894DEBF0FBECDBF8C01B8
:102AB000FC01C080D180E280F38020E030E040E87B
:102AC0005FE3C701B6010E94056D18160CF037C10F
:102AD000F8012481358146815781C701B6010E94E2
:102AE000A16987FF2CC1F801C484D584E684F784EA
:102AF000A701960160857185828593850E94056D89
:102B000018160CF01CC120E030E0A901C701B60185
:102B10000E94056D18160CF012C120E030E0A901EA
:102B2000F80164897589868997890E94056D87FDFA
:102B300006C120E030E0A901F801608D718D828D21
:102B4000938D0E94056D87FDFAC0F801948D858DE7
:102B5000981708F0F4C0868D978D892B09F4EFC083
:102B600080A191A1892B09F4EAC0C2A0D3A0E4A05E
:102B7000F5A020E030E040E05FE3C701B6010E942D
:102B8000056D87FDDCC023E333E343E75FE3C70163
:102B9000B6010E94A16918160CF4D1C0F801C6A0B4
:102BA000D7A0E0A4F1A420E030E0A901C701B6015C
:102BB0000E94056D18160CF0C2C0F80122A533A5BD
:102BC00044A555A5C701B6010E94A16987FFB7C0FA
:102BD00020E030E0A901F80166A577A580A991A9B8
:102BE0000E94056D87FDABC020E030E0A901F8012F
:102BF00062A973A984A995A90E94056D87FD9FC04C
:102C0000F80186A997A9A0ADB1AD892B8A2B8B2B92
:102C100009F495C081E08093BC1280E4ACE7B2E196
:102C200001900D928A95E1F7F80186A197A1A0A5E0
:102C3000B1A589839A83AB83BC8382A593A5A4A500
:102C4000B5A58D839E83AF83B887848D8987858D55
:102C50008A8786A597A5A0A9B1A98B879C87AD87F0
:102C6000BE8782A993A9A4A9B5A98F87988BA98BA0
:102C7000BA8B868D978D9C8B8B8B86A997A9A0ADDF
:102C8000B1AD8D8B9E8BAF8BB88F82AD93AD9A8F8C
:102C9000898F84AD95ADA6ADB7AD8B8F9C8FAD8F71
:102CA000BE8FBE016F5F7F4F85ED92E10E94D11410
:102CB0008093BC121092BD121092BE121092BF12DD
:102CC0001092C0121092C1121092C2121092C3122E
:102CD0001092C4121092C5121092C6121092C7120E
:102CE0001092C8121092C9121092CA121092CB12EE
:102CF0001092CC121092CD121092CE121092CF12CE
:102D00001092D0121092D1121092D2121092D312AD
:102D10001092D41285ED92E10E94DA0F8091BC12DC
:102D20006E960FB6F894DEBF0FBECDBFDF91CF9188
:102D30001F910F91FF90EF90DF90CF900895109228
:102D4000BC12B8CF8F929F92AF92BF92CF92DF9278
:102D5000EF92FF920F931F93CF93DF93CDB7DEB720
:102D60006E970FB6F894DEBF0FBECDBF8C01FC018D
:102D7000C080D180E280F38020E030E040E85FE373
:102D8000C701B6010E94056D18160CF0F4C020E0D2
:102D900030E040E85FE3F8016481758186819781C6
:102DA0000E94056D87FDE7C0F80180A091A0A2A058
:102DB000B3A0A501940160857185828593850E94E9
:102DC000056D18160CF0D7C020E030E0A901C50150
:102DD000B4010E94056D18160CF0CDC020E030E063
:102DE000A901F80164857585868597850E94056D22
:102DF00087FDC1C020E030E0A901F8016089718938
:102E0000828993890E94056D87FDB5C0F801948978
:102E10008589981708F0AFC086899789892B09F4AE
:102E2000AAC0808D918D892B09F4A5C0828D938DC8
:102E3000892B09F4A0C020E030E0A901648D758DD4
:102E4000868D978D0E94056D18160CF094C02BEDA1
:102E50003FE049E450E4C701B6010E94076A6B01F4
:102E60007C0181E08093F51188E2F801ADECB1E1DD
:102E700001900D928A95E1F7F80180A191A1A2A19C
:102E8000B3A189839A83AB83BC8380859185A28516
:102E9000B3858D839E83AF83B8878489898785892D
:102EA0008A872485358546855785C701B6010E94E6
:102EB000076A20E030E040E752E40E947C6B6B87B9
:102EC0007C878D879E87F8012089318942895389C3
:102ED000C701B6010E94076A20E030E040E752E4F3
:102EE0000E947C6B6F87788B898B9A8BF80186891F
:102EF00097899C8B8B8B808D918DB0E0A0E08D8B22
:102F00009E8BAF8BB88F828D938D9A8F898F20E0A7
:102F100030E040E752E4648D758D868D978D0E9478
:102F2000076AA70196010E947C6B6B8F7C8F8D8F47
:102F30009E8FBE016F5F7F4F86EF91E10E94D1149B
:102F40008093F51186EF91E10E94DA0F8091F511DF
:102F50006E960FB6F894DEBF0FBECDBFDF91CF9156
:102F60001F910F91FF90EF90DF90CF90BF90AF90A7
:102F70009F908F9008951092F511E4CF8F929F92B9
:102F8000AF92BF92CF92DF92EF92FF920F931F9377
:102F9000CF93DF93CDB7DEB76E970FB6F894DEBF51
:102FA0000FBECDBF8C01FC0180A1882309F46AC04B
:102FB000C080D180E280F38020E030E0A901C70129
:102FC000B6010E94056D87FD76C020E030E0A901C2
:102FD000F80164817581868197810E94056D1816BC
:102FE0000CF069C020E030E0A901F801608571852E
:102FF000828593850E94056D18160CF05CC0F8015F
:1030000084849584A684B78420E030E0A901C501BA
:10301000B4010E94056D18160CF04DC020E030E0A0
:1030200040E85FE3C501B4010E94A16918160CF4E1
:1030300042C0F8012489358946895789C701B601FC
:103040000E94A16987FF37C08091E710811133C0CA
:1030500081E2F801A5ECB0E101900D928A95E1F7CB
:103060008EE1EEE1F2E0DE01119601900D928A957B
:10307000E1F7BE016F5F7F4F8AEF90E10E94D114AC
:103080008093E610809353130E949A038091531308
:103090006E960FB6F894DEBF0FBECDBFDF91CF9115
:1030A0001F910F91FF90EF90DF90CF90BF90AF9066
:1030B0009F908F90089580E0E5CFFC018081882368
:1030C00049F08181882331F08281882319F083813E
:1030D000811187810895EF92FF920F931F93CF93F1
:1030E000DF93C82FFB01E080E11009C08AE08093E4
:1030F000BF1081E0CA3009F46AC080E068C0D09196
:10310000BF10DB30D0F7ED2FF0E08827E557F74E02
:103110008F4F0C949D6D9618EE18FB18F818011936
:103120000A19FB180D19131916191D198C2F877FF1
:103130008150823010F0C43001F78091C010882394
:10314000E1F28B01FF24FA94FC0EF2E0FF1510F47B
:10315000C73081F40E947D02882379F282E08F15C6
:1031600018F4C73009F06EC0C8010E945D188823AA
:1031700009F4C3CF8C2F8B7F833069F4F8018481ED
:10318000882309F4BACF8581882309F4B6CF8085D6
:10319000882309F4B2CFD950D23038F4C11105C018
:1031A000F8018681882309F4A8CFC093BF1088E076
:1031B000C89FF0011124EB57FB4F8081882309F44D
:1031C0003FC09181911199CF9281911196CFDF915A
:1031D000CF911F910F91FF90EF9008958C2F8D7FCD
:1031E00009F4ABCF87EF8C0F823008F4A6CF85CFE0
:1031F000C53009F4A2CF89EF8C0F843008F07DCF61
:103200009CCFCC2309F499CF88EF8C0F833008F43E
:1032100094CF73CFC63031F790CFC33009F48DCF40
:10322000C53091F78ACFC111DDCF87CFCC2309F408
:1032300084CFCA3009F061CF80CFC1115ECF7DCF7E
:103240008E2DC5CFC33009F0A6CF98CFCF93DF9393
:10325000EC010E9466021092E7101092C4101092C6
:10326000C3101092F9108AEF90E10E94DA0F1092C9
:103270006C1381E080936D131092691310926A139E
:103280008091BF10813031F4BE0180E0DF91CF9199
:103290000C946B18843091F48091C2108350833069
:1032A00030F488E08093BF1083E08093C2101092C6
:1032B000AF131092B013DF91CF9108958823D9F303
:1032C00089508230C0F3BE0188E0E0CFCF92DF9218
:1032D000EF92FF920F931F93CF93C0915313CC2380
:1032E00009F457C0C0915213CC2309F452C0C091C5
:1032F0005B13CC2309F44DC020917C13211155C0E0
:103300006A017B018C010E945802C82F882309F4AE
:1033100040C08091BF10811148C00E947D02C82F1B
:103320008823B9F18091C0108230E1F18FE194E0FF
:10333000C091E610CC2369F1F801C781CC2349F193
:103340002091E710253089F19093C4108093C31029
:1033500081E08093E7101092E8101092F910C0926B
:10336000ED10D092EE10E092EF10F092F010B80154
:103370000E946B18C82F81110CC01092E710109298
:10338000C4101092C3101092F9108AEF90E10E94BD
:10339000DA0F8C2FCF911F910F91FF90EF90DF905C
:1033A000CF90089582E594E0C3CFC0E0F2CFE091E2
:1033B0006713F0916813309741F420937D14309394
:1033C0007E1440937F1450938014E82BF92BF093D4
:1033D0006813E093671310926C1381E080936D1370
:1033E00090916613913011F481E0089580936613F3
:1033F000209388133093891340938A1350938B132F
:1034000085E00E946B188111EFCF95E090936613D1
:1034100099E09093BF100895CF93DF93D82F8091B8
:10342000BF1081111BC0CB010E945D18C82F8823DB
:1034300089F08091C010882389F0D81779F0D09353
:10344000C11083E08093C2100E9466021092AF13F5
:103450001092B0138C2FDF91CF910895C0E0FACF76
:10346000FC0110821182128213821482158216824C
:103470001782108611861286138614861586168684
:103480001786108A118A128A138A0895CF93DF93C0
:10349000FC01E35BFF4FC081CC2331F13996C08141
:1034A000CC2311F13196C081CC23F1F0EC01399796
:1034B00020E030E046E953E46081718182819381AC
:1034C0000E94056D87FD0FC0FE01EE5AFF4FC1E05F
:1034D00020E030E046E953E460817181828193818C
:1034E0000E94056D87FDC0E08C2FDF91CF9108957C
:1034F000CF92DF92EF92FF92CF93DF93EC01809116
:10350000BF10823041F080E0DF91CF91FF90EF90CB
:10351000DF90CF900895809169138823A1F3809163
:103520006A13882381F38C81882369F38D81882332
:1035300051F380915A13882331F380915F138823CC
:1035400011F36A017B010E94AE028823E1F2CE01F1
:103550000E94461A8823B9F2CE010E94580288239D
:1035600091F2BE0187E00E946B18882361F21092ED
:10357000691310926A1393E09093661310926C1380
:1035800091E090936D1310929C13109294131092EB
:1035900095131092961310929713109298131092FD
:1035A000991310929A1310929B13C0928C13D0927D
:1035B0008D13E0928E13F0928F131092901310924D
:1035C000911310929213109293139ECF0F931F9307
:1035D000CF93FC01C489CC2381F18C012FE832EC1C
:1035E00045EF5CE360897189828993890E94A169B2
:1035F000181614F120E030E040EE5FE3F80160853A
:103600007185828593850E94F86A9F772DEC3CEC4A
:103610004CE45DE30E94A169181674F0C1E02DEC42
:103620003CEC4CE45DE3F8016485758586859785FF
:103630000E94A16918160CF4C0E08C2FCF911F9145
:103640000F9108950F931F93CF93DF93CDB7DEB7FC
:1036500066970FB6F894DEBF0FBECDBF8C01FC019C
:1036600045AD56AD63AD74AD27ADCE0101960E9458
:10367000D40280916613843061F080E066960FB6C4
:10368000F894DEBF0FBECDBFDF91CF911F910F9198
:103690000895C8010E945802882379F3C8010E9446
:1036A000461A882351F3F8018581882331F30E945B
:1036B000AE02882311F380913B1383508230E8F6E9
:1036C000F801E65AFF4F80818111D7CF8091DB133B
:1036D000882399F28091D6138111CFCF8091E41382
:1036E000882359F2CE0101960E94E61A882329F216
:1036F000B80183E00E946B18882309F4BECF1092B2
:103700006813109267131092711310927213109233
:103710007713109278131092791310927A131092F3
:103720007B1391E090936C1310926D1310926613BB
:10373000A5CFAF92BF92CF92DF92EF92FF921F93ED
:10374000CF93DF93EC015C0182E3A80EB11C1D85D1
:103750001123F9F08E85811127C0C984DA84EB84A6
:10376000FC8420E030E040EA51ECC701B6010E9441
:10377000A16987FD19C020E030E046E953E4C701A4
:10378000B6010E94056D18167CF02A96CA15DB0555
:10379000F1F6812FDF91CF911F91FF90EF90DF9095
:1037A000CF90BF90AF90089510E0F3CF0F931F9389
:1037B000CF9300919D1310919E1320919F133091F0
:1037C000A013401B510B620B730B403C544D6140E6
:1037D000710508F473C08C012FE632E143E85AE327
:1037E0006091A1137091A2138091A3139091A413DF
:1037F0000E94F96A20E030E040E052E40E94056D4A
:1038000087FD5CC0C091AE13CC23C9F0C091A91351
:10381000CC23A9F0C091E413CC2389F0C091E51327
:10382000C1114CC080916313882371F0C8010E94BC
:10383000461A882349F0F801848181111AC08C2F1F
:10384000CF911F910F910895809167139091681304
:103850008460909368138093671385E08093661368
:1038600010926C1381E080936D1389E08093BF10F8
:10387000E6CFC8010E94991B882301F1C8010E946C
:1038800058028823D9F02091991130919A11232B55
:10389000B1F69091BF10943091F69091C21095308E
:1038A00071F698E09093BF1096E09093C21010923A
:1038B000AF1391E09093B013C82FC1CFC0E0BFCF3A
:1038C000CF92DF92EF92FF92CF93DF93EC01809142
:1038D000AF13882309F465C080916313882309F42A
:1038E00060C080915413882309F45BC06A017B0196
:1038F000CE010E94461A882309F453C0CE010E94CB
:10390000991B882309F44DC0CE010E9458028823D8
:1039100009F447C08091BF10843009F049C08091FC
:10392000C210843009F044C0CE010E945D18882383
:10393000C1F18C818823A9F195E09093C210C092C7
:103940009D13D0929E13E0929F13F092A0131092B9
:10395000A1131092A2131092A3131092A4134091DA
:10396000E0135091E1136091E2137091E3134093DF
:10397000A5135093A6136093A7137093A813FE0189
:10398000E559FF4F9081992319F0C45BDF4F98816F
:103990009093A91391E09093AE139093AF1310926C
:1039A000B013DF91CF91FF90EF90DF90CF9008950B
:1039B00080E0F7CFCF93DF93EC01809163138823EE
:1039C00081F180915C13882361F180915D138823DC
:1039D00041F1CE010E94991B882319F1CE010E946A
:1039E00058028823F1F09091BF1091111DC0909161
:1039F000C2109330C9F49091C0109923A9F090910E
:103A0000C110992389F090917C1391110DC092E01F
:103A100090937C131092691310926C1391E0909321
:103A20006D13DF91CF91089580E0FBCF8F929F922D
:103A3000AF92BF92DF92EF92FF920F931F93CF93BB
:103A4000DF93EC01D62E7C0104E011E0112339F163
:103A5000D7011D961C911D97112309F11E961C91EB
:103A60001E9711118EC019968D909D90AD90BC90AF
:103A70001C9720E030E040EA51ECC501B4010E94FF
:103A8000056D87FD0CC020E030E84EE853E4C50129
:103A9000B4010E94A169182F111F1127111F015095
:103AA000BAE0EB0EF11C0111D1CF8D81882309F111
:103AB000809161138823E9F0FE01E85AFF4F80816D
:103AC0008823B9F031968081882399F036968081D9
:103AD000882379F03D9660817181828193819F77FF
:103AE0002CEE31E548EB5EE30E94A169881F882730
:103AF000881F2091671330916813A9014B7F22FF23
:103B0000A8C1F0906313F110A4C180919911909114
:103B10009A11892B09F411E08091871301E0882321
:103B200021F0CE010E94991B082F8091BF1089506F
:103B30008230B0F4DD20A1F0CE010E945D18882310
:103B400079F08E81882361F08B81882349F01123DD
:103B500039F08F81882321F0FF2011F0011113C06B
:103B600081E080936B1300E0802FDF91CF911F9154
:103B70000F91FF90EF90DF90BF90AF909F908F904C
:103B8000089510E08CCF1092E7101092C41010929C
:103B9000C3101092F9108AEF90E10E94DA0F109290
:103BA000E81010929A1110929911E1E3F1E18AE183
:103BB000DF01982F1D929A95E9F77A96A1E1E939EC
:103BC000FA07B1F71092C7111092C8111092C911DB
:103BD0001092CA1181E08093CB111092CC111092F7
:103BE000C511109268131092671310926613109209
:103BF0006C1380936D131092691310926A131092D4
:103C00006B1310927113109272131092731310921F
:103C100074131092751310927613109277131092FA
:103C200078131092791310927A1310927B130E94DA
:103C300066021092871310929D1310929E13109299
:103C40009F131092A0131092A1131092A21310921E
:103C5000A3131092A4131092A5131092A6131092FE
:103C6000A7131092A8131092A9131092AF131092D9
:103C7000B01386EF91E10E94DA0F10922D1210928C
:103C80002E1210922F1210923012109231121092A6
:103C90003212109233121092341210923512109286
:103CA0003612109237121092381210923912109266
:103CB0003A1210923B1210923C128DE392E10E9454
:103CC000DA0F1092741210927512109276121092EE
:103CD0007712109278121092791210927A12109232
:103CE0007B121092BD121092BE121092BF1210924F
:103CF000C0121092C1121092C2121092C3121092EE
:103D0000C4121092C5121092C6121092C7121092CD
:103D1000C8121092C9121092CA121092CB121092AD
:103D2000CC121092CD121092CE121092CF1210928D
:103D3000D0121092D1121092D2121092D31210926D
:103D4000D41285ED92E10E94DA0F10921B131092AB
:103D50001C1310921D1310921E1310921F13109219
:103D600020131092211310922213109223131092F9
:103D700024131092251310922613109227131092D9
:103D800028131092291310923B1310923C13109297
:103D90003D1310923E1310923F1310924013109255
:103DA0004113109242131092431310924413109235
:103DB0004513109246131092471310924813109215
:103DC0004D1310924E1310924F13109250131092E5
:103DD000511310926F13EFEBF3E18DE1DF011D92B0
:103DE0008A95E9F7ECEDF3E186E1DF011D928A9512
:103DF000E9F7E2EFF3E188E0DF011D928A95E9F748
:103E0000EAEFF3E18FE1DF011D928A95E9F7E9E13D
:103E1000F4E18EE0DF011D928A95E9F7E7E2F4E133
:103E20008AE0DF011D928A95E9F710927D141092C5
:103E30007E1410927F14109280141092BF10809103
:103E4000C2108450823008F08FCE83E08093C2107D
:103E50008BCEF82E452B09F058CEFF24F39455CE87
:103E6000CF93DF93EC0180916113882359F1CE0148
:103E70000E94991B882331F180916313882311F1EB
:103E800080915C138823F1F080915D138823D1F039
:103E9000CE010E9458028823A9F08091BF108111A1
:103EA00014C00E947D02882369F090917C139111C7
:103EB0000CC091E090937C1310926A1310926C13D3
:103EC00090936D13DF91CF91089580E0FBCF08951B
:103ED000CF93C82F0E948808982FEC2FF0E0E05273
:103EE000F74F8081813009F4911180E09083CF9168
:103EF00008950F931F93CF93DF93182F862F042FCE
:103F0000C22FD32FD7FF03C0D195C195D109CF3F81
:103F1000D10519F014F0CFEFD0E03095632F661F74
:103F20006627661F0E94B10861E0C11101C060E010
:103F3000802F0E94B108BE017727812FDF91CF919A
:103F40001F910F910C941B09CF93DF93EB012881F4
:103F5000398140E26EE185E00E94791F6981661F28
:103F60006627661F8FE10E94B1088A8130E020E059
:103F7000882311F020E630E04EE26AE28CE20E94F3
:103F8000791F2B813C8142E261E286E00E94791F29
:103F90002D813E8144E263E287E00E94791F2F81F8
:103FA000388546E265E288E00E94791F698570E005
:103FB00089E00E941B096B8588E20E94B1086C852C
:103FC00089E20E94B1086A8587E20E94B1086E8585
:103FD0008AE00E94B1086F858BE00E94B108688971
:103FE0008CE00E94B10869898DE00E94B1086A895D
:103FF00084E0DF91CF910C94B108CF92DF92EF92E1
:10400000FF921F93CF93DF9300D01F921F92CDB7E3
:10401000DEB78091910E9091920E95FF0FC020E037
:1040200030E0A90160912510709126108091271031
:10403000909128100E94A1691816D4F019821A8252
:104040001B821C821D8229813A814B815C816D819A
:1040500070E080E090E00F900F900F900F900F9025
:10406000DF91CF911F91FF90EF90DF90CF90089557
:104070008AE30E94F209BC01990F880B990B0E94F8
:10408000A869209121103091221040912310509165
:1040900024100E94F86A20E030E0A9010E94056D1A
:1040A0001816CCF58AE30E94F209BC01990F880B1F
:1040B000990B0E94A8692091211030912210409103
:1040C0002310509124100E94F86A209125103091FD
:1040D000261040912710509128100E94076A6B010A
:1040E0007C012DEC3CEC4CE45EE30E94056D87FD09
:1040F0000BC011E020E030E040E050E4C701B60121
:104100000E94A16918160CF410E0C982DA82EB82D1
:10411000FC821D8398CF8AE30E94F209BC01990FAB
:10412000880B990B0E94A8692091211030912210D0
:1041300040912310509124100E94F86A9058C5CFE6
:104140002F923F924F925F926F927F928F929F92A7
:10415000AF92BF92CF92DF92EF92FF920F931F9395
:10416000CF93DF9300D000D01F921F92CDB7DEB760
:104170009A838983DC011C9116139CC011963C9094
:10418000B6E0B31508F496C0FC010281043008F0D3
:1041900091C02380F1E0F21508F48CC098878F83DA
:1041A000DC011896CD90DD90ED90FC901B97C70137
:1041B000B6010E947E0B892B09F47CC0EF81F88543
:1041C0004484558466847784C301B2010E947E0BC7
:1041D000892B09F46FC0AF81B88550968D909D9062
:1041E000AD90BC905397C501B4010E947E0B892B02
:1041F00009F460C0A5019401C301B2010E94056DDC
:1042000018160CF457C0AF81B88554962D913D9186
:104210004D915C91579729833A834B835C83FD01D1
:104220005496BE83AD8365EC7DE98CE191E8A19164
:104230006A279B01AC0163E971E080E091E00E9494
:10424000576D2D813E81E217F30789F729813A8165
:104250004B815C81261737074807590759F52220FB
:1042600059F10250023030F5EF81F8858481958153
:10427000A681B781892B8A2B8B2BE1F080E01E3041
:1042800028F4E12FF0E0EA59FC4F8081381212C087
:10429000A3019201C701B6010E94056D87FD0AC006
:1042A000F1E0F983A5019401C701B6010E94A1695B
:1042B000181624F4198202C021E0298389812896E6
:1042C0000FB6F894DEBF0FBECDBFDF91CF911F9127
:1042D0000F91FF90EF90DF90CF90BF90AF909F90A5
:1042E0008F907F906F905F904F903F902F900895A8
:1042F000CF93DF9398E1899FE0011124682FCE01CD
:104300008D56914F0E94A020882339F0C557D14F78
:1043100081E09B85911101C080E0DF91CF910895EC
:10432000EF92FF920F931F93CF93DF93D0E0C0E003
:1043300010E000E0EE24E394F12C8C2F0E94782111
:10434000882349F0C7010C2E02C0880F991F0A94D8
:10435000E2F7082B192B2196CE30D10571F7C80151
:10436000DF91CF911F910F91FF90EF9008952F92C1
:104370003F924F925F926F927F928F929F92AF92F5
:10438000BF92CF92DF92EF92FF920F931F93CF9342
:10439000DF93CDB7DEB76F970FB6F894DEBF0FBED1
:1043A000CDBF9F8F8E8F142F61508FE3882E83E0B7
:1043B000982E633040F4E62FF0E0EE0FFF1FE75C2D
:1043C000FC4F80809180D4012D903C90812F0E94E1
:1043D0007821882369F1B8E11B9FF0011124E5578A
:1043E000F14FC088D188E288F38820E030E040E0D7
:1043F0005FE3C701B6010E94F96A0E94316C1B019C
:104400006115710599F090E080E00E94A6699B011A
:10441000AC01C701B6010E94F86A9F772AE037ED28
:1044200043E25CE30E94056D18162CF480E09BC10A
:104430002114310499F1F401428053806480758025
:1044400020E030E0A901C301B2010E94A169181661
:104450000CF0A2C1B10190E080E00E94A669A30126
:1044600092010E94076A9B01AC0160EC71EE84E648
:104470009CE40E947C6B0E94F36B122F032FF42E9E
:10448000E52ED62EC72EB82EA92E20E030E0A901A9
:10449000C301B2010E94056D18162CF0EE8DFF8D40
:1044A00017A280E014C1D40116962D913D914D9133
:1044B0005C91199729873A874B875C87A301920102
:1044C00069857A858B859C850E94056D181634F761
:1044D000D4011A962D913D914D915C911D972D8798
:1044E0003E874F87588BC301B2010E94A1691816FD
:1044F000ACF22D853E854F85588969857A858B85F7
:104500009C850E94056D87FDC9CFD4011E962D9113
:104510003D914D915C9151972D8B3E8B4F8B588FD8
:10452000232B242B252B09F4B9CF5296BC91B98F9C
:10453000B23008F4B3CFD40153962D913D914D91F3
:104540005C915697298B3A8B4B8B5C8BBA01AB01F4
:1045500060E070E0CB0129833A834B835C836D83F9
:104560007E838F839887212F302F4F2D5E2D6D2DC9
:104570007C2D8B2D9A2DA980BA80CB80DC80E12CFC
:10458000F12C00E010E00E94A56D08F087CF57964F
:104590006D917D918D919C915A9769837A838B83DC
:1045A0009C83672B682B692B09F478CF5B962D9140
:1045B0003D914D915C915E972A8F3B8F4C8F5D8F23
:1045C000232B242B252B09F469CF5F96CD90DD900A
:1045D000ED90FC90929720E030E0A901C701B60170
:1045E0000E94056D18160CF059CFF40183A094A019
:1045F000A5A0B6A020E030E0A901C501B4010E9449
:10460000056D18160CF04ACF20E030E040E85FE37B
:10461000C501B4010E94A16987FF40CF81E0AE8D42
:10462000BF8D97968C93979711963C922E92FD0191
:10463000428253826482758229853A854B855C85E6
:1046400016962D933D934D935C9319972D853E853A
:104650004F8558891A962D933D934D935C931D97E2
:104660002D893E894F89588D1E962D933D934D93EC
:104670005C935197E98D5296EC93529729893A8928
:104680004B895C8953962D933D934D935C9356973C
:1046900029813A814B815C8157962D933D934D93AF
:1046A0005C935A972A8D3B8D4C8D5D8D5B962D9337
:1046B0003D934D935C935E97FD01C78ED0A2E1A21E
:1046C000F2A293968D929D92AD92BC929697AE8DEA
:1046D000BF8D98961C92989799961C9299979A9646
:1046E0001C929A979B961C929B97FD0114A615A667
:1046F00016A617A6D0961D921D921D921C92D397B6
:1047000014AA15AA16AA17AAD8961D921D921D9230
:104710001C92DB9714AE15AE16AE17AEE05CFF4FE1
:104720001082319610821182128213823496108286
:1047300011821282138234961082118212821382A5
:104740003496108211821282138234961082118262
:10475000128213829D012B5A3F4FD9011D921D9247
:104760001D921C9213976F960FB6F894DEBF0FBE82
:10477000CDBFDF91CF911F910F91FF90EF90DF9010
:10478000CF90BF90AF909F908F907F906F905F90F1
:104790004F903F902F90089510E000E0F12CE12C15
:1047A000D12CC12CB12CA12C70CE40E060E081E373
:1047B0009AE00E94B7218823B1F042E061E08FE7E0
:1047C00099E00E94B721882371F043E062E088ED10
:1047D00099E00E94B721882331F045E063E086E24A
:1047E00099E00C94B72180E008958F929F92AF9248
:1047F000BF92CF92DF92EF92FF920F931F93CF93CE
:1048000080918B0E90918C0EA0918D0EB0918E0E9A
:1048100086339245A045B04509F04CC080918F0E7B
:104820009091900E049709F045C00091910E10915F
:10483000920E0E94902108171907E1F5C090BB1055
:10484000D090BC10E090BD10F090BE10EBE8FEE000
:1048500065EC7DE98CE191E821914B018226AC0168
:10486000940163E971E080E091E00E94576D20E1DE
:10487000EB3BF20789F7C616D706E806F906D1F42E
:1048800003E91EE0C0E06C2FC8010E94A02088232D
:1048900029F0CF5F085E1F4FCE30A9F7CF911F914F
:1048A0000F91FF90EF90DF90CF90BF90AF909F90CF
:1048B0008F90089580E0F2CFFC0182E598EBAEE5A1
:1048C000BFE382A393A3A4A3B5A380E090E0A0E0FC
:1048D000BFE386A397A3A0A7B1A780E090E0A0EFD5
:1048E000B1E482A793A7A4A7B5A780E090E0A0E8D1
:1048F000B0E486A797A7A0ABB1AB80E090E0A0E8BA
:10490000BFE382AB93ABA4ABB5AB4CE45DE160E03D
:1049100070E046AB57AB60AF71AF20EB34E033AF24
:1049200022AF84AF95AFA6AFB7AF08958F929F9295
:10493000AF92BF92CF92DF92EF92FF92CF93DF932D
:10494000EC0188809980AA80BB80C501B4010E94D7
:104950007E0B892B09F498C0CC80DD80EE80FF802F
:10496000C701B6010E947E0B892B09F48DC020E09F
:1049700030E040E85FE3C501B4010E94056D181600
:104980000CF082C020E030E0A901C701B6010E940E
:10499000056D18160CF078C088859985892B09F467
:1049A00073C08E859F85AC0170E060E0CA84DB84B3
:1049B000EC84FD844C155D056E057F0508F064C030
:1049C000892B09F461C081E080933A1380E1FE01F4
:1049D000AAE2B3E101900D928A95E1F7288139812D
:1049E0004A815B816C817D818E819F810E94076AF3
:1049F0000E94656B0E94316C6115710581059105FE
:104A000009F446C06093491370934A1380934B1383
:104A100090934C1381E010923B1310923C13109230
:104A20003D1310923E1310923F13109240131092B8
:104A30004113109242131092431310924413109298
:104A40004513109246131092471310924813109278
:104A50004D1310924E1310924F1310925013109248
:104A60005113811106C095E090933B1391E0909310
:104A70003C13DF91CF91FF90EF90DF90CF90BF90EC
:104A8000AF909F908F90089510923A1380E0C3CF1B
:104A900081E090E0A0E0B0E08093491390934A1346
:104AA000A0934B13B0934C13B6CF4F925F926F927B
:104AB0007F92BF92CF92DF92EF92FF920F931F935C
:104AC000CF93DF93CDB7DEB7A2970FB6F894DEBFD2
:104AD0000FBECDBF0E94F523B82E8E010F5F1F4F72
:104AE00084E1F82EF8018F2D11928A95E9F7C8011B
:104AF000B11022C00E94301AF801A2E5B3E1019082
:104B00000D92FA94E1F70E949A030E9463048B2DA0
:104B1000A2960FB6F894DEBF0FBECDBFDF91CF9146
:104B20001F910F91FF90EF90DF90CF90BF907F90FB
:104B30006F905F904F9008950E94301AF801A2E59F
:104B4000B3E101900D92FA94E1F781E00E9478219F
:104B5000882321F088EF9FE00E94BE1788E00E9422
:104B60007821882321F083EE9FE00E94100489E0E1
:104B70000E9478218823C9F140901D1050901E108A
:104B800060901F1070902010C0901910D0901A10D3
:104B9000E0901B10F0901C1020E030E0A901C7014C
:104BA000B6010E94056D87FD1BC020E030EC4FE789
:104BB00054E4C701B6010E94A16918168CF0C30124
:104BC000B2010E947E0B892B59F0FF24F39420E060
:104BD00030E0A901C301B2010E94056D18160CF066
:104BE000F12CF0925B130E949A038DE00E947821D1
:104BF0008823C9F14090251050902610609027100E
:104C000070902810C0902110D0902210E0902310B6
:104C1000F090241020E030E0A901C701B6010E9405
:104C2000056D87FD1BC020E030EC4FE754E4C70161
:104C3000B6010E94A16918168CF0C301B2010E944E
:104C40007E0B892B59F0FF24F39420E030E0A9017A
:104C5000C301B2010E94056D18160CF0F12CF09200
:104C60005F130E949A0384E00E947821811105C09D
:104C700083E00E9478218823A9F089E290E10E94D4
:104C8000A216F82E80E0FF2019F084E00E9478211F
:104C90008093561380E0FF2019F083E00E94782172
:104CA0008093551386E00E947821882331F081E5B6
:104CB00090E10E9447158093581380E00E9478216C
:104CC00040919B0E50919C0E60919D0E70919E0E96
:104CD000282F80E00E94890B82E00E947821409179
:104CE000CB0E5091CC0E6091CD0E7091CE0E282F30
:104CF00082E00E94890B85E00E9478214091130F89
:104D00005091140F6091150F7091160F282F85E0A8
:104D10000E94890B8AE00E94782140918B0F50916C
:104D20008C0F60918D0F70918E0F282F8AE00E945A
:104D3000890B8BE00E9478214091A30F5091A40F22
:104D40006091A50F7091A60F282F8BE00E94890B10
:104D500087E00E947821882309F453C08091430F93
:104D60009091440FA091450FB091460F40E050E064
:104D700068E872E44D8B5E8B6F8B788F4DEC5CEC4A
:104D80006CEE7FE3498F5A8F6B8F7C8F20EB34E082
:104D90003AA329A38D8F9E8FAF8FB8A340E050E038
:104DA00060E070E44D835E836F83788722E030E0BB
:104DB0003A87298748E95AE360E070E04B875C87CF
:104DC0006D877E8728EE33E0388B2F8789839A831F
:104DD000AB83BC83CE0145960E94B203882319F0B1
:104DE000C8010E949624809359131092291310929F
:104DF000231310922413109225131092261310924D
:104E000027138CE00E947821882329F1C090BB0FE2
:104E1000D090BC0FE090BD0FF090BE0FC701B6015F
:104E20000E947E0B892BA1F020E030E0A901C70190
:104E3000B6010E94056D18165CF411E02DEC3CECF7
:104E40004CEC5DE3C701B6010E94A16918160CF491
:104E500010E010935E130E949A0359CECF93DF9314
:104E60000E94120BEC0142E050E06FEE74E084EE21
:104E70009DE00E942F0A8C0F9D1FDF91CF91089516
:104E80008F929F92AF92BF92CF92DF92EF92FF925A
:104E90000F931F93CF93DF9300917C1210917D129B
:104EA000D0917E12C0917F12C0908812D09089124A
:104EB000E0908A12F0908B12809080129090811274
:104EC000A0908212B09083122091C1123091C21230
:104ED0004091C3125091C412C701B6010E94076AE3
:104EE000A70196010E94076A6B017C0120E030E077
:104EF00040E850E460919E1270919F128091A01240
:104F00009091A1120E94076A20918412309185121B
:104F100040918612509187120E94076A9B01AC0152
:104F2000C701B6010E947C6B6B017C0198014D2F7B
:104F30005C2FB8018D2F9C2F0E94076A9B01AC014A
:104F4000C701B6010E94F96A0E94106D6B017C01D5
:104F50009B01AC01B8018D2F9C2F0E94056D181686
:104F600074F09601A701B401C5010E94A1698601F0
:104F7000DE2DCF2D87FF03C08401DA2DCB2DB801A4
:104F80008D2F9C2FDF91CF911F910F91FF90EF906C
:104F9000DF90CF90BF90AF909F908F9008954F92E9
:104FA0005F926F927F928F929F92AF92BF92DF92A9
:104FB000EF92FF920F931F93CF93DF937C014801F1
:104FC00059014530E8F0FC011082118212821382EF
:104FD000148281E0858386829782A086B186C7018C
:104FE000DF91CF911F910F91FF90EF90DF90BF90D5
:104FF000AF909F908F907F906F905F904F900895AB
:10500000E42FF0E0EC51FC4F008160E0802F0E9423
:10501000B10883E090E00197F1F710E1D0E0C0E043
:1050200061E084E30E94B108CC0FDD1F82E30E949F
:10503000880861E070E0892B11F470E060E0C62B15
:10504000D72B60E084E30E94B108115049F761E07A
:10505000802F0E94B108DD24D3948E0104701127A3
:10506000C2FFD12C83E0D695C7958A95E1F7DF7012
:10507000BE0190E080E00E94A66920E030E040E8B8
:105080005EE30E94076A2B013C01F70140825182D6
:1050900062827382012B99F420E030E040EA51EC07
:1050A0000E94056D87FD0BC0C1E020E030E046E9BD
:1050B00053E4C301B2010E94A16918160CF4C0E0C8
:1050C000F701C483D58287CF2F923F924F925F9290
:1050D0006F927F928F929F92AF92BF92CF92DF9208
:1050E000EF92FF920F931F93CF93DF93CDB7DEB76D
:1050F000C952D1400FB6F894DEBF0FBECDBFC45E1B
:10510000DE4F99838883CC51D1401B0129013A019C
:10511000FB01E95AFF4F0081002311F03A9700810B
:10512000F101EE5AFF4F80809180A280B3803496C7
:105130001081112311F039971081F101E25BFF4FCB
:10514000C080D180E280F3802091BE13C351DF4F35
:105150002883CD5ED040112359F011E020E030E0EB
:1051600046E953E4C701B6010E94056D87FD10E0D2
:10517000002311F40C94244620E030E046E953E487
:10518000C501B4010E94056D87FF02C00C9424463E
:10519000C351DF4F3881CD5ED040363608F458C059
:1051A000111155C081E040917412509175126091B7
:1051B000761270917712452B462B472B89F44114B8
:1051C000510461047104F1F1442D352D262D972DE4
:1051D0004093741230937512209376129093771245
:1051E000109278121092791210927A1210927B1209
:1051F00040917412509175126091761270917712ED
:10520000411551056105710509F482C07301620100
:10521000C41AD50AE60AF70AB701A601C351DF4F3F
:105220002881CD5ED040263608F476C0811108C0B2
:1052300091E04C3D35E053076105710508F471C0FC
:1052400090E06FC041E030E020E090E0C1CF012F5E
:1052500010927412109275121092761210927712A8
:10526000C351DF4F4881CD5ED0404636A0F420E0E8
:1052700030E046E953E4C701B6010E94056D87FF9F
:105280000CC020E030E046E953E4C501B4010E94BF
:10529000056D87FF02C080E0A3CF809178129091C6
:1052A0007912A0917A12B0917B12892B8A2B8B2BC9
:1052B00089F4411451046104710419F1342D252D30
:1052C000962D872D309378122093791290937A122D
:1052D00080937B128091781290917912A0917A122A
:1052E000B0917B1273016201C81AD90AEA0AFB0A5B
:1052F000D701C6018C3D9540A105B10538F480E089
:1053000077CF31E020E090E080E0DCCF84E070CF28
:1053100040E050E0BA0182CF82FB992790F921E06A
:1053200092279093F2131093F3130093F413809346
:10533000F5134093F6135093F7136093F81370939B
:10534000F91380915F13882371F080915C13882397
:1053500051F080915D13882331F0F101E35BFF4F41
:1053600080818111892F809370138091C0108823D0
:1053700009F463C11091BF1048E0149FF00111249B
:10538000EB57FB4F9181992309F457C1D10117962F
:105390009C91992309F451C1E2E5F4E0823011F0C7
:1053A000EFE1F4E0C08CD18CE28CF38CC351DF4F81
:1053B000C882D982EA82FB82CD5ED0408091C21041
:1053C000853021F520E030E040E85EE3C701B6011A
:1053D0000E94076AC351DF4F688379838A839B8366
:1053E000CD5ED04020E030E040E85FE30E94A1695C
:1053F00087FF0CC020E030E040E85FE3C351DF4F9F
:10540000288339834A835B83CD5ED04080916613C5
:105410008130E9F58091881390918913A0918A13C6
:10542000B0918B1373016201C81AD90AEA0AFB0A08
:10543000C701B60120E030E0A901603107E2700742
:105440008105910590F40E94A66920E030E44CE1CA
:1054500056E40E947C6B9B01AC0160E070E080E848
:105460009FE30E94F86A9B01AC01C351DF4F688142
:1054700079818A819B81CD5ED0400E94076AC351A9
:10548000DF4F688379838A839B83CD5ED04014305D
:1054900061F48091AF13882309F4CFC0F101E7597B
:1054A000FF4F8081882309F4C8C0F101E45BFF4FFE
:1054B000C080CC2011F07F96C080F101E85BFF4FE7
:1054C0002081318142815381CB51DF4F2883398341
:1054D0004A835B83C55ED040809131129091321235
:1054E000A0913312B0913412812C912C5401009769
:1054F000A105B10531F053014201881A990AAA0A9F
:10550000BB0A409231125092321260923312709262
:105510003412CC2009F447C04114510461047104D1
:1055200009F494C0342D252D962D872D30933912F2
:1055300020933A1290933B1280933C1220E030E08B
:10554000A901CB51DF4F688179818A819B81C55E3A
:10555000D0400E94056D181634F5C501B4010E94B3
:10556000A669CB51DF4F288139814A815B81C55EB5
:10557000D0400E94076A20E030E64AE657E40E94E5
:105580007C6B20912D1230912E1240912F12509150
:1055900030120E94F96A60932D1270932E1280933C
:1055A0002F1290933012AA24A39420E030E040E818
:1055B0005FE3C351DF4F688179818A819B81CD5E32
:1055C000D0400E94056D87FDA12C809139129091E9
:1055D0003A12A0913B12B0913C120097A105B1057F
:1055E00079F0B301A201481B590B6A0B7B0BDB015D
:1055F000CA01893E9340A105B10510F40C945B4AA1
:1056000020E030E040E85FE3C351DF4F68817981FB
:105610008A819B81CD5ED0400E94056DD12C87FD93
:1056200002C00C948F4A10923512109236121092CA
:105630003712109238120C94AE4AC351DF4F1882C1
:1056400019821A821B82CD5ED0402FCF31E020E03C
:1056500090E080E06BCF31E020E090E080E00C94BF
:10566000A64AC751DF4F188219821A821B82C95E6F
:10567000D0400C94CA4AC1010E94580281110CC04A
:1056800080917C13882319F081E0809387130E9416
:10569000660289E08093BF10F101E859FF4F8081D5
:1056A000811113C080913B138350823070F40E94AB
:1056B00063048091BF108B7F833039F4A301920182
:1056C000B10180E091E00E94D719C090BF10CB518A
:1056D000DF4FC882C55ED0408C2D8D7F31F0DD2438
:1056E000D3940C2D073009F0D12C10913B13BDEF52
:1056F000CB2EC10EC751DF4FC882C95ED04000918A
:105700006F130023B9F000915913002399F0F101B0
:10571000EB59FF4F0081002369F0C1010E9458023C
:10572000082F882339F0DD2021F001E080917C13DF
:10573000811100E080913A1381110BC021E0C75123
:10574000DF4F0881C95ED040023008F4BBC220E0C0
:10575000B9C2C751DF4F2881C95ED040233070F3F2
:1057600001110EC040914E1350914F136091501390
:1057700070915113E0913C1320E080E090E037C03D
:10578000F101E959FF4F908131978081882311F40D
:105790000C94F045992311F40C94934585E0809383
:1057A0003B1382E080933C1340914E1350914F1372
:1057B0006091501370915113E2E015E0DDCF4091FC
:1057C0004E1350914F1360915013709151139923C0
:1057D00091F190914D1391110CC085E080933B1392
:1057E00086E080933C13E6E015E020E080E030E0C6
:1057F0007FC080903D1390903E13A0903F13B090D7
:10580000401373016201C818D908EA08FB08460171
:105810005701C0903813D0903913F12CE12C8C141F
:105820009D04AE04BF0448F085E080933B13809351
:105830003C13E5E0C2CF10924D1380903D13909041
:105840003E13A0903F13B090401373016201C8183B
:10585000D908EA08FB088090341390903513A09083
:105860003613B0903713C814D904EA04FB0440F08F
:1058700085E080933B1383E080933C13E3E09DCF6E
:105880008090411390904213A0904313B090441322
:1058900081149104A104B10499F073016201C81844
:1058A000D908EA08FB0846015701C0903213D0908E
:1058B0003313F12CE12C8C149D04AE04BF0498F03A
:1058C000411451046104710409F4D9C0342D252D0B
:1058D000962D872D309341132093421390934313B9
:1058E00080934413802FE0913C1320E090E031E05E
:1058F00030932714909328148093291420932A140A
:1059000040932B1450932C1460932D1470932E14E9
:1059100010932F14E093301480913B13C751DF4F45
:105920000881C95ED040023008F4D9C19DEF980FBC
:10593000923008F0D4C180911A13882309F48CC0E6
:10594000E0904E13F0904F130091501310915113AB
:10595000B701C8010E947E0B892B09F47DC020E0AD
:1059600030E0A901B701C8010E94A16987FF04C006
:10597000E12CF12C00E010E0C0900C13CB51DF4F74
:10598000C882C55ED040D0900D13C751DF4FD8827A
:10599000C95ED040C0900E13D0900F139701A8019C
:1059A000CB51DF4F6881C55ED040C751DF4F788152
:1059B000C95ED040C6010E94A16987FF0BC0CB51D0
:1059C000DF4FE880C55ED040C751DF4FF880C95E29
:1059D000D0408601C701D80180931B1390931C13FC
:1059E000A0931D13B0931E1310922313109224132F
:1059F000109225131092261380901013909011137B
:105A0000A0901213B0901313A5019401B701C8011F
:105A10000E94056D18160CF060C1A5019401CB51D0
:105A2000DF4F6881C55ED040C751DF4F7881C95EC6
:105A3000D040C6010E94F86A9B01AC01B701C801C1
:105A40000E94A169881F8827881F809327131092BE
:105A5000281381E08093291310926F1310917C1307
:105A6000112309F4BCC18091BF10811105C0C1018F
:105A70000E945802811163C10E946602D1C531E0C3
:105A800020E090E080E026CF123009F015C1992384
:105A9000A1F085E080933B1386E080933C13409116
:105AA0004E1350914F136091501370915113E6E0D3
:105AB00015E020E080E091E09ACE882309F468C0E8
:105AC00040914E1350914F136091501370915113A8
:105AD00080903D1390903E13A0903F13B0904013E0
