:100000000C9400020C94C6600C949B600C9470607D
:100010000C9445600C941A600C94EF5F0C94C45FD0
:100020000C94995F0C9431020C9431020C94516140
:100030000C9431020C9431020C9431020C94310274
:100040000C9431020C9431020C9431020C94310264
:100050000C9431020C9431020C9431020C944F5FD9
:100060000C9431020C941B610C94F1600C943102DD
:100070000C9431020C9431020C9431020C94310234
:100080000C9431020C9431020C9431020C94310224
:100090000C9431020C9431020C9431020C94310214
:1000A0000C9431020C9431020C9431020C94310204
:1000B0000C9431020C9431020C9431020C943102F4
:1000C0000C9431020C9431020C9431020C943102E4
:1000D0000C9431020C9431020C9431020C943102D4
:1000E0000C9431020C9477080C941A190C9467093B
:1000F0000C94BC270C94F5180C94345D0C94744C3F
:100100000C946F080C94CF0F0C94EA090C9481089E
:100110000C94F8180C94C25C0C9451080C947B0954
:100120000C9483090C948A0A0C949D5E0C94EA1F2B
:100130000C9469080C9407190C948B090C94C20A4E
:100140000C947C080C944A080C94C2090C9458092D
:100150000C9413190C940A190C94704C0C944608C6
:100160000C94D6090C94A9090C945B080C94764C59
:100170000C9450090C9442080C945D090C941019CD
:100180000C94905C0C94BA5D0C9473080C94EB186E
:100190000C94CC090C9471090C947D080C94FE18F5
:1001A0000C94D4610C94C70F0C942B0A0C94590A2C
:1001B0000C947C0A0C9465080C9495090C943C08EA
:1001C0000C94641F0C9461080C945A5E0C94E00922
:1001D0000C94680A0C942A0B0C944E080C94724CE4
:1001E0000C94B8090C94651F0C949F090C94485CFE
:1001F0000C942C0A0C9457080C9493180C94F95DE9
:100200004E414E494E495459494E46CDCCCC3D0AFB
:10021000D7233C17B7D13877CC2B329595E6241FDE
:10022000B14F0A000020410000C84200401C462097
:10023000BCBE4CCA1B0E5AAEC59D74434F4D4D41BA
:100240004E445F52454A454354454400434F4D4D4B
:10025000414E445F4F4B0043414C49425241544947
:100260004F4E5F52455155495245445F4F5554508A
:100270005554535F494E484942495445440043410F
:100280004C4942524154494F4E5F5245434F5244AC
:100290005F56345F4C4F41444544004D41544552F4
:1002A00049414C5F53454C454354494F4E5F52457D
:1002B0005155495245440020524541445920534527
:1002C0005249414C5F544558545F4241434B454E5F
:1002D000440020626173653D0050505220000000D0
:1002E0002100240027002A002D00300033000101E6
:1002F0000000040107010A01000022002500280077
:100300002B002E003100340002010000050108011D
:100310000B01000020002300260029002C002F00E4
:100320003200000100000301060109010505050571
:10033000070508080808020202020A0A080804045D
:10034000040401010101010101010303030303038B
:100350000303040707070C0C0C0C0C0C0C0C02021A
:10036000020206060606060606060B0B0B0B0B0B17
:100370000B0B0102102020080810204010204080A4
:100380000201020108040201010204081020408059
:1003900080402010080402018004020180402010E7
:1003A0000804020108040201010204081020408030
:1003B000010204081020408000000A0B02090C0D05
:1003C0000E08070304010000000000000000000008
:1003D000000000000000000000000000000000001D
:1003E00000000000121110000000000000000000DA
:1003F0000000000000000000000000000000D461C8
:1004000011241FBECFEFD1E2DEBFCDBF00E00CBF95
:1004100024E1A8EDB8E001C01D92A138B207E1F7D0
:1004200018E0A0E0B2E0E8E0F6EE00E00BBF02C0AA
:1004300007900D92A83DB107D9F711E0C0E0D2E0D6
:1004400000E006C021970109802FFE010E94CC6EBA
:10045000CF3FD10780E00807A9F70E94DE650C9422
:1004600002730C9400009091B91091110AC0909100
:10047000BC10981306C09730A1F028F487E096309E
:1004800089F080E00895983089F09930D1F7809113
:10049000BB108093BA101092BB10813049F082E0FB
:1004A00001C088E08093BC1081E0089589E0FACF14
:1004B00081E0F8CFFC018081882349F08181882385
:1004C00031F08281882319F0838181118781089519
:1004D000109276131092771310927813109279136A
:1004E00010927A1310927B1310927C1310927D134A
:1004F00010927E1310927F131092801308958091B2
:10050000BA10813031F49091BC10913049F080E004
:1005100007C08230E1F781E09091BC109230B9F7CA
:1005200008959091B910911119C09091BA10992322
:1005300011F0891313C08093BA101092BB10813050
:1005400059F082E08093BC100E9468021092A913B7
:100550001092AA1381E0089581E0F4CF80E008951D
:1005600080914E13882309F180914F138823E9F07D
:10057000809150138823C9F0809151138823A9F0EA
:1005800080915213882389F080915313882369F056
:1005900080915413882349F080915613882329F0C1
:1005A0008091571381118091581308954F925F9253
:1005B0006F927F928F929F92AF92BF92CF92DF9273
:1005C000EF92FF920F931F93CF93DF938C015A0109
:1005D000CB0103978A3F934030F4C1E0CA010397EF
:1005E0008A3F934008F0C0E0D091AA11DD2309F4BE
:1005F0009CC0222309F499C0CC2309F497C090E051
:1006000080E00E94D56A2091961130919711409117
:100610009811509199110E94276C20919A11309154
:100620009B1140919C1150919D110E94366B6B0162
:100630007C01B50190E080E00E94D56A20919E1176
:1006400030919F114091A0115091A1110E94276CEF
:100650002091A2113091A3114091A4115091A511A4
:100660000E94366B4B015C014090A6115090A7117F
:100670006090A8117090A911C092AB11D092AC11EA
:10068000E092AD11F092AE118092AF119092B01144
:10069000A092B111B092B211A7019601C501B401A7
:1006A0000E94286C20E030E040E05FE30E94366B5F
:1006B0006093B3117093B4118093B5119093B611F8
:1006C000A5019401C701B6010E94276C9F77609332
:1006D000B7117093B8118093B9119093BA114092E9
:1006E000BB115092BC116092BD117092BE11C093AB
:1006F000BF11D093C01186E1EBEAF1E1D80101907E
:100700000D928A95E1F7C801DF91CF911F910F916A
:10071000FF90EF90DF90CF90BF90AF909F908F9021
:100720007F906F905F904F900895C0E0C12CD12CC6
:1007300076014601570198CF80914D1380935A134B
:100740008091541380935B138091551380935C13B5
:100750008091591380935D13809150138111809182
:100760004F1380935E130895CF93DF93EC0120E045
:1007700030E040E85FE3688179818A819B810E9453
:10078000346E18160CF04AC020E030E0A9016C81EC
:100790007D818E819F810E94346E18160CF03EC0C0
:1007A00020E030E040E85FE3688579858A859B85B5
:1007B0000E94346E181694F58C859D85892B71F1F5
:1007C00081E0809314138EE0FE01A6E0B3E1019076
:1007D0000D928A95E1F781E010921513109216138D
:1007E00010921713109218131092191310921A13D3
:1007F00010921B1310921C1310921D1310921E13B3
:1008000010921F1310922013109221131092221392
:1008100091E090932313DF91CF91089510921413D8
:1008200080E0DACFCF92DF92EF92FF920F931F9387
:10083000CF938C01FC01C489CC23B9F120E030E0D6
:10084000A90164817581868197810E94D06A1816FA
:10085000D4F520E030E0A901F8016485758586852E
:1008600097850E94D06A181674F5F801C088D1885F
:10087000E288F38820E030E0A901C701B6010E94B8
:10088000D06A181604F52DEC3CEC4CE45DE3C7018E
:10089000B6010E94346E1816B4F085E1F801A6E99D
:1008A000B1E101900D928A95E1F7C09354130E9433
:1008B0009C0380915413CF911F910F91FF90EF9063
:1008C000DF90CF900895C0E0F0CF1092691310929E
:1008D000351310923613109237131092381310926A
:1008E000391310923A1310923B1310923C1310924A
:1008F0003D1310923E1310923F131092401310922A
:100900004113109242131092471310924813109201
:10091000491310924A1310924B1310922313109202
:100920001D1310921E1310921F1310922013109279
:100930002113E1E2F4E18AE0DF011D928A95E9F7F3
:10094000E3E1F4E18EE0DF011D928A95E9F7109270
:10095000661381E08093671308953F924F925F92F0
:100960006F927F928F929F92AF92BF92CF92DF92BF
:10097000EF92FF920F931F93CF93DF9300D000D09D
:1009800000D01F92CDB7DEB79E838D83F091B91052
:1009900030907613EBE0FA30D1F1F93039F48091F0
:1009A0006513E9E0811133C0EAE031C0E2E03110C3
:1009B0002EC0F23049F580916413E3E0811127C025
:1009C000809160139FEF980FE6E0923000F1E7E02E
:1009D0008330E9F0E8E08430D1F0E4E0F11117C0B1
:1009E00080915B13882371F080915D13882351F00F
:1009F00080915613882331F080915713E0915F1353
:100A0000811105C0E0E003C0E5E0F430C9F6809153
:100A10008E1390918F13A0919013B0919113412C4C
:100A2000512C32010097A105B10531F02A013B019B
:100A3000481A590A6A0A7B0A80919213909193137B
:100A4000A0919413B0919513812C912C540100978F
:100A5000A105B10531F04A015B01881A990AAA0A79
:100A6000BB0A8091861390918713A0918813B0914F
:100A70008913C12CD12C76010097A105B10531F065
:100A80006A017B01C81AD90AEA0AFB0A80916B1332
:100A9000882309F461C180916D1390916E13A09128
:100AA0006F13B09170138A019B01081B190B2A0B5D
:100AB0003B0B0F83188729873A8780917713882308
:100AC00009F44FC18091791390917A13A0917B130F
:100AD000B0917C138A019B01081B190B2A0B3B0B5D
:100AE00009831A832B833C8380917813882309F42C
:100AF0003DC180917D1390917E13A0917F13B091A1
:100B00008013481B590B6A0B7B0BAD81BE81EC93A4
:100B10001196FC9311978091BC1012968C931297AA
:100B20008091601313968C931397E0916113F09169
:100B300062131596FC93EE93149794E1ECE4F3E1C1
:100B4000169601900D929A95E1F790916A13ED81B6
:100B5000FE81928F90916313938F90916613948F7F
:100B600090916713958F90916813968F9091A91328
:100B7000978FE0919311F0919411AD81BE81919680
:100B8000FC93EE93909791E0E091E110E53009F04D
:100B900090E0ED81FE8192A39091961393A344A2DD
:100BA00055A266A277A280A691A6A2A6B3A6C4A6C5
:100BB000D5A6E6A6F7A60F81188529853A8500AB4C
:100BC00011AB22AB33AB34AA09811A812B813C8152
:100BD00005AB16AB27AB30AF41AF52AF63AF74AFCD
:100BE00091E0843009F090E0AD81BE81DD969C9368
:100BF000DD97FD01FE968091AC139091AD13A0910D
:100C0000AE13B091AF1380839183A283B383ED8140
:100C1000FE81EE5BFF4F80919B1390919C13A091FE
:100C20009D13B0919E1380839183A283B383ED8142
:100C3000FE81EA5BFF4F8091A3138083ED81FE81EB
:100C4000E95BFF4F8091AA138083AD81BE81A85BD1
:100C5000BF4F8DE1E9EBF3E101900D928A95E1F749
:100C6000AD81BE81AB59BF4F86E1E6EDF3E1019066
:100C70000D928A95E1F7AD81BE81A558BF4F88E0FE
:100C8000ECEEF3E101900D928A95E1F7AD81BE8122
:100C9000AD57BF4F8FE1E4EFF3E101900D928A95DC
:100CA000E1F7AD81BE81AE55BF4F8EE0E3E1F4E1E7
:100CB00001900D928A95E1F7AD81BE81A055BF4F9D
:100CC0008AE0E1E2F4E101900D928A95E1F7AD81CD
:100CD000BE81A654BF4F8CE4EBE2F4E101900D928B
:100CE0008A95E1F7ED81FE81EA5FFE4F80917714EE
:100CF00090917814A0917914B0917A1480839183A3
:100D0000A283B383ED81FE81E65FFE4F8091821363
:100D100090918313A0918413B09185138083918364
:100D2000A283B3838D819E812A960FB6F894DEBF8D
:100D30000FBECDBFDF91CF911F910F91FF90EF902C
:100D4000DF90CF90BF90AF909F908F907F906F90EB
:100D50005F904F903F9008951F82188619861A86DB
:100D6000ACCE19821A821B821C82BECE40E050E0BB
:100D7000BA01CBCECF92DF92EF92FF920F931F93E7
:100D8000CF938C016A017B01E091B91088E0E89F64
:100D9000F0011124EF56FB4FC481CC23B9F08091B0
:100DA0006013882311F0833081F4C1E020E030E04B
:100DB000A9016091B9137091BA138091BB139091FE
:100DC000BC130E94346E18160CF0C0E0F801878145
:100DD00090850097B1F4C11114C01092B213109213
:100DE000B3131092B4131092B5131092B61310925D
:100DF000B713CF911F910F91FF90EF90DF90CF909D
:100E000008952091B2132111F4CF892B11F4CC2332
:100E100081F381E08093B2131092B313C092B413A4
:100E2000D092B513E092B613F092B713E2CFAF921F
:100E3000BF92CF92DF92FF920F931F93CF93DF93D6
:100E4000CDB7DEB764970FB6F894DEBF0FBECDBF47
:100E50008C01F090B9106AE0F61258C084E1A1E26A
:100E6000B0E0AC0FBD1F1D928A95E9F7FE01F19627
:100E700090E09E012B5C3F4F81919111892F982F1B
:100E80002E173F07C9F729A13AA14AA55BA59FA53F
:100E9000F80174966F01B8016E5D7E4F5B012115FC
:100EA000310509F059C06BA1611156C06EA17FA137
:100EB000672B09F051C068A579A5672B09F04CC0D4
:100EC0004115510509F0B6C0911149C079E0F712FA
:100ED000A1C0811169C04DA95EA96FA978ADCE01ED
:100EE00081960E94BA0684E1FE01B196D801019074
:100EF0000D928A95E1F74DA95EA96FA978ADC6015B
:100F00000E94AD0481E0F501808373C0B9E0FB125B
:100F1000ADCFFE01319684E1DF011D928A95E9F79C
:100F20008091BA108823B1F080916A13882391F0E0
:100F30008091611382FD0EC08091811381110AC0DE
:100F40008CA58C8784E1DE01919601900D928A95A3
:100F5000E1F78CCF80E0F5CF992309F462C090913E
:100F60002114992341F0909135139350452B19F496
:100F7000923008F059C091E0232B49F02EA13FA1F7
:100F8000232B91F4811110C0992309F451C0809151
:100F90006613882349F0809135138350823020F402
:100FA0000E94B002811192CF89E08093B91084E150
:100FB000F82EA1E2B0E0AC0FBD1FEF2D1D92EA9517
:100FC000E9F74DA95EA96FA978ADCE0181960E947F
:100FD000BA06FE01B196D80101900D92FA94E1F79C
:100FE0004DA95EA96FA978ADC6010E94AD04D501D7
:100FF0001C92C80164960FB6F894DEBF0FBECDBF39
:10100000DF91CF911F910F91FF90DF90CF90BF9014
:10101000AF9008959AE0F9125ECF8111C5CF8CA5EB
:1010200058CF452B09F0A7CF90E0232B09F0A6CF8E
:1010300081E04CCF992309F49ECF91CF815082312A
:1010400008F05AC0E82FF0E08827E65DF74F8F4F91
:101050000C94CC6E4A084E083C08420846087C08AE
:10106000510857085B086108650869086F0873082C
:101070007C0877087D088108809180008F778093B5
:1010800080000895809180008F7DF9CF809180004D
:10109000877FF5CF84B58F7784BD089584B58F7D24
:1010A000FBCF8091B0008F778093B000089580913E
:1010B000B0008F7DF9CF809190008F778093900062
:1010C0000895809190008F7DF9CF80919000877F67
:1010D000F5CF8091A0008F778093A0000895809134
:1010E000A0008F7DF9CF8091A000877FF5CF809100
:1010F00020018F77809320010895809120018F7DBA
:10110000F9CF80912001877FF5CFCF93DF93282FF0
:1011100030E0F901E854FC4F8491F901EE58FC4F9E
:10112000D491F901E45DFC4FC491CC23A1F081116D
:101130000E941E08EC2FF0E0EE0FFF1FEE5EFC4F4A
:10114000A591B491EC91ED2381E090E009F480E069
:10115000DF91CF91089580E090E0FACF1F93CF9375
:10116000DF93282F30E0F901E854FC4F8491F90116
:10117000EE58FC4FD491F901E45DFC4FC491CC23AF
:10118000A9F0162F81110E941E08EC2FF0E0EE0F3F
:10119000FF1FE850FD4FA591B4918FB7F894EC91E3
:1011A000111108C0D095DE23DC938FBFDF91CF9162
:1011B0001F910895DE2BF8CFCF93DF9390E0FC01D1
:1011C000EE58FC4F2491845D9C4FFC018491882350
:1011D000C9F090E0880F991FFC01E252FD4FA591E4
:1011E000B491FC01E850FD4FC591D49161110DC03F
:1011F0009FB7F8948C91209582238C938881282323
:1012000028839FBFDF91CF910895623051F49FB73B
:10121000F8943C91822F809583238C93E8812E2B28
:10122000EFCF8FB7F894EC912E2B2C938FBFEACF92
:101230001F93CF93DF93182FEB0161E00E94DC082E
:10124000209739F460E0812FDF91CF911F910C94AA
:10125000AE08CF3FD10511F461E0F5CFE12FF0E00A
:10126000E854FC4FE491E150E23108F0B3C0F0E003
:101270008827E25CF64F8F4F0C94CC6E50095809CA
:101280005D0967097109EA097B0983098B099509D9
:101290009F09A909B809C209EA09CC09D609E009D8
:1012A00084B5806884BDC7BDDF91CF911F9108953B
:1012B00084B5806284BDC8BDF7CF8091800080680E
:1012C00080938000D0938900C0938800EDCF8091F7
:1012D0008000806280938000D0938B00C0938A004E
:1012E000E3CF80918000886080938000D0938D0050
:1012F000C0938C00D9CF8091B00080688093B000FB
:10130000C093B300D1CF8091B00080628093B000D1
:10131000C093B400C9CF8091900080688093900002
:10132000D0939900C0939800BFCF809190008062C5
:1013300080939000D0939B00C0939A00B5CF80918A
:101340009000886080939000D0939D00C0939C0093
:10135000ABCF8091A00080688093A0008091A00016
:101360008F7B8093A000D093A900C093A8009CCF4E
:101370008091A00080628093A000D093AB00C093C6
:10138000AA0092CF8091A00088608093A000D093A3
:10139000AD00C093AC0088CF80912001806880931D
:1013A0002001D0932901C09328017ECF8091200194
:1013B000806280932001D0932B01C0932A0174CFC7
:1013C00080912001886080932001D0932D01C093EB
:1013D0002C016ACFC038D1050CF03ECF33CF9091AD
:1013E0007B00977F90937B008653806480937C0082
:1013F00080917A00806480937A0080917A0086FDE3
:10140000FCCF809178009091790008953FB7F894CF
:101410008091DA0D9091DB0DA091DC0DB091DD0D86
:1014200026B5A89B05C02F3F19F00196A11DB11D3F
:101430003FBFBA2FA92F982F8827BC01CD01620F7B
:10144000711D811D911D42E0660F771F881F991F36
:101450004A95D1F708950895AF92BF92CF92DF9247
:10146000EF92FF920F931F93CF93DF936C017B0159
:101470008B01040F151FEB015E01AE18BF08C017EA
:10148000D10759F06991D601ED91FC910190F0815D
:10149000E02DC6011995892B79F7C501DF91CF9110
:1014A0001F910F91FF90EF90DF90CF90BF90AF9082
:1014B0000895FC01538D448D252F30E0842F90E05A
:1014C000821B930B541710F0CF960895019708953F
:1014D000FC01918D828D981761F0A28DAE0FBF2F08
:1014E000B11D5D968C91928D9F5F9F73928F90E05E
:1014F00008958FEF9FEF0895FC01918D828D9817CD
:1015000031F0828DE80FF11D858D90E008958FEF09
:101510009FEF0895FC01918D228D892F90E0805CD2
:101520009F4F821B91098F73992708958EED9DE03F
:101530000E948A0A21E0892B09F420E0822F089575
:10154000FC01A48DA80FB92FB11DA35ABF4F2C9138
:10155000848D90E001968F739927848FA689B7892F
:101560002C93A089B1898C91837080648C93938D26
:10157000848D981306C00288F389E02D80818F7DC9
:1015800080830895EF92FF920F931F93CF93DF9381
:10159000EC0181E0888F9B8D8C8D98131AC0E889AF
:1015A000F989808185FF15C09FB7F894EE89FF897E
:1015B0006083E889F98980818370806480839FBF1C
:1015C00081E090E0DF91CF911F910F91FF90EF901C
:1015D0000895F62E0B8D10E00F5F1F4F0F7311272C
:1015E000E02E8C8D8E110CC00FB607FCFACFE88967
:1015F000F989808185FFF5CFCE010E94A00AF1CF45
:10160000EB8DEC0FFD2FF11DE35AFF4FF0829FB7DA
:10161000F8940B8FEA89FB8980818062CFCF0F938A
:101620001F93CF93DF938C01D0E0C0E0F801EC0F63
:10163000FD1F6491662341F08EED9DE00E94C20A79
:10164000892B11F02196F2CFCE01DF91CF911F911E
:101650000F910895CF93DF93EC01888D8823B9F023
:10166000AA89BB89E889F9898C9185FD03C08081AD
:1016700086FD0DC00FB607FCF7CF8C9185FFF2CF2A
:10168000808185FFEDCFCE010E94A00AE9CFDF91D6
:10169000CF91089580E090E0892B29F00E94960A6E
:1016A00081110E94000080E090E0892B49F080E0E9
:1016B00090E0892B29F00E94000081110E94000017
:1016C00080E090E0892B49F080E090E0892B29F0C0
:1016D0000E94000081110E94000080E090E0892BB0
:1016E00049F080E090E0892B29F00E9400008111F0
:1016F0000C9400000895682F660F692F661F81E023
:1017000090E06F3F11F490E080E00895CF92DF9277
:10171000EF92FF92CF93DF93D82F6A017B01C22F04
:101720002223E1F0CB01BA010E947B0B892BA9F0A7
:101730002DEC3CEC4CEC5DE3C701B6010E94346E2D
:1017400087FD0BC0C1E020E030E040E855E4C70170
:10175000B6010E94D06A18160CF4C0E0D330F9F03C
:1017600030F4DD2369F0D230B9F0C0E00DC0DA30DA
:10177000C9F0DB30D1F0D530C1F7C093511302C0AE
:10178000C0934C130E949C038C2FDF91CF91FF904C
:10179000EF90DF90CF900895C0934E13F3CFC09396
:1017A0004F13F0CFC0935613EDCFC0935713EACF2A
:1017B0002F923F924F925F926F927F928F929F9261
:1017C000AF92BF92CF92DF92EF92FF920F931F934F
:1017D000CF93DF93CDB7DEB76A970FB6F894DEBF2D
:1017E0000FBECDBF9A8F898F8B012D873E874F8784
:1017F000588B8AE0A98DBA8D1D928A95E9F7FB0175
:10180000E35BFF4F80819181A281B381E98DFA8DE5
:1018100082879387A487B587FB01EF5AFF4F8081AA
:101820009181A281B381E98DFA8D86879787A08BFC
:10183000B18BFB01EB5AFF4F80819181A281B38173
:10184000E98DFA8D828B938BA48BB58BDB019796F8
:101850008C9197978823D1F198968C9198978823AB
:10186000A9F19C964D905D906D907C909F97DA01C8
:10187000C90184199509A609B70986839783A087AA
:10188000B187FB0123893489458956892D833E839D
:101890004F835887281739074A075B0790F583E07D
:1018A000A98DBA8D15968C9312A6EB5BFF4F108213
:1018B00011821282138235971082FB0114AE15AE8D
:1018C00016AE17AE40AE51AE62AE73AE898D9A8D34
:1018D0006A960FB6F894DEBF0FBECDBFDF91CF91F1
:1018E0001F910F91FF90EF90DF90CF90BF90AF903E
:1018F0009F908F907F906F905F904F903F902F9030
:10190000089581A5882311F380AD91ADA2ADB3AD4B
:1019100073016201C81AD90AEA0AFB0A868597850B
:10192000A089B189C816D906EA06FB0608F44DC09D
:1019300064AD75AD86AD97AD8288912CB12CA12C8C
:10194000681579058A059B0508F43FC01801F1E484
:101950002F0E311C0E94D56A20EC31EE44E65CE487
:101960000E94366B4B015C01D8016D917C9190E037
:1019700080E00E94D56A69837A838B839C83C70148
:10198000B6010E94D56A9B01AC0169817A818B8185
:101990009C810E94366B9B01AC01C501B4010E9481
:1019A000AB6CF101608371838283938381E0319713
:1019B0008083D801D8964D925D926D927C92DB9790
:1019C000F80114AE15AE16AE17AED801D096CD9074
:1019D000DD90ED90FC90D397C114D104E104F104A3
:1019E00009F47BC06D917C916115710509F475C096
:1019F00090E080E00E94D56A4B015C01C701B6010E
:101A00000E94D56A9B01AC01C501B4010E94366BEE
:101A10009B01AC0160EC71EE84E69CE40E94AB6C2F
:101A2000698379871C01F801E05CFF4F808188237E
:101A300009F458C029813985A101F80162857385AF
:101A4000848595850E94D06A18160CF44BC0F80165
:101A5000EF5BFF4F208129833181398722803380DA
:101A600082E0A98DBA8D15968C93F80182A581111B
:101A70003BC089819985D101EB5BFF4F80839183C6
:101A8000A283B38381E0D8019A968C93F801E75B37
:101A9000FF4F2D853E854F855889208331834283B2
:101AA00053833497C080D180E280F38020E030E01F
:101AB000A901C701B6010E94D06A87FF03C0C12CEB
:101AC000D12C7601A98DBA8DCD92DD92ED92FC924A
:101AD000139781E014968C93F9CE19821986212CE4
:101AE000312CA1CF81E0BDCFE75BFF4F8081918199
:101AF000A281B381F801238D348D458D568D2D8BB8
:101B00003E8B4F8B588F0097A105B10589F04D840E
:101B10005E846F847888481A590A6A0A7B0A2D8184
:101B20003E814F815885241535054605570520F41B
:101B30004D885E886F88788CC301B2010E94D56A97
:101B4000698B7A8B8B8B9C8B20E034E244E759E4E1
:101B50000E94AB6CD8015F962D913D914D915C91A7
:101B600092970E94366B4B015C01F801EB5BFF4FD3
:101B7000C080D180E280F380AC019B01C701B60137
:101B80000E94276C6D837A878B879C872981398592
:101B9000A1010E94346E1816BCF0A5019401C70182
:101BA000B6010E94286C6D837A878B879C87298178
:101BB0003985A1010E94D06A87FD06C0B981BD8325
:101BC000E985EA872B863C865801F5E4AF0EB11C07
:101BD0006D897E898F89988D640D751D861D971D71
:101BE0000E94D56A9B01AC0169897A898B899C899D
:101BF0000E94AB6C2B013C01A70196016D817A8597
:101C00008B859C850E94276C9B01AC01C301B201AE
:101C10000E94366BA70196010E94286CD5016D9336
:101C20007D938D939C93139731CF4F925F926F92D8
:101C30007F928F929F92AF92BF92CF92DF92EF925C
:101C4000FF920F931F93CF93DF9300D000D0CDB7B7
:101C5000DEB79A838983FC0117A11123B9F000A58F
:101C600001112CC081E080A744A755A766A777A7DC
:101C700040AF51AF62AF73AFE35BFF4F81E090E0E5
:101C8000A0E0B0E080839183A283B383812F269666
:101C90000FB6F894DEBF0FBECDBFDF91CF911F917D
:101CA0000F91FF90EF90DF90CF90BF90AF909F90FB
:101CB0008F907F906F905F904F900895E981FA81A7
:101CC00084A595A5A6A5B7A56A017B01C81AD90A5E
:101CD000EA0AFB0A8789908DA18DB28DC816D906B4
:101CE000EA06FB0690F4EF5AFF4FFA83E98340813E
:101CF0005181628173814F5F5F4F6F4F7F4F408390
:101D000051836283738310E0C1CF29813A813E837E
:101D10002D83F90144A755A766A777A7E35BFF4F7B
:101D200080819181A281B3810196A11DB11D808323
:101D30009183A283B383F90184AD95ADA6ADB7AD10
:101D40000196A11DB11D84AF95AFA6AFB7AFC11469
:101D5000D104E104F10409F452C06081718161157C
:101D6000710509F44CC090E080E00E94D56A4B01F7
:101D70005C01C701B6010E94D56A9B01AC01C50197
:101D8000B4010E94366B9B01AC0160EC71EE84E6FD
:101D90009CE40E94AB6C4B015C0120E030E040E031
:101DA0005FE3ED81FE8162817381848195810E9470
:101DB000366BA50194010E94D06A181624F120E028
:101DC00030E040EA5FE3ED81FE81668177818085C6
:101DD00091850E94366BA50194010E94346E87FDA7
:101DE00012C0ED81FE8111A5111121C0ED81FE818E
:101DF000C0AAD1AAE2AAF3AA81E081A715C0812CCA
:101E0000912C5401CACFED81FE81EB5AFF4F8081A6
:101E10009181A281B3810196A11DB11D808391831F
:101E2000A283B383ED81FE8113A6102F2FCFED8106
:101E3000FE8180A991A9A2A9B3A946015701C8169C
:101E4000D906EA06FB0610F44C015D0120E030E003
:101E5000A90181149104A104B104E9F08C159D0538
:101E6000AE05BF0570F5A7019601281B390B4A0B7B
:101E70005B0BCA01B9010E94D56A2B013C01C50167
:101E8000B4010E94D56A9B01AC01C301B2010E945A
:101E9000AB6C9B01AC01ED81FE8183A094A0A5A059
:101EA000B6A0C501B4010E94346EED81FE8187FDAC
:101EB0000FC0C0AAD1AAE2AAF3AA81E081A713A603
:101EC000E5CEBC01CD016C197D098E099F09D3CFE8
:101ED00003A50023E1F184A995A9A6A9B7A9260124
:101EE0003701C816D906EA06FB0610F42C013D019D
:101EF00020E030E0A901411451046104710409F1AA
:101F00008C159D05AE05BF05D8F5A7019601281BC8
:101F1000390B4A0B5B0BCA01B9010E94D56A698370
:101F20007A838B839C83C301B2010E94D56A9B0193
:101F3000AC0169817A818B819C810E94AB6C9B0191
:101F4000AC01C501B4010E94346E87FF4FCFED8113
:101F5000FE81C4AAD5AAE6AAF7AA81E083A7EB5A14
:101F6000FF4FFA83E98340815181628173814F5F22
:101F70005F4F6F4F7F4F408351836283738386CE61
:101F8000BC01CD016C197D098E099F09C6CF0E9445
:101F9000060AAB01BC0189E29AE00C94150E0E947E
:101FA000060AAB01BC0180ED99E00C94150EFC0112
:101FB00013A214A215A216A217A210A611A612A669
:101FC00013A614A615A616A617A610AA11AA12AA39
:101FD00013AA14AA15AA16AA178E10A211A212A249
:101FE00008952F923F924F925F926F927F928F92BD
:101FF0009F92AF92BF92CF92DF92EF92FF920F9398
:102000001F93CF93DF93CDB7DEB7A5970FB6F894A4
:10201000DEBF0FBECDBF9A8389831B014901B42E59
:102020005B8327013801CB86AC86FC01349686E1C0
:10203000DF011D928A95E9F7FB01668D662319F091
:10204000FC85F11147C050E040E030E020E0852FF2
:10205000942FA32FB22FE981FA8180839183A283E9
:10206000B3834086518662867386662369F0BC8599
:10207000BB2351F020E030E0A901B4018B2D9B81FE
:102080000E94D06A81112BC0C1010E94D70FAA24DF
:10209000A394EC85AE26A981BA815296AC9289812F
:1020A0009A81A5960FB6F894DEBF0FBECDBFDF9123
:1020B000CF911F910F91FF90EF90DF90CF90BF9045
:1020C000AF909F908F907F906F905F904F903F90D8
:1020D0002F900895522F492D3B2D2B81B8CFF10120
:1020E000878D81110AC081E0878F2BAD3CAD4DAD4E
:1020F0005EAD23A734A745A756A7F10183A594A5F4
:10210000A5A5B6A5CBACDCACEDACFEACC81AD90A23
:10211000EA0AFB0AC701B6010E94D56A6F83788775
:1021200089879A87D10152966D917C9190E080E0E9
:102130000E94D56A9B01AC016F81788589859A855B
:102140000E94AB6C6D877E878F87988B2DEC3CEC63
:102150004CE45DE30E94D06A87FD7BC220E030E062
:1021600040E85FE36D857E858F8598890E94346E97
:10217000181644F420E030E040E85FE32D873E8706
:102180004F87588B2D853E854F855889B4018B2DFF
:102190009B810E94366B4B015C01A981BA81149628
:1021A0008D929D92AD92BC92179720E030E0A901EC
:1021B0000E94346E87FD56C220E030E040E85FE3C5
:1021C000298F3A8F4B8F5C8FE894B7F8A301920167
:1021D000698D7A8D8B8D9C8D0E94366B9B01AC0135
:1021E000C501B4010E94276C698B7A8B8B8B9C8B09
:1021F000A981BA811C966D937D938D939C931F97B3
:10220000BB85BB2359F081E0F10180A32BAD3CAD30
:102210004DAD5EAD27A730AB41AB52ABF10180A114
:10222000882361F087A590A9A1A9B2A9CBACDCACA9
:10223000EDACFEACC81AD90AEA0AFB0AFB85F1111B
:102240000DC021E02B87F10184899589A689B78982
:10225000C816D906EA06FB0608F01B86EB85A9819D
:10226000BA815296EC93529781E0E827EBA35396FC
:10227000EC93D10191968C9191979AE0C92E97EDAC
:10228000D92E93EAE92E9CE3F92E882399F19796AB
:102290008D919D910D90BC91A02D2BAD3CAD4DAD80
:1022A0005EAD281B390B4A0B5B0BCA01B9010E94BA
:1022B000D56A20E030E04AE754E40E94AB6C6B0141
:1022C0007C012FE632E143E85AE30E94D06A87FDA1
:1022D000D2C12DEC3CEC4CEC5DE3C701B6010E9491
:1022E000346E18163CF42DECC22E2CECD22EED2CB4
:1022F0002DE3F22E8BAD9CADADADBEADF10187A34C
:1023000090A7A1A7B2A781E081A32481358146814E
:1023100057812B833C834D835E8340805180628054
:1023200073801085612F70E090E080E00E94D56A94
:102330006F8F78A389A39AA3F1010185202F30E044
:102340003E8F2D8F412F50E05DA34CA3A50194013A
:10235000C301B2010E94D06A87FF96C1A301920116
:10236000C501B4010E94276C4B015C01A3019201DD
:102370006B817C818D819E810E94276C9B01AC01C9
:10238000C501B4010E94AB6C4B015C016D8D7E8D6B
:102390008CA19DA1681B790B072E000C880B990B53
:1023A0000E94D76A9B01AC01C501B4010E94366B43
:1023B0002F8D38A149A15AA10E94286C4B01B82E3B
:1023C000A92E602F70E090E080E00E94D56A3B016A
:1023D0008C016D8D7E8D719561957109072E000CB4
:1023E000880B990B0E94D76A6D8B7E8B8F8B988F91
:1023F000A701960169897A898B899C890E94366B2D
:10240000D10193962D913D914D915C9196970E94AB
:10241000286C6B017C019B01AC016D897E898F89E1
:10242000988D0E94346E181664F09601A701B301CE
:10243000C8010E94D06A87FF2CC16D8A7E8A0F8BEB
:10244000188FF101228533854485558569897A89FC
:102450008B899C890E94366B6B017C0123962CAD85
:102460003DAD4EAD5FAD2397B4018B2D9A2D0E94EB
:10247000286C9B01AC01C701B6010E94286C6B015E
:102480007C01D1011E962D913D914D915C9151970A
:102490006D897E898F89988D0E94366B9B01AC0176
:1024A000C701B6010E94286C6B837F83582E492E8A
:1024B00020E030E0A9010E94D06AECA1FDA16F01EB
:1024C000FF0FEE08FF0887FDE9C02B813F81452DF6
:1024D000542DB301C8010E94D06A87FD04C06B80EF
:1024E0007F80052D142DC701B6010E94D76A4B01CC
:1024F0005C0120E030E0A901B301C8010E94346E04
:10250000181644F4A5019401B301C8010E94D06AD1
:1025100087FDC9C0C701B6010E94D76A6B017C0163
:102520002D8D3E8DB901330F880B990B0E94D76A10
:102530004B015C012B813F81452D542DC701B60114
:102540000E94346E87FF0CC031E03C87A5019401E6
:102550006B817F81852D942D0E94346E87FD1C86B2
:10256000EC85A981BA815496EC93A50194016B8105
:102570007F81852D942D0E94346E87FD0CC020E054
:1025800030E0A90169897A898B899C890E94346E1F
:1025900018160CF48DC02B813F81452D542DC70199
:1025A000B6010E94346E87FD0BC020E030E0A90127
:1025B00069897A898B899C890E94D06A87FD78C055
:1025C000FB85FF2309F478C08D899E89AF89B88D7A
:1025D000F10183A394A3A5A3B6A320E030E040E0DB
:1025E0005FE3B301C8010E94286C298D3A8D4B8DA1
:1025F0005C8D0E94366B0E94596DA981BA815196FB
:102600007C936E93509720E030E040E85FE36D8567
:102610007E858F8598890E94346E87FD11C0BC85A8
:10262000BB2371F069897A898B899C899F77F10135
:10263000228D338D448D558D0E94346E87FF41C0AD
:10264000D10192961C92F10113AA14AA15AA16AAF6
:1026500026CD8DEC9CECACE4BDE38D879E87AF87E7
:10266000B88B90CD80E090E0A0E8BFEB898F9A8F87
:10267000AB8FBC8FA9CD8FE6C82E82E1D82E83E820
:10268000E82E8AE3F82E36CE8F8C98A0B9A0AAA0A7
:1026900098CECD8ADE8AEF8AF88ED3CE612C712C4B
:1026A00000E010E037CF6F8C78A009A11AA132CFDB
:1026B000FBA1FF2309F491CF612C712C00E010E005
:1026C0008CCFD10192968C91929781110EC081E0AE
:1026D00092968C9392972BAD3CAD4DAD5EADD3965B
:1026E0002D933D934D935C93D697F10183A994A9C3
:1026F000A5A9B6A92BAD3CAD4DAD5EAD281B390BE0
:102700004A0B5B0BDA01C901E981FA81868B978B51
:10271000A08FB18FF101408D518D70E060E021E01C
:1027200084179507A607B70708F420E0A981BA81A6
:1027300055962C93B4CC2F923F924F925F926F920A
:102740007F928F929F92AF92BF92CF92DF92EF9241
:10275000FF920F931F93CF93DF93CDB7DEB76E97A2
:102760000FB6F894DEBF0FBECDBF4C018B01742EA7
:10277000A090E110DC01AC9211964C9311978091DE
:10278000E21012968C93B090E010C12CD12C7601FF
:10279000BB20E1F1FB01C480D580E680F78020906A
:1027A000BF103090C0104090C1105090C210A201D4
:1027B0009101C701B6010E94346E18160CF0D7C003
:1027C000A2019101C701B6010E94276C2091C3109C
:1027D0003091C4104091C5105091C6100E94366BC4
:1027E0002091C7103091C8104091C9105091CA1063
:1027F0000E94366B2091CB103091CC104091CD10BF
:102800005091CE100E94366B6B017C01D40113965F
:10281000CD92DD92ED92FC921697D80118962D91EB
:102820003D914D915C911B972B8F3C8F4D8F5E8F0F
:10283000672D70E090E080E02FEF2A0D223020F02D
:10284000B4E0312CAB1297C033243394711001C023
:10285000312CE4E0AE128FC00E94D56A2B013C01FE
:1028600077FA709477F870948B8D9C8DAD8DBE8DBA
:10287000BF779C01AD0150582B8F3C8F4D8F5E8FE1
:10288000BB2009F486C0A090BD10B090BE10A1146A
:10289000B10409F47EC020E030E040EE51E4C7010D
:1028A000B6010E94366BD50112962D913D914D9146
:1028B0005C9115970E94AB6C9F938F937F936F935E
:1028C000F80183818F9382818F9381818F9380819F
:1028D0008F93A32CC684EB8CFC8C0D8D1E8DA301D5
:1028E000920164EF70E1CE0101960E94F10F898997
:1028F0009A89D40118969C938E9317978B89199671
:102900008C9319978E891A968C931A970FB6F89410
:10291000DEBF0FBECDBF332081F08C89882369F0E4
:1029200085E08093E1101092F3108C9311961C9225
:10293000119718961C921E921797C4016E960FB6A7
:10294000F894DEBF0FBECDBFDF91CF911F910F91E5
:10295000FF90EF90DF90CF90BF90AF909F908F90BF
:102960007F906F905F904F903F902F90089560E020
:1029700070E0CB012BCF0E94D56A2B013C018B8DDF
:102980009C8DAD8DBE8DBF778B8F9C8FAD8FBE8F95
:1029900077CF60E070E080E090E08ECFCF92DF9262
:1029A000EF92FF920F931F93CF93DF938C01EB0174
:1029B000C880D980EA80FB8020E030E0A901C7010F
:1029C000B6010E94346E18160CF05BC02C813D815C
:1029D0004E815F81C701B6010E94D06A87FF51C056
:1029E0008885882309F44DC09985891708F049C066
:1029F00020E030E0A9016A857B858C859D850E9459
:102A0000346E87FD3EC020E030E0A9016E857F85F1
:102A1000888999890E94346E87FD33C08A899B8991
:102A2000892B79F18C899D89AE89BF89892B8A2B65
:102A30008B2B39F1888D998D892B19F120E030E0AD
:102A4000A9016A8D7B8D8C8D9D8D0E94346E181628
:102A5000C4F481E0F801868F8EE1FE01D801019077
:102A60000D928A95E1F7C8010E94D70FF801868D73
:102A7000DF91CF911F910F91FF90EF90DF90CF905A
:102A80000895F801168EEFCFCF92DF92EF92FF926A
:102A90000F931F93CF93DF93CDB7DEB76E970FB62B
:102AA000F894DEBF0FBECDBF8C01FC01C080D18089
:102AB000E280F38020E030E040E85FE3C701B60148
:102AC0000E94346E18160CF037C1F801248135814C
:102AD00046815781C701B6010E94D06A87FF2CC189
:102AE000F801C484D584E684F784A7019601608543
:102AF0007185828593850E94346E18160CF01CC176
:102B000020E030E0A901C701B6010E94346E18161A
:102B10000CF012C120E030E0A901F8016489758948
:102B2000868997890E94346E87FD06C120E030E0D7
:102B3000A901F801608D718D828D938D0E94346E94
:102B400087FDFAC0F801948D858D981708F0F4C0C0
:102B5000868D978D892B09F4EFC080A191A1892BD7
:102B600009F4EAC0C2A0D3A0E4A0F5A020E030E0C0
:102B700040E05FE3C701B6010E94346E87FDDCC010
:102B800023E333E343E75FE3C701B6010E94D06A62
:102B900018160CF4D1C0F801C6A0D7A0E0A4F1A487
:102BA00020E030E0A901C701B6010E94346E18167A
:102BB0000CF0C2C0F80122A533A544A555A5C70154
:102BC000B6010E94D06A87FFB7C020E030E0A901BB
:102BD000F80166A577A580A991A90E94346E87FDAA
:102BE000ABC020E030E0A901F80162A973A984A973
:102BF00095A90E94346E87FD9FC0F80186A997A908
:102C0000A0ADB1AD892B8A2B8B2B09F495C081E047
:102C10008093B61280E4A6E7B2E101900D928A9506
:102C2000E1F7F80186A197A1A0A5B1A589839A83B0
:102C3000AB83BC8382A593A5A4A5B5A58D839E83F4
:102C4000AF83B887848D8987858D8A8786A597A568
:102C5000A0A9B1A98B879C87AD87BE8782A993A9BC
:102C6000A4A9B5A98F87988BA98BBA8B868D978DD0
:102C70009C8B8B8B86A997A9A0ADB1AD8D8B9E8BBC
:102C8000AF8BB88F82AD93AD9A8F898F84AD95ADA0
:102C9000A6ADB7AD8B8F9C8FAD8FBE8FBE016F5F22
:102CA0007F4F8FEC92E10E94CE148093B612109267
:102CB000B7121092B8121092B9121092BA12109262
:102CC000BB121092BC121092BD121092BE12109242
:102CD000BF121092C0121092C1121092C212109222
:102CE000C3121092C4121092C5121092C612109202
:102CF000C7121092C8121092C9121092CA121092E2
:102D0000CB121092CC121092CD121092CE128FECE8
:102D100092E10E94D70F8091B6126E960FB6F8948A
:102D2000DEBF0FBECDBFDF91CF911F910F91FF90FE
:102D3000EF90DF90CF9008951092B612B8CF8F9297
:102D40009F92AF92BF92CF92DF92EF92FF920F933A
:102D50001F93CF93DF93CDB7DEB76E970FB6F8947E
:102D6000DEBF0FBECDBF8C01FC01C080D180E280F0
:102D7000F38020E030E040E85FE3C701B6010E9445
:102D8000346E18160CF0F4C020E030E040E85FE349
:102D9000F80164817581868197810E94346E87FD78
:102DA000E7C0F80180A091A0A2A0B3A0A501940162
:102DB00060857185828593850E94346E18160CF0AB
:102DC000D7C020E030E0A901C501B4010E94346EF3
:102DD00018160CF0CDC020E030E0A901F8016485A0
:102DE0007585868597850E94346E87FDC1C020E079
:102DF00030E0A901F80160897189828993890E9474
:102E0000346E87FDB5C0F80194898589981708F05C
:102E1000AFC086899789892B09F4AAC0808D918DCE
:102E2000892B09F4A5C0828D938D892B09F4A0C04C
:102E300020E030E0A901648D758D868D978D0E940C
:102E4000346E18160CF094C02BED3FE049E450E4CA
:102E5000C701B6010E94366B6B017C0181E0809353
:102E6000EF1188E2F801A7ECB1E101900D928A958B
:102E7000E1F7F80180A191A1A2A1B3A189839A836E
:102E8000AB83BC8380859185A285B3858D839E832A
:102E9000AF83B8878489898785898A872485358522
:102EA00046855785C701B6010E94366B20E030E0A9
:102EB00040E752E40E94AB6C6B877C878D879E87CE
:102EC000F8012089318942895389C701B6010E94DE
:102ED000366B20E030E040E752E40E94AB6C6F8735
:102EE000788B898B9A8BF801868997899C8B8B8B41
:102EF000808D918DB0E0A0E08D8B9E8BAF8BB88FD5
:102F0000828D938D9A8F898F20E030E040E752E4E4
:102F1000648D758D868D978D0E94366BA701960105
:102F20000E94AB6C6B8F7C8F8D8F9E8FBE016F5F0D
:102F30007F4F80EF91E10E94CE148093EF1180EFDC
:102F400091E10E94D70F8091EF116E960FB6F89421
:102F5000DEBF0FBECDBFDF91CF911F910F91FF90CC
:102F6000EF90DF90CF90BF90AF909F908F9008959B
:102F70001092EF11E4CF8F929F92AF92BF92CF92B7
:102F8000DF92EF92FF920F931F93CF93DF93CDB712
:102F9000DEB76E970FB6F894DEBF0FBECDBF8C01C3
:102FA000FC0180A1882309F46AC0C080D180E2803E
:102FB000F38020E030E0A901C701B6010E94346E21
:102FC00087FD76C020E030E0A901F80164817581B9
:102FD000868197810E94346E18160CF069C020E03B
:102FE00030E0A901F80160857185828593850E9492
:102FF000346E18160CF05CC0F80184849584A684A5
:10300000B78420E030E0A901C501B4010E94346E0C
:1030100018160CF04DC020E030E040E85FE3C50139
:10302000B4010E94D06A18160CF442C0F801248939
:10303000358946895789C701B6010E94D06A87FF42
:1030400037C08091E110811133C081E2F801AFEB0C
:10305000B0E101900D928A95E1F78EE1E0E3F2E0B4
:10306000DE01119601900D928A95E1F7BE016F5F26
:103070007F4F84EF90E10E94CE148093E010809304
:103080004D130E949C0380914D136E960FB6F894D9
:10309000DEBF0FBECDBFDF91CF911F910F91FF908B
:1030A000EF90DF90CF90BF90AF909F908F9008955A
:1030B00080E0E5CFFC018081882349F0818188236D
:1030C00031F08281882319F08381811187810895ED
:1030D000EF92FF920F931F93CF93DF93C82FFB01C3
:1030E000E080E11009C08AE08093B91081E0CA3025
:1030F00009F46AC080E068C0D091B910DB30D0F725
:10310000ED2FF0E08827E857F74E8F4F0C94CC6EE8
:103110009318EB18F818F518FE180719F8180A197B
:10312000101913191A198C2F877F8150823010F0D3
:10313000C43001F78091BA108823E1F28B01FF249B
:10314000FA94FC0EF2E0FF1510F4C73081F40E94EF
:103150007F02882379F282E08F1518F4C73009F0D6
:103160006EC0C8010E945A18882309F4C3CF8C2F5F
:103170008B7F833069F4F8018481882309F4BACF06
:103180008581882309F4B6CF8085882309F4B2CFDE
:10319000D950D23038F4C11105C0F8018681882396
:1031A00009F4A8CFC093B91088E0C89FF00111249A
:1031B000EF56FB4F8081882309F43FC09181911124
:1031C00099CF9281911196CFDF91CF911F910F915D
:1031D000FF90EF9008958C2F8D7F09F4ABCF87EF90
:1031E0008C0F823008F4A6CF85CFC53009F4A2CF6A
:1031F00089EF8C0F843008F07DCF9CCFCC2309F46D
:1032000099CF88EF8C0F833008F494CF73CFC630FA
:1032100031F790CFC33009F48DCFC53091F78ACF05
:10322000C111DDCF87CFCC2309F484CFCA3009F098
:1032300061CF80CFC1115ECF7DCF8E2DC5CFC33082
:1032400009F0A6CF98CFCF93DF93EC010E946802DC
:103250001092E1101092BE101092BD101092F31057
:1032600084EF90E10E94D70F1092661381E0809363
:10327000671310926313109264138091B910813018
:1032800031F4BE0180E0DF91CF910C946818843056
:1032900091F48091BC108350833030F488E08093A7
:1032A000B91083E08093BC101092A9131092AA1356
:1032B000DF91CF9108958823D9F389508230C0F3EC
:1032C000BE0188E0E0CFCF92DF92EF92FF920F93A2
:1032D0001F93CF93C0914D13CC2309F457C0C091D5
:1032E0004C13CC2309F452C0C0915513CC2309F4DC
:1032F0004DC020917613211155C06A017B018C01CC
:103300000E945A02C82F882309F440C08091B91046
:10331000811148C00E947F02C82F8823B9F1809193
:10332000BA108230E1F18BE294E0C091E010CC233E
:1033300069F1F801C781CC2349F12091E1102530D2
:1033400089F19093BE108093BD1081E08093E110CD
:103350001092E2101092F310C092E710D092E81091
:10336000E092E910F092EA10B8010E946818C82FA4
:1033700081110CC01092E1101092BE101092BD107D
:103380001092F31084EF90E10E94D70F8C2FCF9111
:103390001F910F91FF90EF90DF90CF9008958EE5F1
:1033A00094E0C3CFC0E0F2CFE0916113F0916213DB
:1033B000309741F420937714309378144093791424
:1033C00050937A14E82BF92BF0936213E093611376
:1033D0001092661381E0809367139091601391308F
:1033E00011F481E008958093601320938213309349
:1033F0008313409384135093851385E00E946818CB
:103400008111EFCF95E09093601399E09093B910FC
:103410000895CF93DF93D82F8091B91081111BC0ED
:10342000CB010E945A18C82F882389F08091BA10C6
:10343000882389F0D81779F0D093BB1083E080936C
:10344000BC100E9468021092A9131092AA138C2F2C
:10345000DF91CF910895C0E0FACFFC011082118274
:1034600012821382148215821682178210861186A8
:10347000128613861486158616861786108A118A78
:10348000128A138A0895CF93DF93FC01E35BFF4F09
:10349000C081CC2331F13996C081CC2311F1319612
:1034A000C081CC23F1F0EC01399720E030E046E90F
:1034B00053E460817181828193810E94346E87FD23
:1034C0000FC0FE01EE5AFF4FC1E020E030E046E9B8
:1034D00053E460817181828193810E94346E87FD03
:1034E000C0E08C2FDF91CF910895CF92DF92EF92C1
:1034F000FF92CF93DF93EC018091B910823041F0BD
:1035000080E0DF91CF91FF90EF90DF90CF90089512
:10351000809163138823A1F380916413882381F33E
:103520008C81882369F38D81882351F38091541312
:10353000882331F380915913882311F36A017B01A9
:103540000E94B0028823E1F2CE010E94431A882330
:10355000B9F2CE010E945A02882391F2BE0187E09F
:103560000E946818882361F210926313109264130A
:1035700093E0909360131092661391E09093671319
:103580001092961310928E1310928F131092901324
:10359000109291131092921310929313109294130D
:1035A00010929513C0928613D0928713E0928813DD
:1035B000F092891310928A1310928B1310928C132D
:1035C00010928D139ECF0F931F93CF93FC01C4894C
:1035D000CC2381F18C012FE832EC45EF5CE360896C
:1035E0007189828993890E94D06A181614F120E0AB
:1035F00030E040EE5FE3F801608571858285938558
:103600000E94276C9F772DEC3CEC4CE45DE30E941C
:10361000D06A181674F0C1E02DEC3CEC4CE45DE38C
:10362000F80164857585868597850E94D06A18168D
:103630000CF4C0E08C2FCF911F910F9108950F9340
:103640001F93CF93DF93CDB7DEB766970FB6F8948D
:10365000DEBF0FBECDBF8C01FC0145AD56AD63ADE5
:1036600074AD27ADCE0101960E94D6028091601301
:10367000843061F080E066960FB6F894DEBF0FBE2E
:10368000CDBFDF91CF911F910F910895C8010E9486
:103690005A02882379F3C8010E94431A882351F300
:1036A000F8018581882331F30E94B002882311F349
:1036B0008091351383508230E8F6F801E65AFF4FC7
:1036C00080818111D7CF8091D513882399F2809181
:1036D000D0138111CFCF8091DE13882359F2CE0110
:1036E00001960E94E31A882329F2B80183E00E9420
:1036F0006818882309F4BECF1092621310926113E8
:1037000010926B1310926C1310927113109272132B
:1037100010927313109274131092751391E090939A
:1037200066131092671310926013A5CFAF92BF92E9
:10373000CF92DF92EF92FF921F93CF93DF93EC0132
:103740005C0182E3A80EB11C1D851123F9F08E8562
:10375000811127C0C984DA84EB84FC8420E030E046
:1037600040EA51ECC701B6010E94D06A87FD19C03A
:1037700020E030E046E953E4C701B6010E94346E10
:1037800018167CF02A96CA15DB05F1F6812FDF9119
:10379000CF911F91FF90EF90DF90CF90BF90AF90AF
:1037A000089510E0F3CF0F931F93CF9300919713D9
:1037B000109198132091991330919A13401B510B3B
:1037C000620B730B403C544D6140710508F473C0AB
:1037D0008C012FE632E143E85AE360919B1370912C
:1037E0009C1380919D1390919E130E94286C20E061
:1037F00030E040E052E40E94346E87FD5CC0C0912E
:10380000A813CC23C9F0C091A313CC23A9F0C09175
:10381000DE13CC2389F0C091DF13C1114CC080911D
:103820005D13882371F0C8010E94431A882349F070
:10383000F801848181111AC08C2FCF911F910F91B3
:103840000895809161139091621384609093621344
:103850008093611385E0809360131092661381E07A
:103860008093671389E08093B910E6CFC8010E9466
:10387000961B882301F1C8010E945A028823D9F0BF
:103880002091931130919411232BB1F69091B9109E
:10389000943091F69091BC10953071F698E0909329
:1038A000B91096E09093BC101092A91391E09093F8
:1038B000AA13C82FC1CFC0E0BFCFCF92DF92EF9243
:1038C000FF92CF93DF93EC018091A913882309F431
:1038D00065C080915D13882309F460C080914E1308
:1038E000882309F45BC06A017B01CE010E94431A60
:1038F000882309F453C0CE010E94961B882309F443
:103900004DC0CE010E945A02882309F447C080911D
:10391000B910843009F049C08091BC10843009F09E
:1039200044C0CE010E945A188823C1F18C8188239B
:10393000A9F195E09093BC10C0929713D092981380
:10394000E0929913F0929A1310929B1310929C1389
:1039500010929D1310929E134091DA135091DB1335
:103960006091DC137091DD1340939F135093A0136B
:103970006093A1137093A213FE01E559FF4F90814C
:10398000992319F0C45BDF4F98819093A31391E0C2
:103990009093A8139093A9131092AA13DF91CF913B
:1039A000FF90EF90DF90CF90089580E0F7CFCF9316
:1039B000DF93EC0180915D13882381F18091561390
:1039C000882361F180915713882341F1CE010E9431
:1039D000961B882319F1CE010E945A028823F1F028
:1039E0009091B91091111DC09091BC109330C9F401
:1039F0009091BA109923A9F09091BB10992389F066
:103A00009091761391110DC092E0909376131092DD
:103A100063131092661391E090936713DF91CF9137
:103A2000089580E0FBCF8F929F92AF92BF92DF927A
:103A3000EF92FF920F931F93CF93DF93EC01D62E5B
:103A40007C0104E011E0112339F1D7011D961C918E
:103A50001D97112309F11E961C911E9711118EC0FE
:103A600019968D909D90AD90BC901C9720E030E011
:103A700040EA51ECC501B4010E94346E87FD0CC0D0
:103A800020E030E84EE853E4C501B4010E94D06A5A
:103A9000182F111F1127111F0150BAE0EB0EF11C56
:103AA0000111D1CF8D81882309F180915B13882387
:103AB000E9F0FE01E85AFF4F80818823B9F0319682
:103AC0008081882399F036968081882379F03D960D
:103AD00060817181828193819F772CEE31E548EB83
:103AE0005EE30E94D06A881F8827881F2091611397
:103AF00030916213A9014B7F22FFA8C1F0905D13A2
:103B0000F110A4C18091931190919411892B09F423
:103B100011E08091811301E0882321F0CE010E9401
:103B2000961B082F8091B91089508230B0F4DD20A7
:103B3000A1F0CE010E945A18882379F08E81882343
:103B400061F08B81882349F0112339F08F8188231C
:103B500021F0FF2011F0011113C081E08093651363
:103B600000E0802FDF91CF911F910F91FF90EF9098
:103B7000DF90BF90AF909F908F90089510E08CCF12
:103B80001092E1101092BE101092BD101092F3101E
:103B900084EF90E10E94D70F1092E21010929411DE
:103BA00010929311EBE2F1E18AE1DF01982F1D926F
:103BB0009A95E9F77A96A1E1E339FA07B1F71092FD
:103BC000C1111092C2111092C3111092C41181E060
:103BD0008093C5111092C6111092BF1110926213FA
:103BE0001092611310926013109266138093671302
:103BF00010926313109264131092651310926B135A
:103C000010926C1310926D1310926E1310926F132A
:103C1000109270131092711310927213109273130A
:103C200010927413109275130E94680210928113FF
:103C300010929713109298131092991310929A134E
:103C400010929B1310929C1310929D1310929E132E
:103C500010929F131092A0131092A1131092A2130E
:103C60001092A3131092A9131092AA1380EF91E15E
:103C70000E94D70F10922712109228121092291228
:103C800010922A1210922B1210922C1210922D12B6
:103C900010922E1210922F12109230121092311296
:103CA0001092321210923312109234121092351276
:103CB0001092361287E392E10E94D70F10926E1293
:103CC00010926F1210927012109271121092721262
:103CD0001092731210927412109275121092B71201
:103CE0001092B8121092B9121092BA121092BB121E
:103CF0001092BC121092BD121092BE121092BF12FE
:103D00001092C0121092C1121092C2121092C312DD
:103D10001092C4121092C5121092C6121092C712BD
:103D20001092C8121092C9121092CA121092CB129D
:103D30001092CC121092CD121092CE128FEC92E112
:103D40000E94D70F1092151310921613109217138A
:103D5000109218131092191310921A1310921B1329
:103D600010921C1310921D1310921E1310921F1309
:103D700010922013109221131092221310922313E9
:103D80001092351310923613109237131092381385
:103D90001092391310923A1310923B1310923C1365
:103DA00010923D1310923E1310923F131092401345
:103DB000109241131092421310924713109248131D
:103DC0001092491310924A1310924B1310926913D8
:103DD000E9EBF3E18DE1DF011D928A95E9F7E6ED6C
:103DE000F3E186E1DF011D928A95E9F7ECEEF3E15C
:103DF00088E0DF011D928A95E9F7E4EFF3E18FE1B6
:103E0000DF011D928A95E9F7E3E1F4E18EE0DF013D
:103E10001D928A95E9F7E1E2F4E18AE0DF011D9263
:103E20008A95E9F710927714109278141092791409
:103E300010927A141092B9108091BC108450823084
:103E400008F08FCE83E08093BC108BCEF82E452BEC
:103E500009F058CEFF24F39455CECF93DF93EC01B5
:103E600080915B13882359F1CE010E94961B882311
:103E700031F180915D13882311F1809156138823CD
:103E8000F1F0809157138823D1F0CE010E945A029D
:103E90008823A9F08091B910811114C00E947F027B
:103EA000882369F09091761391110CC091E0909362
:103EB0007613109264131092661390936713DF9138
:103EC000CF91089580E0FBCF08950895CF93C82F38
:103ED0000E948508982FEC2FF0E0E852F74F808180
:103EE000813009F4911180E09083CF9108950F9370
:103EF0001F93CF93DF93182F862F042FC22FD32F1A
:103F0000D7FF03C0D195C195D109CF3FD10519F095
:103F100014F0CFEFD0E03095632F661F6627661F41
:103F20000E94AE0861E0C11101C060E0802F0E94D4
:103F3000AE08BE017727812FDF91CF911F910F919E
:103F40000C941809FF920F931F93CF93DF93182FB0
:103F5000F62E042FE90160E0842F0E94AE0870E085
:103F600060E0812F0E94180970E060E08F2D0E94B0
:103F70001809209749F1CE010D2E000CAA0BBB0B9E
:103F8000B7FF07C0B095A095909581959F4FAF4F13
:103F9000BF4F8F3F9105A105B10529F024F08FEFA8
:103FA00090E0A0E0B0E0BC011C161D060CF01F2D37
:103FB000812F0E94180961E0802FDF91CF911F911E
:103FC0000F91FF900C94AE08DF91CF911F910F914C
:103FD000FF900895CF92DF92EF92FF921F93CF93BD
:103FE000DF9300D01F921F92CDB7DEB780918B0E6A
:103FF00090918C0E95FF0FC020E030E0A9016091F8
:104000001F107091201080912110909122100E9419
:10401000D06A1816D4F019821A821B821C821D8263
:1040200029813A814B815C816D8170E080E090E074
:104030000F900F900F900F900F90DF91CF911F91E5
:10404000FF90EF90DF90CF9008958AE30E94EF09F0
:10405000BC01990F880B990B0E94D76A20911B1005
:1040600030911C1040911D1050911E100E94276C21
:1040700020E030E0A9010E94346E1816CCF58AE3E6
:104080000E94EF09BC01990F880B990B0E94D76A17
:1040900020911B1030911C1040911D1050911E104A
:1040A0000E94276C20911F10309120104091211008
:1040B000509122100E94366B6B017C012DEC3CEC80
:1040C0004CE45EE30E94346E87FD0BC011E020E0FB
:1040D00030E040E050E4C701B6010E94D06A1816F3
:1040E0000CF410E0C982DA82EB82FC821D8398CF47
:1040F0008AE30E94EF09BC01990F880B990B0E947B
:10410000D76A20911B1030911C1040911D105091C6
:104110001E100E94276C9058C5CF2F923F924F924D
:104120005F926F927F928F929F92AF92BF92CF9247
:10413000DF92EF92FF920F931F93CF93DF9300D004
:1041400000D01F921F92CDB7DEB79A838983DC011E
:104150001C9116139CC011963C90B6E0B31508F460
:1041600096C0FC010281043008F091C02380F1E088
:10417000F21508F48CC098878F83DC011896CD90D7
:10418000DD90ED90FC901B97C701B6010E947B0B60
:10419000892B09F47CC0EF81F885448455846684BA
:1041A0007784C301B2010E947B0B892B09F46FC095
:1041B000AF81B88550968D909D90AD90BC905397EF
:1041C000C501B4010E947B0B892B09F460C0A501D5
:1041D0009401C301B2010E94346E18160CF457C04A
:1041E000AF81B88554962D913D914D915C91579733
:1041F00029833A834B835C83FD015496BE83AD8350
:1042000065EC7DE98CE191E8A1916A279B01AC0105
:1042100063E971E080E091E00E94866E2D813E812D
:10422000E217F30789F729813A814B815C812617D0
:1042300037074807590759F5222059F10250023033
:1042400030F5EF81F88584819581A681B781892B2E
:104250008A2B8B2BE1F080E01E3028F4E12FF0E078
:10426000E858FC4F8081381212C0A3019201C701A7
:10427000B6010E94346E87FD0AC0F1E0F983A50102
:104280009401C701B6010E94D06A181624F419825D
:1042900002C021E02983898128960FB6F894DEBFF9
:1042A0000FBECDBFDF91CF911F910F91FF90EF9087
:1042B000DF90CF90BF90AF909F908F907F906F9046
:1042C0005F904F903F902F900895CF93DF9398E1A8
:1042D000899FE0011124682FCE018357914F0E94DE
:1042E0008D20882339F0CB57D14F81E09B859111E8
:1042F00001C080E0DF91CF910895EF92FF920F937C
:104300001F93CF93DF93D0E0C0E010E000E0EE24F5
:10431000E394F12C8C2F0E946521882349F0C7017A
:104320000C2E02C0880F991F0A94E2F7082B192B54
:104330002196CE30D10571F7C801DF91CF911F9141
:104340000F91FF90EF9008952F923F924F925F92BE
:104350006F927F928F929F92AF92BF92CF92DF9295
:10436000EF92FF920F931F93CF93DF93CDB7DEB7FA
:104370006F970FB6F894DEBF0FBECDBF9F8F8E8FA5
:10438000142F615081E5882E83E0982E633040F42D
:10439000E62FF0E0EE0FFF1FE55BFC4F8080918081
:1043A000D4012D903C90812F0E946521882369F1D2
:1043B000B8E11B9FF0011124EB57F14FC088D18861
:1043C000E288F38820E030E040E05FE3C701B60117
:1043D0000E94286C0E94606D1B016115710599F0A7
:1043E00090E080E00E94D56A9B01AC01C701B60154
:1043F0000E94276C9F772AE037ED43E25CE30E943E
:10440000346E18162CF480E09BC12114310499F10C
:10441000F401428053806480758020E030E0A9017F
:10442000C301B2010E94D06A18160CF0A2C1B101FA
:1044300090E080E00E94D56AA30192010E94366B51
:104440009B01AC0160EC71EE84E69CE40E94AB6CD5
:104450000E94226D122F032FF42EE52ED62EC72E8A
:10446000B82EA92E20E030E0A901C301B2010E94BC
:10447000346E18162CF0EE8DFF8D17A280E014C15B
:10448000D40116962D913D914D915C9119972987F4
:104490003A874B875C87A301920169857A858B8572
:1044A0009C850E94346E181634F7D4011A962D910B
:1044B0003D914D915C911D972D873E874F87588B7D
:1044C000C301B2010E94D06A1816ACF22D853E8558
:1044D0004F85588969857A858B859C850E94346EC5
:1044E00087FDC9CFD4011E962D913D914D915C91D0
:1044F00051972D8B3E8B4F8B588F232B242B252BA5
:1045000009F4B9CF5296BC91B98FB23008F4B3CF49
:10451000D40153962D913D914D915C915697298BE5
:104520003A8B4B8B5C8BBA01AB0160E070E0CB0146
:1045300029833A834B835C836D837E838F83988743
:10454000212F302F4F2D5E2D6D2D7C2D8B2D9A2DF3
:10455000A980BA80CB80DC80E12CF12C00E010E057
:104560000E94D46E08F087CF57966D917D918D9102
:104570009C915A9769837A838B839C83672B682BE2
:10458000692B09F478CF5B962D913D914D915C910B
:104590005E972A8F3B8F4C8F5D8F232B242B252BEF
:1045A00009F469CF5F96CD90DD90ED90FC909297E5
:1045B00020E030E0A901C701B6010E94346E181650
:1045C0000CF059CFF40183A094A0A5A0B6A020E0E0
:1045D00030E0A901C501B4010E94346E18160CF038
:1045E0004ACF20E030E040E85FE3C501B4010E941B
:1045F000D06A87FF40CF81E0AE8DBF8D97968C93B8
:10460000979711963C922E92FD01428253826482CA
:10461000758229853A854B855C8516962D933D9349
:104620004D935C9319972D853E854F8558891A9631
:104630002D933D934D935C931D972D893E894F8912
:10464000588D1E962D933D934D935C935197E98D14
:104650005296EC93529729893A894B895C895396F3
:104660002D933D934D935C93569729813A814B81CD
:104670005C8157962D933D934D935C935A972A8D69
:104680003B8D4C8D5D8D5B962D933D934D935C934F
:104690005E97FD01C78ED0A2E1A2F2A293968D9201
:1046A0009D92AD92BC929697AE8DBF8D98961C92BE
:1046B000989799961C9299979A961C929A979B967E
:1046C0001C929B97FD0114A615A616A617A6D096B8
:1046D0001D921D921D921C92D39714AA15AA16AA78
:1046E00017AAD8961D921D921D921C92DB9714AEAC
:1046F00015AE16AE17AEE05CFF4F108231961082F9
:1047000011821282138234961082118212821382D5
:104710003496108211821282138234961082118292
:1047200012821382349610821182128213829D01AA
:104730002B5A3F4FD9011D921D921D921C92139727
:104740006F960FB6F894DEBF0FBECDBFDF91CF914D
:104750001F910F91FF90EF90DF90CF90BF90AF909F
:104760009F908F907F906F905F904F903F902F9091
:10477000089510E000E0F12CE12CD12CC12CB12CDB
:10478000A12C70CE40E060E089E29AE00E94A42172
:104790008823B1F042E061E087E799E00E94A4211C
:1047A000882371F043E062E080ED99E00E94A4214B
:1047B000882331F045E063E08EE199E00C94A42178
:1047C00080E008958F929F92AF92BF92CF92DF9236
:1047D000EF92FF920F931F93CF938091850E90914C
:1047E000860EA091870EB091880E81339D44A74418
:1047F000B74409F04CC08091890E90918A0E0497BD
:1048000009F045C000918B0E10918C0E0E947D2105
:1048100008171907E1F5C090B510D090B610E090D8
:10482000B710F090B810E5E8FEE065EC7DE98CE1AA
:1048300091E821914B018226AC01940163E971E07A
:1048400080E091E00E94866E20E1E53BF20789F767
:10485000C616D706E806F906D1F40DE81EE0C0E05A
:104860006C2FC8010E948D20882329F0CF5F085E3D
:104870001F4FCE30A9F7CF911F910F91FF90EF906E
:10488000DF90CF90BF90AF909F908F90089580E081
:10489000F2CFFC0182E598EBAEE5BFE382A393A3E0
:1048A000A4A3B5A380E090E0A0E0BFE386A397A314
:1048B000A0A7B1A780E090E0A0EFB1E482A793A702
:1048C000A4A7B5A780E090E0A0E8B0E486A797A7EA
:1048D000A0ABB1AB80E090E0A0E8BFE382AB93ABCC
:1048E000A4ABB5AB4CE45DE160E070E046AB57AB28
:1048F00060AF71AF20EB34E033AF22AF84AF95AF40
:10490000A6AFB7AF08958F929F92AF92BF92CF920A
:10491000DF92EF92FF92CF93DF93EC018880998032
:10492000AA80BB80C501B4010E947B0B892B09F4CE
:1049300098C0CC80DD80EE80FF80C701B6010E9468
:104940007B0B892B09F48DC020E030E040E85FE369
:10495000C501B4010E94346E18160CF082C020E02C
:1049600030E0A901C701B6010E94346E18160CF0A0
:1049700078C088859985892B09F473C08E859F85B9
:10498000AC0170E060E0CA84DB84EC84FD844C15EB
:104990005D056E057F0508F064C0892B09F461C0D0
:1049A00081E08093341380E1FE01A4E2B3E1019041
:1049B0000D928A95E1F7288139814A815B816C816A
:1049C0007D818E819F810E94366B0E94946C0E9433
:1049D000606D611571058105910509F446C060930C
:1049E000431370934413809345139093461381E0CF
:1049F0001092351310923613109237131092381309
:104A00001092391310923A1310923B1310923C13E8
:104A100010923D1310923E1310923F1310924013C8
:104A200010924113109242131092471310924813A0
:104A30001092491310924A1310924B13811106C021
:104A400095E09093351391E090933613DF91CF91D9
:104A5000FF90EF90DF90CF90BF90AF909F908F909E
:104A600008951092341380E0C3CF81E090E0A0E07D
:104A7000B0E08093431390934413A0934513B093F5
:104A80004613B6CF4F925F926F927F92BF92CF92B2
:104A9000DF92EF92FF920F931F93CF93DF93CDB7E7
:104AA000DEB7A2970FB6F894DEBF0FBECDBF0E944F
:104AB000E223B82E8E010F5F1F4F84E1F82EF8011C
:104AC0008F2D11928A95E9F7C801B11022C00E947A
:104AD0002D1AF801ACE4B3E101900D92FA94E1F7DC
:104AE0000E949C030E9465048B2DA2960FB6F89439
:104AF000DEBF0FBECDBFDF91CF911F910F91FF9011
:104B0000EF90DF90CF90BF907F906F905F904F902D
:104B100008950E942D1AF801ACE4B3E101900D92C2
:104B2000FA94E1F781E00E946521882321F082EF69
:104B30009FE00E94BB1788E00E946521882321F036
:104B40008DED9FE00E94120489E00E946521882378
:104B5000C9F1409017105090181060901910709083
:104B60001A10C0901310D0901410E0901510F0900F
:104B7000161020E030E0A901C701B6010E94346E92
:104B800087FD1BC020E030EC4FE754E4C701B601BD
:104B90000E94D06A18168CF0C301B2010E947B0BF0
:104BA000892B59F0FF24F39420E030E0A901C301E0
:104BB000B2010E94346E18160CF0F12CF0925513CD
:104BC0000E949C038DE00E9465218823C9F14090DA
:104BD0001F10509020106090211070902210C090F3
:104BE0001B10D0901C10E0901D10F0901E1020E0C3
:104BF00030E0A901C701B6010E94346E87FD1BC0D9
:104C000020E030EC4FE754E4C701B6010E94D06ABF
:104C100018168CF0C301B2010E947B0B892B59F04E
:104C2000FF24F39420E030E0A901C301B2010E9407
:104C3000346E18160CF0F12CF09259130E949C035C
:104C400084E00E946521811105C083E00E946521F6
:104C50008823A9F083E290E10E949F16F82E80E05D
:104C6000FF2019F084E00E9465218093501380E0BA
:104C7000FF2019F083E00E94652180934F1386E0A6
:104C80000E946521882331F08BE490E10E94441555
:104C90008093521380E00E9465214091950E5091BF
:104CA000960E6091970E7091980E282F80E00E94CA
:104CB000860B82E00E9465214091C50E5091C60E80
:104CC0006091C70E7091C80E282F82E00E94860B5B
:104CD00085E00E94652140910D0F50910E0F60916B
:104CE0000F0F7091100F282F85E00E94860B8AE02D
:104CF0000E9465214091850F5091860F6091870F2A
:104D00007091880F282F8AE00E94860B8BE00E940A
:104D1000652140919D0F50919E0F60919F0F709162
:104D2000A00F282F8BE00E94860B87E00E94652150
:104D3000882309F453C080913D0F90913E0FA091BC
:104D40003F0FB091400F40E050E068E872E44D8BB7
:104D50005E8B6F8B788F4DEC5CEC6CEE7FE3498F54
:104D60005A8F6B8F7C8F20EB34E03AA329A38D8F71
:104D70009E8FAF8FB8A340E050E060E070E44D83B9
:104D80005E836F83788722E030E03A87298748E99D
:104D90005AE360E070E04B875C876D877E8728EE82
:104DA00033E0388B2F8789839A83AB83BC83CE0112
:104DB00045960E94B403882319F0C8010E948324F9
:104DC000809353131092231310921D1310921E13ED
:104DD00010921F1310922013109221138CE00E9446
:104DE0006521882329F1C090B50FD090B60FE090CF
:104DF000B70FF090B80FC701B6010E947B0B892B4B
:104E0000A1F020E030E0A901C701B6010E94346E94
:104E100018165CF411E02DEC3CEC4CEC5DE3C701A2
:104E2000B6010E94D06A18160CF410E010935813C3
:104E30000E949C0359CECF93DF930E940F0BEC018D
:104E400042E050E06BEF74E08EED9DE00E942C0A92
:104E50008C0F9D1FDF91CF9108958F929F92AF92FB
:104E6000BF92CF92DF92EF92FF920F931F93CF9357
:104E7000DF930091761210917712D0917812C09141
:104E80007912C0908212D0908312E0908412F09038
:104E9000851280907A1290907B12A0907C12B09034
:104EA0007D122091BB123091BC124091BD125091E5
:104EB000BE12C701B6010E94366BA70196010E947F
:104EC000366B6B017C0120E030E040E850E46091FB
:104ED00098127091991280919A1290919B120E944F
:104EE000366B20917E1230917F124091801250914A
:104EF00081120E94366B9B01AC01C701B6010E9472
:104F0000AB6C6B017C0198014D2F5C2FB8018D2F8C
:104F10009C2F0E94366B9B01AC01C701B6010E9419
:104F2000286C0E943F6E6B017C019B01AC01B801B3
:104F30008D2F9C2F0E94346E181674F09601A701D5
:104F4000B401C5010E94D06A8601DE2DCF2D87FFF6
:104F500003C08401DA2DCB2DB8018D2F9C2FDF915A
:104F6000CF911F910F91FF90EF90DF90CF90BF9066
:104F7000AF909F908F9008954F925F926F927F9223
:104F80008F929F92AF92BF92DF92EF92FF920F9318
:104F90001F93CF93DF937C01480159014530E8F01E
:104FA000FC011082118212821382148281E08583B7
:104FB00086829782A086B186C701DF91CF911F912B
:104FC0000F91FF90EF90DF90BF90AF909F908F90E8
:104FD0007F906F905F904F900895E42FF0E0EB503A
:104FE000FC4F008160E0802F0E94AE0883E090E0DB
:104FF0000197F1F710E1D0E0C0E061E084E30E94A6
:10500000AE08CC0FDD1F82E30E94850861E070E0EE
:10501000892B11F470E060E0C62BD72B60E084E3AD
:105020000E94AE08115049F761E0802F0E94AE083F
:10503000DD24D3948E0104701127C2FFD12C83E0AC
:10504000D695C7958A95E1F7DF70BE0190E080E0C4
:105050000E94D56A20E030E040E85EE30E94366BB3
:105060002B013C01F7014082518262827382012B45
:1050700099F420E030E040EA51EC0E94346E87FD64
:105080000BC0C1E020E030E046E953E4C301B201C7
:105090000E94D06A18160CF4C0E0F701C483D582D0
:1050A00087CF2F923F924F925F926F927F928F9213
:1050B0009F92AF92BF92CF92DF92EF92FF920F93A7
:1050C0001F93CF93DF93CDB7DEB7CD52D1400FB64C
:1050D000F894DEBF0FBECDBFC05EDE4F99838883DC
:1050E000C052D1401B0129013A01FB01E95AFF4F8F
:1050F0000081002311F03A970081F101EE5AFF4F31
:1051000080809180A280B38034961081112311F0A9
:1051100039971081F101E25BFF4FC080D180E280BE
:10512000F3802091B813C651DF4F2883CA5ED04068
:10513000112359F011E020E030E046E953E4C701C3
:10514000B6010E94346E87FD10E0002311F40C9428
:105150001D4620E030E046E953E4C501B4010E9459
:10516000346E87FF02C00C941D46C651DF4F388154
:10517000CA5ED040363608F458C0111155C081E0DF
:1051800040916E1250916F12609170127091711275
:10519000452B462B472B89F44114510461047104BB
:1051A000F1F1442D352D262D972D40936E1230931D
:1051B0006F122093701290937112109272121092CB
:1051C0007312109274121092751240916E125091D7
:1051D0006F12609170127091711241155105610545
:1051E000710509F482C073016201C41AD50AE60A86
:1051F000F70AB701A601C651DF4F2881CA5ED04029
:10520000263608F476C0811108C091E04C3D35E0A7
:1052100053076105710508F471C090E06FC041E06B
:1052200030E020E090E0C1CF012F10926E1210927A
:105230006F121092701210927112C651DF4F488196
:10524000CA5ED0404636A0F420E030E046E953E4A0
:10525000C701B6010E94346E87FF0CC020E030E029
:1052600046E953E4C501B4010E94346E87FF02C0D1
:1052700080E0A3CF8091721290917312A09174126A
:10528000B0917512892B8A2B8B2B89F44114510410
:105290006104710419F1342D252D962D872D30933D
:1052A00072122093731290937412809375128091EE
:1052B000721290917312A0917412B09175127301D1
:1052C0006201C81AD90AEA0AFB0AD701C6018C3D55
:1052D0009540A105B10538F480E077CF31E020E0BA
:1052E00090E080E0DCCF84E070CF40E050E0BA0195
:1052F00082CF82FB992790F921E092279093EC13BB
:105300001093ED130093EE138093EF134093F0137B
:105310005093F1136093F2137093F3138091591328
:10532000882371F080915613882351F08091571390
:10533000882331F0F101E35BFF4F80818111892FD8
:1053400080936A138091BA10882309F463C1109185
:10535000B91048E0149FF0011124EF56FB4F9181E2
:10536000992309F457C1D10117969C91992309F407
:1053700051C1EEE5F4E0823011F0EBE2F4E0C08CD4
:10538000D18CE28CF38CC651DF4FC882D982EA827D
:10539000FB82CA5ED0408091BC10853021F520E0B0
:1053A00030E040E85EE3C701B6010E94366BC651AB
:1053B000DF4F688379838A839B83CA5ED04020E075
:1053C00030E040E85FE30E94D06A87FF0CC020E035
:1053D00030E040E85FE3C651DF4F288339834A83DA
:1053E0005B83CA5ED040809160138130E9F5809183
:1053F000821390918313A0918413B091851373014C
:105400006201C81AD90AEA0AFB0AC701B60120E0FC
:1054100030E0A901603107E270078105910590F441
:105420000E94D56A20E030E44CE156E40E94AB6C67
:105430009B01AC0160E070E080E89FE30E94276C74
:105440009B01AC01C651DF4F688179818A819B81C4
:10545000CA5ED0400E94366BC651DF4F68837983A5
:105460008A839B83CA5ED040143061F48091A91373
:10547000882309F4CFC0F101E759FF4F80818823C9
:1054800009F4C8C0F101E45BFF4FC080CC2011F0EB
:105490007F96C080F101E85BFF4F2081318142811E
:1054A0005381CA51DF4F288339834A835B83C65EA9
:1054B000D04080912B1290912C12A0912D12B0917E
:1054C0002E12812C912C54010097A105B10531F0C9
:1054D00053014201881A990AAA0ABB0A40922B1268
:1054E00050922C1260922D1270922E12CC2009F440
:1054F00047C0411451046104710409F494C0342D6F
:10550000252D962D872D30933312209334129093AE
:1055100035128093361220E030E0A901CA51DF4FE6
:10552000688179818A819B81C65ED0400E94346EF9
:10553000181634F5C501B4010E94D56ACA51DF4F6F
:10554000288139814A815B81C65ED0400E94366BDA
:1055500020E030E64AE657E40E94AB6C2091271227
:10556000309128124091291250912A120E94286CE1
:1055700060932712709328128093291290932A1215
:10558000AA24A39420E030E040E85FE3C651DF4F57
:10559000688179818A819B81CA5ED0400E94346E85
:1055A00087FDA12C8091331290913412A091351275
:1055B000B09136120097A105B10579F0B301A201AF
:1055C000481B590B6A0B7B0BDB01CA01893E9340D8
:1055D000A105B10510F40C949A4A20E030E040E8AF
:1055E0005FE3C651DF4F688179818A819B81CA5E02
:1055F000D0400E94346ED12C87FD02C00C94CE4A5C
:1056000010922F1210923012109231121092321208
:105610000C94ED4AC651DF4F188219821A821B8200
:10562000CA5ED0402FCF31E020E090E080E06BCF29
:1056300031E020E090E080E00C94E54ACA50DF4F72
:10564000188219821A821B82C65FD0400C94094BC3
:10565000C1010E945A0281110CC0809176138823E7
:1056600019F081E0809381130E94680289E08093A1
:10567000B910F101E859FF4F8081811113C0809169
:1056800035138350823070F40E9465048091B91004
:105690008B7F833039F4A3019201B10180E091E066
:1056A0000E94D419C090B910CA51DF4FC882C65E9B
:1056B000D0408C2D8D7F31F0DD24D3940C2D07301C
:1056C00009F0D12C109135130DEFC02EC10ECA5028
:1056D000DF4FC882C65FD040009169130023B9F044
:1056E00000915313002399F0F101EB59FF4F008112
:1056F000002369F0C1010E945A02082F882339F063
:10570000DD2021F001E080917613811100E080918D
:10571000341381110BC021E0CA50DF4F0881C65FEE
:10572000D040023008F4BBC220E0B9C2CA50DF4FFB
:105730002881C65FD040233070F301110EC0409124
:1057400048135091491360914A1370914B13E091A3
:10575000361320E080E090E037C0F101E959FF4FB7
:10576000908131978081882311F40C94EE45992320
:1057700011F40C94914585E08093351382E0809379
:105780003613409148135091491360914A13709118
:105790004B13E2E015E0DDCF4091481350914913DF
:1057A00060914A1370914B13992391F19091471393
:1057B00091110CC085E08093351386E080933613F9
:1057C000E6E015E020E080E030E07FC08090371315
:1057D00090903813A0903913B0903A13730162017E
:1057E000C818D908EA08FB0846015701C0903213CF
:1057F000D0903313F12CE12C8C149D04AE04BF0423
:1058000048F085E08093351380933613E5E0C2CFEE
:10581000109247138090371390903813A09039134B
:10582000B0903A1373016201C818D908EA08FB085E
:1058300080902E1390902F13A0903013B0903113BE
:10584000C814D904EA04FB0440F085E080933513C2
:1058500083E080933613E3E09DCF80903B139090DC
:105860003C13A0903D13B0903E1381149104A10409
:10587000B10499F073016201C818D908EA08FB085D
:1058800046015701C0902C13D0902D13F12CE12C20
:105890008C149D04AE04BF0498F0411451046104BB
:1058A000710409F4D9C0342D252D962D872D309300
:1058B0003B1320933C1390933D1380933E13802F12
:1058C000E091361320E090E031E030932114909382
:1058D000221480932314209324144093251450936E
:1058E0002614609327147093281410932914E093BE
:1058F0002A1480913513CA50DF4F0881C65FD0400B
:10590000023008F4D9C19DEF980F923008F0D4C14D
:1059100080911413882309F48CC0E0904813F09010
:10592000491300914A1310914B13B701C8010E940B
:105930007B0B892B09F47DC020E030E0A901B70181
:10594000C8010E94D06A87FF04C0E12CF12C00E05E
:1059500010E0C0900613CA51DF4FC882C65ED04027
:10596000D0900713CA50DF4FD882C65FD040C09096
:105970000813D09009139701A801CA51DF4F68811D
:10598000C65ED040CA50DF4F7881C65FD040C601A6
:105990000E94D06A87FF0BC0CA51DF4FE880C65E05
:1059A000D040CA50DF4FF880C65FD0408601C701A3
:1059B000D8018093151390931613A0931713B093E7
:1059C000181310921D1310921E1310921F13109291
:1059D000201380900A1390900B13A0900C13B0909A
:1059E0000D13A5019401B701C8010E94346E181669
:1059F0000CF060C1A5019401CA51DF4F6881C65EF9
:105A0000D040CA50DF4F7881C65FD040C6010E94A7
:105A1000276C9B01AC01B701C8010E94D06A881FA6
:105A20008827881F809321131092221381E080938E
:105A300023131092691310917613112309F4BCC13A
:105A40008091B910811105C0C1010E945A028111D3
:105A500063C10E946802D3C531E020E090E080E09D
:105A600026CF123009F015C19923A1F085E080936B
:105A7000351386E0809336134091481350914913B3
:105A800060914A1370914B13E6E015E020E080E04E
:105A900091E09ACE882309F468C040914813509150
:105AA000491360914A1370914B1380903713909073
:105AB0003813A0903913B0903A1373016201C818DB
:105AC000D908EA08FB0846015701C0903213D0906C
:105AD0003313F12CE12C8C149D04AE04BF0440F070
