:100000000C94FE010C94355F0C940A5F0C94DF5E37
:100010000C94B45E0C94895E0C945E5E0C94335E1A
:100020000C94085E0C942F020C942F020C94C05F69
:100030000C942F020C942F020C942F020C942F027C
:100040000C942F020C942F020C942F020C942F026C
:100050000C942F020C942F020C942F020C94BE5D72
:100060000C942F020C948A5F0C94605F0C942F0206
:100070000C942F020C942F020C942F020C942F023C
:100080000C942F020C942F020C942F020C942F022C
:100090000C942F020C942F020C942F020C942F021C
:1000A0000C942F020C942F020C942F020C942F020C
:1000B0000C942F020C942F020C942F020C942F02FC
:1000C0000C942F020C942F020C942F020C942F02EC
:1000D0000C942F020C942F020C942F020C942F02DC
:1000E0000C942F020C945B090C9401190C94204C75
:1000F0000C940D190C9416190C946B0A0C945A0854
:100100000C94FB180C94F8180C9474090C94A20924
:100110000C948D0A0C9445080C947F0A0C94671F6C
:100120000C9464080C94685C0C948E090C94B75A77
:100130000C947A080C945C0A0C94315B0C94295C46
:100140000C942E0A0C94AC090C9498090C94600938
:100150000C94D9090C9453090C9484080C94C72767
:100160000C94BB090C94C5090C94F51F0C946C08F5
:100170000C9443600C94CF090C947E090C944D08A8
:100180000C942F0A0C94A41F0C9496180C94A35B47
:100190000C946A090C9476080C94C95C0C94D20FE8
:1001A0000C9413190C94C50A0C9454080C940C5D0F
:1001B0000C9468080C94EE180C947F080C94720848
:1001C0000C942D0B0C94FF5A0C9486090C943F0848
:1001D0000C94CA0F0C945E080C9449080C941E4CA5
:1001E0000C94ED090C94224C0C9480080C9451084A
:1001F0000C940A190C94E3090C941D194E414E49B4
:100200004E495459494E46CDCCCC3D0AD7233C17D4
:10021000B7D13877CC2B329595E6241FB14F0A0021
:100220000020410000C84200401C4620BCBE4CCA11
:100230001B0E5AAEC59D74434F4D4D414E445F5207
:10024000454A454354454400434F4D4D414E445F5C
:100250004F4B0043414C4942524154494F4E5F522B
:10026000455155495245445F4F5554505554535F7D
:10027000494E484942495445440043414C49425241
:100280004154494F4E5F5245434F52445F56345F8D
:100290004C4F41444544004D4154455249414C5F07
:1002A00053454C454354494F4E5F52455155495271
:1002B0004544002052454144592053455249414C40
:1002C0005F544558545F4241434B454E44002062C1
:1002D0006173653D00505052200000002100240051
:1002E00027002A002D003000330001010000040126
:1002F00007010A0100002200250028002B002E0023
:100300003100340002010000050108010B0100006A
:1003100020002300260029002C002F0032000001BD
:100320000000030106010901050505050705080888
:100330000808020202020A0A08080404040401016F
:100340000101010101010303030303030303040784
:1003500007070C0C0C0C0C0C0C0C0202020206061B
:100360000606060606060B0B0B0B0B0B0B0B01020E
:1003700010202008081020401020408002010201B7
:10038000080402010102040810204080804020106F
:1003900008040201800402018040201008040201C8
:1003A0000804020101020408102040800102040830
:1003B0001020408000000A0B02090C0D0E080703F4
:1003C0000401000000000000000000000000000028
:1003D000000000000000000000000000000000001D
:1003E00012111000000000000000000000000000DA
:1003F00000000000000000000000436011241FBE48
:10040000CFEFD1E2DEBFCDBF00E00CBF24E1AAED0B
:10041000B8E001C01D92A737B207E1F718E0A0E0ED
:10042000B2E0E8E9F2EE00E00BBF02C007900D92E7
:10043000AA3DB107D9F711E0CEEFD1E000E006C048
:1004400021970109802FFE010E94146DCD3FD10735
:1004500080E00807A9F70E943D640C944A710C944F
:1004600000009091AF1091110AC09091B2109813B2
:1004700006C09730A1F028F487E0963089F080E03C
:100480000895983089F09930D1F78091B110809318
:10049000B0101092B110813049F082E001C088E0C4
:1004A0008093B21081E0089589E0FACF81E0F8CF1F
:1004B000FC018081882349F08181882331F0828189
:1004C000882319F0838181118781089510926C131C
:1004D00010926D1310926E1310926F13109270138E
:1004E000109271131092721310927313109274136E
:1004F000109275131092761308958091B010813088
:1005000031F49091B210913049F080E007C0823010
:10051000E1F781E09091B2109230B9F7089590918F
:10052000AF10911119C09091B010992311F0891357
:1005300013C08093B0101092B110813059F082E056
:100540008093B2100E94660210929F131092A01323
:1005500081E0089581E0F4CF80E008958091441314
:10056000882309F1809145138823E9F0809146138F
:100570008823C9F0809147138823A9F080914813FC
:10058000882389F080914913882369F080914A1368
:10059000882349F080914C13882329F080914D13D2
:1005A000811180914E1308954F925F926F927F92C6
:1005B0008F929F92AF92BF92CF92DF92EF92FF9273
:1005C0000F931F93CF93DF938C015A01CB010397B5
:1005D0008A3F934030F4C1E0CA0103978A3F9340B9
:1005E00008F0C0E0D091A011DD2309F49CC02223C3
:1005F00009F499C0CC2309F497C090E080E00E94F0
:100600001D6920918C1130918D1140918E11509166
:100610008F110E946F6A2091901130919111409139
:100620009211509193110E947E696B017C01B5017A
:1006300090E080E00E941D69209194113091951105
:1006400040919611509197110E946F6A20919811D4
:100650003091991140919A1150919B110E947E699D
:100660004B015C0140909C1150909D1160909E1137
:1006700070909F11C092A111D092A211E092A3118B
:10068000F092A4118092A5119092A611A092A711A8
:10069000B092A811A7019601C501B4010E94706A29
:1006A00020E030E040E05FE30E947E696093A911A2
:1006B0007093AA118093AB119093AC11A501940192
:1006C000C701B6010E946F6A9F776093AD11709366
:1006D000AE118093AF119093B0114092B11150922E
:1006E000B2116092B3117092B411C093B511D0934E
:1006F000B61186E1E1EAF1E1D80101900D928A9507
:10070000E1F7C801DF91CF911F910F91FF90EF901A
:10071000DF90CF90BF90AF909F908F907F906F9021
:100720005F904F900895C0E0C12CD12C7601460116
:10073000570198CF809143138093501380914A13AF
:100740008093511380914B138093521380914F13D8
:1007500080935313809146138111809145138093A8
:1007600054130895CF93DF93EC0120E030E040E88C
:100770005FE3688179818A819B810E947C6C181675
:100780000CF04AC020E030E0A9016C817D818E81AF
:100790009F810E947C6C18160CF03EC020E030E077
:1007A00040E85FE3688579858A859B850E947C6C3B
:1007B000181694F58C859D85892B71F181E08093C5
:1007C0000A138EE0FE01ACEFB2E101900D928A9522
:1007D000E1F781E010920B1310920C1310920D139D
:1007E00010920E1310920F131092101310921113F7
:1007F00010921213109213131092141310921513D7
:1008000010921613109217131092181391E09093F0
:100810001913DF91CF91089510920A1380E0DACF77
:10082000CF92DF92EF92FF920F931F93CF938C01A1
:10083000FC01C489CC23B9F120E030E0A901648136
:100840007581868197810E9418691816D4F520E079
:1008500030E0A901F80164857585868597850E9439
:100860001869181674F5F801C088D188E288F388F1
:1008700020E030E0A901C701B6010E9418691816EE
:1008800004F52DEC3CEC4CE45DE3C701B6010E949D
:100890007C6C1816B4F085E1F801ACE8B1E1019088
:1008A0000D928A95E1F7C0934A130E949A038091B2
:1008B0004A13CF911F910F91FF90EF90DF90CF904F
:1008C0000895C0E0F0CF10925F1310922B13109296
:1008D0002C1310922D1310922E1310922F1310928E
:1008E000301310923113109232131092331310926E
:1008F000341310923513109236131092371310924E
:10090000381310923D1310923E1310923F13109221
:100910004013109241131092191310921313109256
:100920001413109215131092161310921713E7E177
:10093000F4E18AE0DF011D928A95E9F7E9E0F4E14C
:100940008EE0DF011D928A95E9F710925C1381E039
:1009500080935D1308953F924F925F926F927F92C2
:100960008F929F92AF92BF92CF92DF92EF92FF92BF
:100970000F931F93CF93DF9300D000D000D01F922E
:10098000CDB7DEB79E838D83F091AF1030906C139E
:10099000EBE0FA30D1F1F93039F480915B13E9E002
:1009A000811133C0EAE031C0E2E031102EC0F230F4
:1009B00049F580915A13E3E0811127C080915613C5
:1009C0009FEF980FE6E0923000F1E7E08330E9F026
:1009D000E8E08430D1F0E4E0F11117C080915113C8
:1009E000882371F080915313882351F080914C1328
:1009F000882331F080914D13E0915513811105C08A
:100A0000E0E003C0E5E0F430C9F6809184139091F2
:100A10008513A0918613B0918713412C512C32017C
:100A20000097A105B10531F02A013B01481A590A86
:100A30006A0A7B0A8091881390918913A0918A1386
:100A4000B0918B13812C912C54010097A105B10515
:100A500031F04A015B01881A990AAA0ABB0A8091FF
:100A60007C1390917D13A0917E13B0917F13C12CC4
:100A7000D12C76010097A105B10531F06A017B0107
:100A8000C81AD90AEA0AFB0A80916113882309F47B
:100A900061C18091631390916413A0916513B0912B
:100AA00066138A019B01081B190B2A0B3B0B0F8352
:100AB000188729873A8780916D13882309F44FC1DD
:100AC00080916F1390917013A0917113B091721374
:100AD0008A019B01081B190B2A0B3B0B09831A8304
:100AE0002B833C8380916E13882309F43DC1809150
:100AF000731390917413A0917513B0917613481BE2
:100B0000590B6A0B7B0BAD81BE81EC931196FC9364
:100B100011978091B21012968C9312978091561370
:100B200013968C931397E0915713F09158131596E1
:100B3000FC93EE93149794E1E2E4F3E116960190AE
:100B40000D929A95E1F790916013ED81FE81928F5D
:100B500090915913938F90915C13948F90915D13A2
:100B6000958F90915E13968F90919F13978FE09140
:100B70008911F0918A11AD81BE819196FC93EE931B
:100B8000909791E0E091D710E53009F090E0ED8189
:100B9000FE8192A390918C1393A344A255A266A2C6
:100BA00077A280A691A6A2A6B3A6C4A6D5A6E6A6BD
:100BB000F7A60F81188529853A8500AB11AB22ABCA
:100BC00033AB34AA09811A812B813C8105AB16AB6A
:100BD00027AB30AF41AF52AF63AF74AF91E0843019
:100BE00009F090E0AD81BE81DD969C93DD97FD011B
:100BF000FE968091A2139091A313A091A413B0919B
:100C0000A51380839183A283B383ED81FE81EE5B84
:100C1000FF4F8091911390919213A0919313B091F3
:100C2000941380839183A283B383ED81FE81EA5B79
:100C3000FF4F809199138083ED81FE81E95BFF4F27
:100C40008091A0138083AD81BE81A85BBF4F8DE1F1
:100C5000EFEAF3E101900D928A95E1F7AD81BE8153
:100C6000AB59BF4F86E1ECECF3E101900D928A9510
:100C7000E1F7AD81BE81A558BF4F88E0E2EEF3E118
:100C800001900D928A95E1F7AD81BE81AD57BF4FBE
:100C90008FE1EAEEF3E101900D928A95E1F7AD81E3
:100CA000BE81AE55BF4F8EE0E9E0F4E101900D92B8
:100CB0008A95E1F7AD81BE81A055BF4F8AE0E7E19B
:100CC000F4E101900D928A95E1F7AD81BE81A654C1
:100CD000BF4F8CE4E1E2F4E101900D928A95E1F7D7
:100CE000ED81FE81EA5FFE4F80916D1490916E144C
:100CF000A0916F14B091701480839183A283B38309
:100D0000ED81FE81E65FFE4F80917813909179131B
:100D1000A0917A13B0917B1380839183A283B383D4
:100D20008D819E812A960FB6F894DEBF0FBECDBF8F
:100D3000DF91CF911F910F91FF90EF90DF90CF90B7
:100D4000BF90AF909F908F907F906F905F904F90EB
:100D50003F9008951F82188619861A86ACCE198294
:100D60001A821B821C82BECE40E050E0BA01CBCE7C
:100D7000CF92DF92EF92FF920F931F93CF938C014C
:100D80006A017B01E091AF1088E0E89FF001112437
:100D9000E058FB4FC481CC23B9F0809156138823CF
:100DA00011F0833081F4C1E020E030E0A9016091CE
:100DB000AF137091B0138091B1139091B2130E9450
:100DC0007C6C18160CF0C0E0F801858196810097C4
:100DD000B1F4C11114C01092A8131092A91310926B
:100DE000AA131092AB131092AC131092AD13CF91C3
:100DF0001F910F91FF90EF90DF90CF900895209179
:100E0000A8132111F4CF892B11F4CC2381F381E0B5
:100E10008093A8131092A913C092AA13D092AB1377
:100E2000E092AC13F092AD13E2CFAF92BF92CF92AB
:100E3000DF92FF920F931F93CF93DF93CDB7DEB76F
:100E400063970FB6F894DEBF0FBECDBF8C01F09054
:100E5000AF106AE0F6125BC083E1A0E2B0E0AC0F35
:100E6000BD1F1D928A95E9F7FE01BE9690E09E0196
:100E70002E5C3F4F81919111892F982F2E173F079C
:100E8000C9F728A139A14FA158A59CA5F8017396CF
:100E90006F01B8016F5D7E4F5B012115310509F0CF
:100EA0005CC06AA1611159C06BA17CA1672B09F0DC
:100EB00054C06DA17EA1672B09F04FC041155105AB
:100EC00009F0BBC091114CC09AA99111ABC079E057
:100ED000F712A1C0811169C04BA95CA96DA97EA9B7
:100EE000CE0180960E94B80683E1FE01B096D8013B
:100EF00001900D928A95E1F74BA95CA96DA97EA995
:100F0000C6010E94AB0481E0F501808373C0B9E0A3
:100F1000FB12AACFFE01319683E1DF011D928A9573
:100F2000E9F78091B0108823B1F080916013882395
:100F300091F08091571382FD0EC08091771381113B
:100F40000AC089A58A8783E1DE01909601900D92FF
:100F50008A95E1F789CF80E0F5CF992309F464C041
:100F600090911714992341F090912B139350452B96
:100F700019F4923008F05BC091E0232B49F02BA1CB
:100F80003CA1232B91F4811110C0992309F453C083
:100F900080915C13882349F080912B138350823019
:100FA00020F40E94AE02811192CF89E08093AF10AD
:100FB00083E1F82EA0E2B0E0AC0FBD1FEF2D1D9233
:100FC000EA95E9F74BA95CA96DA97EA9CE018096A7
:100FD0000E94B806FE01B096D80101900D92FA94D5
:100FE000E1F74BA95CA96DA97EA9C6010E94AB04DB
:100FF000D5011C92C80163960FB6F894DEBF0FBEF0
:10100000CDBFDF91CF911F910F91FF90DF90CF90D7
:10101000BF90AF9008959AE0F9125ECF8111C5CFCD
:1010200089A558CF892F53CF452B09F0A5CF90E044
:10103000232B09F0A4CF81E04ACF992309F49CCF58
:101040008FCF8150823108F05AC0E82FF0E0882716
:10105000E35DF74F8F4F0C94146D4D0851083F0816
:10106000450849087F0854085A085E08640868085B
:101070006C08720876087F087A08800884088091D6
:1010800080008F77809380000895809180008F7D0D
:10109000F9CF80918000877FF5CF84B58F7784BDAD
:1010A000089584B58F7DFBCF8091B0008F778093BA
:1010B000B00008958091B0008F7DF9CF80919000AD
:1010C0008F77809390000895809190008F7DF9CF65
:1010D00080919000877FF5CF8091A0008F778093DB
:1010E000A00008958091A0008F7DF9CF8091A0008D
:1010F000877FF5CF809120018F778093200108951D
:10110000809120018F7DF9CF80912001877FF5CFDD
:10111000CF93DF93282F30E0F901EC54FC4F8491FA
:10112000F901E259FC4FD491F901E85DFC4FC491FB
:10113000CC23A1F081110E942108EC2FF0E0EE0FEA
:10114000FF1FE25FFC4FA591B491EC91ED2381E08C
:1011500090E009F480E0DF91CF91089580E090E085
:10116000FACF1F93CF93DF93282F30E0F901EC548F
:10117000FC4F8491F901E259FC4FD491F901E85DEB
:10118000FC4FC491CC23A9F0162F81110E94210895
:10119000EC2FF0E0EE0FFF1FEC50FD4FA591B49146
:1011A0008FB7F894EC91111108C0D095DE23DC9331
:1011B0008FBFDF91CF911F910895DE2BF8CFCF9392
:1011C000DF9390E0FC01E259FC4F2491885D9C4F35
:1011D000FC0184918823C9F090E0880F991FFC01DD
:1011E000E652FD4FA591B491FC01EC50FD4FC59125
:1011F000D49161110DC09FB7F8948C9120958223F2
:101200008C938881282328839FBFDF91CF910895F5
:10121000623051F49FB7F8943C91822F80958323DC
:101220008C93E8812E2BEFCF8FB7F894EC912E2B77
:101230002C938FBFEACF1F93CF93DF93182FEB012F
:1012400061E00E94DF08209739F460E0812FDF9190
:10125000CF911F910C94B108CF3FD10511F461E0FB
:10126000F5CFE12FF0E0EC54FC4FE491E150E23196
:1012700008F0B3C0F0E08827EF5BF64F8F4F0C9477
:10128000146D53095B0960096A097409ED097E0947
:1012900086098E099809A209AC09BB09C509ED099F
:1012A000CF09D909E30984B5806884BDC7BDDF9142
:1012B000CF911F91089584B5806284BDC8BDF7CFDA
:1012C00080918000806880938000D0938900C093D3
:1012D0008800EDCF80918000806280938000D09361
:1012E0008B00C0938A00E3CF809180008860809358
:1012F0008000D0938D00C0938C00D9CF8091B00036
:1013000080688093B000C093B300D1CF8091B000CB
:1013100080628093B000C093B400C9CF80919000E8
:10132000806880939000D0939900C0939800BFCFBD
:1013300080919000806280939000D0939B00C09336
:101340009A00B5CF80919000886080939000D093F0
:101350009D00C0939C00ABCF8091A00080688093DB
:10136000A0008091A0008F7B8093A000D093A90063
:10137000C093A8009CCF8091A00080628093A000C1
:10138000D093AB00C093AA0092CF8091A000886058
:101390008093A000D093AD00C093AC0088CF809123
:1013A0002001806880932001D0932901C0932801F7
:1013B0007ECF80912001806280932001D0932B0109
:1013C000C0932A0174CF809120018860809320010E
:1013D000D0932D01C0932C016ACFC038D1050CF0F9
:1013E0003ECF33CF90917B00977F90937B008653C5
:1013F000806480937C0080917A00806480937A007E
:1014000080917A0086FDFCCF8091780090917900E0
:1014100008953FB7F8948091DA0D9091DB0DA0917B
:10142000DC0DB091DD0D26B5A89B05C02F3F19F04E
:101430000196A11DB11D3FBFBA2FA92F982F882754
:10144000BC01CD01620F711D811D911D42E0660F2F
:10145000771F881F991F4A95D1F708950895AF9275
:10146000BF92CF92DF92EF92FF920F931F93CF9391
:10147000DF936C017B018B01040F151FEB015E01F3
:10148000AE18BF08C017D10759F06991D601ED9188
:10149000FC910190F081E02DC6011995892B79F717
:1014A000C501DF91CF911F910F91FF90EF90DF90D9
:1014B000CF90BF90AF900895FC01538D448D252FA0
:1014C00030E0842F90E0821B930B541710F0CF96DE
:1014D000089501970895FC01918D828D981761F010
:1014E000A28DAE0FBF2FB11D5D968C91928D9F5F27
:1014F0009F73928F90E008958FEF9FEF0895FC0106
:10150000918D828D981731F0828DE80FF11D858DB8
:1015100090E008958FEF9FEF0895FC01918D228D4B
:10152000892F90E0805C9F4F821B91098F739927D0
:1015300008958EED9DE00E948D0A21E0892B09F42B
:1015400020E0822F0895FC01A48DA80FB92FB11DB2
:10155000A35ABF4F2C91848D90E001968F739927E9
:10156000848FA689B7892C93A089B1898C918370C7
:1015700080648C93938D848D981306C00288F389C0
:10158000E02D80818F7D80830895EF92FF920F93ED
:101590001F93CF93DF93EC0181E0888F9B8D8C8D1F
:1015A00098131AC0E889F989808185FF15C09FB713
:1015B000F894EE89FF896083E889F98980818370D6
:1015C000806480839FBF81E090E0DF91CF911F9185
:1015D0000F91FF90EF900895F62E0B8D10E00F5FA6
:1015E0001F4F0F731127E02E8C8D8E110CC00FB67C
:1015F00007FCFACFE889F989808185FFF5CFCE0114
:101600000E94A30AF1CFEB8DEC0FFD2FF11DE35AE1
:10161000FF4FF0829FB7F8940B8FEA89FB89808196
:101620008062CFCF0F931F93CF93DF938C01D0E0D5
:10163000C0E0F801EC0FFD1F6491662341F08EEDD0
:101640009DE00E94C50A892B11F02196F2CFCE01B0
:10165000DF91CF911F910F910895CF93DF93EC010C
:10166000888D8823B9F0AA89BB89E889F9898C918A
:1016700085FD03C0808186FD0DC00FB607FCF7CF46
:101680008C9185FFF2CF808185FFEDCFCE010E9446
:10169000A30AE9CFDF91CF91089580E090E0892BF4
:1016A00029F00E94990A81110E94000080E090E0D8
:1016B000892B49F080E090E0892B29F00E940000FE
:1016C00081110E94000080E090E0892B49F080E0C9
:1016D00090E0892B29F00E94000081110E940000F7
:1016E00080E090E0892B49F080E090E0892B29F0A0
:1016F0000E94000081110C9400000895682F660F6D
:10170000692F661F81E090E06F3F11F490E080E068
:101710000895CF92DF92EF92FF92CF93DF93D82F6D
:101720006A017B01C22F2223E1F0CB01BA010E94A2
:101730007E0B892BA9F02DEC3CEC4CEC5DE3C70152
:10174000B6010E947C6C87FD0BC0C1E020E030E058
:1017500040E855E4C701B6010E94186918160CF458
:10176000C0E0D330F9F030F4DD2369F0D230B9F0C5
:10177000C0E00DC0DA30C9F0DB30D1F0D530C1F7B0
:10178000C093471302C0C09342130E949A038C2F48
:10179000DF91CF91FF90EF90DF90CF900895C093AD
:1017A0004413F3CFC0934513F0CFC0934C13EDCF48
:1017B000C0934D13EACF2F923F924F925F926F9258
:1017C0007F928F929F92AF92BF92CF92DF92EF92D1
:1017D000FF920F931F93CF93DF93CDB7DEB76A9736
:1017E0000FB6F894DEBF0FBECDBF9A8F898F8B01E5
:1017F0002D873E874F87588B8AE0A98DBA8D1D9221
:101800008A95E9F7FB01E35BFF4F80819181A2811B
:10181000B381E98DFA8D82879387A487B587FB0111
:10182000EF5AFF4F80819181A281B381E98DFA8DBA
:1018300086879787A08BB18BFB01EB5AFF4F808186
:101840009181A281B381E98DFA8D828B938BA48BD8
:10185000B58BDB0197968C9197978823D1F1989659
:101860008C9198978823A9F19C964D905D906D90EE
:101870007C909F97DA01C90184199509A609B709D7
:1018800086839783A087B187FB01238934894589A3
:1018900056892D833E834F835887281739074A0777
:1018A0005B0790F583E0A98DBA8D15968C9312A6EF
:1018B000EB5BFF4F108211821282138235971082E8
:1018C000FB0114AE15AE16AE17AE40AE51AE62AE11
:1018D00073AE898D9A8D6A960FB6F894DEBF0FBEEF
:1018E000CDBFDF91CF911F910F91FF90EF90DF90CF
:1018F000CF90BF90AF909F908F907F906F905F90B0
:101900004F903F902F90089581A5882311F380ADCB
:1019100091ADA2ADB3AD73016201C81AD90AEA0A4A
:10192000FB0A86859785A089B189C816D906EA067B
:10193000FB0608F44DC064AD75AD86AD97AD8288E9
:10194000912CB12CA12C681579058A059B0508F40A
:101950003FC01801F1E42F0E311C0E941D6920ECDC
:1019600031EE44E65CE40E947E694B015C01D801E3
:101970006D917C9190E080E00E941D6969837A837B
:101980008B839C83C701B6010E941D699B01AC013A
:1019900069817A818B819C810E947E699B01AC0167
:1019A000C501B4010E94F36AF101608371838283EF
:1019B000938381E031978083D801D8964D925D92D0
:1019C0006D927C92DB97F80114AE15AE16AE17AE91
:1019D000D801D096CD90DD90ED90FC90D397C114B6
:1019E000D104E104F10409F47BC06D917C9161158F
:1019F000710509F475C090E080E00E941D694B01FB
:101A00005C01C701B6010E941D699B01AC01C501C3
:101A1000B4010E947E699B01AC0160EC71EE84E62A
:101A20009CE40E94F36A698379871C01F801E05CF9
:101A3000FF4F8081882309F458C029813985A1018D
:101A4000F80162857385848595850E94186918164A
:101A50000CF44BC0F801EF5BFF4F208129833181EB
:101A600039872280338082E0A98DBA8D15968C93B8
:101A7000F80182A581113BC089819985D101EB5B79
:101A8000FF4F80839183A283B38381E0D8019A962C
:101A90008C93F801E75BFF4F2D853E854F85588974
:101AA00020833183428353833497C080D180E28086
:101AB000F38020E030E0A901C701B6010E94186957
:101AC00087FF03C0C12CD12C7601A98DBA8DCD9290
:101AD000DD92ED92FC92139781E014968C93F9CEEF
:101AE00019821986212C312CA1CF81E0BDCFE75B73
:101AF000FF4F80819181A281B381F801238D348DC4
:101B0000458D568D2D8B3E8B4F8B588F0097A105A1
:101B1000B10589F04D845E846F847888481A590A2B
:101B20006A0A7B0A2D813E814F815885241535052F
:101B30004605570520F44D885E886F88788CC30170
:101B4000B2010E941D69698B7A8B8B8B9C8B20E084
:101B500034E244E759E40E94F36AD8015F962D917C
:101B60003D914D915C9192970E947E694B015C0181
:101B7000F801EB5BFF4FC080D180E280F380AC01C5
:101B80009B01C701B6010E946F6A6D837A878B87BC
:101B90009C8729813985A1010E947C6C1816BCF0B4
:101BA000A5019401C701B6010E94706A6D837A870E
:101BB0008B879C8729813985A1010E94186987FD3F
:101BC00006C0B981BD83E985EA872B863C8658012A
:101BD000F5E4AF0EB11C6D897E898F89988D640DF7
:101BE000751D861D971D0E941D699B01AC016989A9
:101BF0007A898B899C890E94F36A2B013C01A70199
:101C000096016D817A858B859C850E946F6A9B0108
:101C1000AC01C301B2010E947E69A70196010E9436
:101C2000706AD5016D937D938D939C93139731CFFB
:101C30004F925F926F927F928F929F92AF92BF92DC
:101C4000CF92DF92EF92FF920F931F93CF93DF9388
:101C500000D000D0CDB7DEB79A838983FC0117A1ED
:101C60001123B9F000A501112CC081E080A744A781
:101C700055A766A777A740AF51AF62AF73AFE35BDD
:101C8000FF4F81E090E0A0E0B0E080839183A283E9
:101C9000B383812F26960FB6F894DEBF0FBECDBF5B
:101CA000DF91CF911F910F91FF90EF90DF90CF9038
:101CB000BF90AF909F908F907F906F905F904F906C
:101CC0000895E981FA8184A595A5A6A5B7A56A011D
:101CD0007B01C81AD90AEA0AFB0A8789908DA18D6F
:101CE000B28DC816D906EA06FB0690F4EF5AFF4FEC
:101CF000FA83E98340815181628173814F5F5F4F35
:101D00006F4F7F4F408351836283738310E0C1CF55
:101D100029813A813E832D83F90144A755A766A7FF
:101D200077A7E35BFF4F80819181A281B381019608
:101D3000A11DB11D80839183A283B383F90184AD7A
:101D400095ADA6ADB7AD0196A11DB11D84AF95AF00
:101D5000A6AFB7AFC114D104E104F10409F452C035
:101D6000608171816115710509F44CC090E080E0DB
:101D70000E941D694B015C01C701B6010E941D69EB
:101D80009B01AC01C501B4010E947E699B01AC01BD
:101D900060EC71EE84E69CE40E94F36A4B015C0106
:101DA00020E030E040E05FE3ED81FE8162817381FD
:101DB000848195810E947E69A50194010E94186921
:101DC000181624F120E030E040EA5FE3ED81FE8167
:101DD00066817781808591850E947E69A501940145
:101DE0000E947C6C87FD12C0ED81FE8111A511114E
:101DF00021C0ED81FE81C0AAD1AAE2AAF3AA81E0A6
:101E000081A715C0812C912C5401CACFED81FE8190
:101E1000EB5AFF4F80819181A281B3810196A11D70
:101E2000B11D80839183A283B383ED81FE8113A6CC
:101E3000102F2FCFED81FE8180A991A9A2A9B3A96E
:101E400046015701C816D906EA06FB0610F44C01F4
:101E50005D0120E030E0A90181149104A104B104E6
:101E6000E9F08C159D05AE05BF0570F5A70196013B
:101E7000281B390B4A0B5B0BCA01B9010E941D6973
:101E80002B013C01C501B4010E941D699B01AC01FD
:101E9000C301B2010E94F36A9B01AC01ED81FE8196
:101EA00083A094A0A5A0B6A0C501B4010E947C6C3B
:101EB000ED81FE8187FD0FC0C0AAD1AAE2AAF3AAD4
:101EC00081E081A713A6E5CEBC01CD016C197D0987
:101ED0008E099F09D3CF03A50023E1F184A995A919
:101EE000A6A9B7A926013701C816D906EA06FB0636
:101EF00010F42C013D0120E030E0A901411451040F
:101F00006104710409F18C159D05AE05BF05D8F576
:101F1000A7019601281B390B4A0B5B0BCA01B901BB
:101F20000E941D6969837A838B839C83C301B201FC
:101F30000E941D699B01AC0169817A818B819C8122
:101F40000E94F36A9B01AC01C501B4010E947C6C44
:101F500087FF4FCFED81FE81C4AAD5AAE6AAF7AAD2
:101F600081E083A7EB5AFF4FFA83E98340815181D7
:101F7000628173814F5F5F4F6F4F7F4F408351830B
:101F80006283738386CEBC01CD016C197D098E09F5
:101F90009F09C6CF0E94090AAB01BC018BE29AE0FF
:101FA0000C94180E0E94090AAB01BC0182ED99E065
:101FB0000C94180EFC0113A214A215A216A217A2CB
:101FC00010A611A612A613A614A615A616A617A645
:101FD00010AA11AA12AA13AA14AA15AA16AA178E31
:101FE00010A211A212A208952F923F924F925F92D7
:101FF0006F927F928F929F92AF92BF92CF92DF9219
:10200000EF92FF920F931F93CF93DF93CDB7DEB77D
:10201000A5970FB6F894DEBF0FBECDBF9A83898314
:102020001B014901B42E5B8327013801CB86AC86A6
:10203000FC01349686E1DF011D928A95E9F7FB01E8
:10204000668D662319F0FC85F11147C050E040E031
:1020500030E020E0852F942FA32FB22FE981FA8161
:1020600080839183A283B383408651866286738680
:10207000662369F0BC85BB2351F020E030E0A90164
:10208000B4018B2D9B810E94186981112BC0C10165
:102090000E94DA0FAA24A394EC85AE26A981BA8106
:1020A0005296AC9289819A81A5960FB6F894DEBFBC
:1020B0000FBECDBFDF91CF911F910F91FF90EF9099
:1020C000DF90CF90BF90AF909F908F907F906F9058
:1020D0005F904F903F902F900895522F492D3B2DA8
:1020E0002B81B8CFF101878D81110AC081E0878FE4
:1020F0002BAD3CAD4DAD5EAD23A734A745A756A78C
:10210000F10183A594A5A5A5B6A5CBACDCACEDAC3F
:10211000FEACC81AD90AEA0AFB0AC701B6010E9436
:102120001D696F83788789879A87D10152966D914F
:102130007C9190E080E00E941D699B01AC016F8161
:10214000788589859A850E94F36A6D877E878F8757
:10215000988B2DEC3CEC4CE45DE30E94186987FD04
:102160007BC220E030E040E85FE36D857E858F85AF
:1021700098890E947C6C181644F420E030E040E816
:102180005FE32D873E874F87588B2D853E854F8592
:102190005889B4018B2D9B810E947E694B015C01A3
:1021A000A981BA8114968D929D92AD92BC92179797
:1021B00020E030E0A9010E947C6C87FD56C220E03F
:1021C00030E040E85FE3298F3A8F4B8F5C8FE894D3
:1021D000B7F8A3019201698D7A8D8B8D9C8D0E9439
:1021E0007E699B01AC01C501B4010E946F6A698BD5
:1021F0007A8B8B8B9C8BA981BA811C966D937D9376
:102200008D939C931F97BB85BB2359F081E0F1010F
:1022100080A32BAD3CAD4DAD5EAD27A730AB41AB40
:1022200052ABF10180A1882361F087A590A9A1A9F3
:10223000B2A9CBACDCACEDACFEACC81AD90AEA0A48
:10224000FB0AFB85F1110DC021E02B87F101848988
:102250009589A689B789C816D906EA06FB0608F04B
:102260001B86EB85A981BA815296EC93529781E047
:10227000E827EBA35396EC93D10191968C9191971B
:102280009AE0C92E97EDD92E93EAE92E9CE3F92E18
:10229000882399F197968D919D910D90BC91A02DD9
:1022A0002BAD3CAD4DAD5EAD281B390B4A0B5B0B26
:1022B000CA01B9010E941D6920E030E04AE754E4F8
:1022C0000E94F36A6B017C012FE632E143E85AE396
:1022D0000E94186987FDD2C12DEC3CEC4CEC5DE30B
:1022E000C701B6010E947C6C18163CF42DECC22E7E
:1022F0002CECD22EED2C2DE3F22E8BAD9CADADADA2
:10230000BEADF10187A390A7A1A7B2A781E081A3E9
:1023100024813581468157812B833C834D835E83A5
:1023200040805180628073801085612F70E090E062
:1023300080E00E941D696F8F78A389A39AA3F101A1
:102340000185202F30E03E8F2D8F412F50E05DA37F
:102350004CA3A5019401C301B2010E94186987FF33
:1023600096C1A3019201C501B4010E946F6A4B019D
:102370005C01A30192016B817C818D819E810E9411
:102380006F6A9B01AC01C501B4010E94F36A4B0165
:102390005C016D8D7E8D8CA19DA1681B790B072E34
:1023A000000C880B990B0E941F699B01AC01C501B1
:1023B000B4010E947E692F8D38A149A15AA10E94C3
:1023C000706A4B01B82EA92E602F70E090E080E07B
:1023D0000E941D693B018C016D8D7E8D719561950B
:1023E0007109072E000C880B990B0E941F696D8BD9
:1023F0007E8B8F8B988FA701960169897A898B894B
:102400009C890E947E69D10193962D913D914D91B9
:102410005C9196970E94706A6B017C019B01AC01F4
:102420006D897E898F89988D0E947C6C181664F066
:102430009601A701B301C8010E94186987FF2CC14A
:102440006D8A7E8A0F8B188FF10122853385448532
:10245000558569897A898B899C890E947E696B017F
:102460007C0123962CAD3DAD4EAD5FAD2397B401FD
:102470008B2D9A2D0E94706A9B01AC01C701B60199
:102480000E94706A6B017C01D1011E962D913D91D5
:102490004D915C9151976D897E898F89988D0E94AD
:1024A0007E699B01AC01C701B6010E94706A6B8313
:1024B0007F83582E492E20E030E0A9010E94186940
:1024C000ECA1FDA16F01FF0FEE08FF0887FDE9C039
:1024D0002B813F81452D542DB301C8010E941869FD
:1024E00087FD04C06B807F80052D142DC701B601C8
:1024F0000E941F694B015C0120E030E0A901B3019B
:10250000C8010E947C6C181644F4A5019401B30123
:10251000C8010E94186987FDC9C0C701B6010E94A1
:102520001F696B017C012D8D3E8DB901330F880B26
:10253000990B0E941F694B015C012B813F81452D46
:10254000542DC701B6010E947C6C87FF0CC031E09E
:102550003C87A50194016B817F81852D942D0E947C
:102560007C6C87FD1C86EC85A981BA815496EC931E
:10257000A50194016B817F81852D942D0E947C6C37
:1025800087FD0CC020E030E0A90169897A898B8938
:102590009C890E947C6C18160CF48DC02B813F81A5
:1025A000452D542DC701B6010E947C6C87FD0BC0E0
:1025B00020E030E0A90169897A898B899C890E9491
:1025C000186987FD78C0FB85FF2309F478C08D89E1
:1025D0009E89AF89B88DF10183A394A3A5A3B6A367
:1025E00020E030E040E05FE3B301C8010E94706A80
:1025F000298D3A8D4B8D5C8D0E947E690E94A16B66
:10260000A981BA8151967C936E93509720E030E077
:1026100040E85FE36D857E858F8598890E947C6C9C
:1026200087FD11C0BC85BB2371F069897A898B89CC
:102630009C899F77F101228D338D448D558D0E94A9
:102640007C6C87FF41C0D10192961C92F10113AAC4
:1026500014AA15AA16AA26CD8DEC9CECACE4BDE319
:102660008D879E87AF87B88B90CD80E090E0A0E803
:10267000BFEB898F9A8FAB8FBC8FA9CD8FE6C82E09
:1026800082E1D82E83E8E82E8AE3F82E36CE8F8CAE
:1026900098A0B9A0AAA098CECD8ADE8AEF8AF88E3B
:1026A000D3CE612C712C00E010E037CF6F8C78A076
:1026B00009A11AA132CFFBA1FF2309F491CF612C0C
:1026C000712C00E010E08CCFD10192968C91929702
:1026D00081110EC081E092968C9392972BAD3CAD08
:1026E0004DAD5EADD3962D933D934D935C93D697B0
:1026F000F10183A994A9A5A9B6A92BAD3CAD4DAD17
:102700005EAD281B390B4A0B5B0BDA01C901E9816D
:10271000FA81868B978BA08FB18FF101408D518DFF
:1027200070E060E021E084179507A607B70708F47A
:1027300020E0A981BA8155962C93B4CC2F923F9278
:102740004F925F926F927F928F929F92AF92BF92C1
:10275000CF92DF92EF92FF920F931F93CF93DF936D
:10276000CDB7DEB76E970FB6F894DEBF0FBECDBF04
:102770004C018B01742EA090D710DC01AC92119605
:102780004C9311978091D81012968C93B090D610DC
:10279000C12CD12C7601BB20E1F1FB01C480D58096
:1027A000E680F7802090B5103090B6104090B710BA
:1027B0005090B810A2019101C701B6010E947C6C33
:1027C00018160CF0D7C0A2019101C701B6010E94F2
:1027D0006F6A2091B9103091BA104091BB1050919E
:1027E000BC100E947E692091BD103091BE104091B6
:1027F000BF105091C0100E947E692091C11030918D
:10280000C2104091C3105091C4100E947E696B01A8
:102810007C01D4011396CD92DD92ED92FC92169735
:10282000D80118962D913D914D915C911B972B8F5E
:102830003C8F4D8F5E8F672D70E090E080E02FEF32
:102840002A0D223020F0B4E0312CAB1297C0332493
:102850003394711001C0312CE4E0AE128FC00E949D
:102860001D692B013C0177FA709477F870948B8D79
:102870009C8DAD8DBE8DBF779C01AD0150582B8FC7
:102880003C8F4D8F5E8FBB2009F486C0A090B310A3
:10289000B090B410A114B10409F47EC020E030E07F
:1028A00040EE51E4C701B6010E947E69D50112963F
:1028B0002D913D914D915C9115970E94F36A9F93E4
:1028C0008F937F936F93F80183818F9382818F938E
:1028D00081818F9380818F93A32CC684EB8CFC8C99
:1028E0000D8D1E8DA30192016AEE70E1CE0101965D
:1028F0000E94F40F89899A89D40118969C938E932B
:1029000017978B8919968C9319978E891A968C93A1
:102910001A970FB6F894DEBF0FBECDBF332081F0FB
:102920008C89882369F085E08093D7101092E91094
:102930008C9311961C92119718961C921E921797C1
:10294000C4016E960FB6F894DEBF0FBECDBFDF9107
:10295000CF911F910F91FF90EF90DF90CF90BF909C
:10296000AF909F908F907F906F905F904F903F902F
:102970002F90089560E070E0CB012BCF0E941D697D
:102980002B013C018B8D9C8DAD8DBE8DBF778B8FC8
:102990009C8FAD8FBE8F77CF60E070E080E090E0DD
:1029A0008ECFCF92DF92EF92FF920F931F93CF9330
:1029B000DF938C01EB01C880D980EA80FB8020E0A6
:1029C00030E0A901C701B6010E947C6C18160CF01A
:1029D0005BC02C813D814E815F81C701B6010E94A1
:1029E000186987FF51C08885882309F44DC09985EF
:1029F000891708F049C020E030E0A9016A857B858D
:102A00008C859D850E947C6C87FD3EC020E030E077
:102A1000A9016E857F85888999890E947C6C87FDD4
:102A200033C08A899B89892B79F18C899D89AE89EC
:102A3000BF89892B8A2B8B2B39F1888D998D892B16
:102A400019F120E030E0A9016A8D7B8D8C8D9D8D80
:102A50000E947C6C1816C4F481E0F801868F8EE128
:102A6000FE01D80101900D928A95E1F7C8010E94FC
:102A7000DA0FF801868DDF91CF911F910F91FF90B2
:102A8000EF90DF90CF900895F801168EEFCFCF92A0
:102A9000DF92EF92FF920F931F93CF93DF93CDB707
:102AA000DEB76E970FB6F894DEBF0FBECDBF8C01B8
:102AB000FC01C080D180E280F38020E030E040E87B
:102AC0005FE3C701B6010E947C6C18160CF037C199
:102AD000F8012481358146815781C701B6010E94E2
:102AE000186987FF2CC1F801C484D584E684F78473
:102AF000A701960160857185828593850E947C6C13
:102B000018160CF01CC120E030E0A901C701B60185
:102B10000E947C6C18160CF012C120E030E0A90174
:102B2000F80164897589868997890E947C6C87FD84
:102B300006C120E030E0A901F801608D718D828D21
:102B4000938D0E947C6C87FDFAC0F801948D858D71
:102B5000981708F0F4C0868D978D892B09F4EFC083
:102B600080A191A1892B09F4EAC0C2A0D3A0E4A05E
:102B7000F5A020E030E040E05FE3C701B6010E942D
:102B80007C6C87FDDCC023E333E343E75FE3C701ED
:102B9000B6010E94186918160CF4D1C0F801C6A03D
:102BA000D7A0E0A4F1A420E030E0A901C701B6015C
:102BB0000E947C6C18160CF0C2C0F80122A533A547
:102BC00044A555A5C701B6010E94186987FFB7C083
:102BD00020E030E0A901F80166A577A580A991A9B8
:102BE0000E947C6C87FDABC020E030E0A901F801B9
:102BF00062A973A984A995A90E947C6C87FD9FC0D6
:102C0000F80186A997A9A0ADB1AD892B8A2B8B2B92
:102C100009F495C081E08093AC1280E4ACE6B2E1A7
:102C200001900D928A95E1F7F80186A197A1A0A5E0
:102C3000B1A589839A83AB83BC8382A593A5A4A500
:102C4000B5A58D839E83AF83B887848D8987858D55
:102C50008A8786A597A5A0A9B1A98B879C87AD87F0
:102C6000BE8782A993A9A4A9B5A98F87988BA98BA0
:102C7000BA8B868D978D9C8B8B8B86A997A9A0ADDF
:102C8000B1AD8D8B9E8BAF8BB88F82AD93AD9A8F8C
:102C9000898F84AD95ADA6ADB7AD8B8F9C8FAD8F71
:102CA000BE8FBE016F5F7F4F85EC92E10E94D11411
:102CB0008093AC121092AD121092AE121092AF121D
:102CC0001092B0121092B1121092B2121092B3126E
:102CD0001092B4121092B5121092B6121092B7124E
:102CE0001092B8121092B9121092BA121092BB122E
:102CF0001092BC121092BD121092BE121092BF120E
:102D00001092C0121092C1121092C2121092C312ED
:102D10001092C41285EC92E10E94DA0F8091AC12FD
:102D20006E960FB6F894DEBF0FBECDBFDF91CF9188
:102D30001F910F91FF90EF90DF90CF900895109228
:102D4000AC12B8CF8F929F92AF92BF92CF92DF9288
:102D5000EF92FF920F931F93CF93DF93CDB7DEB720
:102D60006E970FB6F894DEBF0FBECDBF8C01FC018D
:102D7000C080D180E280F38020E030E040E85FE373
:102D8000C701B6010E947C6C18160CF0F4C020E05C
:102D900030E040E85FE3F8016481758186819781C6
:102DA0000E947C6C87FDE7C0F80180A091A0A2A0E2
:102DB000B3A0A501940160857185828593850E94E9
:102DC0007C6C18160CF0D7C020E030E0A901C501DA
:102DD000B4010E947C6C18160CF0CDC020E030E0ED
:102DE000A901F80164857585868597850E947C6CAC
:102DF00087FDC1C020E030E0A901F8016089718938
:102E0000828993890E947C6C87FDB5C0F801948902
:102E10008589981708F0AFC086899789892B09F4AE
:102E2000AAC0808D918D892B09F4A5C0828D938DC8
:102E3000892B09F4A0C020E030E0A901648D758DD4
:102E4000868D978D0E947C6C18160CF094C02BED2B
:102E50003FE049E450E4C701B6010E947E696B017E
:102E60007C0181E08093E51188E2F801ADEBB1E1EE
:102E700001900D928A95E1F7F80180A191A1A2A19C
:102E8000B3A189839A83AB83BC8380859185A28516
:102E9000B3858D839E83AF83B8878489898785892D
:102EA0008A872485358546855785C701B6010E94E6
:102EB0007E6920E030E040E752E40E94F36A6B87CD
:102EC0007C878D879E87F8012089318942895389C3
:102ED000C701B6010E947E6920E030E040E752E47D
:102EE0000E94F36A6F87788B898B9A8BF8018689A9
:102EF00097899C8B8B8B808D918DB0E0A0E08D8B22
:102F00009E8BAF8BB88F828D938D9A8F898F20E0A7
:102F100030E040E752E4648D758D868D978D0E9478
:102F20007E69A70196010E94F36A6B8F7C8F8D8F5B
:102F30009E8FBE016F5F7F4F86EE91E10E94D1149C
:102F40008093E51186EE91E10E94DA0F8091E51100
:102F50006E960FB6F894DEBF0FBECDBFDF91CF9156
:102F60001F910F91FF90EF90DF90CF90BF90AF90A7
:102F70009F908F9008951092E511E4CF8F929F92C9
:102F8000AF92BF92CF92DF92EF92FF920F931F9377
:102F9000CF93DF93CDB7DEB76E970FB6F894DEBF51
:102FA0000FBECDBF8C01FC0180A1882309F46AC04B
:102FB000C080D180E280F38020E030E0A901C70129
:102FC000B6010E947C6C87FD76C020E030E0A9014C
:102FD000F80164817581868197810E947C6C181646
:102FE0000CF069C020E030E0A901F801608571852E
:102FF000828593850E947C6C18160CF05CC0F801E9
:1030000084849584A684B78420E030E0A901C501BA
:10301000B4010E947C6C18160CF04DC020E030E02A
:1030200040E85FE3C501B4010E94186918160CF46A
:1030300042C0F8012489358946895789C701B601FC
:103040000E94186987FF37C08091D710811133C063
:1030500081E2F801A5EBB0E101900D928A95E1F7CC
:103060008EE1EDE1F2E0DE01119601900D928A957C
:10307000E1F7BE016F5F7F4F8AEE90E10E94D114AD
:103080008093D610809343130E949A038091431338
:103090006E960FB6F894DEBF0FBECDBFDF91CF9115
:1030A0001F910F91FF90EF90DF90CF90BF90AF9066
:1030B0009F908F90089580E0E5CFFC018081882368
:1030C00049F08181882331F08281882319F083813E
:1030D000811187810895EF92FF920F931F93CF93F1
:1030E000DF93C82FFB01E080E11009C08AE08093E4
:1030F000AF1081E0CA3009F46AC080E068C0D091A6
:10310000AF10DB30D0F7ED2FF0E08827E557F74E12
:103110008F4F0C94146D9618EE18FB18F8180119BF
:103120000A19FB180D19131916191D198C2F877FF1
:103130008150823010F0C43001F78091B0108823A4
:10314000E1F28B01FF24FA94FC0EF2E0FF1510F47B
:10315000C73081F40E947D02882379F282E08F15C6
:1031600018F4C73009F06EC0C8010E945D188823AA
:1031700009F4C3CF8C2F8B7F833069F4F8018481ED
:10318000882309F4BACF8581882309F4B6CF8085D6
:10319000882309F4B2CFD950D23038F4C11105C018
:1031A000F8018681882309F4A8CFC093AF1088E086
:1031B000C89FF0011124E058FB4F8081882309F457
:1031C0003FC09181911199CF9281911196CFDF915A
:1031D000CF911F910F91FF90EF9008958C2F8D7FCD
:1031E00009F4ABCF87EF8C0F823008F4A6CF85CFE0
:1031F000C53009F4A2CF89EF8C0F843008F07DCF61
:103200009CCFCC2309F499CF88EF8C0F833008F43E
:1032100094CF73CFC63031F790CFC33009F48DCF40
:10322000C53091F78ACFC111DDCF87CFCC2309F408
:1032300084CFCA3009F061CF80CFC1115ECF7DCF7E
:103240008E2DC5CFC33009F0A6CF98CFCF93DF9393
:10325000EC010E9466021092D7101092B4101092E6
:10326000B3101092E9108AEE90E10E94DA0F1092EA
:103270005C1381E080935D131092591310925A13DE
:103280008091AF10813031F4BE0180E0DF91CF91A9
:103290000C946B18843091F48091B2108350833079
:1032A00030F488E08093AF1083E08093B2101092E6
:1032B0009F131092A013DF91CF9108958823D9F323
:1032C00089508230C0F3BE0188E0E0CFCF92DF9218
:1032D000EF92FF920F931F93CF93C0914313CC2390
:1032E00009F457C0C0914213CC2309F452C0C091D5
:1032F0004B13CC2309F44DC020916C13211155C000
:103300006A017B018C010E945802C82F882309F4AE
:1033100040C08091AF10811148C00E947D02C82F2B
:103320008823B9F18091B0108230E1F18AE194E014
:10333000C091D610CC2369F1F801C781CC2349F1A3
:103340002091D710253089F19093B4108093B31059
:1033500081E08093D7101092D8101092E910C0929B
:10336000DD10D092DE10E092DF10F092E010B80194
:103370000E946B18C82F81110CC01092D7101092A8
:10338000B4101092B3101092E9108AEE90E10E94EE
:10339000DA0F8C2FCF911F910F91FF90EF90DF905C
:1033A000CF9008958DE494E0C3CFC0E0F2CFE091D8
:1033B0005713F0915813309741F420936D143093C4
:1033C0006E1440936F1450937014E82BF92BF09304
:1033D0005813E093571310925C1381E080935D13B0
:1033E00090915613913011F481E008958093561313
:1033F000209378133093791340937A1350937B136F
:1034000085E00E946B188111EFCF95E090935613E1
:1034100099E09093AF100895CF93DF93D82F8091C8
:10342000AF1081111BC0CB010E945D18C82F8823EB
:1034300089F08091B010882389F0D81779F0D09363
:10344000B11083E08093B2100E94660210929F1325
:103450001092A0138C2FDF91CF910895C0E0FACF86
:10346000FC0110821182128213821482158216824C
:103470001782108611861286138614861586168684
:103480001786108A118A128A138A0895CF93DF93C0
:10349000FC01E35BFF4FC081CC2331F13996C08141
:1034A000CC2311F13196C081CC23F1F0EC01399796
:1034B00020E030E046E953E46081718182819381AC
:1034C0000E947C6C87FD0FC0FE01EE5AFF4FC1E0E9
:1034D00020E030E046E953E460817181828193818C
:1034E0000E947C6C87FDC0E08C2FDF91CF91089506
:1034F000CF92DF92EF92FF92CF93DF93EC01809116
:10350000AF10823041F080E0DF91CF91FF90EF90DB
:10351000DF90CF900895809159138823A1F3809173
:103520005A13882381F38C81882369F38D81882342
:1035300051F380914A13882331F380914F138823EC
:1035400011F36A017B010E94AE028823E1F2CE01F1
:103550000E94461A8823B9F2CE010E94580288239D
:1035600091F2BE0187E00E946B18882361F21092ED
:10357000591310925A1393E09093561310925C13C0
:1035800091E090935D1310928C131092841310921B
:10359000851310928613109287131092881310923D
:1035A000891310928A1310928B13C0927C13D092BD
:1035B0007D13E0927E13F0927F131092801310928D
:1035C000811310928213109283139ECF0F931F9337
:1035D000CF93FC01C489CC2381F18C012FE832EC1C
:1035E00045EF5CE360897189828993890E9418693B
:1035F000181614F120E030E040EE5FE3F80160853A
:103600007185828593850E946F6A9F772DEC3CECD3
:103610004CE45DE30E941869181674F0C1E02DECCB
:103620003CEC4CE45DE3F8016485758586859785FF
:103630000E94186918160CF4C0E08C2FCF911F91CE
:103640000F9108950F931F93CF93DF93CDB7DEB7FC
:1036500066970FB6F894DEBF0FBECDBF8C01FC019C
:1036600045AD56AD63AD74AD27ADCE0101960E9458
:10367000D40280915613843061F080E066960FB6D4
:10368000F894DEBF0FBECDBFDF91CF911F910F9198
:103690000895C8010E945802882379F3C8010E9446
:1036A000461A882351F3F8018581882331F30E945B
:1036B000AE02882311F380912B1383508230E8F6F9
:1036C000F801E65AFF4F80818111D7CF8091CB134B
:1036D000882399F28091C6138111CFCF8091D413A2
:1036E000882359F2CE0101960E94E61A882329F216
:1036F000B80183E00E946B18882309F4BECF1092B2
:103700005813109257131092611310926213109273
:103710006713109268131092691310926A13109233
:103720006B1391E090935C1310925D1310925613FB
:10373000A5CFAF92BF92CF92DF92EF92FF921F93ED
:10374000CF93DF93EC015C0182E3A80EB11C1D85D1
:103750001123F9F08E85811127C0C984DA84EB84A6
:10376000FC8420E030E040EA51ECC701B6010E9441
:10377000186987FD19C020E030E046E953E4C7012D
:10378000B6010E947C6C18167CF02A96CA15DB05DF
:10379000F1F6812FDF91CF911F91FF90EF90DF9095
:1037A000CF90BF90AF90089510E0F3CF0F931F9389
:1037B000CF9300918D1310918E1320918F13309120
:1037C0009013401B510B620B730B403C544D6140F6
:1037D000710508F473C08C012FE632E143E85AE327
:1037E000609191137091921380919313909194131F
:1037F0000E94706A20E030E040E052E40E947C6C5D
:1038000087FD5CC0C0919E13CC23C9F0C091991371
:10381000CC23A9F0C091D413CC2389F0C091D51347
:10382000C1114CC080915313882371F0C8010E94CC
:10383000461A882349F0F801848181111AC08C2F1F
:10384000CF911F910F910895809157139091581324
:103850008460909358138093571385E08093561398
:1038600010925C1381E080935D1389E08093AF1028
:10387000E6CFC8010E94991B882301F1C8010E946C
:1038800058028823D9F02091891130918A11232B75
:10389000B1F69091AF10943091F69091B2109530AE
:1038A00071F698E09093AF1096E09093B21010925A
:1038B0009F1391E09093A013C82FC1CFC0E0BFCF5A
:1038C000CF92DF92EF92FF92CF93DF93EC01809142
:1038D0009F13882309F465C080915313882309F44A
:1038E00060C080914413882309F45BC06A017B01A6
:1038F000CE010E94461A882309F453C0CE010E94CB
:10390000991B882309F44DC0CE010E9458028823D8
:1039100009F447C08091AF10843009F049C080910C
:10392000B210843009F044C0CE010E945D18882393
:10393000C1F18C818823A9F195E09093B210C092D7
:103940008D13D0928E13E0928F13F09290131092F9
:10395000911310929213109293131092941340911A
:10396000D0135091D1136091D2137091D31340931F
:103970009513509396136093971370939813FE01C9
:10398000E559FF4F9081992319F0C45BDF4F98816F
:103990009093991391E090939E1390939F1310929C
:1039A000A013DF91CF91FF90EF90DF90CF9008951B
:1039B00080E0F7CFCF93DF93EC01809153138823FE
:1039C00081F180914C13882361F180914D138823FC
:1039D00041F1CE010E94991B882319F1CE010E946A
:1039E00058028823F1F09091AF1091111DC0909171
:1039F000B2109330C9F49091B0109923A9F090912E
:103A0000B110992389F090916C1391110DC092E03F
:103A100090936C131092591310925C1391E0909351
:103A20005D13DF91CF91089580E0FBCF8F929F923D
:103A3000AF92BF92DF92EF92FF920F931F93CF93BB
:103A4000DF93EC01D62E7C0104E011E0112339F163
:103A5000D7011D961C911D97112309F11E961C91EB
:103A60001E9711118EC019968D909D90AD90BC90AF
:103A70001C9720E030E040EA51ECC501B4010E94FF
:103A80007C6C87FD0CC020E030E84EE853E4C501B3
:103A9000B4010E941869182F111F1127111F01501E
:103AA000BAE0EB0EF11C0111D1CF8D81882309F111
:103AB000809151138823E9F0FE01E85AFF4F80817D
:103AC0008823B9F031968081882399F036968081D9
:103AD000882379F03D9660817181828193819F77FF
:103AE0002CEE31E548EB5EE30E941869881F8827B9
:103AF000881F2091571330915813A9014B7F22FF43
:103B0000A8C1F0905313F110A4C180918911909134
:103B10008A11892B09F411E08091771301E0882341
:103B200021F0CE010E94991B082F8091AF1089507F
:103B30008230B0F4DD20A1F0CE010E945D18882310
:103B400079F08E81882361F08B81882349F01123DD
:103B500039F08F81882321F0FF2011F0011113C06B
:103B600081E080935B1300E0802FDF91CF911F9164
:103B70000F91FF90EF90DF90BF90AF909F908F904C
:103B8000089510E08CCF1092D7101092B4101092BC
:103B9000B3101092E9108AEE90E10E94DA0F1092B1
:103BA000D81010928A1110928911E1E2F1E18AE1B4
:103BB000DF01982F1D929A95E9F77A96A1E1E938ED
:103BC000FA07B1F71092B7111092B8111092B9110B
:103BD0001092BA1181E08093BB111092BC11109227
:103BE000B511109258131092571310925613109249
:103BF0005C1380935D131092591310925A13109214
:103C00005B1310926113109262131092631310925F
:103C1000641310926513109266131092671310923A
:103C200068131092691310926A1310926B130E941A
:103C300066021092771310928D1310928E131092C9
:103C40008F1310929013109291131092921310925E
:103C5000931310929413109295131092961310923E
:103C60009713109298131092991310929F13109219
:103C7000A01386EE91E10E94DA0F10921D121092AD
:103C80001E1210921F1210922012109221121092E6
:103C900022121092231210922412109225121092C6
:103CA00026121092271210922812109229121092A6
:103CB0002A1210922B1210922C128DE292E10E9485
:103CC000DA0F10926412109265121092661210921E
:103CD0006712109268121092691210926A12109272
:103CE0006B121092AD121092AE121092AF1210928F
:103CF000B0121092B1121092B2121092B31210922E
:103D0000B4121092B5121092B6121092B71210920D
:103D1000B8121092B9121092BA121092BB121092ED
:103D2000BC121092BD121092BE121092BF121092CD
:103D3000C0121092C1121092C2121092C3121092AD
:103D4000C41285EC92E10E94DA0F10920B131092CC
:103D50000C1310920D1310920E1310920F13109259
:103D60001013109211131092121310921313109239
:103D70001413109215131092161310921713109219
:103D800018131092191310922B1310922C131092D7
:103D90002D1310922E1310922F1310923013109295
:103DA0003113109232131092331310923413109275
:103DB0003513109236131092371310923813109255
:103DC0003D1310923E1310923F1310924013109225
:103DD000411310925F13EFEAF3E18DE1DF011D92D1
:103DE0008A95E9F7ECECF3E186E1DF011D928A9513
:103DF000E9F7E2EEF3E188E0DF011D928A95E9F749
:103E0000EAEEF3E18FE1DF011D928A95E9F7E9E03F
:103E1000F4E18EE0DF011D928A95E9F7E7E1F4E134
:103E20008AE0DF011D928A95E9F710926D141092D5
:103E30006E1410926F14109270141092AF10809143
:103E4000B2108450823008F08FCE83E08093B2109D
:103E50008BCEF82E452B09F058CEFF24F39455CE87
:103E6000CF93DF93EC0180915113882359F1CE0158
:103E70000E94991B882331F180915313882311F1FB
:103E800080914C138823F1F080914D138823D1F059
:103E9000CE010E9458028823A9F08091AF108111B1
:103EA00014C00E947D02882369F090916C139111D7
:103EB0000CC091E090936C1310925A1310925C1303
:103EC00090935D13DF91CF91089580E0FBCF08952B
:103ED000CF93C82F0E948808982FEC2FF0E0E6526D
:103EE000F74F8081813009F4911180E09083CF9168
:103EF00008950F931F93CF93DF93182F862F042FCE
:103F0000C22FD32FD7FF03C0D195C195D109CF3F81
:103F1000D10519F014F0CFEFD0E03095632F661F74
:103F20006627661F0E94B10861E0C11101C060E010
:103F3000802F0E94B108BE017727812FDF91CF919A
:103F40001F910F910C941B09CF93DF93EB012881F4
:103F5000398140E26EE185E00E94791F6981661F28
:103F60006627661F8FE10E94B1086A818AE20E947B
:103F7000B1082B813C8142E261E286E00E94791F18
:103F80002D813E8144E263E287E00E94791F2F8108
:103F9000388546E265E288E00E94791F698570E015
:103FA00089E00E941B096B8588E20E94B1086C853C
:103FB00089E20E94B1086A8587E20E94B1086E8595
:103FC0008AE00E94B1086F858BE00E94B108688981
:103FD0008CE00E94B10869898DE00E94B1086A896D
:103FE00084E0DF91CF910C94B108CF92DF92EF92F1
:103FF000FF921F93CF93DF9300D01F921F92CDB7F4
:10400000DEB78091810E9091820E95FF0FC020E067
:1040100030E0A90160911510709116108091171071
:10402000909118100E9418691816D4F019821A82FB
:104030001B821C821D8229813A814B815C816D81AA
:1040400070E080E090E00F900F900F900F900F9035
:10405000DF91CF911F91FF90EF90DF90CF90089567
:104060008AE30E94F209BC01990F880B990B0E9408
:104070001F6920911110309112104091131050912E
:1040800014100E946F6A20E030E0A9010E947C6C4D
:104090001816CCF58AE30E94F209BC01990F880B2F
:1040A000990B0E941F6920911110309112104091BC
:1040B0001310509114100E946F6A209115103091C6
:1040C000161040911710509118100E947E696B01D4
:1040D0007C012DEC3CEC4CE45EE30E947C6C87FDA3
:1040E0000BC011E020E030E040E050E4C701B60131
:1040F0000E94186918160CF410E0C982DA82EB826B
:10410000FC821D8398CF8AE30E94F209BC01990FBB
:10411000880B990B0E941F69209111103091121089
:1041200040911310509114100E946F6A9058C5CF9F
:104130002F923F924F925F926F927F928F929F92B7
:10414000AF92BF92CF92DF92EF92FF920F931F93A5
:10415000CF93DF9300D000D01F921F92CDB7DEB770
:104160009A838983DC011C9116139CC011963C90A4
:10417000B6E0B31508F496C0FC010281043008F0E3
:1041800091C02380F1E0F21508F48CC098878F83EA
:10419000DC011896CD90DD90ED90FC901B97C70147
:1041A000B6010E947E0B892B09F47CC0EF81F88553
:1041B0004484558466847784C301B2010E947E0BD7
:1041C000892B09F46FC0AF81B88550968D909D9072
:1041D000AD90BC905397C501B4010E947E0B892B12
:1041E00009F460C0A5019401C301B2010E947C6C76
:1041F00018160CF457C0AF81B88554962D913D9197
:104200004D915C91579729833A834B835C83FD01E1
:104210005496BE83AD8365EC7DE98CE191E8A19174
:104220006A279B01AC0163E971E080E091E00E94A4
:10423000CE6C2D813E81E217F30789F729813A81FF
:104240004B815C81261737074807590759F522200B
:1042500059F10250023030F5EF81F8858481958163
:10426000A681B781892B8A2B8B2BE1F080E01E3051
:1042700028F4E12FF0E0ED59FC4F8081381212C094
:10428000A3019201C701B6010E947C6C87FD0AC0A0
:10429000F1E0F983A5019401C701B6010E941869F4
:1042A000181624F4198202C021E0298389812896F6
:1042B0000FB6F894DEBF0FBECDBFDF91CF911F9137
:1042C0000F91FF90EF90DF90CF90BF90AF909F90B5
:1042D0008F907F906F905F904F903F902F900895B8
:1042E000CF93DF9398E1899FE0011124682FCE01DD
:1042F0008D57914F0E949820882339F0C558D14F8F
:1043000081E09B85911101C080E0DF91CF910895FC
:10431000EF92FF920F931F93CF93DF93D0E0C0E013
:1043200010E000E0EE24E394F12C8C2F0E94702129
:10433000882349F0C7010C2E02C0880F991F0A94E8
:10434000E2F7082B192B2196CE30D10571F7C80161
:10435000DF91CF911F910F91FF90EF9008952F92D1
:104360003F924F925F926F927F928F929F92AF9205
:10437000BF92CF92DF92EF92FF920F931F93CF9352
:10438000DF93CDB7DEB76F970FB6F894DEBF0FBEE1
:10439000CDBF9F8F8E8F142F61508CE3882E83E0CA
:1043A000982E633040F4E62FF0E0EE0FFF1FEA5C3A
:1043B000FC4F80809180D4012D903C90812F0E94F1
:1043C0007021882369F1B8E11B9FF0011124E558A1
:1043D000F14FC088D188E288F38820E030E040E0E7
:1043E0005FE3C701B6010E94706A0E94A86B1B01BF
:1043F0006115710599F090E080E00E941D699B01B4
:10440000AC01C701B6010E946F6A9F772AE037EDC1
:1044100043E25CE30E947C6C18162CF480E09BC1A4
:104420002114310499F1F401428053806480758035
:1044300020E030E0A901C301B2010E9418691816FA
:104440000CF0A2C1B10190E080E00E941D69A301BF
:1044500092010E947E699B01AC0160EC71EE84E6E2
:104460009CE40E94F36A0E946A6B122F032FF42EC1
:10447000E52ED62EC72EB82EA92E20E030E0A901B9
:10448000C301B2010E947C6C18162CF0EE8DFF8DDA
:1044900017A280E014C1D40116962D913D914D9143
:1044A0005C91199729873A874B875C87A301920112
:1044B00069857A858B859C850E947C6C181634F7FB
:1044C000D4011A962D913D914D915C911D972D87A8
:1044D0003E874F87588BC301B2010E941869181696
:1044E000ACF22D853E854F85588969857A858B8507
:1044F0009C850E947C6C87FDC9CFD4011E962D91AE
:104500003D914D915C9151972D8B3E8B4F8B588FE8
:10451000232B242B252B09F4B9CF5296BC91B98FAC
:10452000B23008F4B3CFD40153962D913D914D9103
:104530005C915697298B3A8B4B8B5C8BBA01AB0104
:1045400060E070E0CB0129833A834B835C836D8309
:104550007E838F839887212F302F4F2D5E2D6D2DD9
:104560007C2D8B2D9A2DA980BA80CB80DC80E12C0C
:10457000F12C00E010E00E941C6D08F087CF5796E8
:104580006D917D918D919C915A9769837A838B83EC
:104590009C83672B682B692B09F478CF5B962D9150
:1045A0003D914D915C915E972A8F3B8F4C8F5D8F33
:1045B000232B242B252B09F469CF5F96CD90DD901A
:1045C000ED90FC90929720E030E0A901C701B60180
:1045D0000E947C6C18160CF059CFF40183A094A0B3
:1045E000A5A0B6A020E030E0A901C501B4010E9459
:1045F0007C6C18160CF04ACF20E030E040E85FE316
:10460000C501B4010E94186987FF40CF81E0AE8DDB
:10461000BF8D97968C93979711963C922E92FD01A1
:10462000428253826482758229853A854B855C85F6
:1046300016962D933D934D935C9319972D853E854A
:104640004F8558891A962D933D934D935C931D97F2
:104650002D893E894F89588D1E962D933D934D93FC
:104660005C935197E98D5296EC93529729893A8938
:104670004B895C8953962D933D934D935C9356974C
:1046800029813A814B815C8157962D933D934D93BF
:104690005C935A972A8D3B8D4C8D5D8D5B962D9347
:1046A0003D934D935C935E97FD01C78ED0A2E1A22E
:1046B000F2A293968D929D92AD92BC929697AE8DFA
:1046C000BF8D98961C92989799961C9299979A9656
:1046D0001C929A979B961C929B97FD0114A615A677
:1046E00016A617A6D0961D921D921D921C92D397C6
:1046F00014AA15AA16AA17AAD8961D921D921D9241
:104700001C92DB9714AE15AE16AE17AEE05CFF4FF1
:104710001082319610821182128213823496108296
:1047200011821282138234961082118212821382B5
:104730003496108211821282138234961082118272
:10474000128213829D012B5A3F4FD9011D921D9257
:104750001D921C9213976F960FB6F894DEBF0FBE92
:10476000CDBFDF91CF911F910F91FF90EF90DF9020
:10477000CF90BF90AF909F908F907F906F905F9001
:104780004F903F902F90089510E000E0F12CE12C25
:10479000D12CC12CB12CA12C70CE40E060E08BE27A
:1047A0009AE00E94AF218823B1F042E061E089E7FE
:1047B00099E00E94AF21882371F043E062E082ED2E
:1047C00099E00E94AF21882331F045E063E080E268
:1047D00099E00C94AF2180E008958F929F92AF9260
:1047E000BF92CF92DF92EF92FF920F931F93CF93DE
:1047F00080917B0E90917C0EA0917D0EB0917E0EEB
:1048000086339245A045B04509F04CC080917F0E9B
:104810009091800E049709F045C00091810E10918F
:10482000820E0E94882108171907E1F5C090AB108D
:10483000D090AC10E090AD10F090AE10EBE7FEE041
:1048400065EC7DE98CE191E821914B018226AC0178
:10485000940163E971E080E091E00E94CE6C20E178
:10486000EB3AF20789F7C616D706E806F906D1F43F
:1048700003E81EE0C0E06C2FC8010E949820882346
:1048800029F0CF5F085E1F4FCE30A9F7CF911F915F
:104890000F91FF90EF90DF90CF90BF90AF909F90DF
:1048A0008F90089580E0F2CFFC0182E598EBAEE5B1
:1048B000BFE382A393A3A4A3B5A380E090E0A0E00C
:1048C000BFE386A397A3A0A7B1A780E090E0A0EFE5
:1048D000B1E482A793A7A4A7B5A780E090E0A0E8E1
:1048E000B0E486A797A7A0ABB1AB80E090E0A0E8CA
:1048F000BFE382AB93ABA4ABB5AB4CE45DE160E04E
:1049000070E046AB57AB60AF71AF20EB34E033AF34
:1049100022AF84AF95AFA6AFB7AF08958F929F92A5
:10492000AF92BF92CF92DF92EF92FF92CF93DF933D
:10493000EC0188809980AA80BB80C501B4010E94E7
:104940007E0B892B09F498C0CC80DD80EE80FF803F
:10495000C701B6010E947E0B892B09F48DC020E0AF
:1049600030E040E85FE3C501B4010E947C6C18169A
:104970000CF082C020E030E0A901C701B6010E941E
:104980007C6C18160CF078C088859985892B09F401
:1049900073C08E859F85AC0170E060E0CA84DB84C3
:1049A000EC84FD844C155D056E057F0508F064C040
:1049B000892B09F461C081E080932A1380E1FE0114
:1049C000AAE1B3E101900D928A95E1F7288139813E
:1049D0004A815B816C817D818E819F810E947E698D
:1049E0000E94DC6A0E94A86B611571058105910522
:1049F00009F446C06093391370933A1380933B13C4
:104A000090933C1381E010922B1310922C13109270
:104A10002D1310922E1310922F1310923013109208
:104A200031131092321310923313109234131092E8
:104A300035131092361310923713109238131092C8
:104A40003D1310923E1310923F1310924013109298
:104A50004113811106C095E090932B1391E0909340
:104A60002C13DF91CF91FF90EF90DF90CF90BF900C
:104A7000AF909F908F90089510922A1380E0C3CF3B
:104A800081E090E0A0E0B0E08093391390933A1376
:104A9000A0933B13B0933C13B6CF4F925F926F92AB
:104AA0007F92BF92CF92DF92EF92FF920F931F936C
:104AB000CF93DF93CDB7DEB7A2970FB6F894DEBFE2
:104AC0000FBECDBF0E94ED23B82E8E010F5F1F4F8A
:104AD00084E1F82EF8018F2D11928A95E9F7C8012B
:104AE000B11022C00E94301AF801A2E4B3E1019093
:104AF0000D92FA94E1F70E949A030E9463048B2DB1
:104B0000A2960FB6F894DEBF0FBECDBFDF91CF9156
:104B10001F910F91FF90EF90DF90CF90BF907F900B
:104B20006F905F904F9008950E94301AF801A2E4B0
:104B3000B3E101900D92FA94E1F781E00E947021B7
:104B4000882321F088EE9FE00E94BE1788E00E9433
:104B50007021882321F083ED9FE00E94100489E0FA
:104B60000E9470218823C9F140900D1050900E10C2
:104B700060900F1070901010C0900910D0900A1023
:104B8000E0900B10F0900C1020E030E0A901C7017C
:104B9000B6010E947C6C87FD1BC020E030EC4FE723
:104BA00054E4C701B6010E94186918168CF0C301BD
:104BB000B2010E947E0B892B59F0FF24F39420E070
:104BC00030E0A901C301B2010E947C6C18160CF000
:104BD000F12CF0924B130E949A038DE00E947021F9
:104BE0008823C9F14090151050901610609017104E
:104BF00070901810C0901110D0901210E090131007
:104C0000F090141020E030E0A901C701B6010E9425
:104C10007C6C87FD1BC020E030EC4FE754E4C701FB
:104C2000B6010E94186918168CF0C301B2010E94E7
:104C30007E0B892B59F0FF24F39420E030E0A9018A
:104C4000C301B2010E947C6C18160CF0F12CF0929A
:104C50004F130E949A0384E00E947021811105C0C5
:104C600083E00E9470218823A9F089E190E10E94ED
:104C7000A216F82E80E0FF2019F084E00E94702137
:104C80008093461380E0FF2019F083E00E9470219A
:104C90008093451386E00E947021882331F081E4DF
:104CA00090E10E9447158093481380E00E94702194
:104CB00040918B0E50918C0E60918D0E70918E0EE6
:104CC000282F80E00E94890B82E00E947021409191
:104CD000BB0E5091BC0E6091BD0E7091BE0E282F80
:104CE00082E00E94890B85E00E9470214091030FB1
:104CF0005091040F6091050F7091060F282F85E0E9
:104D00000E94890B8AE00E94702140917B0F509194
:104D10007C0F60917D0F70917E0F282F8AE00E949A
:104D2000890B8BE00E9470214091930F5091940F5A
:104D30006091950F7091960F282F8BE00E94890B40
:104D400087E00E947021882309F453C08091330FBB
:104D50009091340FA091350FB091360F40E050E0A4
:104D600068E872E44D8B5E8B6F8B788F4DEC5CEC5A
:104D70006CEE7FE3498F5A8F6B8F7C8F20EB34E092
:104D80003AA329A38D8F9E8FAF8FB8A340E050E048
:104D900060E070E44D835E836F83788722E030E0CB
:104DA0003A87298748E95AE360E070E04B875C87DF
:104DB0006D877E8728EE33E0388B2F8789839A832F
:104DC000AB83BC83CE0145960E94B203882319F0C1
:104DD000C8010E948E2480934913109219131092D7
:104DE000131310921413109215131092161310929D
:104DF00017138CE00E947021882329F1C090AB0F1B
:104E0000D090AC0FE090AD0FF090AE0FC701B6019F
:104E10000E947E0B892BA1F020E030E0A901C701A0
:104E2000B6010E947C6C18165CF411E02DEC3CEC91
:104E30004CEC5DE3C701B6010E94186918160CF42A
:104E400010E010934E130E949A0359CECF93DF9334
:104E50000E94120BEC0142E050E06AEE74E08EED2D
:104E60009DE00E942F0A8C0F9D1FDF91CF91089526
:104E70008F929F92AF92BF92CF92DF92EF92FF926A
:104E80000F931F93CF93DF9300916C1210916D12CB
:104E9000D0916E12C0916F12C0907812D09079129A
:104EA000E0907A12F0907B128090701290907112C4
:104EB000A0907212B09073122091B1123091B21280
:104EC0004091B3125091B412C701B6010E947E699D
:104ED000A70196010E947E696B017C0120E030E011
:104EE00040E850E460918E1270918F128091901280
:104EF000909191120E947E692091741230917512E6
:104F000040917612509177120E947E699B01AC010C
:104F1000C701B6010E94F36A6B017C0198014D2F15
:104F20005C2FB8018D2F9C2F0E947E699B01AC01E4
:104F3000C701B6010E94706A0E94876C6B017C01F8
:104F40009B01AC01B8018D2F9C2F0E947C6C181620
:104F500074F09601A701B401C5010E941869860189
:104F6000DE2DCF2D87FF03C08401DA2DCB2DB801B4
:104F70008D2F9C2FDF91CF911F910F91FF90EF907C
:104F8000DF90CF90BF90AF909F908F9008954F92F9
:104F90005F926F927F928F929F92AF92BF92DF92B9
:104FA000EF92FF920F931F93CF93DF937C01480101
:104FB00059014530E8F0FC011082118212821382FF
:104FC000148281E0858386829782A086B186C7019C
:104FD000DF91CF911F910F91FF90EF90DF90BF90E5
:104FE000AF909F908F907F906F905F904F900895BB
:104FF000E42FF0E0E052FC4F008160E0802F0E943F
:10500000B10883E090E00197F1F710E1D0E0C0E053
:1050100061E084E30E94B108CC0FDD1F82E30E94AF
:10502000880861E070E0892B11F470E060E0C62B25
:10503000D72B60E084E30E94B108115049F761E08A
:10504000802F0E94B108DD24D3948E0104701127B3
:10505000C2FFD12C83E0D695C7958A95E1F7DF7022
:10506000BE0190E080E00E941D6920E030E040E851
:105070005EE30E947E692B013C01F7014082518270
:1050800062827382012B99F420E030E040EA51EC17
:105090000E947C6C87FD0BC0C1E020E030E046E957
:1050A00053E4C301B2010E94186918160CF4C0E061
:1050B000F701C483D58287CF2F923F924F925F92A0
:1050C0006F927F928F929F92AF92BF92CF92DF9218
:1050D000EF92FF920F931F93CF93DF93CDB7DEB77D
:1050E000C952D1400FB6F894DEBF0FBECDBFC45E2B
:1050F000DE4F99838883CC51D1401B0129013A01AD
:10510000FB01E95AFF4F0081002311F03A9700811B
:10511000F101EE5AFF4F80809180A280B3803496D7
:105120001081112311F039971081F101E25BFF4FDB
:10513000C080D180E280F3802091AE13C351DF4F55
:105140002883CD5ED040112359F011E020E030E0FB
:1051500046E953E4C701B6010E947C6C87FD10E06C
:10516000002311F40C941C4620E030E046E953E49F
:10517000C501B4010E947C6C87FF02C00C941C46E0
:10518000C351DF4F3881CD5ED040363608F458C069
:10519000111155C081E040916412509165126091E7
:1051A000661270916712452B462B472B89F44114E8
:1051B000510461047104F1F1442D352D262D972DF4
:1051C0004093641230936512209366129093671295
:1051D000109268121092691210926A1210926B1259
:1051E000409164125091651260916612709167123D
:1051F000411551056105710509F482C07301620111
:10520000C41AD50AE60AF70AB701A601C351DF4F4F
:105210002881CD5ED040263608F476C0811108C0C2
:1052200091E04C3D35E053076105710508F471C00C
:1052300090E06FC041E030E020E090E0C1CF012F6E
:1052400010926412109265121092661210926712F8
:10525000C351DF4F4881CD5ED0404636A0F420E0F8
:1052600030E046E953E4C701B6010E947C6C87FF39
:105270000CC020E030E046E953E4C501B4010E94CF
:105280007C6C87FF02C080E0A3CF80916812909170
:105290006912A0916A12B0916B12892B8A2B8B2B09
:1052A00089F4411451046104710419F1342D252D40
:1052B000962D872D309368122093691290936A126D
:1052C00080936B128091681290916912A0916A127A
:1052D000B0916B1273016201C81AD90AEA0AFB0A7B
:1052E000D701C6018C3D9540A105B10538F480E099
:1052F00077CF31E020E090E080E0DCCF84E070CF39
:1053000040E050E0BA0182CF82FB992790F921E07A
:1053100092279093E2131093E3130093E413809386
:10532000E5134093E6135093E7136093E8137093EB
:10533000E91380914F13882371F080914C138823D7
:1053400051F080914D13882331F0F101E35BFF4F61
:1053500080818111892F809360138091B010882300
:1053600009F463C11091AF1048E0149FF0011124BB
:10537000E058FB4F9181992309F457C1D101179649
:105380009C91992309F451C1EDE4F4E0823011F0CD
:10539000EAE1F4E0C08CD18CE28CF38CC351DF4F96
:1053A000C882D982EA82FB82CD5ED0408091B21061
:1053B000853021F520E030E040E85EE3C701B6012A
:1053C0000E947E69C351DF4F688379838A839B8300
:1053D000CD5ED04020E030E040E85FE30E941869F5
:1053E00087FF0CC020E030E040E85FE3C351DF4FAF
:1053F000288339834A835B83CD5ED04080915613E6
:105400008130E9F58091781390917913A0917A1306
:10541000B0917B1373016201C81AD90AEA0AFB0A28
:10542000C701B60120E030E0A901603107E2700752
:105430008105910590F40E941D6920E030E44CE163
:1054400056E40E94F36A9B01AC0160E070E080E8E2
:105450009FE30E946F6A9B01AC01C351DF4F6881DB
:1054600079818A819B81CD5ED0400E947E69C35143
:10547000DF4F688379838A839B83CD5ED04014306D
:1054800061F480919F13882309F4CFC0F101E7599B
:10549000FF4F8081882309F4C8C0F101E45BFF4F0E
:1054A000C080CC2011F07F96C080F101E85BFF4FF7
:1054B0002081318142815381CB51DF4F2883398351
:1054C0004A835B83C55ED040809121129091221265
:1054D000A0912312B0912412812C912C5401009799
:1054E000A105B10531F053014201881A990AAA0AAF
:1054F000BB0A4092211250922212609223127092A3
:105500002412CC2009F447C04114510461047104F1
:1055100009F494C0342D252D962D872D3093291212
:1055200020932A1290932B1280932C1220E030E0CB
:10553000A901CB51DF4F688179818A819B81C55E4A
:10554000D0400E947C6C181634F5C501B4010E944D
:105550001D69CB51DF4F288139814A815B81C55E4E
:10556000D0400E947E6920E030E64AE657E40E947F
:10557000F36A20911D1230911E1240911F1250911A
:1055800020120E94706A60931D1270931E12809305
:105590001F1290932012AA24A39420E030E040E848
:1055A0005FE3C351DF4F688179818A819B81CD5E42
:1055B000D0400E947C6C87FDA12C80912912909193
:1055C0002A12A0912B12B0912C120097A105B105BF
:1055D00079F0B301A201481B590B6A0B7B0BDB016D
:1055E000CA01893E9340A105B10510F40C94534AB9
:1055F00020E030E040E85FE3C351DF4F688179810C
:105600008A819B81CD5ED0400E947C6CD12C87FD2D
:1056100002C00C94874A1092251210922612109202
:105620002712109228120C94A64AC351DF4F1882F9
:1056300019821A821B82CD5ED0402FCF31E020E04C
:1056400090E080E06BCF31E020E090E080E00C94CF
:105650009E4AC751DF4F188219821A821B82C95E87
:10566000D0400C94C24AC1010E94580281110CC062
:1056700080916C13882319F081E0809377130E9446
:10568000660289E08093AF10F101E859FF4F8081F5
:10569000811113C080912B138350823070F40E94CB
:1056A00063048091AF108B7F833039F4A3019201A2
:1056B000B10180E091E00E94D719C090AF10CB51AA
:1056C000DF4FC882C55ED0408C2D8D7F31F0DD2448
:1056D000D3940C2D073009F0D12C10912B13BDEF72
:1056E000CB2EC10EC751DF4FC882C95ED04000919A
:1056F0005F130023B9F000914913002399F0F101E1
:10570000EB59FF4F0081002369F0C1010E9458024C
:10571000082F882339F0DD2021F001E080916C13FF
:10572000811100E080912A1381110BC021E0C75143
:10573000DF4F0881C95ED040023008F4BBC220E0D0
:10574000B9C2C751DF4F2881C95ED040233070F302
:1057500001110EC040913E1350913F1360914013D0
:1057600070914113E0912C1320E080E090E037C06D
:10577000F101E959FF4F908131978081882311F41D
:105780000C94E845992311F40C948B4585E08093A3
:105790002B1382E080932C1340913E1350913F13C2
:1057A0006091401370914113E2E015E0DDCF40912C
:1057B0003E1350913F136091401370914113992310
:1057C00091F190913D1391110CC085E080932B13C2
:1057D00086E080932C13E6E015E020E080E030E0E6
:1057E0007FC080902D1390902E13A0902F13B09017
:1057F000301373016201C818D908EA08FB08460192
:105800005701C0902813D0902913F12CE12C8C144F
:105810009D04AE04BF0448F085E080932B13809371
:105820002C13E5E0C2CF10923D1380902D13909081
:105830002E13A0902F13B090301373016201C8187B
:10584000D908EA08FB088090241390902513A090B3
:105850002613B0902713C814D904EA04FB0440F0BF
:1058600085E080932B1383E080932C13E3E09DCF9E
:105870008090311390903213A0903313B090341372
:1058800081149104A104B10499F073016201C81854
:10589000D908EA08FB0846015701C0902213D090AE
:1058A0002313F12CE12C8C149D04AE04BF0498F05A
:1058B000411451046104710409F4D9C0342D252D1B
:1058C000962D872D309331132093321390933313F9
:1058D00080933413802FE0912C1320E090E031E08E
:1058E00030931714909318148093191420931A145A
:1058F00040931B1450931C1460931D1470931E143A
:1059000010931F14E093201480912B13C751DF4F85
:105910000881C95ED040023008F4D9C19DEF980FCC
:10592000923008F0D4C180910A13882309F48CC006
:10593000E0903E13F0903F130091401310914113FB
:10594000B701C8010E947E0B892B09F47DC020E0BD
:1059500030E0A901B701C8010E94186987FF04C09F
:10596000E12CF12C00E010E0C090FC12CB51DF4F95
:10597000C882C55ED040D090FD12C751DF4FD8829B
:10598000C95ED040C090FE12D090FF129701A801CE
:10599000CB51DF4F6881C55ED040C751DF4F788162
:1059A000C95ED040C6010E94186987FF0BC0CB5169
:1059B000DF4FE880C55ED040C751DF4FF880C95E39
:1059C000D0408601C701D80180930B1390930C132C
:1059D000A0930D13B0930E1310921313109214137F
:1059E00010921513109216138090001390900113CB
:1059F000A0900213B0900313A5019401B701C80150
:105A00000E947C6C18160CF060C1A5019401CB516A
:105A1000DF4F6881C55ED040C751DF4F7881C95ED6
:105A2000D040C6010E946F6A9B01AC01B701C8015A
:105A30000E941869881F8827881F80931713109267
:105A4000181381E08093191310925F1310916C1357
:105A5000112309F4BCC18091AF10811105C0C101AF
:105A60000E945802811163C10E946602D1C531E0D3
:105A700020E090E080E026CF123009F015C1992394
:105A8000A1F085E080932B1386E080932C13409146
:105A90003E1350913F136091401370914113E6E023
:105AA00015E020E080E091E09ACE882309F468C0F8
:105AB00040913E1350913F136091401370914113F8
:105AC00080902D1390902E13A0902F13B090301330
:105AD00073016201C818D908EA08FB08460157019A
