:100000000C9456020C947F640C9454640C942964F0
:100010000C94FE630C94D3630C94A8630C947D63DE
:100020000C9452630C9487020C9487020C940A651A
:100030000C9487020C9487020C9487020C9487021C
:100040000C9487020C9487020C9487020C9487020C
:100050000C9487020C9487020C9487020C9408631A
:100060000C9487020C94D4640C94AA640C948702B8
:100070000C9487020C9487020C9487020C948702DC
:100080000C9487020C9487020C9487020C948702CC
:100090000C9487020C9487020C9487020C948702BC
:1000A0000C9487020C9487020C9487020C948702AC
:1000B0000C9487020C9487020C9487020C9487029C
:1000C0000C9487020C9487020C9487020C9487028C
:1000D0000C9487020C9487020C9487020C9487027C
:1000E0000C9487020C94180B0C94AE090C94CD0858
:1000F0000C94D7080C94E1090C9449600C94F50910
:100100000C94180A0C94BF080C94810A0C94800B70
:100110000C94D1090C9441190C94854F0C945D19E1
:100120000C9413620C94AD080C94B2610C949C086E
:100130000C942C0A0C94BE0A0C9454190C94661955
:100140000C947B600C94ED600C944E190C941D1073
:100150000C9456620C944B190C94BD090C94BB087A
:100160000C94400A0C94E9180C94A7080C94E00A2B
:100170000C94D9090C94AF0A0C94B1080C94C908DA
:100180000C94B3090C948D650C9460190C94C528DB
:100190000C94B7080C9440200C9498080C94BB1F46
:1001A0000C9425100C9401600C9492080C94C508D2
:1001B0000C94D20A0C94894F0C94820A0C94D308A4
:1001C0000C94D2080C94A0080C9473610C947019D0
:1001D0000C940E0A0C94A4080C94FF090C94691951
:1001E0000C94220A0C94EB090C94BA1F0C94C709C6
:1001F0000C94874F0C94A6090C94834F0C94360AE8
:100200004E414E494E495459494E46CDCCCC3D0AFB
:10021000D7233C17B7D13877CC2B329595E6241FDE
:10022000B14F0A000020410000C84200401C462097
:10023000BCBE4CCA1B0E5AAEC59D74434F4D4D41BA
:100240004E445F52454A454354454400434F4D4D4B
:10025000414E445F4F4B002063616C5F7265636F7A
:1002600072645F76616C69643D002065785F7461DB
:1002700063685F7070723D002073685F74616368CB
:100280005F7070723D002065785F69646C655F61C6
:100290003D002073685F69646C655F613D002065A7
:1002A000785F6E6D5F7065725F613D002073685F9F
:1002B0006E6D5F7065725F613D002065785F73638E
:1002C000616C653D002065785F7A65726F3D002046
:1002D00073685F7363616C653D002073685F7A6566
:1002E000726F3D002076657269666965643D0047FE
:1002F000474D5F5245504F52542070726F66696C83
:10030000653D0043414C4942524154494F4E5F5272
:10031000455155495245445F4F5554505554535FCC
:10032000494E484942495445440043414C49425290
:100330004154494F4E5F5245434F52445F56345FDC
:100340004C4F41444544004D4154455249414C5F56
:1003500053454C454354494F4E5F524551554952C0
:100360004544002052454144592053455249414C8F
:100370005F544558545F4241434B454E4400206210
:100380006173653D005050522000000021002400A0
:1003900027002A002D003000330001010000040175
:1003A00007010A0100002200250028002B002E0072
:1003B0003100340002010000050108010B010000BA
:1003C00020002300260029002C002F00320000010D
:1003D00000000301060109010505050507050808D8
:1003E0000808020202020A0A0808040404040101BF
:1003F00001010101010103030303030303030407D4
:1004000007070C0C0C0C0C0C0C0C0202020206066A
:100410000606060606060B0B0B0B0B0B0B0B01025D
:100420001020200808102040102040800201020106
:1004300008040201010204081020408080402010BE
:100440000804020180040201804020100804020117
:10045000080402010102040810204080010204087F
:100460001020408000000A0B02090C0D0E08070343
:100470000401000000000000000000000000000077
:10048000000000000000000000000000000000006C
:100490001211100000000000000000000000000029
:1004A000000000000000000000008D6511241FBE48
:1004B000CFEFD1E2DEBFCDBF00E00CBF24E1A2E070
:1004C000B9E001C01D92AB3AB207E1F719E0A0E034
:1004D000B2E0E4E7FDEE00E00BBF02C007900D9232
:1004E000A230B107D9F712E0C6E5D2E000E006C0BD
:1004F00021970109802FFE010E948272C535D10724
:1005000080E00807A9F70E9497690C94B8760C94CC
:1005100000009091E31091110AC09091E610981399
:1005200006C09730A1F028F487E0963089F080E08B
:100530000895983089F09930D1F78091E510809333
:10054000E4101092E510813049F082E001C088E0AB
:100550008093E61081E0089589E0FACF81E0F8CF3A
:10056000FC018081882349F08181882331F08281D8
:10057000882319F083818111878108951092A01337
:100580001092A1131092A2131092A3131092A4130D
:100590001092A5131092A6131092A7131092A813ED
:1005A0001092A9131092AA1308958091E41081303B
:1005B00031F49091E610913049F080E007C082302C
:1005C000E1F781E09091E6109230B9F708959091AB
:1005D000E310911119C09091E410992311F089133F
:1005E00013C08093E4101092E510813059F082E03E
:1005F0008093E6100E94BE021092D3131092D4137F
:1006000081E0089581E0F4CF80E00895809178132F
:10061000882309F1809179138823E9F080917A1376
:100620008823C9F080917B138823A9F080917C13E3
:10063000882389F080917D13882369F080917E134F
:10064000882349F080918013882329F080918113B9
:1006500081118091821308954F925F926F927F92E1
:100660008F929F92AF92BF92CF92DF92EF92FF92C2
:100670000F931F93CF93DF938C015A01CB01039704
:100680008A3F934030F4C1E0CA0103978A3F934008
:1006900008F0C0E0D091D411DD2309F49CC02223DE
:1006A00009F499C0CC2309F497C090E080E00E943F
:1006B000866E2091C0113091C1114091C2115091AC
:1006C000C3110E94D86F2091C4113091C51140917F
:1006D000C6115091C7110E94E76E6B017C01B501F4
:1006E00090E080E00E94866E2091C8113091C9117F
:1006F0004091CA115091CB110E94D86F2091CC111A
:100700003091CD114091CE115091CF110E94E76EE2
:100710004B015C014090D0115090D1116090D211EA
:100720007090D311C092D511D092D611E092D7110A
:10073000F092D8118092D9119092DA11A092DB1127
:10074000B092DC11A7019601C501B4010E94D96FD6
:1007500020E030E040E05FE30E94E76E6093DD114F
:100760007093DE118093DF119093E011A501940145
:10077000C701B6010E94D86F9F776093E111709313
:10078000E2118093E3119093E4114092E5115092AD
:10079000E6116092E7117092E811C093E911D093CD
:1007A000EA1186E1E5EDF1E1D80101900D928A951B
:1007B000E1F7C801DF91CF911F910F91FF90EF906A
:1007C000DF90CF90BF90AF909F908F907F906F9071
:1007D0005F904F900895C0E0C12CD12C7601460166
:1007E000570198CF809177138093841380917E1363
:1007F0008093851380917F13809386138091831358
:100800008093871380917A1381118091791380935B
:1008100088130895CF93DF93EC0120E030E040E8A7
:100820005FE3688179818A819B810E94E571181656
:100830000CF04AC020E030E0A9016C817D818E81FE
:100840009F810E94E57118160CF03EC020E030E058
:1008500040E85FE3688579858A859B850E94E5711C
:10086000181694F58C859D85892B71F181E0809314
:100870003E138EE0FE01A0E3B3E101900D928A9554
:10088000E1F781E010923F13109240131092411350
:100890001092421310924313109244131092451376
:1008A0001092461310924713109248131092491356
:1008B00010924A1310924B1310924C1391E09093A4
:1008C0004D13DF91CF91089510923E1380E0DACF5F
:1008D000CF92DF92EF92FF920F931F93CF938C01F1
:1008E000FC01C489CC23B9F120E030E0A901648186
:1008F0007581868197810E94816E1816D4F520E05B
:1009000030E0A901F80164857585868597850E9488
:10091000816E181674F5F801C088D188E288F388D2
:1009200020E030E0A901C701B6010E94816E1816CF
:1009300004F52DEC3CEC4CE45DE3C701B6010E94EC
:10094000E5711816B4F085E1F801A0ECB1E1019071
:100950000D928A95E1F7C0937E130E94F203809175
:100960007E13CF911F910F91FF90EF90DF90CF906A
:100970000895C0E0F0CF1092931310925F1310927D
:10098000601310926113109262131092631310920D
:1009900064131092651310926613109267131092ED
:1009A00068131092691310926A1310926B131092CD
:1009B0006C131092711310927213109273131092A1
:1009C00074131092751310924D13109247131092D6
:1009D00048131092491310924A1310924B13EBE4F0
:1009E000F4E18AE0DF011D928A95E9F7EDE3F4E195
:1009F0008EE0DF011D928A95E9F71092901381E055
:100A00008093911308953F924F925F926F927F92DD
:100A10008F929F92AF92BF92CF92DF92EF92FF920E
:100A20000F931F93CF93DF9300D000D000D01F927D
:100A3000CDB7DEB79E838D83F091E3103090A01385
:100A4000EBE0FA30D1F1F93039F480918F13E9E01D
:100A5000811133C0EAE031C0E2E031102EC0F23043
:100A600049F580918E13E3E0811127C080918A13AC
:100A70009FEF980FE6E0923000F1E7E08330E9F075
:100A8000E8E08430D1F0E4E0F11117C080918513E3
:100A9000882371F080918713882351F0809180130F
:100AA000882331F080918113E0918913811105C071
:100AB000E0E003C0E5E0F430C9F68091B81390910E
:100AC000B913A091BA13B091BB13412C512C320130
:100AD0000097A105B10531F02A013B01481A590AD6
:100AE0006A0A7B0A8091BC139091BD13A091BE133A
:100AF000B091BF13812C912C54010097A105B10531
:100B000031F04A015B01881A990AAA0ABB0A80914E
:100B1000B0139091B113A091B213B091B313C12C43
:100B2000D12C76010097A105B10531F06A017B0156
:100B3000C81AD90AEA0AFB0A80919513882309F496
:100B400061C18091971390919813A0919913B091DE
:100B50009A138A019B01081B190B2A0B3B0B0F836D
:100B6000188729873A878091A113882309F44FC1F8
:100B70008091A3139091A413A091A513B091A613F3
:100B80008A019B01081B190B2A0B3B0B09831A8353
:100B90002B833C838091A213882309F43DC180916B
:100BA000A7139091A813A091A913B091AA13481B61
:100BB000590B6A0B7B0BAD81BE81EC931196FC93B4
:100BC00011978091E61012968C93129780918A1358
:100BD00013968C931397E0918B13F0918C131596C9
:100BE000FC93EE93149794E1E6E7F3E116960190F7
:100BF0000D929A95E1F790919413ED81FE81928F79
:100C000090918D13938F90919013948F9091911355
:100C1000958F90919213968F9091D313978FE09127
:100C2000BD11F091BE11AD81BE819196FC93EE9302
:100C3000909791E0E0910B11E53009F090E0ED81A3
:100C4000FE8192A39091C01393A344A255A266A2E1
:100C500077A280A691A6A2A6B3A6C4A6D5A6E6A60C
:100C6000F7A60F81188529853A8500AB11AB22AB19
:100C700033AB34AA09811A812B813C8105AB16ABB9
:100C800027AB30AF41AF52AF63AF74AF91E0843068
:100C900009F090E0AD81BE81DD969C93DD97FD016A
:100CA000FE968091D6139091D713A091D813B0914E
:100CB000D91380839183A283B383ED81FE81EE5BA0
:100CC000FF4F8091C5139091C613A091C713B091A7
:100CD000C81380839183A283B383ED81FE81EA5B95
:100CE000FF4F8091CD138083ED81FE81E95BFF4F43
:100CF0008091D4138083AD81BE81A85BBF4F8DE10D
:100D0000E3EEF3E101900D928A95E1F7AD81BE81AA
:100D1000AB59BF4F86E1E0E0F4E101900D928A9576
:100D2000E1F7AD81BE81A558BF4F88E0E6E1F4E16F
:100D300001900D928A95E1F7AD81BE81AD57BF4F0D
:100D40008FE1EEE1F4E101900D928A95E1F7AD813A
:100D5000BE81AE55BF4F8EE0EDE3F4E101900D9200
:100D60008A95E1F7AD81BE81A055BF4F8AE0EBE4E3
:100D7000F4E101900D928A95E1F7AD81BE81A65410
:100D8000BF4F8CE4E5E5F4E101900D928A95E1F71F
:100D9000ED81FE81EA5FFE4F8091A1149091A21433
:100DA000A091A314B091A41480839183A283B383F0
:100DB000ED81FE81E65FFE4F8091AC139091AD1303
:100DC000A091AE13B091AF1380839183A283B383BC
:100DD0008D819E812A960FB6F894DEBF0FBECDBFDF
:100DE000DF91CF911F910F91FF90EF90DF90CF9007
:100DF000BF90AF909F908F907F906F905F904F903B
:100E00003F9008951F82188619861A86ACCE1982E3
:100E10001A821B821C82BECE40E050E0BA01CBCECB
:100E2000CF92DF92EF92FF920F931F93CF938C019B
:100E30006A017B01E091E31088E0E89FF001112452
:100E4000EF56FB4FC481CC23B9F080918A138823DD
:100E500011F0833081F4C1E020E030E0A90160911D
:100E6000E3137091E4138091E5139091E6130E94CF
:100E7000E57118160CF0C0E0F801878190850097A5
:100E8000B1F4C11114C01092DC131092DD13109252
:100E9000DE131092DF131092E0131092E113CF9142
:100EA0001F910F91FF90EF90DF90CF9008952091C8
:100EB000DC132111F4CF892B11F4CC2381F381E0D1
:100EC0008093DC131092DD13C092DE13D092DF13F7
:100ED000E092E013F092E113E2CFAF92BF92CF9293
:100EE000DF92FF920F931F93CF93DF93CDB7DEB7BF
:100EF00064970FB6F894DEBF0FBECDBF8C01F090A3
:100F0000E3106AE0F61258C084E1A1E2B0E0AC0F51
:100F1000BD1F1D928A95E9F7FE01F19690E09E01B2
:100F20002B5C3F4F81919111892F982F2E173F07EE
:100F3000C9F729A13AA14AA55BA59FA5F801749616
:100F40006F01B8016E5D7E4F5B012115310509F01F
:100F500059C06BA1611156C06EA17FA1672B09F02A
:100F600051C068A579A5672B09F04CC04115510502
:100F700009F0B6C0911149C079E0F712A1C0811102
:100F800069C04DA95EA96FA978ADCE0181960E9476
:100F9000100784E1FE01B196D80101900D928A9567
:100FA000E1F74DA95EA96FA978ADC6010E940305BE
:100FB00081E0F501808373C0B9E0FB12ADCFFE0183
:100FC000319684E1DF011D928A95E9F78091E41062
:100FD0008823B1F080919413882391F080918B1332
:100FE00082FD0EC08091AB1381110AC08CA58C8745
:100FF00084E1DE01919601900D928A95E1F78CCF04
:1010000080E0F5CF992309F462C090914B149923A5
:1010100041F090915F139350452B19F4923008F0F2
:1010200059C091E0232B49F02EA13FA1232B91F42D
:10103000811110C0992309F451C080919013882325
:1010400049F080915F138350823020F40E940603A0
:10105000811192CF89E08093E31084E1F82EA1E220
:10106000B0E0AC0FBD1FEF2D1D92EA95E9F74DA939
:101070005EA96FA978ADCE0181960E941007FE018E
:10108000B196D80101900D92FA94E1F74DA95EA9AD
:101090006FA978ADC6010E940305D5011C92C80155
:1010A00064960FB6F894DEBF0FBECDBFDF91CF912F
:1010B0001F910F91FF90DF90CF90BF90AF90089558
:1010C0009AE0F9125ECF8111C5CF8CA558CF452B80
:1010D00009F0A7CF90E0232B09F0A6CF81E04CCFF9
:1010E000992309F49ECF91CF8150823108F05AC0E4
:1010F000E82FF0E08827E058F74F8F4F0C9482726A
:10110000A008A408920898089C08D208A708AD086F
:10111000B108B708BB08BF08C508C908D208CD0880
:10112000D308D708809180008F778093800008953E
:10113000809180008F7DF9CF80918000877FF5CFEF
:1011400084B58F7784BD089584B58F7DFBCF809162
:10115000B0008F778093B00008958091B0008F7DAC
:10116000F9CF809190008F778093900008958091BF
:1011700090008F7DF9CF80919000877FF5CF80918F
:10118000A0008F778093A00008958091A0008F7DAC
:10119000F9CF8091A000877FF5CF809120018F77D4
:1011A000809320010895809120018F7DF9CF809157
:1011B0002001877FF5CFCF93DF93282F30E0F9010F
:1011C000EC59FB4F8491F901E25EFB4FD491F90198
:1011D000E852FC4FC491CC23A1F081110E94740805
:1011E000EC2FF0E0EE0FFF1FE254FC4FA591B491FD
:1011F000EC91ED2381E090E009F480E0DF91CF9164
:10120000089580E090E0FACF1F93CF93DF93282FCB
:1012100030E0F901EC59FB4F8491F901E25EFB4F9C
:10122000D491F901E852FC4FC491CC23A9F0162FB8
:1012300081110E947408EC2FF0E0EE0FFF1FEC55B7
:10124000FC4FA591B4918FB7F894EC91111108C09F
:10125000D095DE23DC938FBFDF91CF911F9108954E
:10126000DE2BF8CFCF93DF9390E0FC01E25EFB4FE3
:10127000249188529C4FFC0184918823C9F090E00E
:10128000880F991FFC01E657FC4FA591B491FC0112
:10129000EC55FC4FC591D49161110DC09FB7F894E6
:1012A0008C91209582238C938881282328839FBF4B
:1012B000DF91CF910895623051F49FB7F8943C913B
:1012C000822F809583238C93E8812E2BEFCF8FB7CD
:1012D000F894EC912E2B2C938FBFEACF1F93CF93D2
:1012E000DF93182FEB0161E00E943209209739F457
:1012F00060E0812FDF91CF911F910C940409CF3FC3
:10130000D10511F461E0F5CFE12FF0E0EC59FB4F8E
:10131000E491E150E23108F0B3C0F0E08827EC56E8
:10132000F64F8F4F0C948272A609AE09B309BD091E
:10133000C709400AD109D909E109EB09F509FF09F3
:101340000E0A180A400A220A2C0A360A84B5806856
:1013500084BDC7BDDF91CF911F91089584B5806290
:1013600084BDC8BDF7CF80918000806880938000E5
:10137000D0938900C0938800EDCF80918000806277
:1013800080938000D0938B00C0938A00E3CF80913C
:101390008000886080938000D0938D00C0938C0083
:1013A000D9CF8091B00080688093B000C093B30023
:1013B000D1CF8091B00080628093B000C093B40020
:1013C000C9CF80919000806880939000D09399005D
:1013D000C0939800BFCF809190008062809390006E
:1013E000D0939B00C0939A00B5CF80919000886005
:1013F00080939000D0939D00C0939C00ABCF8091D0
:10140000A00080688093A0008091A0008F7B8093D3
:10141000A000D093A900C093A8009CCF8091A00009
:1014200080628093A000D093AB00C093AA0092CFBB
:101430008091A00088608093A000D093AD00C093FD
:10144000AC0088CF80912001806880932001D093E8
:101450002901C09328017ECF809120018062809372
:101460002001D0932B01C0932A0174CF80912001D9
:10147000886080932001D0932D01C0932C016ACF06
:10148000C038D1050CF03ECF33CF90917B00977FD1
:1014900090937B008653806480937C0080917A00D7
:1014A000806480937A0080917A0086FDFCCF8091E1
:1014B00078009091790008953FB7F8948091040ED8
:1014C0009091050EA091060EB091070E26B5A89B2F
:1014D00005C02F3F19F00196A11DB11D3FBFBA2FC6
:1014E000A92F982F8827BC01CD01620F711D811D86
:1014F000911D42E0660F771F881F991F4A95D1F70B
:1015000008950895AF92BF92CF92DF92EF92FF922B
:101510000F931F93CF93DF936C017B018B01040F1B
:10152000151FEB015E01AE18BF08C017D10759F0B7
:101530006991D601ED91FC910190F081E02DC601F9
:101540001995892B79F7C501DF91CF911F910F91E3
:10155000FF90EF90DF90CF90BF90AF900895FC0187
:10156000538D448D252F30E0842F90E0821B930B08
:10157000541710F0CF96089501970895FC01918DAE
:10158000828D981761F0A28DAE0FBF2FB11D5D96B1
:101590008C91928D9F5F9F73928F90E008958FEF53
:1015A0009FEF0895FC01918D828D981731F0828D07
:1015B000E80FF11D858D90E008958FEF9FEF08955E
:1015C000FC01918D228D892F90E0805C9F4F821BC2
:1015D00091098F739927089588E09EE00E94E00AA0
:1015E00021E0892B09F420E0822F0895FC01A48DCD
:1015F000A80FB92FB11DA35ABF4F2C91848D90E035
:1016000001968F739927848FA689B7892C93A08917
:10161000B1898C91837080648C93938D848D9813A1
:1016200006C00288F389E02D80818F7D8083089534
:10163000EF92FF920F931F93CF93DF93EC0181E022
:10164000888F9B8D8C8D98131AC0E889F9898081C9
:1016500085FF15C09FB7F894EE89FF896083E889FC
:10166000F98980818370806480839FBF81E090E0EE
:10167000DF91CF911F910F91FF90EF900895F62E7B
:101680000B8D10E00F5F1F4F0F731127E02E8C8D15
:101690008E110CC00FB607FCFACFE889F98980815A
:1016A00085FFF5CFCE010E94F60AF1CFEB8DEC0F4E
:1016B000FD2FF11DE35AFF4FF0829FB7F8940B8F77
:1016C000EA89FB8980818062CFCF0F931F93CF93EC
:1016D000DF938C01D0E0C0E0F801EC0FFD1F6491B6
:1016E000662341F088E09EE00E94180B892B11F0E0
:1016F0002196F2CFCE01DF91CF911F910F910895E6
:10170000CF93DF93EC01888D8823B9F0AA89BB8938
:10171000E889F9898C9185FD03C0808186FD0DC023
:101720000FB607FCF7CF8C9185FFF2CF808185FF44
:10173000EDCFCE010E94F60AE9CFDF91CF91089557
:1017400080E090E0892B29F00E94EC0A81110E9430
:10175000000080E090E0892B49F080E090E0892B48
:1017600029F00E94000081110E94000080E090E0BA
:10177000892B49F080E090E0892B29F00E9400003D
:1017800081110E94000080E090E0892B49F080E008
:1017900090E0892B29F00E94000081110C94000038
:1017A0000895682F660F692F661F81E090E06F3FF4
:1017B00011F490E080E00895CF92DF92EF92FF92D3
:1017C000CF93DF93D82F6A017B01C22F2223E1F050
:1017D000CB01BA010E94D10B892BA9F02DEC3CEC76
:1017E0004CEC5DE3C701B6010E94E57187FD0BC0BB
:1017F000C1E020E030E040E855E4C701B6010E94B6
:10180000816E18160CF4C0E0D330F9F030F4DD230B
:1018100069F0D230B9F0C0E00DC0DA30C9F0DB3089
:10182000D1F0D530C1F7C0937B1302C0C0937613BB
:101830000E94F2038C2FDF91CF91FF90EF90DF9009
:10184000CF900895C0937813F3CFC0937913F0CF5E
:10185000C0938013EDCFC0938113EACF2F923F92B4
:101860004F925F926F927F928F929F92AF92BF92B0
:10187000CF92DF92EF92FF920F931F93CF93DF935C
:10188000CDB7DEB76A970FB6F894DEBF0FBECDBFF7
:101890009A8F898F8B012D873E874F87588B8AE0DF
:1018A000A98DBA8D1D928A95E9F7FB01E35BFF4F85
:1018B00080819181A281B381E98DFA8D828793879E
:1018C000A487B587FB01EF5AFF4F80819181A281E8
:1018D000B381E98DFA8D86879787A08BB18BFB0149
:1018E000EB5AFF4F80819181A281B381E98DFA8DFE
:1018F000828B938BA48BB58BDB0197968C919797FA
:101900008823D1F198968C9198978823A9F19C9679
:101910004D905D906D907C909F97DA01C90184197C
:101920009509A609B70986839783A087B187FB012C
:1019300023893489458956892D833E834F8358876F
:10194000281739074A075B0790F583E0A98DBA8D00
:1019500015968C9312A6EB5BFF4F108211821282B8
:10196000138235971082FB0114AE15AE16AE17AE7A
:1019700040AE51AE62AE73AE898D9A8D6A960FB647
:10198000F894DEBF0FBECDBFDF91CF911F910F91B5
:10199000FF90EF90DF90CF90BF90AF909F908F908F
:1019A0007F906F905F904F903F902F90089581A50A
:1019B000882311F380AD91ADA2ADB3AD7301620187
:1019C000C81AD90AEA0AFB0A86859785A089B189CF
:1019D000C816D906EA06FB0608F44DC064AD75AD1D
:1019E00086AD97AD8288912CB12CA12C6815790514
:1019F0008A059B0508F43FC01801F1E42F0E311C45
:101A00000E94866E20EC31EE44E65CE40E94E76EB4
:101A10004B015C01D8016D917C9190E080E00E94C7
:101A2000866E69837A838B839C83C701B6010E948B
:101A3000866E9B01AC0169817A818B819C810E94B9
:101A4000E76E9B01AC01C501B4010E945C70F1011D
:101A5000608371838283938381E031978083D8018F
:101A6000D8964D925D926D927C92DB97F80114AE00
:101A700015AE16AE17AED801D096CD90DD90ED9094
:101A8000FC90D397C114D104E104F10409F47BC0A4
:101A90006D917C916115710509F475C090E080E04D
:101AA0000E94866E4B015C01C701B6010E94866EE2
:101AB0009B01AC01C501B4010E94E76E9B01AC0122
:101AC00060EC71EE84E69CE40E945C706983798727
:101AD0001C01F801E05CFF4F8081882309F458C0A5
:101AE00029813985A101F8016285738584859585F1
:101AF0000E94816E18160CF44BC0F801EF5BFF4F8B
:101B000020812983318139872280338082E0A98D29
:101B1000BA8D15968C93F80182A581113BC08981FD
:101B20009985D101EB5BFF4F80839183A283B383BF
:101B300081E0D8019A968C93F801E75BFF4F2D85E1
:101B40003E854F8558892083318342835383349760
:101B5000C080D180E280F38020E030E0A901C7019D
:101B6000B6010E94816E87FF03C0C12CD12C760183
:101B7000A98DBA8DCD92DD92ED92FC92139781E002
:101B800014968C93F9CE19821986212C312CA1CF71
:101B900081E0BDCFE75BFF4F80819181A281B3815E
:101BA000F801238D348D458D568D2D8B3E8B4F8BBB
:101BB000588F0097A105B10589F04D845E846F842C
:101BC0007888481A590A6A0A7B0A2D813E814F811A
:101BD0005885241535054605570520F44D885E883F
:101BE0006F88788CC301B2010E94866E698B7A8BF4
:101BF0008B8B9C8B20E034E244E759E40E945C70BC
:101C0000D8015F962D913D914D915C9192970E94E4
:101C1000E76E4B015C01F801EB5BFF4FC080D180A8
:101C2000E280F380AC019B01C701B6010E94D86F2E
:101C30006D837A878B879C8729813985A1010E94D2
:101C4000E5711816BCF0A5019401C701B6010E9408
:101C5000D96F6D837A878B879C8729813985A1010C
:101C60000E94816E87FD06C0B981BD83E985EA8740
:101C70002B863C865801F5E4AF0EB11C6D897E8938
:101C80008F89988D640D751D861D971D0E94866E27
:101C90009B01AC0169897A898B899C890E945C705F
:101CA0002B013C01A70196016D817A858B859C856E
:101CB0000E94D86F9B01AC01C301B2010E94E76E84
:101CC000A70196010E94D96FD5016D937D938D93E5
:101CD0009C93139731CF4F925F926F927F928F9226
:101CE0009F92AF92BF92CF92DF92EF92FF920F93AB
:101CF0001F93CF93DF9300D000D0CDB7DEB79A8388
:101D00008983FC0117A11123B9F000A501112CC092
:101D100081E080A744A755A766A777A740AF51AF3A
:101D200062AF73AFE35BFF4F81E090E0A0E0B0E013
:101D300080839183A283B383812F26960FB6F89474
:101D4000DEBF0FBECDBFDF91CF911F910F91FF90EE
:101D5000EF90DF90CF90BF90AF909F908F907F904B
:101D60006F905F904F900895E981FA8184A595A5C1
:101D7000A6A5B7A56A017B01C81AD90AEA0AFB0A17
:101D80008789908DA18DB28DC816D906EA06FB060B
:101D900090F4EF5AFF4FFA83E983408151816281C9
:101DA00073814F5F5F4F6F4F7F4F408351836283DB
:101DB000738310E0C1CF29813A813E832D83F901DD
:101DC00044A755A766A777A7E35BFF4F8081918162
:101DD000A281B3810196A11DB11D80839183A2834D
:101DE000B383F90184AD95ADA6ADB7AD0196A11D44
:101DF000B11D84AF95AFA6AFB7AFC114D104E10454
:101E0000F10409F452C0608171816115710509F412
:101E10004CC090E080E00E94866E4B015C01C701DF
:101E2000B6010E94866E9B01AC01C501B4010E94FF
:101E3000E76E9B01AC0160EC71EE84E69CE40E94CD
:101E40005C704B015C0120E030E040E05FE3ED813D
:101E5000FE8162817381848195810E94E76EA50174
:101E600094010E94816E181624F120E030E040EACF
:101E70005FE3ED81FE8166817781808591850E9497
:101E8000E76EA50194010E94E57187FD12C0ED8106
:101E9000FE8111A5111121C0ED81FE81C0AAD1AA38
:101EA000E2AAF3AA81E081A715C0812C912C5401EC
:101EB000CACFED81FE81EB5AFF4F80819181A281D3
:101EC000B3810196A11DB11D80839183A283B38349
:101ED000ED81FE8113A6102F2FCFED81FE8180A909
:101EE00091A9A2A9B3A946015701C816D906EA06C5
:101EF000FB0610F44C015D0120E030E0A9018114E3
:101F00009104A104B104E9F08C159D05AE05BF054F
:101F100070F5A7019601281B390B4A0B5B0BCA0110
:101F2000B9010E94866E2B013C01C501B4010E94DB
:101F3000866E9B01AC01C301B2010E945C709B01E3
:101F4000AC01ED81FE8183A094A0A5A0B6A0C5013F
:101F5000B4010E94E571ED81FE8187FD0FC0C0AA2A
:101F6000D1AAE2AAF3AA81E081A713A6E5CEBC011B
:101F7000CD016C197D098E099F09D3CF03A50023DC
:101F8000E1F184A995A9A6A9B7A926013701C81628
:101F9000D906EA06FB0610F42C013D0120E030E0F2
:101FA000A901411451046104710409F18C159D05C6
:101FB000AE05BF05D8F5A7019601281B390B4A0BC2
:101FC0005B0BCA01B9010E94866E69837A838B8399
:101FD0009C83C301B2010E94866E9B01AC016981A2
:101FE0007A818B819C810E945C709B01AC01C50150
:101FF000B4010E94E57187FF4FCFED81FE81C4AA35
:10200000D5AAE6AAF7AA81E083A7EB5AFF4FFA8385
:10201000E98340815181628173814F5F5F4F6F4FD0
:102020007F4F408351836283738386CEBC01CD0191
:102030006C197D098E099F09C6CF0E945C0AAB010D
:10204000BC0183E59AE00C946B0E0E945C0AAB0124
:10205000BC018AEF99E00C946B0EFC0113A214A250
:1020600015A216A217A210A611A612A613A614A6B0
:1020700015A616A617A610AA11AA12AA13AA14AA80
:1020800015AA16AA178E10A211A212A208952F92B5
:102090003F924F925F926F927F928F929F92AF92F8
:1020A000BF92CF92DF92EF92FF920F931F93CF9345
:1020B000DF93CDB7DEB7A5970FB6F894DEBF0FBE9E
:1020C000CDBF9A8389831B014901B42E5B8327010D
:1020D0003801CB86AC86FC01349686E1DF011D9287
:1020E0008A95E9F7FB01668D662319F0FC85F111ED
:1020F00047C050E040E030E020E0852F942FA32F30
:10210000B22FE981FA8180839183A283B3834086D1
:10211000518662867386662369F0BC85BB2351F0C5
:1021200020E030E0A901B4018B2D9B810E94816EDB
:1021300081112BC0C1010E942D10AA24A394EC850B
:10214000AE26A981BA815296AC9289819A81A596D0
:102150000FB6F894DEBF0FBECDBFDF91CF911F91B8
:102160000F91FF90EF90DF90CF90BF90AF909F9036
:102170008F907F906F905F904F903F902F90089539
:10218000522F492D3B2D2B81B8CFF101878D811125
:102190000AC081E0878F2BAD3CAD4DAD5EAD23A76E
:1021A00034A745A756A7F10183A594A5A5A5B6A573
:1021B000CBACDCACEDACFEACC81AD90AEA0AFB0A1F
:1021C000C701B6010E94866E6F83788789879A87D8
:1021D000D10152966D917C9190E080E00E94866ED4
:1021E0009B01AC016F81788589859A850E945C701E
:1021F0006D877E878F87988B2DEC3CEC4CE45DE3FC
:102200000E94816E87FD7BC220E030E040E85FE302
:102210006D857E858F8598890E94E571181644F436
:1022200020E030E040E85FE32D873E874F87588B02
:102230002D853E854F855889B4018B2D9B810E9449
:10224000E76E4B015C01A981BA8114968D929D9233
:10225000AD92BC92179720E030E0A9010E94E57191
:1022600087FD56C220E030E040E85FE3298F3A8FD7
:102270004B8F5C8FE894B7F8A3019201698D7A8D3A
:102280008B8D9C8D0E94E76E9B01AC01C501B40152
:102290000E94D86F698B7A8B8B8B9C8BA981BA81BA
:1022A0001C966D937D938D939C931F97BB85BB2349
:1022B00059F081E0F10180A32BAD3CAD4DAD5EAD99
:1022C00027A730AB41AB52ABF10180A1882361F06D
:1022D00087A590A9A1A9B2A9CBACDCACEDACFEACB2
:1022E000C81AD90AEA0AFB0AFB85F1110DC021E0E0
:1022F0002B87F10184899589A689B789C816D906E3
:10230000EA06FB0608F01B86EB85A981BA81529686
:10231000EC93529781E0E827EBA35396EC93D1011D
:1023200091968C9191979AE0C92E97EDD92E93EAC8
:10233000E92E9CE3F92E882399F197968D919D9132
:102340000D90BC91A02D2BAD3CAD4DAD5EAD281BCD
:10235000390B4A0B5B0BCA01B9010E94866E20E063
:1023600030E04AE754E40E945C706B017C012FE688
:1023700032E143E85AE30E94816E87FDD2C12DEC21
:102380003CEC4CEC5DE3C701B6010E94E571181608
:102390003CF42DECC22E2CECD22EED2C2DE3F22EA3
:1023A0008BAD9CADADADBEADF10187A390A7A1A74C
:1023B000B2A781E081A324813581468157812B8397
:1023C0003C834D835E8340805180628073801085A2
:1023D000612F70E090E080E00E94866E6F8F78A39E
:1023E00089A39AA3F1010185202F30E03E8F2D8F24
:1023F000412F50E05DA34CA3A5019401C301B2019C
:102400000E94816E87FF96C1A3019201C501B401AC
:102410000E94D86F4B015C01A30192016B817C810A
:102420008D819E810E94D86F9B01AC01C501B401D2
:102430000E945C704B015C016D8D7E8D8CA19DA115
:10244000681B790B072E000C880B990B0E94886E75
:102450009B01AC01C501B4010E94E76E2F8D38A12C
:1024600049A15AA10E94D96F4B01B82EA92E602F05
:1024700070E090E080E00E94866E3B018C016D8DE3
:102480007E8D719561957109072E000C880B990B53
:102490000E94886E6D8B7E8B8F8B988FA701960123
:1024A00069897A898B899C890E94E76ED10193960C
:1024B0002D913D914D915C9196970E94D96F6B0142
:1024C0007C019B01AC016D897E898F89988D0E946A
:1024D000E571181664F09601A701B301C8010E94C6
:1024E000816E87FF2CC16D8A7E8A0F8B188FF10158
:1024F000228533854485558569897A898B899C89AC
:102500000E94E76E6B017C0123962CAD3DAD4EAD74
:102510005FAD2397B4018B2D9A2D0E94D96F9B013B
:10252000AC01C701B6010E94D96F6B017C01D101DA
:102530001E962D913D914D915C9151976D897E89AB
:102540008F89988D0E94E76E9B01AC01C701B6018F
:102550000E94D96F6B837F83582E492E20E030E094
:10256000A9010E94816EECA1FDA16F01FF0FEE0891
:10257000FF0887FDE9C02B813F81452D542DB30114
:10258000C8010E94816E87FD04C06B807F80052D8D
:10259000142DC701B6010E94886E4B015C0120E03A
:1025A00030E0A901B301C8010E94E571181644F496
:1025B000A5019401B301C8010E94816E87FDC9C0C5
:1025C000C701B6010E94886E6B017C012D8D3E8D86
:1025D000B901330F880B990B0E94886E4B015C0187
:1025E0002B813F81452D542DC701B6010E94E57115
:1025F00087FF0CC031E03C87A50194016B817F818E
:10260000852D942D0E94E57187FD1C86EC85A9819E
:10261000BA815496EC93A50194016B817F81852D3D
:10262000942D0E94E57187FD0CC020E030E0A901E7
:1026300069897A898B899C890E94E57118160CF446
:102640008DC02B813F81452D542DC701B6010E94BD
:10265000E57187FD0BC020E030E0A90169897A8926
:102660008B899C890E94816E87FD78C0FB85FF2342
:1026700009F478C08D899E89AF89B88DF10183A353
:1026800094A3A5A3B6A320E030E040E05FE3B3014C
:10269000C8010E94D96F298D3A8D4B8D5C8D0E94A7
:1026A000E76E0E940A71A981BA8151967C936E935C
:1026B000509720E030E040E85FE36D857E858F85B0
:1026C00098890E94E57187FD11C0BC85BB2371F01C
:1026D00069897A898B899C899F77F101228D338D55
:1026E000448D558D0E94E57187FF41C0D1019296BE
:1026F0001C92F10113AA14AA15AA16AA26CD8DECD4
:102700009CECACE4BDE38D879E87AF87B88B90CD02
:1027100080E090E0A0E8BFEB898F9A8FAB8FBC8FF1
:10272000A9CD8FE6C82E82E1D82E83E8E82E8AE371
:10273000F82E36CE8F8C98A0B9A0AAA098CECD8ABC
:10274000DE8AEF8AF88ED3CE612C712C00E010E087
:1027500037CF6F8C78A009A11AA132CFFBA1FF233C
:1027600009F491CF612C712C00E010E08CCFD101E5
:1027700092968C91929781110EC081E092968C93E3
:1027800092972BAD3CAD4DAD5EADD3962D933D9361
:102790004D935C93D697F10183A994A9A5A9B6A9F5
:1027A0002BAD3CAD4DAD5EAD281B390B4A0B5B0B21
:1027B000DA01C901E981FA81868B978BA08FB18FED
:1027C000F101408D518D70E060E021E084179507A4
:1027D000A607B70708F420E0A981BA8155962C9383
:1027E000B4CC2F923F924F925F926F927F928F92D2
:1027F0009F92AF92BF92CF92DF92EF92FF920F9390
:102800001F93CF93DF93CDB7DEB76E970FB6F894D3
:10281000DEBF0FBECDBF4C018B01742EA0900B11FB
:10282000DC01AC9211964C93119780910C11129689
:102830008C93B0900A11C12CD12C7601BB20E1F110
:10284000FB01C480D580E680F7802090E9103090AD
:10285000EA104090EB105090EC10A2019101C701DA
:10286000B6010E94E57118160CF0D7C0A2019101C3
:10287000C701B6010E94D86F2091ED103091EE1083
:102880004091EF105091F0100E94E76E2091F110EE
:102890003091F2104091F3105091F4100E94E76EC5
:1028A0002091F5103091F6104091F7105091F810EA
:1028B0000E94E76E6B017C01D4011396CD92DD92EC
:1028C000ED92FC921697D80118962D913D914D915D
:1028D0005C911B972B8F3C8F4D8F5E8F672D70E027
:1028E00090E080E02FEF2A0D223020F0B4E0312C70
:1028F000AB1297C033243394711001C0312CE4E043
:10290000AE128FC00E94866E2B013C0177FA709444
:1029100077F870948B8D9C8DAD8DBE8DBF779C01AB
:10292000AD0150582B8F3C8F4D8F5E8FBB2009F42B
:1029300086C0A090E710B090E810A114B10409F48B
:102940007EC020E030E040EE51E4C701B6010E94B5
:10295000E76ED50112962D913D914D915C911597A1
:102960000E945C709F938F937F936F93F801838194
:102970008F9382818F9381818F9380818F93A32CFA
:10298000C684EB8CFC8C0D8D1E8DA30192016EE133
:1029900071E1CE0101960E94471089899A89D4017C
:1029A00018969C938E9317978B8919968C931997E9
:1029B0008E891A968C931A970FB6F894DEBF0FBEC5
:1029C000CDBF332081F08C89882369F085E0809326
:1029D0000B1110921D118C9311961C921197189641
:1029E0001C921E921797C4016E960FB6F894DEBF24
:1029F0000FBECDBFDF91CF911F910F91FF90EF9050
:102A0000DF90CF90BF90AF909F908F907F906F900E
:102A10005F904F903F902F90089560E070E0CB0161
:102A20002BCF0E94866E2B013C018B8D9C8DAD8D32
:102A3000BE8DBF778B8F9C8FAD8FBE8F77CF60E0C1
:102A400070E080E090E08ECFCF92DF92EF92FF9225
:102A50000F931F93CF93DF938C01EB01C880D98034
:102A6000EA80FB8020E030E0A901C701B6010E94A6
:102A7000E57118160CF05BC02C813D814E815F81A1
:102A8000C701B6010E94816E87FF51C088858823E7
:102A900009F44DC09985891708F049C020E030E05D
:102AA000A9016A857B858C859D850E94E57187FDDE
:102AB0003EC020E030E0A9016E857F858889998934
:102AC0000E94E57187FD33C08A899B89892B79F142
:102AD0008C899D89AE89BF89892B8A2B8B2B39F1F3
:102AE000888D998D892B19F120E030E0A9016A8D3C
:102AF0007B8D8C8D9D8D0E94E5711816C4F481E04C
:102B0000F801868F8EE1FE01D80101900D928A9521
:102B1000E1F7C8010E942D10F801868DDF91CF9159
:102B20001F910F91FF90EF90DF90CF900895F801E3
:102B3000168EEFCFCF92DF92EF92FF920F931F93FB
:102B4000CF93DF93CDB7DEB76E970FB6F894DEBFA5
:102B50000FBECDBF8C01FC01C080D180E280F3802C
:102B600020E030E040E85FE3C701B6010E94E57174
:102B700018160CF037C1F801248135814681578140
:102B8000C701B6010E94816E87FF2CC1F801C48481
:102B9000D584E684F784A7019601608571858285D6
:102BA00093850E94E57118160CF01CC120E030E0FE
:102BB000A901C701B6010E94E57118160CF012C1F7
:102BC00020E030E0A901F801648975898689978938
:102BD0000E94E57187FD06C120E030E0A901F801FF
:102BE000608D718D828D938D0E94E57187FDFAC095
:102BF000F801948D858D981708F0F4C0868D978D17
:102C0000892B09F4EFC080A191A1892B09F4EAC0B6
:102C1000C2A0D3A0E4A0F5A020E030E040E05FE354
:102C2000C701B6010E94E57187FDDCC023E333E3F1
:102C300043E75FE3C701B6010E94816E18160CF4EA
:102C4000D1C0F801C6A0D7A0E0A4F1A420E030E0F4
:102C5000A901C701B6010E94E57118160CF0C2C0A7
:102C6000F80122A533A544A555A5C701B6010E94C8
:102C7000816E87FFB7C020E030E0A901F80166A5AA
:102C800077A580A991A90E94E57187FDABC020E0DE
:102C900030E0A901F80162A973A984A995A90E944D
:102CA000E57187FD9FC0F80186A997A9A0ADB1ADD8
:102CB000892B8A2B8B2B09F495C081E08093E0123D
:102CC00080E4A0EAB2E101900D928A95E1F7F80163
:102CD00086A197A1A0A5B1A589839A83AB83BC8364
:102CE00082A593A5A4A5B5A58D839E83AF83B88740
:102CF000848D8987858D8A8786A597A5A0A9B1A986
:102D00008B879C87AD87BE8782A993A9A4A9B5A903
:102D10008F87988BA98BBA8B868D978D9C8B8B8B8D
:102D200086A997A9A0ADB1AD8D8B9E8BAF8BB88FC7
:102D300082AD93AD9A8F898F84AD95ADA6ADB7ADB9
:102D40008B8F9C8FAD8FBE8FBE016F5F7F4F89EFE2
:102D500092E10E9424158093E0121092E1121092E9
:102D6000E2121092E3121092E4121092E512109205
:102D7000E6121092E7121092E8121092E9121092E5
:102D8000EA121092EB121092EC121092ED121092C5
:102D9000EE121092EF121092F0121092F1121092A5
:102DA000F2121092F3121092F4121092F512109285
:102DB000F6121092F7121092F81289EF92E10E9427
:102DC0002D108091E0126E960FB6F894DEBF0FBE04
:102DD000CDBFDF91CF911F910F91FF90EF90DF90CA
:102DE000CF9008951092E012B8CF8F929F92AF9239
:102DF000BF92CF92DF92EF92FF920F931F93CF93E8
:102E0000DF93CDB7DEB76E970FB6F894DEBF0FBE77
:102E1000CDBF8C01FC01C080D180E280F38020E036
:102E200030E040E85FE3C701B6010E94E571181683
:102E30000CF0F4C020E030E040E85FE3F80164818A
:102E40007581868197810E94E57187FDE7C0F80151
:102E500080A091A0A2A0B3A0A50194016085718576
:102E6000828593850E94E57118160CF0D7C020E08A
:102E700030E0A901C501B4010E94E57118160CF0FB
:102E8000CDC020E030E0A901F80164857585868514
:102E900097850E94E57187FDC1C020E030E0A9015F
:102EA000F80160897189828993890E94E57187FDA3
:102EB000B5C0F80194898589981708F0AFC0868954
:102EC0009789892B09F4AAC0808D918D892B09F4EB
:102ED000A5C0828D938D892B09F4A0C020E030E03D
:102EE000A901648D758D868D978D0E94E5711816E8
:102EF0000CF094C02BED3FE049E450E4C701B6016B
:102F00000E94E76E6B017C0181E08093191288E2D8
:102F1000F801A1EFB1E101900D928A95E1F7F80176
:102F200080A191A1A2A1B3A189839A83AB83BC8321
:102F300080859185A285B3858D839E83AF83B88775
:102F40008489898785898A8724853585468557853B
:102F5000C701B6010E94E76E20E030E040E752E48E
:102F60000E945C706B877C878D879E87F801208923
:102F7000318942895389C701B6010E94E76E20E07A
:102F800030E040E752E40E945C706F87788B898B59
:102F90009A8BF801868997899C8B8B8B808D918D7C
:102FA000B0E0A0E08D8B9E8BAF8BB88F828D938D20
:102FB0009A8F898F20E030E040E752E4648D758D70
:102FC000868D978D0E94E76EA70196010E945C7026
:102FD0006B8F7C8F8D8F9E8FBE016F5F7F4F8AE1DD
:102FE00092E10E942415809319128AE192E10E94D5
:102FF0002D10809119126E960FB6F894DEBF0FBE99
:10300000CDBFDF91CF911F910F91FF90EF90DF9097
:10301000CF90BF90AF909F908F900895109219120B
:10302000E4CF8F929F92AF92BF92CF92DF92EF92B6
:10303000FF920F931F93CF93DF93CDB7DEB76E97B9
:103040000FB6F894DEBF0FBECDBF8C01FC0180A18E
:10305000882309F46AC0C080D180E280F38020E038
:1030600030E0A901C701B6010E94E57187FD76C075
:1030700020E030E0A901F8016481758186819781A3
:103080000E94E57118160CF069C020E030E0A9013B
:10309000F80160857185828593850E94E571181617
:1030A0000CF05CC0F80184849584A684B78420E089
:1030B00030E0A901C501B4010E94E57118160CF0B9
:1030C0004DC020E030E040E85FE3C501B4010E945C
:1030D000816E18160CF442C0F8012489358946899E
:1030E0005789C701B6010E94816E87FF37C0809162
:1030F0000B11811133C081E2F801A9EEB0E101901A
:103100000D928A95E1F78EE1E0E3F2E0DE0111969F
:1031100001900D928A95E1F7BE016F5F7F4F8EE1BE
:1031200091E10E94241580930A11809377130E94E5
:10313000F203809177136E960FB6F894DEBF0FBE40
:10314000CDBFDF91CF911F910F91FF90EF90DF9056
:10315000CF90BF90AF909F908F90089580E0E5CF83
:10316000FC018081882349F08181882331F08281AC
:10317000882319F08381811187810895EF92FF924E
:103180000F931F93CF93DF93C82FFB01E080E110D3
:1031900009C08AE08093E31081E0CA3009F46AC074
:1031A00080E068C0D091E310DB30D0F7ED2FF0E085
:1031B0008827E252F74E8F4F0C948272E91841191A
:1031C0004E194B1954195D194E1960196619691970
:1031D00070198C2F877F8150823010F0C43001F736
:1031E0008091E4108823E1F28B01FF24FA94FC0E15
:1031F000F2E0FF1510F4C73081F40E94D502882355
:1032000079F282E08F1518F4C73009F06EC0C8015A
:103210000E94B018882309F4C3CF8C2F8B7F833092
:1032200069F4F8018481882309F4BACF8581882361
:1032300009F4B6CF8085882309F4B2CFD950D230B3
:1032400038F4C11105C0F8018681882309F4A8CF9C
:10325000C093E31088E0C89FF0011124EF56FB4FA4
:103260008081882309F43FC09181911199CF928187
:10327000911196CFDF91CF911F910F91FF90EF9019
:1032800008958C2F8D7F09F4ABCF87EF8C0F8230A0
:1032900008F4A6CF85CFC53009F4A2CF89EF8C0FF3
:1032A000843008F07DCF9CCFCC2309F499CF88EFF0
:1032B0008C0F833008F494CF73CFC63031F790CFA2
:1032C000C33009F48DCFC53091F78ACFC111DDCF5E
:1032D00087CFCC2309F484CFCA3009F061CF80CFE7
:1032E000C1115ECF7DCF8E2DC5CFC33009F0A6CFE3
:1032F00098CFCF93DF93EC010E94BE0210920B1186
:103300001092E8101092E71010921D118EE191E1D9
:103310000E942D101092901381E0809391131092CF
:103320008D1310928E138091E310813031F4BE0121
:1033300080E0DF91CF910C94BE18843091F480919D
:10334000E6108350833030F488E08093E31083E00C
:103350008093E6101092D3131092D413DF91CF9183
:1033600008958823D9F389508230C0F3BE0188E0E4
:10337000E0CFCF92DF92EF92FF920F931F93CF9304
:10338000C0917713CC2309F457C0C0917613CC2396
:1033900009F452C0C0917F13CC2309F44DC0209191
:1033A000A013211155C06A017B018C010E94B0025B
:1033B000C82F882309F440C08091E310811148C0D0
:1033C0000E94D502C82F8823B9F18091E410823081
:1033D000E1F18BE294E0C0910A11CC2369F1F8018C
:1033E000C781CC2349F120910B11253089F19093AD
:1033F000E8108093E71081E080930B1110920C117C
:1034000010921D11C0921111D0921211E09213115D
:10341000F0921411B8010E94BE18C82F81110CC07F
:1034200010920B111092E8101092E71010921D11DB
:103430008EE191E10E942D108C2FCF911F910F9161
:10344000FF90EF90DF90CF9008958EE594E0C3CF8A
:10345000C0E0F2CFE0918B13F0918C13309741F4E0
:103460002093A1143093A2144093A3145093A41456
:10347000E82BF92BF0938C13E0938B13109290139D
:1034800081E08093911390918A13913011F481E03F
:10349000089580938A132093AC133093AD13409317
:1034A000AE135093AF1385E00E94BE188111EFCF89
:1034B00095E090938A1399E09093E3100895CF9349
:1034C000DF93D82F8091E31081111BC0CB010E94A4
:1034D000B018C82F882389F08091E410882389F0E0
:1034E000D81779F0D093E51083E08093E6100E941E
:1034F000BE021092D3131092D4138C2FDF91CF9170
:103500000895C0E0FACFFC0110821182128213826A
:1035100014821582168217821086118612861386EF
:103520001486158616861786108A118A128A138ABF
:103530000895CF93DF93FC01E35BFF4FC081CC2361
:1035400031F13996C081CC2311F13196C081CC2361
:10355000F1F0EC01399720E030E046E953E4608176
:103560007181828193810E94E57187FD0FC0FE0108
:10357000EE5AFF4FC1E020E030E046E953E46081BD
:103580007181828193810E94E57187FDC0E08C2F5B
:10359000DF91CF910895CF92DF92EF92FF92CF9378
:1035A000DF93EC018091E310823041F080E0DF9105
:1035B000CF91FF90EF90DF90CF90089580918D1381
:1035C0008823A1F380918E13882381F38C81882333
:1035D00069F38D81882351F380917E13882331F321
:1035E00080918313882311F36A017B010E940603F3
:1035F0008823E1F2CE010E94991A8823B9F2CE0104
:103600000E94B002882391F2BE0187E00E94BE189A
:10361000882361F210928D1310928E1393E0909391
:103620008A131092901391E0909391131092C0130B
:103630001092B8131092B9131092BA131092BB13D0
:103640001092BC131092BD131092BE131092BF13B0
:10365000C092B013D092B113E092B213F092B313B0
:103660001092B4131092B5131092B6131092B713B0
:103670009ECF0F931F93CF93FC01C489CC2381F17C
:103680008C012FE832EC45EF5CE360897189828917
:1036900093890E94816E181614F120E030E040EE0C
:1036A0005FE3F80160857185828593850E94D86FFC
:1036B0009F772DEC3CEC4CE45DE30E94816E181684
:1036C00074F0C1E02DEC3CEC4CE45DE3F801648562
:1036D0007585868597850E94816E18160CF4C0E06A
:1036E0008C2FCF911F910F9108950F931F93CF931C
:1036F000DF93CDB7DEB766970FB6F894DEBF0FBE87
:10370000CDBF8C01FC0145AD56AD63AD74AD27ADA9
:10371000CE0101960E942C0380918A13843061F0BF
:1037200080E066960FB6F894DEBF0FBECDBFDF9186
:10373000CF911F910F910895C8010E94B002882374
:1037400079F3C8010E94991A882351F3F801858101
:10375000882331F30E940603882311F380915F13BD
:1037600083508230E8F6F801E65AFF4F80818111DC
:10377000D7CF8091FF13882399F28091FA1381119A
:10378000CFCF80910814882359F2CE0101960E9470
:10379000391B882329F2B80183E00E94BE188823D0
:1037A00009F4BECF10928C1310928B1310929513C4
:1037B0001092961310929B1310929C1310929D13CB
:1037C00010929E1310929F1391E090939013109279
:1037D000911310928A13A5CFAF92BF92CF92DF922E
:1037E000EF92FF921F93CF93DF93EC015C0182E392
:1037F000A80EB11C1D851123F9F08E85811127C0FB
:10380000C984DA84EB84FC8420E030E040EA51ECA7
:10381000C701B6010E94816E87FD19C020E030E02B
:1038200046E953E4C701B6010E94E57118167CF021
:103830002A96CA15DB05F1F6812FDF91CF911F91F2
:10384000FF90EF90DF90CF90BF90AF90089510E081
:10385000F3CF0F931F93CF930091C1131091C21315
:103860002091C3133091C413401B510B620B730B97
:10387000403C544D6140710508F473C08C012FE643
:1038800032E143E85AE36091C5137091C613809109
:10389000C7139091C8130E94D96F20E030E040E038
:1038A00052E40E94E57187FD5CC0C091D213CC2325
:1038B000C9F0C091CD13CC23A9F0C0910814CC233A
:1038C00089F0C0910914C1114CC0809187138823DD
:1038D00071F0C8010E94991A882349F0F801848187
:1038E00081111AC08C2FCF911F910F910895809153
:1038F0008B1390918C13846090938C1380938B1313
:1039000085E080938A131092901381E08093911345
:1039100089E08093E310E6CFC8010E94EC1B882366
:1039200001F1C8010E94B0028823D9F02091BD1195
:103930003091BE11232BB1F69091E310943091F6A3
:103940009091E610953071F698E09093E31096E030
:103950009093E6101092D31391E09093D413C82F54
:10396000C1CFC0E0BFCFCF92DF92EF92FF92CF9353
:10397000DF93EC018091D313882309F465C0809113
:103980008713882309F460C080917813882309F491
:103990005BC06A017B01CE010E94991A882309F459
:1039A00053C0CE010E94EC1B882309F44DC0CE0108
:1039B0000E94B002882309F447C08091E31084304C
:1039C00009F049C08091E610843009F044C0CE016E
:1039D0000E94B0188823C1F18C818823A9F195E059
:1039E0009093E610C092C113D092C213E092C31319
:1039F000F092C4131092C5131092C6131092C713FD
:103A00001092C8134091041450910514609106144B
:103A1000709107144093C9135093CA136093CB134A
:103A20007093CC13FE01E559FF4F9081992319F053
:103A3000C45BDF4F98819093CD1391E09093D213A4
:103A40009093D3131092D413DF91CF91FF90EF9006
:103A5000DF90CF90089580E0F7CFCF93DF93EC0114
:103A600080918713882381F180918013882361F1ED
:103A700080918113882341F1CE010E94EC1B8823A1
:103A800019F1CE010E94B0028823F1F09091E31069
:103A900091111DC09091E6109330C9F49091E410FB
:103AA0009923A9F09091E510992389F09091A013A2
:103AB00091110DC092E09093A01310928D1310926B
:103AC000901391E090939113DF91CF91089580E04E
:103AD000FBCF8F929F92AF92BF92DF92EF92FF92B5
:103AE0000F931F93CF93DF93EC01D62E7C0104E05C
:103AF00011E0112339F1D7011D961C911D97112357
:103B000009F11E961C911E9711118EC019968D9069
:103B10009D90AD90BC901C9720E030E040EA51ECC5
:103B2000C501B4010E94E57187FD0CC020E030E8BA
:103B30004EE853E4C501B4010E94816E182F111F95
:103B40001127111F0150BAE0EB0EF11C0111D1CF6A
:103B50008D81882309F1809185138823E9F0FE0186
:103B6000E85AFF4F80818823B9F0319680818823FD
:103B700099F036968081882379F03D966081718135
:103B8000828193819F772CEE31E548EB5EE30E94C2
:103B9000816E881F8827881F20918B1330918C138A
:103BA000A9014B7F22FFA8C1F0908713F110A4C197
:103BB0008091BD119091BE11892B09F411E0809183
:103BC000AB1301E0882321F0CE010E94EC1B082FEB
:103BD0008091E31089508230B0F4DD20A1F0CE0155
:103BE0000E94B018882379F08E81882361F08B8140
:103BF000882349F0112339F08F81882321F0FF2099
:103C000011F0011113C081E080938F1300E0802F29
:103C1000DF91CF911F910F91FF90EF90DF90BF90B8
:103C2000AF909F908F90089510E08CCF10920B1161
:103C30001092E8101092E71010921D118EE191E1A0
:103C40000E942D1010920C111092BE111092BD11F5
:103C5000E5E5F1E18AE1DF01982F1D929A95E9F7F8
:103C60007A96A1E1ED3BFA07B1F71092EB111092B1
:103C7000EC111092ED111092EE1181E08093EF1192
:103C80001092F0111092E91110928C1310928B1374
:103C900010928A13109290138093911310928D13A7
:103CA00010928E1310928F131092951310929613F8
:103CB00010929713109298131092991310929A13CE
:103CC00010929B1310929C1310929D1310929E13AE
:103CD00010929F130E94BE021092AB131092C11358
:103CE0001092C2131092C3131092C4131092C513F2
:103CF0001092C6131092C7131092C8131092C913D2
:103D00001092CA131092CB131092CC131092CD13B1
:103D10001092D3131092D4138AE192E10E942D10D5
:103D20001092511210925212109253121092541279
:103D30001092551210925612109257121092581259
:103D40001092591210925A1210925B1210925C1239
:103D500010925D1210925E1210925F121092601219
:103D600081E692E10E942D10109298121092991201
:103D700010929A1210929B1210929C1210929D1205
:103D800010929E1210929F121092E1121092E21263
:103D90001092E3121092E4121092E5121092E612C1
:103DA0001092E7121092E8121092E9121092EA12A1
:103DB0001092EB121092EC121092ED121092EE1281
:103DC0001092EF121092F0121092F1121092F21261
:103DD0001092F3121092F4121092F5121092F61241
:103DE0001092F7121092F81289EF92E10E942D10B2
:103DF00010923F13109240131092411310924213ED
:103E000010924313109244131092451310924613CC
:103E100010924713109248131092491310924A13AC
:103E200010924B1310924C1310924D1310925F137B
:103E30001092601310926113109262131092631328
:103E40001092641310926513109266131092671308
:103E5000109268131092691310926A1310926B13E8
:103E600010926C13109271131092721310927313BC
:103E7000109274131092751310929313E3EEF3E102
:103E80008DE1DF011D928A95E9F7E0E0F4E186E13A
:103E9000DF011D928A95E9F7E6E1F4E188E0DF01B0
:103EA0001D928A95E9F7EEE1F4E18FE1DF011D92C1
:103EB0008A95E9F7EDE3F4E18EE0DF011D928A9542
:103EC000E9F7EBE4F4E18AE0DF011D928A95E9F776
:103ED0001092A1141092A2141092A3141092A41480
:103EE0001092E3108091E6108450823008F08FCE5B
:103EF00083E08093E6108BCEF82E452B09F058CE48
:103F0000FF24F39455CECF93DF93EC01809185137A
:103F1000882359F1CE010E94EC1B882331F1809156
:103F20008713882311F1809180138823F1F0809109
:103F300081138823D1F0CE010E94B0028823A9F01A
:103F40008091E310811114C00E94D502882369F08A
:103F50009091A01391110CC091E09093A013109236
:103F60008E131092901390939113DF91CF91089537
:103F700080E0FBCF08950895CF93C82F0E94DB08FF
:103F8000982FEC2FF0E0EE5FF64F8081813009F43E
:103F9000911180E09083CF9108950F931F93CF9359
:103FA000DF93182F862F042FC22FD32FD7FF03C0E4
:103FB000D195C195D109CF3FD10519F014F0CFEFBC
:103FC000D0E03095632F661F6627661F0E940409A4
:103FD00061E0C11101C060E0802F0E940409BE01B0
:103FE0007727812FDF91CF911F910F910C946E094C
:103FF000FF920F931F93CF93DF93182FF62E042F6A
:10400000E90160E0842F0E94040970E060E0812FE4
:104010000E946E0970E060E08F2D0E946E0920976B
:1040200049F1CE010D2E000CAA0BBB0BB7FF07C048
:10403000B095A095909581959F4FAF4FBF4F8F3F03
:104040009105A105B10529F024F08FEF90E0A0E0E3
:10405000B0E0BC011C161D060CF01F2D812F0E9424
:104060006E0961E0802FDF91CF911F910F91FF903A
:104070000C940409DF91CF911F910F91FF90089547
:10408000CF92DF92EF92FF921F93CF93DF9300D0F6
:104090001F921F92CDB7DEB78091B50E9091B60EEC
:1040A00095FF0FC020E030E0A901609149107091A8
:1040B0004A1080914B1090914C100E94816E1816FE
:1040C000D4F019821A821B821C821D8229813A81B6
:1040D0004B815C816D8170E080E090E00F900F90EB
:1040E0000F900F900F90DF91CF911F91FF90EF9065
:1040F000DF90CF9008958AE30E94450ABC01990F92
:10410000880B990B0E94886E2091451030914610C3
:1041100040914710509148100E94D86F20E030E045
:10412000A9010E94E5711816CCF58AE30E94450AA0
:10413000BC01990F880B990B0E94886E2091451045
:104140003091461040914710509148100E94D86F0E
:104150002091491030914A1040914B1050914C10D1
:104160000E94E76E6B017C012DEC3CEC4CE45EE3BD
:104170000E94E57187FD0BC011E020E030E040E0D7
:1041800050E4C701B6010E94816E18160CF410E0CD
:10419000C982DA82EB82FC821D8398CF8AE30E9477
:1041A000450ABC01990F880B990B0E94886E2091DB
:1041B00045103091461040914710509148100E9490
:1041C000D86F9058C5CF2F923F924F925F926F92C7
:1041D0007F928F929F92AF92BF92CF92DF92EF9297
:1041E000FF920F931F93CF93DF9300D000D01F92C5
:1041F0001F92CDB7DEB79A838983DC011C91161319
:104200009CC011963C90B6E0B31508F496C0FC0132
:104210000281043008F091C02380F1E0F21508F427
:104220008CC098878F83DC011896CD90DD90ED903F
:10423000FC901B97C701B6010E94D10B892B09F492
:104240007CC0EF81F8854484558466847784C301FB
:10425000B2010E94D10B892B09F46FC0AF81B885E0
:1042600050968D909D90AD90BC905397C501B40130
:104270000E94D10B892B09F460C0A5019401C301F0
:10428000B2010E94E57118160CF457C0AF81B885D1
:1042900054962D913D914D915C91579729833A8386
:1042A0004B835C83FD015496BE83AD8365EC7DE951
:1042B0008CE191E8A1916A279B01AC0163E971E06F
:1042C00080E091E00E943C722D813E81E217F3076D
:1042D00089F729813A814B815C8126173707480786
:1042E000590759F5222059F10250023030F5EF817B
:1042F000F88584819581A681B781892B8A2B8B2BA8
:10430000E1F080E01E3028F4E12FF0E0E858FC4FA7
:104310008081381212C0A3019201C701B6010E9428
:10432000E57187FD0AC0F1E0F983A5019401C70199
:10433000B6010E94816E181624F4198202C021E091
:104340002983898128960FB6F894DEBF0FBECDBFB2
:10435000DF91CF911F910F91FF90EF90DF90CF9061
:10436000BF90AF909F908F907F906F905F904F9095
:104370003F902F900895CF93DF9398E1899FE001BC
:104380001124682FCE018954914F0E94E320882385
:1043900039F0C155D14F81E09B85911101C080E07A
:1043A000DF91CF910895EF92FF920F931F93CF93D8
:1043B000DF93D0E0C0E010E000E0EE24E394F12CC5
:1043C0008C2F0E94BB21882349F0C7010C2E02C00C
:1043D000880F991F0A94E2F7082B192B2196CE30EB
:1043E000D10571F7C801DF91CF911F910F91FF9017
:1043F000EF9008952F923F924F925F926F927F922B
:104400008F929F92AF92BF92CF92DF92EF92FF92E4
:104410000F931F93CF93DF93CDB7DEB76F970FB690
:10442000F894DEBF0FBECDBF9F8F8E8F142F6150CB
:1044300081E5882E83E0982E633040F4E62FF0E08B
:10444000EE0FFF1FE55BFC4F80809180D4012D9023
:104450003C90812F0E94BB21882369F1B8E11B9F0A
:10446000F0011124E155F14FC088D188E288F3882A
:1044700020E030E040E05FE3C701B6010E94D96F61
:104480000E9411711B016115710599F090E080E0A7
:104490000E94866E9B01AC01C701B6010E94D86FD5
:1044A0009F772AE037ED43E25CE30E94E57118163E
:1044B0002CF480E09BC12114310499F1F401428075
:1044C00053806480758020E030E0A901C301B2010F
:1044D0000E94816E18160CF0A2C1B10190E080E03C
:1044E0000E94866EA30192010E94E76E9B01AC01BF
:1044F00060EC71EE84E69CE40E945C700E94D370D4
:10450000122F032FF42EE52ED62EC72EB82EA92E4D
:1045100020E030E0A901C301B2010E94E571181644
:104520002CF0EE8DFF8D17A280E014C1D4011696F9
:104530002D913D914D915C91199729873A874B8731
:104540005C87A301920169857A858B859C850E9491
:10455000E571181634F7D4011A962D913D914D91BD
:104560005C911D972D873E874F87588BC301B20101
:104570000E94816E1816ACF22D853E854F855889B4
:1045800069857A858B859C850E94E57187FDC9CFF9
:10459000D4011E962D913D914D915C9151972D8B9B
:1045A0003E8B4F8B588F232B242B252B09F4B9CF0F
:1045B0005296BC91B98FB23008F4B3CFD401539660
:1045C0002D913D914D915C915697298B3A8B4B8B58
:1045D0005C8BBA01AB0160E070E0CB0129833A83C8
:1045E0004B835C836D837E838F839887212F302F4D
:1045F0004F2D5E2D6D2D7C2D8B2D9A2DA980BA808F
:10460000CB80DC80E12CF12C00E010E00E948A726B
:1046100008F087CF57966D917D918D919C915A9717
:1046200069837A838B839C83672B682B692B09F4BE
:1046300078CF5B962D913D914D915C915E972A8F3D
:104640003B8F4C8F5D8F232B242B252B09F469CFB7
:104650005F96CD90DD90ED90FC90929720E030E059
:10466000A901C701B6010E94E57118160CF059CFD7
:10467000F40183A094A0A5A0B6A020E030E0A90199
:10468000C501B4010E94E57118160CF04ACF20E074
:1046900030E040E85FE3C501B4010E94816E87FF0E
:1046A00040CF81E0AE8DBF8D97968C9397971196F2
:1046B0003C922E92FD01428253826482758229854A
:1046C0003A854B855C8516962D933D934D935C936F
:1046D00019972D853E854F8558891A962D933D93C0
:1046E0004D935C931D972D893E894F89588D1E9659
:1046F0002D933D934D935C935197E98D5296EC9396
:10470000529729893A894B895C8953962D933D9319
:104710004D935C93569729813A814B815C815796E2
:104720002D933D934D935C935A972A8D3B8D4C8DE1
:104730005D8D5B962D933D934D935C935E97FD014C
:10474000C78ED0A2E1A2F2A293968D929D92AD92D5
:10475000BC929697AE8DBF8D98961C92989799961D
:104760001C9299979A961C929A979B961C929B974B
:10477000FD0114A615A616A617A6D0961D921D9289
:104780001D921C92D39714AA15AA16AA17AAD896F6
:104790001D921D921D921C92DB9714AE15AE16AEA3
:1047A00017AEE05CFF4F10823196108211821282A8
:1047B00013823496108211821282138234961082F0
:1047C0001182128213823496108211821282138215
:1047D000349610821182128213829D012B5A3F4F10
:1047E000D9011D921D921D921C9213976F960FB6C0
:1047F000F894DEBF0FBECDBFDF91CF911F910F9117
:10480000FF90EF90DF90CF90BF90AF909F908F90F0
:104810007F906F905F904F903F902F90089510E0A1
:1048200000E0F12CE12CD12CC12CB12CA12C70CEAC
:1048300040E060E083E59AE00E94FA218823B1F02D
:1048400042E061E081EA99E00E94FA21882371F058
:1048500043E062E08AEF99E00E94FA21882331F078
:1048600045E063E088E499E00C94FA2180E0089543
:104870008F929F92AF92BF92CF92DF92EF92FF9270
:104880000F931F93CF938091AF0E9091B00EA09194
:10489000B10EB091B20E81339D44A744B74409F0E4
:1048A0004CC08091B30E9091B40E049709F045C0AE
:1048B0000091B50E1091B60E0E94D321081719076A
:1048C000E1F5C090DF10D090E010E090E110F090A2
:1048D000E210EFEAFEE065EC7DE98CE191E82191E0
:1048E0004B018226AC01940163E971E080E091E024
:1048F0000E943C7220E1EF3DF20789F7C616D70609
:10490000E806F906D1F407EB1EE0C0E06C2FC80101
:104910000E94E320882329F0CF5F085E1F4FCE302E
:10492000A9F7CF911F910F91FF90EF90DF90CF905B
:10493000BF90AF909F908F90089580E0F2CFFC01E0
:1049400082E598EBAEE5BFE382A393A3A4A3B5A34E
:1049500080E090E0A0E0BFE386A397A3A0A7B1A763
:1049600080E090E0A0EFB1E482A793A7A4A7B5A749
:1049700080E090E0A0E8B0E486A797A7A0ABB1AB39
:1049800080E090E0A0E8BFE382AB93ABA4ABB5AB13
:104990004CE45DE160E070E046AB57AB60AF71AFF7
:1049A00020EB34E033AF22AF84AF95AFA6AFB7AF03
:1049B00008958F929F92AF92BF92CF92DF92EF9223
:1049C000FF92CF93DF93EC0188809980AA80BB800F
:1049D000C501B4010E94D10B892B09F498C0CC8089
:1049E000DD80EE80FF80C701B6010E94D10B892BCC
:1049F00009F48DC020E030E040E85FE3C501B40178
:104A00000E94E57118160CF082C020E030E0A90188
:104A1000C701B6010E94E57118160CF078C08885B0
:104A20009985892B09F473C08E859F85AC0170E050
:104A300060E0CA84DB84EC84FD844C155D056E0562
:104A40007F0508F064C0892B09F461C081E0809380
:104A50005E1380E1FE01AEE4B3E101900D928A9510
:104A6000E1F7288139814A815B816C817D818E816A
:104A70009F810E94E76E0E9445700E94117161152E
:104A800071058105910509F446C060936D1370931B
:104A90006E1380936F139093701381E010925F13E5
:104AA00010926013109261131092621310926313AC
:104AB000109264131092651310926613109267138C
:104AC000109268131092691310926A1310926B136C
:104AD00010926C1310927113109272131092731340
:104AE0001092741310927513811106C095E0909383
:104AF0005F1391E090936013DF91CF91FF90EF905F
:104B0000DF90CF90BF90AF909F908F9008951092BC
:104B10005E1380E0C3CF81E090E0A0E0B0E080933E
:104B20006D1390936E13A0936F13B0937013B6CF61
:104B30004F925F926F927F92BF92CF92DF92EF92ED
:104B4000FF920F931F93CF93DF93CDB7DEB7A2975A
:104B50000FB6F894DEBF0FBECDBF0E943824B82E2A
:104B60008E010F5F1F4F84E1F82EF8018F2D1192F7
:104B70008A95E9F7C801B11022C00E94831AF80192
:104B8000A6E7B3E101900D92FA94E1F70E94F203D7
:104B90000E94BB048B2DA2960FB6F894DEBF0FBE09
:104BA000CDBFDF91CF911F910F91FF90EF90DF90DC
:104BB000CF90BF907F906F905F904F9008950E942C
:104BC000831AF801A6E7B3E101900D92FA94E1F798
:104BD00081E00E94BB21882321F08CE190E10E94BA
:104BE000111888E00E94BB21882321F087E090E122
:104BF0000E94680489E00E94BB218823C9F140908B
:104C00004110509042106090431070904410C0903A
:104C10003D10D0903E10E0903F10F090401020E00A
:104C200030E0A901C701B6010E94E57187FD1BC0F4
:104C300020E030EC4FE754E4C701B6010E94816EDA
:104C400018168CF0C301B2010E94D10B892B59F0C8
:104C5000FF24F39420E030E0A901C301B2010E94D7
:104C6000E57118160CF0F12CF0927F130E94F203FC
:104C70008DE00E94BB218823C9F1409049105090DB
:104C80004A1060904B1070904C10C0904510D0901E
:104C90004610E0904710F090481020E030E0A90165
:104CA000C701B6010E94E57187FD1BC020E030EC12
:104CB0004FE754E4C701B6010E94816E18168CF0CC
:104CC000C301B2010E94D10B892B59F0FF24F39448
:104CD00020E030E0A901C301B2010E94E57118167D
:104CE0000CF0F12CF09283130E94F20384E00E94F6
:104CF000BB21811105C083E00E94BB218823A9F05C
:104D00008DE490E10E94F516F82E80E0FF2019F066
:104D100084E00E94BB2180937A1380E0FF2019F089
:104D200083E00E94BB218093791386E00E94BB211F
:104D3000882331F085E790E10E949A1580937C13D7
:104D400080E00E94BB214091BF0E5091C00E609147
:104D5000C10E7091C20E282F80E00E94DC0B82E011
:104D60000E94BB214091EF0E5091F00E6091F10E28
:104D70007091F20E282F82E00E94DC0B85E00E94E9
:104D8000BB214091370F5091380F6091390F7091CE
:104D90003A0F282F85E00E94DC0B8AE00E94BB219D
:104DA0004091AF0F5091B00F6091B10F7091B20F61
:104DB000282F8AE00E94DC0B8BE00E94BB214091EF
:104DC000C70F5091C80F6091C90F7091CA0F282F5B
:104DD0008BE00E94DC0B87E00E94BB21882309F452
:104DE00053C08091670F9091680FA091690FB091A7
:104DF0006A0F40E050E068E872E44D8B5E8B6F8B89
:104E0000788F4DEC5CEC6CEE7FE3498F5A8F6B8FA3
:104E10007C8F20EB34E03AA329A38D8F9E8FAF8F38
:104E2000B8A340E050E060E070E44D835E836F83A0
:104E3000788722E030E03A87298748E95AE360E042
:104E400070E04B875C876D877E8728EE33E0388B78
:104E50002F8789839A83AB83BC83CE0145960E94BA
:104E60000A04882319F0C8010E94D92480937D1375
:104E700010924D1310924713109248131092491339
:104E800010924A1310924B138CE00E94BB2188238E
:104E900029F1C090DF0FD090E00FE090E10FF0908B
:104EA000E20FC701B6010E94D10B892BA1F020E0CF
:104EB00030E0A901C701B6010E94E57118165CF443
:104EC00011E02DEC3CEC4CEC5DE3C701B6010E9417
:104ED000816E18160CF410E0109382130E94F203F6
:104EE00059CEFC0101900020E9F73197AF01481B32
:104EF000590BBC0188E09EE00C94820ACF93DF93AB
:104F00000E94650BEC018BEF94E00E9471278C0FDF
:104F10009D1FDF91CF9108958F929F92AF92BF9284
:104F20000F931F93CF93DF93CDB7DEB7A1970FB643
:104F3000F894DEBF0FBECDBF19A2423008F44AE09C
:104F40008E010F5D1F4F842E912CB12CA12CA50139
:104F500094010E946072E62FB901CA01EA30F4F4AC
:104F6000E05DD801EE938D01232B242B252B79F7BF
:104F700090E080E0109719F0CD010E947127A19672
:104F80000FB6F894DEBF0FBECDBFDF91CF911F915A
:104F90000F91BF90AF909F908F900895E95CE1CF03
:104FA000CF92DF92EF92FF92CF93DF936B017C0160
:104FB0006DE288E09EE00E94180BEC0166277727DF
:104FC000CB016C197D098E099F094AE00E948C274C
:104FD0008C0F9D1FDF91CF91FF90EF90DF90CF90CE
:104FE00008954F925F926F927F928F929F92AF92AD
:104FF000BF92CF92DF92EF92FF92CF936B017C0131
:10500000842EAC019B010E943072882389F08EEFC0
:1050100094E0CF91FF90EF90DF90CF90BF90AF9052
:105020009F908F907F906F905F904F900C9471271E
:1050300026013701E89477F82FEF3FEF4FE75FE75E
:10504000C301B2010E94307281110DC02FEF3FEFFA
:105050004FE75FE7C301B2010E94816E18161CF48E
:1050600082E095E0D6CF2FEF3FEF4FE75FE4C70137
:10507000B6010E94E57118161CF486E095E0C9CFD0
:105080002FEF3FEF4FE75FECC701B6010E94816E43
:1050900087FDF3CF20E030E0A901C701B6010E94EF
:1050A000816EB12CA12C87FF0AC06DE288E09EE0E2
:1050B0000E94180B5C01F7FAF094F7F8F094C82DF1
:1050C00060E070E080E09FE3912C20E030E040E27F
:1050D00051E40E945C7093949814B8F3A701960170
:1050E0000E94D96F2B013C010E9411716B017C0160
:1050F0000E94866E9B01AC01C301B2010E94D86F71
:105100002B013C014AE0C701B6010E948C277C01BB
:105110006EE288E09EE00E94180BE80EF91EEA0C91
:10512000FB1CC15018F120E030E040E251E4C30123
:10513000B2010E94E76E2B013C010E9411714B01EC
:10514000B12CA12C4AE0C501B4010E948C27E80EC5
:10515000F91EC501B4010E94866E9B01AC01C3011A
:10516000B2010E94D86F2B013C01DBCFC701CF9168
:10517000FF90EF90DF90CF90BF90AF909F908F9077
:105180007F906F905F904F9008954F925F926F92D3
:105190007F928F929F92AF92BF92DF92EF92FF9297
:1051A0000F931F93CF93DF937C0148015901453042
:1051B000E8F0FC011082118212821382148281E0D5
:1051C000858386829782A086B186C701DF91CF91C1
:1051D0001F910F91FF90EF90DF90BF90AF909F9045
:1051E0008F907F906F905F904F900895E42FF0E044
:1051F000EB50FC4F008160E0802F0E94040983E0A7
:1052000090E00197F1F710E1D0E0C0E061E084E3C5
:105210000E940409CC0FDD1F82E30E94DB0861E0DD
:1052200070E0892B11F470E060E0C62BD72B60E0B2
:1052300084E30E940409115049F761E0802F0E9425
:105240000409DD24D3948E0104701127C2FFD12CF0
:1052500083E0D695C7958A95E1F7DF70BE0190E0AF
:1052600080E00E94866E20E030E040E85EE30E942D
:10527000E76E2B013C01F70140825182628273820A
:10528000012B99F420E030E040EA51EC0E94E571F6
:1052900087FD0BC0C1E020E030E046E953E4C301E4
:1052A000B2010E94816E18160CF4C0E0F701C483AD
:1052B000D58287CF8F929F92AF92BF92CF92DF928B
:1052C000EF92FF920F931F93CF93DF930091A01261
:1052D0001091A112D091A212C091A312C090AC1251
:1052E000D090AD12E090AE12F090AF128090A41268
:1052F0009090A512A090A612B090A7122091E5124E
:105300003091E6124091E7125091E812C701B601C0
:105310000E94E76EA70196010E94E76E6B017C0177
:1053200020E030E040E850E46091C2127091C31276
:105330008091C4129091C5120E94E76E2091A8122C
:105340003091A9124091AA125091AB120E94E76EBF
:105350009B01AC01C701B6010E945C706B017C012E
:1053600098014D2F5C2FB8018D2F9C2F0E94E76E66
:105370009B01AC01C701B6010E94D96F0E94F07178
:105380006B017C019B01AC01B8018D2F9C2F0E9409
:10539000E571181674F09601A701B401C5010E94C9
:1053A000816E8601DE2DCF2D87FF03C08401DA2DAB
:1053B000CB2DB8018D2F9C2FDF91CF911F910F9195
:1053C000FF90EF90DF90CF90BF90AF909F908F9025
:1053D00008952F923F924F925F926F927F928F9299
:1053E0009F92AF92BF92CF92DF92EF92FF920F9374
:1053F0001F93CF93DF93CDB7DEB7CC52D1400FB61A
:10540000F894DEBF0FBECDBFC15EDE4F99838883A7
:10541000CF51D1401B0129013A01FB01E95AFF4F4D
:105420000081002311F03A970081F101EE5AFF4FFD
:1054300080809180A280B38034961081112311F076
:1054400039971081F101E25BFF4FC080D180E2808B
:10545000F3802091E213C651DF4F2883CA5ED0400B
:10546000112359F011E020E030E046E953E4C70190
:10547000B6010E94E57187FD10E0002311F40C9441
:10548000A34820E030E046E953E4C501B4010E949E
:10549000E57187FF02C00C94A348C651DF4F3881E5
:1054A000CA5ED040363608F458C0111155C081E0AC
:1054B000409198125091991260919A1270919B129A
:1054C000452B462B472B89F4411451046104710488
:1054D000F1F1442D352D262D972D409398123093C0
:1054E000991220939A1290939B1210929C121092F0
:1054F0009D1210929E1210929F12409198125091FC
:10550000991260919A1270919B1241155105610593
:10551000710509F482C073016201C41AD50AE60A52
:10552000F70AB701A601C651DF4F2881CA5ED040F5
:10553000263608F476C0811108C091E04C3D35E074
:1055400053076105710508F471C090E06FC041E038
:1055500030E020E090E0C1CF012F1092981210921D
:10556000991210929A1210929B12C651DF4F4881E5
:10557000CA5ED0404636A0F420E030E046E953E46D
:10558000C701B6010E94E57187FF0CC020E030E042
:1055900046E953E4C501B4010E94E57187FF02C0EA
:1055A00080E0A3CF80919C1290919D12A0919E12B9
:1055B000B0919F12892B8A2B8B2B89F441145104B3
:1055C0006104710419F1342D252D962D872D30930A
:1055D0009C1220939D1290939E1280939F12809113
:1055E0009C1290919D12A0919E12B0919F127301F6
:1055F0006201C81AD90AEA0AFB0AD701C6018C3D22
:105600009540A105B10538F480E077CF31E020E086
:1056100090E080E0DCCF84E070CF40E050E0BA0161
:1056200082CF82FB992790F921E09227909316145C
:1056300010931714009318148093191440931A149C
:1056400050931B1460931C1470931D14809183134A
:10565000882371F080918013882351F08091811309
:10566000882331F0F101E35BFF4F80818111892FA5
:10567000809394138091E410882309F463C11091FE
:10568000E31048E0149FF0011124EF56FB4F918185
:10569000992309F457C1D10117969C91992309F4D4
:1056A00051C1EEE5F4E0823011F0EBE2F4E0C08CA1
:1056B000D18CE28CF38CC651DF4FC882D982EA824A
:1056C000FB82CA5ED0408091E610853021F520E053
:1056D00030E040E85EE3C701B6010E94E76EC651C4
:1056E000DF4F688379838A839B83CA5ED04020E042
:1056F00030E040E85FE30E94816E87FF0CC020E04D
:1057000030E040E85FE3C651DF4F288339834A83A6
:105710005B83CA5ED04080918A138130E9F5809125
:10572000AC139091AD13A091AE13B091AF13730170
:105730006201C81AD90AEA0AFB0AC701B60120E0C9
:1057400030E0A901603107E270078105910590F40E
:105750000E94866E20E030E44CE156E40E945C70CA
:105760009B01AC0160E070E080E89FE30E94D86F8D
:105770009B01AC01C651DF4F688179818A819B8191
:10578000CA5ED0400E94E76EC651DF4F68837983BE
:105790008A839B83CA5ED040143061F48091D31316
:1057A000882309F4CFC0F101E759FF4F8081882396
:1057B00009F4C8C0F101E45BFF4FC080CC2011F0B8
:1057C0007F96C080F101E85BFF4F208131814281EB
:1057D0005381CA51DF4F288339834A835B83C65E76
:1057E000D0408091551290915612A0915712B091CD
:1057F0005812812C912C54010097A105B10531F06C
:1058000053014201881A990AAA0ABB0A409255120A
:10581000509256126092571270925812CC2009F48E
:1058200047C0411451046104710409F494C0342D3B
:10583000252D962D872D30935D1220935E12909327
:105840005F128093601220E030E0A901CA51DF4F5F
:10585000688179818A819B81C65ED0400E94E57112
:10586000181634F5C501B4010E94866ECA51DF4F87
:10587000288139814A815B81C65ED0400E94E76EF3
:1058800020E030E64AE657E40E945C702091511215
:105890003091521240915312509154120E94D96F7C
:1058A000609351127093521280935312909354123A
:1058B000AA24A39420E030E040E85FE3C651DF4F24
:1058C000688179818A819B81CA5ED0400E94E5719E
:1058D00087FDA12C80915D1290915E12A0915F12C4
:1058E000B09160120097A105B10579F0B301A20152
:1058F000481B590B6A0B7B0BDB01CA01893E9340A5
:10590000A105B10510F40C94A84D20E030E040E86A
:105910005FE3C651DF4F688179818A819B81CA5ECE
:10592000D0400E94E571D12C87FD02C00C94DC4D63
:105930001092591210925A1210925B1210925C122D
:105940000C94FB4DC651DF4F188219821A821B82BC
:10595000CA5ED0402FCF31E020E090E080E06BCFF6
:1059600031E020E090E080E00C94F34DC251DF4F35
:10597000188219821A821B82CE5ED0400C94174E78
:10598000C1010E94B00281110CC08091A013882334
:1059900019F081E08093AB130E94BE0289E08093EE
:1059A000E310F101E859FF4F8081811113C080910C
:1059B0005F138350823070F40E94BB048091E31027
:1059C0008B7F833039F4A3019201B10180E091E033
:1059D0000E942A1AC090E310CA51DF4FC882C65EE7
:1059E000D0408C2D8D7FC85EDE4FD880C851D1400D
:1059F000882331F0DD24D3940C2D073009F0D12C0D
:105A000010915F13BDEFCB2EC10EC251DF4FC88284
:105A1000CE5ED040009193130023B9F000917D1326
:105A2000002399F0F101EB59FF4F0081002369F049
:105A3000C1010E94B002082F882339F0DD2021F037
:105A400001E08091A013811100E080915E1381112B
:105A50000BC021E0C251DF4F0881CE5ED040023042
:105A600008F4BBC220E0B9C2C251DF4F2881CE5E2C
:105A7000D040233070F301110EC040917213509149
:105A800073136091741370917513E091601320E0AB
:105A900080E090E037C0F101E959FF4F90813197E4
:105AA0008081882311F40C947448992311F40C9488
:105AB000174885E080935F1382E0809360134091E4
:105AC0007213509173136091741370917513E2E027
:105AD00015E0DDCF409172135091731360917413F0
